:020000040800F2
:100000002824002039020008750F00082F0E000870
:10001000710F0008750B00084F1A0008000000005F
:10002000000000000000000000000000F1130008C4
:10003000D10B0008000000003D1300080515000862
:10004000611A000853020008530200085302000816
:100050005302000853020008D30B000853020008A3
:10006000DD0B0008E70B0008F10B00085302000845
:10007000530200085302000853020008530200080C
:1000800053020008530200085302000853020008FC
:1000900053020008530200085302000853020008EC
:1000A00053020008530200085302000853020008DC
:1000B00069150008B915000853020008530200082A
:1000C00053020008530200085302000853020008BC
:1000D000530200086919000853020008530200087F
:1000E000530200085302000853020008530200089C
:1000F000530200085302000853020008530200088C
:10010000530200085302000853020008530200087B
:10011000530200085302000853020008530200086B
:10012000530200085302000853020008530200085B
:1001300000F002F800F070F80AA090E8000C824489
:100140008344AAF10107DA4501D100F065F8AFF266
:10015000090EBAE80F0013F0010F18BFFB1A43F0A5
:1001600001031847648400008484000010F8013BF8
:100170000A4413F0030408BF10F8014B1D1108BF17
:1001800010F8015B641E05D010F8016B641E01F8C5
:10019000016BF9D1002D15D010F8014B03F00C03C1
:1001A0000C2BA1EB04040ABF10F8013BA4EB831451
:1001B000A4EB032405F1010314F8016B5B1E01F8A5
:1001C000016BF9D5914238BF10F8013BD1D370478C
:1001D0000023002400250026103A28BF78C1FBD850
:1001E000520728BF30C148BF0B607047642900F038
:1001F0001181752900F00E81632900F08083732935
:1002000000F08583002070471FB59DE8030000F0D3
:10021000B5FA1FBD10B510BD00F0A7FB1146FFF7E2
:10022000F3FF04F0C1F900F0C5FB03B4FFF7F2FFE0
:1002300003BC02F002F80000094880470948004763
:10024000FEE7FEE7FEE7FEE7FEE7FEE7FEE7FEE786
:10025000FEE7FEE704480549054A064B70470000E3
:100260000915000831010008281E0020282400205C
:100270002820002028200020704770B5064600F096
:1002800061FA056806F10B0020F00704B4429CBF38
:10029000002070BD2B466A68BAB11068A04210D326
:1002A00004F1080188423CBF5068586007D3516888
:1002B000101941601168091B016058601460101D1D
:1002C00070BD13465268002AE7D12146284600F047
:1002D00041FA0028DED170BD70B50446051F00F05C
:1002E00031FA0068002C14BF446870BD002C18BFA0
:1002F000AC423CBF20466468F8D301680A18AA42A1
:1003000018BF456003D12A6805461144016028687A
:100310004119A1421CBF6C6070BD616869602168B1
:100320000844286070BD00000FB41CB5074B06AA36
:100330007B4469460090059800F0BFFA00206946AA
:1003400000F0CEFA1CBC5DF814FB0000AD05000007
:1003500070B5044685690068C10601D5302600E005
:100360002026C00707D070BDD4E901213046904750
:10037000206A401C20626D1EF6D570BD70B5044623
:1003800085690078C00707D170BDD4E9012120201C
:100390009047206A401C20626D1EF6D570BD09682A
:1003A0004A0501D540B27047C905FCD500B2704777
:1003B00009684A0501D5C0B27047C905FCD580B2AD
:1003C000704770B50C460546012A05D0287880068E
:1003D00000D5EA69002302E0012305E05B1C93429B
:1003E00002D2E05C0028F9D1A869E618C01AA86119
:1003F000286A184428622846FFF7AAFF04E0D5E9D6
:10040000012114F8010B9047B442F8D32846FFF7B6
:10041000B5FF70BD2DE9F04106460024106875292E
:10042000314616A510D0FFF7BAFF002802DA404285
:1004300013A507E031688A0701D512A502E0490734
:1004400004D511A5012401E0FFF7B2FF00210A2223
:1004500006F1240709E0B0FBF2FCB0FBF2F302FB6B
:100460001C00303078541846491C0028F3D123462C
:100470002A463046BDE8F04100F0C1B90000000056
:100480002D0000002B000000200000002DE9F05F8F
:10049000894604464FF0000ADFF874B1FB44C0F807
:1004A00020A02046E1688847002874D0252806D07F
:1004B000D4E901219047206A401C2062F1E7002620
:1004C0005F462046E16888472028054607DB312D36
:1004D00005D2781910F8200C08B10643F1E7B007EF
:1004E00001D526F00406C4F81CA00027C4F818A003
:1004F0002A2D09D0284601F099FE38B304EB87086D
:10050000303DC8F8185019E059F8041B204604EB98
:1005100087029161E1688847012F054618D1E0699B
:10052000002820DA26F020061DE0D8F8180000EB9D
:10053000800005EB40003038C8F818002046E1681C
:100540008847054601F072FE0028EED1012F0AD03F
:100550002E2D08D12046E16888477F1C0546022FD2
:1005600046F02006C4DBA069002803DA404246F0CA
:100570000106A061F00701D026F010066C2D0BD00B
:10058000682D09D04C2D39D06A2D35D0742D35D039
:100590007A2D33D016E038E0E1682F4620468847B0
:1005A000B842054609D16C2F26D04FF48060E1682F
:1005B000064320468847054604E06C2F1AD04FF4C6
:1005C000807006430DB3A5F14100192802D82035EB
:1005D00046F400664A462946204626604E46FFF706
:1005E00005FE80B101280BD0F61D26F0070000F1B2
:1005F000080956E74020E4E78020D8E70020D6E746
:1006000006F104094DE7284652E7206ABDE8F09F4D
:10061000F07F000040EA0103024630B59B0710D18D
:100620004FF0013400E008C208C91D1B9D4315EAC4
:10063000C41FF8D013F0FF0102F8011B0DD01B0AF4
:10064000F8E711F8013B002B02F8013B05D011F847
:10065000013B002B02F8013BF3D130BD10B5431C28
:1006600002E010F8011B71B18107FAD14FF001329D
:1006700002C88C1A8C4314EAC211F9D0C01A0A06B7
:1006800003D0C01E10BDC01A10BD0A0401D0801EC8
:1006900010BD0902FCD0401E10BD02F0FF0343EA6A
:1006A000032242EA024200F002B84FF0000204299D
:1006B000C0F0128010F0030C00F01B80CCF1040C91
:1006C000BCF1020F18BF00F8012BA8BF20F8022BC5
:1006D000A1EB0C0100F00DB85FEAC17C24BF00F86B
:1006E000012B00F8012B48BF00F8012B70474FF099
:1006F000000200B5134694469646203922BFA0E872
:100700000C50A0E80C50B1F12001BFF4F7AF09077D
:1007100028BFA0E80C5048BF0CC05DF804EB89006E
:1007200028BF40F8042B08BF704748BF20F8022BB1
:1007300011F0804F18BF00F8012B704770477047C9
:100740007047704700487047CC1D002070477047C5
:100750007047704738B504460A4600206946AFF333
:100760000080002808BF38BD02460099204600F0EE
:10077000DBF8012038BD012000F0F0B8F8B5AFF388
:100780000080054600200C46102000BF0646A81930
:10079000A0420DD9324669460020AFF30080070021
:1007A00008BF00F0DBF80098A04218BF0546C41946
:1007B000FFF7C8FF05600746F01D20F00700461947
:1007C000284600F00AF8B44208BFF8BDA21B314623
:1007D0003868BDE8F84000F0A7B800210160C0E922
:1007E000011070471020704710B500F099F80068AC
:1007F00010BD10B5044600F093F8046010BD2DE95B
:10080000F0470D4699469246044600F124080168D7
:10081000880604D5E06921F01001216000E0012084
:10082000A84201DD471B00E00027A1697A1902EB0D
:100830000900081AA0612078C00602D42046FFF7FC
:1008400087FD002608E0D4E901211AF80600904748
:10085000206A401C761C20624E45F4DB2078C006DE
:100860000AD52046FFF774FD06E0D4E901213020C7
:100870009047206A401C2062381EA7F10107F4DC73
:1008800007E0D4E9012118F805009047206A401CD0
:100890002062281EA5F10105F3DC2046FFF76EFD5E
:1008A0002078000602D50220BDE8F0870120FBE792
:1008B00001694A1C02610878704700B58FB0CDE924
:1008C00001310021059105497944CDE90310114614
:1008D0006846FFF7DBFD0FB000BD0000E5FFFFFF3E
:1008E0000A6802F8010B0A60704710B5436913B13A
:1008F000AFF3008001E0FFF764FD012010BD127826
:1009000000F124010A7000224A700122EDE711680B
:100910004FF0FF32E9E7000000487047C41D002097
:1009200000487047C41D0020034640688C460028DC
:1009300018BF88423CBF03464068F8D31868184483
:10094000884207D00CF1030020F00700001D411A77
:10095000521A0146081D0A60FFF7BEBC10B500F030
:1009600037F8BDE8104000F02EB87546FFF7D4FF09
:10097000AE4605006946534620F00700854618B08C
:1009800020B5FFF767FCBDE820404FF000064FF0B0
:1009900000074FF000084FF0000B21F00701AC46B4
:1009A000ACE8C009ACE8C009ACE8C009ACE8C009D3
:1009B0008D46704710B50446AFF300802046BDE871
:1009C0001040FFF732BC002801D001F036BC704760
:1009D00010B5012805D0002103A000F021F8012066
:1009E00010BD09A1F8E7000053494752544D454D49
:1009F0003A204F7574206F662068656170206D65C0
:100A00006D6F7279000000003A2048656170206DBA
:100A1000656D6F727920636F7272757074656400B2
:100A200070B505460C460A2000E06D1C01F009FC7B
:100A300035B128780028F8D102E0641C01F001FCEF
:100A400014B120780028F8D1BDE870400A2001F0E8
:100A5000F8BB0146C86C80B270470246002013689C
:100A60000B400BB1012000E000207047F0B50446B8
:100A70000D4600200021092D11DDE068A5F10A06D0
:100A800006EB4607072606FA07F18843A5F10A0692
:100A900006EB460603FA06F10843E0600CE0206925
:100AA00005EB4507072606FA07F1884305EB4506DF
:100AB00003FA06F108432061072A0FDA606B561E1D
:100AC00006EB86071F2606FA07F18843561E06EB3B
:100AD000860605FA06F10843606322E00D2A0FDA64
:100AE000206BD61F06EB86071F2606FA07F1884300
:100AF000D61F06EB860605FA06F10843206310E0D0
:100B0000E06AA2F10D0606EB86071F2606FA07F13A
:100B10008843A2F10D0606EB860605FA06F10843A6
:100B2000E062F0BD21B1826842F4A002826003E07D
:100B3000826822F4A00282607047000008B5014676
:100B4000002000900348009000980844009000980E
:100B5000008808BD006C004008B500220092044ADD
:100B60000092009A02440092009A116008BD0000B1
:100B7000006C004000BFFEE770B503F0B9FEC5B2DF
:100B800001F01CFF044610480078281AC0B2C8289B
:100B900017DB0D48418805704480081DA04203DA28
:100BA00001200A4A107070BD04F10A00814203DD81
:100BB0000020064A1070F6E7A14201DA0120F2E7B0
:100BC00000BF0020EFE70000461200204412002082
:100BD000704710B5012000F011F810BD10B50420C9
:100BE00000F00CF810BD10B5082000F007F810BD9B
:100BF00010B5102000F002F810BD00000149086097
:100C000070470000140401402DE9F0410246002520
:100C10000026002000230024002791F803C00CF0D8
:100C20000F0591F803C00CF0100CBCF1000F03D0BD
:100C300091F802C04CEA050591F800C0BCF1000F24
:100C400031D0146800202BE04FF0010C0CFA00F3B7
:100C5000B1F800C00CEA03069E4220D183004FF099
:100C60000F0C0CFA03F7BC4305FA03FC4CEA04042E
:100C700091F803C0BCF1280F06D14FF0010C0CFA1B
:100C800000FCC2F814C00AE091F803C0BCF1480FA0
:100C900005D14FF0010C0CFA00FCC2F810C0401C4A
:100CA0000828D1D31460B1F800C0BCF1FF0F34DDC7
:100CB000546800202EE000F1080C4FF0010808FAFB
:100CC0000CF3B1F800C00CEA03069E4221D1830068
:100CD0004FF00F0C0CFA03F7BC4305FA03FC4CEA87
:100CE000040491F803C0BCF1280F05D100F1080CF1
:100CF00008FA0CF8C2F8148091F803C0BCF1480F50
:100D000007D100F1080C4FF0010808FA0CF8C2F8FE
:100D10001080401C0828CED35460BDE8F08100004C
:100D2000F0B50A46002300240021002500F000460B
:100D3000B6F1004F02D11D4EF16901E01B4E716802
:100D4000C0F3034583B200F44016B6F5401F08D146
:100D500021F07061154E766826F07066134F7E6044
:100D600012E000F48016B6F5801F06D1032606FABD
:100D700005F4A14341F0706106E0460D360103FA27
:100D800006F6B14341F0706122B1460D360103FA17
:100D900006F6314300F00046B6F1004F02D1034E93
:100DA000F16101E0014E7160F0BD00000000014002
:100DB0000246002093680B400BB1012000E00020A8
:100DC00070474161704701617047000010B50446EB
:100DD0000023012221460948FFF748FE0121074868
:100DE000FFF7A0FE00BF02210448FFF736FE0028EF
:100DF000F9D00248FFF72DFE10BD0000002401408D
:100E00002DE9F04107460C460025002608E038464B
:100E1000FFF7DCFF0544012002F048F8701CC6B261
:100E2000A642F4DBB5FBF4F080B2BDE8F08100BF70
:100E3000FEE7000008B58020ADF8000048208DF8DE
:100E4000030069460148FFF7DFFE08BD000C0140C2
:100E500008B58020ADF8000003208DF802001020B6
:100E60008DF8030069460248FFF7CEFE08BD00007A
:100E7000000C014010B5FFF7EBFF01200A490860A4
:100E80000A49C1F89801042002F010F80020064930
:100E90000860042002F00AF800200449C1F8980113
:100EA000042002F003F810BD9C8121420080214201
:100EB00010B5FFF7CDFF002009490860042001F0BC
:100EC000F5FF01200749C1F89801042001F0EEFF69
:100ED000012003490860042001F0E8FF10BD000074
:100EE0009C8121420080214270B504460025FFF715
:100EF000AFFF00261BE004F0800018B101201A4962
:100F0000086002E0002018490860042001F0CEFFCC
:100F100001201549091F0860042001F0C7FF0020C7
:100F20001249C1F898016006040E701CC6B2082E62
:100F3000E1DB01200C490860FFF77CFF042001F091
:100F4000B5FF01200949C1F89801042001F0AEFF66
:100F50000548803800682843C5B200200349C1F81D
:100F60009801284670BD00009C81214200802142EA
:100F700000BFFEE77047000070B5002100230F227C
:100F8000C47804B3154C246804F4E064C4F5E06448
:100F9000210AC1F10403CA40447804FA03F18478B9
:100FA0001440214309010E4C0678A155047804F041
:100FB0001F050124AC4005786D11AD0005F1E02559
:100FC000C5F8004109E0047804F01F050124AC4095
:100FD000044D0678761145F8264070BD0CED00E012
:100FE00000E400E080E100E002490143024A1160B0
:100FF000704700000000FA050CED00E010B54FF45A
:1010000080610348FFF751FB00F0CAF810BD0000F3
:10101000F918002010B504461CB90021A62000F0E4
:10102000C3F8012C03D10021A72000F0BDF8002156
:10103000AF2000F0B9F810BD10B504463CB900214E
:10104000C82000F0B1F80021A12000F0ADF8012C7B
:1010500007D10021C02000F0A7F80021A02000F057
:10106000A3F810BD08B50121052000F089F9012180
:101070004948FFF755FEF020ADF8000010208DF82C
:10108000030003208DF8020069464448FFF7BCFDC9
:101090004FF4C5514148FFF796FE40213F48FFF706
:1010A00090FEC82001F0DCFE40213C48FFF78BFE9B
:1010B0000021AE2000F078F80021084600F074F816
:1010C0000021102000F070F80021402000F06CF8A2
:1010D0000021812000F068F80021CF2000F064F8A2
:1010E0000021A12000F060F80021C82000F05CF889
:1010F0000021A62000F058F80021A82000F054F8A4
:1011000000213F2000F050F80021D32000F04CF8DF
:101110000021084600F048F80021D52000F044F8EE
:101120000021802000F040F80021D92000F03CF898
:101130000021F12000F038F80021DA2000F034F826
:101140000021122000F030F80021DB2000F02CF804
:101150000021402000F028F80021202000F024F891
:101160000021022000F020F800218D2000F01CF862
:101170000021142000F018F80021A42000F014F839
:101180000021A62000F010F8FFF738FF0021AF2063
:1011900000F00AF808BD000000023000000801401D
:1011A00010B503F02FFC10BD70B504460E4626B1F5
:1011B00010211448FFF707FE03E010211148FFF744
:1011C00000FE002517E020210E48FFF7FAFD04F08D
:1011D000800020B180210B48FFF7F5FD03E080215E
:1011E0000848FFF7EEFD20210648FFF7ECFD6006FA
:1011F000040E681CC5B2082DE5DB10210148FFF77D
:10120000E2FD70BD0008014070B505460E4614466B
:10121000012D23D12078632801DD00202070607823
:101220000C2801DD01206070A0781F2801DD01205D
:10123000A070E078062801DD0120E070207800F041
:10124000BFF82070607800F0BBF86070A07800F004
:10125000B7F8A070E07800F0B3F8E070032E04D186
:10126000607840F08000607003E0607820F08000DB
:101270006070A07806490870E078487060788870DF
:101280002078C8700A460421052000F033F870BDAC
:101290003C12002070B505460C46012D1AD120786D
:1012A000172801DD0020207060783B2801DD002038
:1012B0006070A0783B2801DD0020A070207800F04D
:1012C0007FF82070607800F07BF86070A07800F004
:1012D00077F8A070A0780649087060784870207888
:1012E00088700A460321022000F004F870BD000057
:1012F000401200202DE9F04107460D461446002615
:10130000FFF7B8FDA220FFF7EFFD60B93846FFF701
:10131000EBFD00BF05E02078FFF7E6FD641C701CC4
:10132000C6B2AE42F7DBFFF7C3FDBDE8F0810000B7
:10133000014908627047000000000E42704700003B
:1013400029B1064AD2690243044BDA6104E0034A38
:10135000D2698243014BDA617047000000100240FD
:1013600029B1064A12690243044B1A6104E0034A98
:1013700012698243014B1A6170470000001002405D
:1013800029B1064A92690243044B9A6104E0034A78
:1013900092698243014B9A6170470000001002403D
:1013A00029B1064AD2680243044BDA6004E0034ADA
:1013B000D2688243014BDA6070470000001002409F
:1013C0000146002204E0501CC2B2A1F10A00C1B2E1
:1013D0000A29F8DA100741EA1060704700BF034895
:1013E000008800F020000028F9D070470428004051
:1013F000704710B500F002F810BD00000CB50020D9
:10140000019000903348006840F480303149086012
:1014100000BF3048006800F4003000900198401C84
:101420000190009818B90198B0F5A06FF1D1294842
:10143000006800F4003010B10120009001E00020AD
:1014400000900098012843D12348006840F0100024
:10145000214908600846006820F00300086008463B
:10146000006840F0020008601A4840681949486066
:101470000846406848600846406840F4806048601C
:101480000846406820F47C1048600846406840F4F4
:10149000E81048600846006840F08070086000BFAF
:1014A0000C48006800F000700028F9D00948406836
:1014B00020F00300074948600846406840F00200F9
:1014C000486000BF0348406800F00C000828F9D1CC
:1014D0000CBD00000010024000200240042808D18A
:1014E0004FF0E021096941F004014FF0E022116161
:1014F00007E04FF0E021096921F004014FF0E022FC
:10150000116170477047000010B51348006840F043
:1015100001001149086008464068104908400E491A
:101520004860084600680E4908400B4908600846B4
:10153000006820F4802008600846406820F4FE001F
:1015400048604FF41F008860FFF753FF4FF00060C2
:101550000449086010BD0000001002400000FFF8C0
:10156000FFFFF6FE08ED00E010B50121880700F04E
:101570008FF9A8B10D480068401C0C490860012093
:101580000B490870094800684FF46161B0FBF1F243
:1015900001FB120020B907480078401C054908707B
:1015A0000121880700F071F810BD0000B80000208C
:1015B000F8000020F000002010B50121114800F0D3
:1015C00067F9F0B101210F4800F05FF80E4800887C
:1015D000401C0D490880084600880C49098888424B
:1015E00003DA01200A49086002E000200849086087
:1015F0000548008807490988884202DB0020024923
:10160000088010BD00040040361200203212002075
:1016100084012142341200201FB50446012102201A
:10162000FFF78EFE4FF47A60B0FBF4F0401E80B2FC
:10163000ADF808004720ADF804000020ADF80A001E
:10164000ADF8060001A90E4800F03CF90122114650
:101650000B4800F02EF91D208DF8000000208DF8B9
:10166000010003208DF8020001208DF80300684678
:10167000FFF782FC0121024800F00AF81FBD0000BC
:1016800000040040CA4302827047CA430282704786
:1016900021B1028842F00102028004E002884FF684
:1016A000FE731A400280704710B5044668488442B1
:1016B00008D10121C014FFF773FE0021E014FFF7E9
:1016C0006FFEC4E0B4F1804F08D101210846FFF756
:1016D00047FE00210120FFF743FEB8E05D48844249
:1016E00008D101210220FFF73BFE00210220FFF775
:1016F00037FEACE05848844208D101210420FFF7AE
:101700002FFE00210420FFF72BFEA0E05348844267
:1017100008D101210820FFF723FE00210820FFF750
:101720001FFE94E04E48844208D101211020FFF7AB
:1017300017FE00211020FFF713FE88E0494884427D
:1017400008D101212020FFF70BFE00212020FFF708
:1017500007FE7CE04448844208D101214014FFF791
:101760001FFE00216014FFF71BFE70E03F4884421B
:1017700009D10121C804FFF713FE00214FF4002016
:10178000FFF70EFE63E03A48844209D101210805C3
:10179000FFF706FE00214FF48010FFF701FE56E030
:1017A0003448844209D101214805FFF7F9FD0021A1
:1017B0004FF40010FFF7F4FD49E02F48844208D1B0
:1017C00001214020FFF7CCFD00214020FFF7C8FD9C
:1017D0003DE02A48844208D101218020FFF7C0FD66
:1017E00000218020FFF7BCFD31E02548844208D16C
:1017F00001218015FFF7B4FD0021A015FFF7B0FD12
:1018000025E02048844209D101210804FFF7C8FDE2
:1018100000214FF48030FFF7C3FD18E01A488442DE
:1018200009D101214804FFF7BBFD00214FF400302E
:10183000FFF7B6FD0BE01548844208D1012188046A
:10184000FFF7AEFD00214FF48020FFF7A9FD10BD8A
:10185000002C01400004004000080040000C004043
:10186000001000400014004000340140004C0140D2
:10187000005001400054014000180040001C00408E
:101880000020004000400140004401400048014069
:1018900030B50246002000230024158A05EA010322
:1018A000958905EA010413B10CB1012000E0002084
:1018B00030BD1AB183890B43838102E083898B4356
:1018C00083817047002202881D4B98420ED01D4B29
:1018D00098420BD0B0F1804F08D01B4B984205D0F6
:1018E0001A4B984202D01A4B984204D14FF68F738C
:1018F0001A404B881A43174B984207D0164B984210
:1019000004D04FF6FF431A40CB881A4302808B88DD
:1019100083850B8803850A4B98420BD0094B98426C
:1019200008D00E4B984205D00D4B984202D00D4B7B
:10193000984201D10B7A038601238382704700000D
:10194000002C014000340140000400400008004029
:10195000000C004000100040001400400040014016
:10196000004401400048014010B540F225511D4897
:1019700000F03EF810B31B4800F064F8C4B21A48F7
:10198000008800F40040C8B91748008800F480407F
:1019900060B10A2C03D000201349088020E01248CF
:1019A000008840F400401049088019E00D2C06D151
:1019B0000D48008840F480400B49088010E00A4838
:1019C0000088C0F30D0009490C5407480088401CEA
:1019D0000549088008460088C72801DD00200880E6
:1019E00010BD00000038014054120020F91C0020F6
:1019F00070B50246002400230025002040F66A1638
:101A0000B14200D100BFC1F3421501F01F0301260E
:101A100006FA03F3012D02D19689334006E0022D28
:101A200002D1168A334001E0968A33400C12012617
:101A300006FA04F41688344013B10CB1012000E01A
:101A4000002070BD01468888C0F30800704700BFC1
:101A5000FEE700000020014908607047082C0040A4
:101A600010B50348007800F005F8FFF7F3FF10BD4C
:101A70004A12002000F07F01014A11607047000007
:101A8000002C00402DE9FF4F85B081468A4600209A
:101A9000049003900798A0EB09050898A0EB0A06AC
:101AA000CDF80890CDF804A0002D01DD012705E058
:101AB0000DB9002702E04FF0FF376D42002E02DD26
:101AC0004FF0010806E016B94FF0000802E04FF0B1
:101AD000FF387642B54201DD2C4600E034464FF037
:101AE000000B22E0019AD1B2029AD0B2012200F09A
:101AF00023F80498284404900398304403900498F1
:101B0000A04205DD0498001B04900298384402901E
:101B10000398A04205DD0398001B03900198404400
:101B200001900BF101001FFA80FB601C8345D9DD99
:101B300009B0BDE8F08F0000F0B5144600263F283C
:101B400001DC3F2900DDF0BD0B46CF1701EB5777D5
:101B5000C7F3C702CF1701EB5777FF10A1EBC707F9
:101B6000FDB20123AB40DEB26CB1402303FB0203A4
:101B70000C4FFB5C3343402707FB0207DFF824C010
:101B80000CF807300CE0402303FB0203054FFB5C1D
:101B9000B343402707FB0207DFF808C00CF8073003
:101BA00000BFD0E7F9120020490050EAC12018BF59
:101BB00004204A0D18BF40F0010040F2FF72B2EB62
:101BC000515F08BF40F00200012808BF05207047A0
:101BD00005480078401C0449087008460078B4287D
:101BE00001D1002008707047081200202DE9F74F3E
:101BF000144694B00021C4E902111599079121F00F
:101C00000045C9498D4206DC1599C4E9000117B0A9
:101C10000020BDE8F08FC549DFF814A3A9423CDDE0
:101C20000799C44E0029C44FC44A1599534619DD7B
:101C300004F0F6FE554506D0C14AC24B04F0F0FE52
:101C4000C4E900010AE04FF0D352BE4B04F0E8FEB5
:101C500032463B4604F0E4FEC4E9000117B001201F
:101C6000BDE8F08F04F042FB554506D0B44AB54BB1
:101C700004F03CFBC4E900010AE04FF0D352B14B41
:101C800004F034FB32463B4604F030FBC4E900016B
:101C900017B04FF0FF30BDE8F08FAB49A94215995E
:101CA00078DB21F0004183468846A84AA84B04F01F
:101CB000ADFD0022A74B04F019FB04F01FFD0990B5
:101CC00004F079FD06460F469C4A534604F09EFDFB
:101CD00043465A4604F098FE80468A46984A994BF5
:101CE0003046394604F092FD2A0D01250B924246FA
:101CF000534604F089FE032DC4E9000139D00B9846
:101D0000C1F30A51401A05EB45111139814230DA0D
:101D10009148C346784400EB0510CDF80CA00C9018
:101D2000D0E900233046394604F070FD02460B46E8
:101D3000049106905846039904F072FE80468A4644
:101D400002460B465846039904F06AFE049B069A25
:101D500004F066FE83460C9803913946D0E90223CD
:101D6000304604F053FD5A46039B04F059FE6D1CA7
:101D7000BDE707980028A2BF099817B0BDE8F08F0B
:101D8000616881F000416160099817B04042BDE888
:101D9000F08FFFE784461598C1F31301C0F30A5092
:101DA000A0F2F5304FEA601800F01F06C6F12000DF
:101DB000139000200690079041F4801E05206D4688
:101DC00076B1664A08EB00017A4452F8213002EB02
:101DD0008101B3404A68139922FA01F1194305E0E1
:101DE0005F4908EB0002794451F82210A1FB0E274D
:101DF000A1FB0C131A449A4234BF0123002303EBC6
:101E0000070A05EB8003D3E901B70F448F4234BFC3
:101E10000121002193448B4411B1934502D903E081
:101E2000934501D2012100E00021C3E901B75144EB
:101E300045F82010011EA0F10100C1DC0298059FA9
:101E400000F10050800F12900298DDE903568000E7
:101E500004F0B1FC834628460D9104F0C3FC6FF0FA
:101E60001D0205F045F8CDE90E01304604F0BAFC3C
:101E70006FF03D0205F03CF880468A46384604F093
:101E8000B1FC6FF05D0205F033F807464246534659
:101E9000119104F02BFADDE90E2304F027FA5A46DB
:101EA0000D9B04F023FA00250E465A4628460D9B4A
:101EB00004F0B6FDDDE90E2304F0B2FD42465346C0
:101EC00004F0AEFD3A46119B04F09EFDDFF898A0A9
:101ED000244A534604F09AFC07468846234A244B7A
:101EE0003146284604F092FC3A46434604F0FEF997
:101EF000074688464FF0A84253463146284604F02C
:101F000085FC3A46434604F0F1F9159A12F0004F69
:101F100004D0129A81F0004152421292C4E90001A9
:101F2000129817B0BDE8F08FFB21E93F7CD9024041
:101F3000FB21F93F7370032E8A19A33B0000405424
:101F40003163621A61B4D03DFB21394183C8C96D48
:101F5000305FE43F0000E03FC06700003C670000E6
:101F60001E670000182D4454FB21F93D3326A611AD
:101F7000460B113C2DE9FF4D21F0004807460C4669
:101F8000B8F1795F08DA04F0B9FB002801BF00203E
:101F9000324904B0BDE8F08D3A4623461046194652
:101FA00004F034FC054602462D480E460B46062139
:101FB000784400F05DF82A46334604F027FCDDE95A
:101FC000022382468B463846214604F01FFC044615
:101FD0000F4652465B462846314604F017FC22461F
:101FE0003B4604F01DFD07468A464FF0FF32284667
:101FF000314604F07DFF1B4A90450ADA3A465346C3
:1020000004F00EFD04B00022BDE8F04D134B04F0C7
:10201000FBBC154A4245A8BFA8F500154FF00004C7
:10202000B8BF124D22462B4604F0FAFC06468846FD
:1020300022462B460020094904F0F2FC04460D46D6
:102040003A4653463046414604F0EAFC04B0224684
:102050002B46BDE8F04D04F0D7BC00000000F03F77
:10206000F46400003333D33F0000E93F0000D23F67
:102070002DE9F0414F1E00EBC7010446D1E90001F4
:1020800015461E4637F006020DD02A46334604F0A8
:10209000BDFB7F1E04EBC703D3E9002304F026F940
:1020A00037F00602F1D1022F25D0042F13D0062FCE
:1020B00018BFBDE8F0812A46334604F0A7FBD4E9F7
:1020C0000A2304F013F92A46334604F09FFBD4E9AF
:1020D000082304F00BF92A46334604F097FBD4E9B1
:1020E000062304F003F92A46334604F08FFBD4E9B3
:1020F000042304F0FBF82A46334604F087FBD4E9B6
:10210000022304F0F3F82A46334604F07FFBD4E9B7
:102110000023BDE8F04104F0E9B800002DE9FF4DCF
:10212000054621F0004084B00C46B0F1795F0BDA2F
:102130002846FFF739FD042808BF00F06FF828464D
:1021400008B02146BDE8F08D2A460B46104604F043
:102150005DFB06460F462A46234604F057FB8046A1
:1021600026488A4632463B4605217844FFF780FFE1
:1021700083461098029160B3214A224B4046514653
:1021800004F044FBCDE900015A4640465146029B0B
:1021900004F03CFB82468846DDE906014FF0FF3241
:1021A00004F0A6FE5246434604F03AFC32463B4653
:1021B00004F02CFBDDE9062304F032FCDDE900230A
:1021C00004F02EFC08B02A462346BDE8F04D04F08A
:1021D0001BBC0B465A463046394604F017FB084AEA
:1021E000084B04F083F84246534604F00FFB08B056
:1021F0002A462346BDE8F04D04F078B8326400006A
:10220000495555555555C5BF012204F071BE0022F0
:1022100013461046114604F019B90000024A002086
:10222000110704F065BE000001FDFFFF30380A28E9
:1022300001D20120704700207047014600BF0020F6
:102240007047014600BF00207047000010B50549E7
:102250008978491EC8B2044B044A054902F0AEFF12
:1022600010BD0000B41200201D2900084983000899
:102270007C6F000800EB4002034B1A4413880B806C
:1022800092788A70704700002800002010B504463C
:1022900006480078FF2801D1002010BD21460348E0
:1022A0000078FFF7E7FF0120F7E7000014000020A7
:1022B00010B501F02FFD10BD10B512210148FEF739
:1022C00016FA10BD2800002070B504460D4604EB38
:1022D00044000449084429880180A978817001F0EC
:1022E00019FD70BD2800002070B52148057801F067
:1022F0006FFD04461E480078002837D094B31C4870
:10230000007885421BD01B4800F006FE1A49086081
:102310000021084600F0C4FB184908601849012054
:1023200000F0BEFB174908600021022000F0B8FB56
:102330001549086003220221144803F0DDFE01F074
:10234000C1FE98B912480078012801D0012000E0B0
:1023500000200F490870FF2296210D48007801F0F7
:1023600091FE03E0FFE70CB903F000F970BD000037
:102370001600002059300008180000201C00002022
:102380006D5500082000002024000020048400086F
:102390003A00002010B501F0BDFC10BD10B50D498C
:1023A0004978491E0B4A517011460978022908D113
:1023B00009498979012904D11146497809B90C21C3
:1023C000517001F06DFC03494978814201DD0149FA
:1023D000487010BDAC0000204A000020F8B505266A
:1023E00000208DF80100324800780C2839D2DFE84F
:1023F00000F0380610131620212223242526072456
:102400002B48407808B1802000E02E208DF8000095
:1024100029E015240B2626E02A240B2623E0382465
:102420002348407808B1502000E041208DF800009A
:1024300019E000BF00BF00BF00BF00BF00BF1C49C4
:102440000978491FC8B2C0EBC0014631CCB2184967
:10245000497811B11749095C00E02D218DF8001071
:1024600001E00020F8BD00BF13480078C100124809
:102470004078A1EBC0000830C5B23246294620465C
:1024800001F080FB0A480078022803D00848007851
:10249000032805D10648427808A16846FDF744FFA5
:1024A0002B4622460121684601F086FB0020D9E731
:1024B000AC000020816F0008B41200202530326883
:1024C0006875000010B50E484078401C0C494870F3
:1024D00001F0E6FB0A494978884202DA00200849FF
:1024E000487007480078022809D1064880790128F9
:1024F00005D10348407810B901200149487010BD4A
:10250000AC0000204A00002002460B46197812B9A0
:102510007AB940290DDA22B1382902DD481EC1B24C
:1025200004E01AB9402901DA481CC1B2197001202F
:1025300070470020FCE702460B46197812B97AB9B9
:1025400040290DDA22B1382902DD481EC1B204E06B
:102550001AB9402901DA481CC1B21970012070472C
:102560000020FCE701480078704700005812002066
:102570000348007A08B9012070470020FCE70000FA
:10258000581200200148407870470000581200207F
:1025900070B504460D460120064908700DB10020B3
:1025A00000E0C0200349487008464460057204B149
:1025B000A04770BD5812002010B5244800780028AC
:1025C00042D022484478007AC0B1042C02DA601C60
:1025D000C4B20CE0082C02DAE01CC4B207E0102CF4
:1025E00002DA601DC4B202E004F10800C4B2402C5B
:1025F0001CDB002015490870002417E0FB2C02DDCD
:10260000601CC4B20CE0F72C02DDE01CC4B207E091
:10261000EF2C02DD601DC4B202E004F10800C4B278
:102620000A2C03DA00200949087000240748447086
:10263000007840B90548406828B104494868804797
:1026400000200249486000BF10BD00005812002061
:1026500070B501214FF0C050FEF772FEFEF7BEFECE
:102660000120FEF765FE0420FEF768FA0546082003
:10267000FDF703FE604902680A604068486008464A
:1026800000210160416041F23420854255D100248F
:102690005A4931F81400FEF751FA57490870641C82
:1026A000564931F81400FEF749FA08B1012000E05C
:1026B000002051494870641C504931F81400FEF75D
:1026C0003DFA08B1012000E000204B498870641CED
:1026D0004A4931F81400FEF731FA08B1012000E050
:1026E00000204549C870641C444931F81400FEF7C5
:1026F00025FA08B1012000E000203F490871641C60
:102700003E4931F81400FEF719FA08B1012000E043
:10271000002039494871641C384931F81400FEF72B
:102720000DFA35498871641C344931F81400FEF7FC
:1027300005FA3149C871641C55E041F23425294637
:102740000420FEF709FA10212D48FDF7AEFF002402
:102750002B4A32F81410294A32F81400FEF7FCF91B
:10276000641C274A32F81410244A32F81400FEF789
:10277000F3F9641C224A32F81410204A32F814008B
:10278000FEF7EAF9641C1E4A32F814101B4A32F8AC
:102790001400FEF7E1F9641C194A32F81410174AC4
:1027A00032F81400FEF7D8F9641C154A32F81410F8
:1027B000124A32F81400FEF7CFF9641C104A32F8BE
:1027C00014100E4A32F81400FEF7C6F9641C0C4AC5
:1027D00032F81410094A32F81400FEF7BDF9641CEF
:1027E00000F010F800BF044800780C2802DD00203B
:1027F0000149087070BD00004A000020520000200E
:102800006412002010B501200949087000204870AA
:1028100001208870C87000200871012048710020D4
:102820008871FF20C87100F005F8FFF745FD10BD65
:102830004A00002010B501214FF0C050FEF780FD86
:10284000FEF7CCFD0120FEF773FD314800783149D9
:1028500008802F48407848802D48807888802C4810
:10286000C078C8802A480079088129484079488181
:102870002748807988812648C079C88100240A4683
:1028800032F81410244A32F81400FEF765F9641C7B
:10289000204A32F81410204A32F81400FEF75CF98E
:1028A000641C1C4A32F814101B4A32F81400FEF75C
:1028B00053F9641C174A32F81410174A32F81400FE
:1028C000FEF74AF9641C134A32F81410124A32F81F
:1028D0001400FEF741F9641C0E4A32F814100E4A37
:1028E00032F81400FEF738F9641C0A4A32F8141062
:1028F000094A32F81400FEF72FF9641C054A32F831
:102900001410054A32F81400FEF726F9641C10BDB5
:102910004A000020641200205200002010B5064832
:10292000006A18B10449086A804701E001F0B0FC70
:1029300001F0AEFC10BD0000B412002010B500F094
:1029400031F810BD0349087003490978034A117032
:10295000704700001D010020F00000201C01002035
:1029600010B50D4800780D490978884200D110BD96
:1029700009480078094908700948007828B10848D2
:102980000078401E06490870F1E70320FFF7DAFFE0
:1029900000F008F800BFEAE7F00000201C0100206A
:1029A0001D01002010B505210020FEF729FA04467C
:1029B0000148048010BD00001A0100200148008871
:1029C000704700001A01002010B50446012120467E
:1029D000FFF7DEFD10BD10B5044600212046FFF7CD
:1029E000D7FD10BD10B5054B054A0649064802F053
:1029F00041FB06490648816110BD000041400008C6
:102A0000755D0008E9430008195D0008CD5D000808
:102A1000B41200200146002004E001F0010202444B
:102A2000D0B249100029F8D17047000010B501213B
:102A30000248FFF7ADFD012010BD0000F92E00088F
:102A400010B500200349086001F052FF02490860F8
:102A5000012010BDE8000020EC00002010B50E4859
:102A60000078012807D100200B49087000210420BC
:102A700002F072F809E00848007830B901200649F0
:102A800008700121042002F067F801F031FF0349CA
:102A90000860012010BD0000E4000020EC000020D0
:102AA0000246044B03EB02139868024B03EB02133C
:102AB0009960704774120020024B986099619A6285
:102AC000704700007412002010B501F011FFC4B26D
:102AD00005480078201AC0B20A2803DB02480470B7
:102AE00002F008F810BD0000800000202DE9F0473A
:102AF00007460D4690461E46DDF820902648007891
:102B0000864201DABDE8F08715B902F019FDF9E750
:102B1000214806702148C0F800902148077001F054
:102B2000E7FE20490870012D07D100211E48FEF75D
:102B3000AFFD00201D490860E4E7B8F1010F06D0A1
:102B4000B8F1020F08D0B8F1030F0FD109E018480F
:102B5000807900F003040BE015488079C0F381040C
:102B600006E013488079C0F3011401E0022400BF9D
:102B700000BF601EC4B20F4805804FF4807090FB08
:102B8000F4F00C49098848430B490880094800883B
:102B9000FEF742FD00BFB5E7301200202C120020E6
:102BA0002812002029120020000400408401214244
:102BB0004A000020321200203412002010B503F029
:102BC0002FFAFFF781FF02F017FDFFF78DFB00F0F2
:102BD000ABF910BD10B5FEF797FC4FF4A060FEF7FF
:102BE00003FA00F01BF94FF480610B48FDF75DFD1F
:102BF000FEF738FA01F074FAFFF72AFDFFF758FBE9
:102C000001F07CFE054800F081F900F075F90449F7
:102C10004878FEF7FFF910BDF9180020656200083A
:102C20004A000020094948780A78C11D8A4204DB1D
:102C300006490978891FC8B205E00449097881422C
:102C400001DA02490878014948707047B41200203F
:102C500010B514210148FDF74AFD10BDC012002037
:102C60002DE9F05F6B480478C5788078B0B9694881
:102C7000407810B1E01CC4B201E0E01EC4B2202CC8
:102C800034DB6448407820B12024012061498870F9
:102C90002CE0002400205F49487127E05D4800795E
:102CA00010B1A81FC5B202E005F10A00C5B2802D1F
:102CB0001CDB5848007908B1002500E08025554804
:102CC000007910B90020534988705248007928B122
:102CD0005048407810B100204E4948714D48007965
:102CE00008B9012000E000204A4908712046E11798
:102CF00004EB5171C1F3C708002710E0464901EB0E
:102D0000C7108021FDF7D1FC4FF46071A1EBC71112
:102D1000414A88188021FDF7C8FC781CC7B2474596
:102D2000ECDB2046E11704EB5171C910A4EBC101A3
:102D3000CEB2C6B34FEAC81040F2FF32121A91B2B7
:102D4000FF22B240D3B2FF2242FA06F70122B2407C
:102D500002F0FF0C802242FA06F9002220E0DFF8A0
:102D6000B8A01AF800A00AEA030A4AEA0C0ADFF837
:102D7000A8B00BF800A000F1010A1FFA8AF0DA46A9
:102D80001AF801A00AEA070A4AEA090A0BF801A0A0
:102D9000A1F1010A1FFA8AF102F1010A0AF0FF0209
:102DA000802ADCDB31E0FFE77CB3C5F18002D1B2E1
:102DB00001EBD1725310C4F14002D0B2C21700EB44
:102DC0005272D21003EBC2171349C81901222946C7
:102DD000FDF763FC202C17D02046E11704EB51715E
:102DE000C9104FF6FF7202EAC117802007E03918B8
:102DF000094A515C41F001013A18074B9954011EF0
:102E0000A0F10102D0B2F2D100BF02480470C57037
:102E1000BDE8F09F94000020F918002010B56FF075
:102E20000400FEF75BFB0A4800680A49B0FBF1F0BA
:102E3000094908700846007800EB4001C1EBC0105A
:102E40004FF6FF7101EAC0000449088010BD000080
:102E50000000002000127A004C1200204E120020C8
:102E60000146114A12884A434FF0E0235A6100227A
:102E70009A611A46126942F001021A6100BF4FF0CE
:102E8000E022106900F001021AB100F48032002A39
:102E9000F5D04FF0E022126922F001024FF0E0235A
:102EA0001A6100229A6170474E1200200146114AB1
:102EB00012784A434FF0E0235A6100229A611A4681
:102EC000126942F001021A6100BF4FF0E02210695E
:102ED00000F001021AB100F48032002AF5D04FF060
:102EE000E022126922F001024FF0E0231A61002271
:102EF0009A6170474C12002010B50348006810B169
:102F000001480068804710BD90000020014908601A
:102F100070470000900000200146024A10681160CE
:102F2000704700008C0000202DE9FC4101F0E0FC1E
:102F3000C4B228480078201AC0B2274909788842CC
:102F400001DABDE8FC81234804700025FFF734FB5B
:102F50002248006860B12248407928B92048407969
:102F600030B91F48407818B91C48006880470546AA
:102F70001B48407908B1FFF773FE1948407910B932
:102F8000FFF7F0FA00B1012516484079B0B101F021
:102F9000AFFC401CC6B2301BC0B24FF47A7191FB3B
:102FA000F0F087B23A4610A16846FDF7BDF9382324
:102FB00064220021684600F0FFFD00BF00F0F8FD2C
:102FC0001DB928200449087002E010200249087049
:102FD00000BFB6E79A0000209B0000208C00002074
:102FE000940000204A0000202575000001460A20B8
:102FF00091FBF0F0C0B2704710B504460348017869
:103000002246032001F086F810BD0000B412002013
:1030100010B504460548C07838B1FFF7A3FA10B1DF
:10302000FFF7A6FA08B104B1A04710BDB412002002
:1030300010B50348FFF76AFFFFF75EFF012010BDE0
:103040002D62000810B50348FFF760FFFFF754FF3B
:10305000012010BD656200081FB501F049FCC0B237
:1030600080280ADA00202022CDE9002013460F4AEA
:1030700010210290084600F0B1FC02F0B7FF0446B0
:1030800014234F22002100F097FD09480079094AD6
:1030900002EB800103A8FDF7BDFA2423562200218C
:1030A00003A800F089FD002004B010BD498000088D
:1030B000F0000020896F0008FEB500F04DFB02F023
:1030C000BFFA064600F01EFB14242349097809B113
:1030D000012100E0002108462049FFF715FA70B1F0
:1030E00000200822CDE9002010231D4A02901B4831
:1030F0000178204600F072FC04F11400C4B2FDF720
:103100003BFD08B1012000E0002005461549FFF70E
:10311000FBF970B100200822CDE900201346124AC5
:10312000029010480178204600F058FC04F10C0091
:10313000C4B202F043FA68B100200822CDE90020B1
:1031400013460A4A38210290204600F047FC04F159
:103150000C00C4B23046FEBD44120020BC0000206A
:103160009C7A0008BD000020EC7A0008DC6F0008A3
:103170002DE9FE4F00F0C6FA6448006803F032FB08
:103180000746634A634B03F061F9CDE9000103F0A0
:10319000E5FA82464FF47A70BAFBF0F45E48824555
:1031A00013D24FF47A70BAFBF0F100FB11A00A21A0
:1031B000B0FBF1F000F0FF093C20B4FBF0F100FBA4
:1031C0001146B4FBF0F0C5B210E03C20B4FBF0F1C6
:1031D00000FB1149B4FBF0F03C21B0FBF1F201FB24
:1031E00012064FF46160B4FBF0F0C5B22846FFF759
:1031F000FDFEC0EBC001C1EB80104849471800201C
:103200001822CDE9002013233A4614210290012010
:1032100000F0E4FB284601F0ABFBC0EBC001C1EBC2
:1032200080103E49471800201822CDE900201323C2
:103230003A4614210290182000F0D0FB3046FFF7E8
:10324000D5FEC0EBC001C1EB801034494718002007
:103250001822CDE9002013233A46142102903C2085
:1032600000F0BCFB304601F083FBC0EBC001C1EBBA
:1032700080102A49471800201822CDE90020132386
:103280003A4614210290532000F0A8FB4846FFF76D
:10329000ADFE00EB400101EBC000214901EB40070E
:1032A00000201022CDE900200B233A461C21029079
:1032B000682000F093FB484601F05AFB00EB400108
:1032C00001EBC000164901EB400700201022CDE9B8
:1032D00000200B233A461C210290742000F07EFB54
:1032E00000201822CDE9002006230E4A1421029066
:1032F000312000F073FB02F079FE074600233022F4
:10330000194600F059FC0120BDE8FE8FE8000020BE
:103310008FC2F5285C8F024080EE3600D97C000811
:10332000137F0008EF7F0008FEB5FEF751FC002078
:10333000E049086036E0E0480078DE49096801EBC2
:10334000C00000EB4000DD49085CDA49096801EB88
:103350004101DB4A5054D8480078D649096801EB4E
:10336000C00000EB4000D54908444078D1490968C5
:1033700001EB410111444870CF480078CD490968FC
:1033800001EBC00000EB4000CC4908448078C949FB
:10339000096801EB410111448870C6480068401C6F
:1033A000C4490860C34800680828C4DB0020C54938
:1033B000086004E1C448C349096800EB01100068D3
:1033C00000EB4000BE49085C2238C0490870BE4886
:1033D000BC49096800EB0110006800EB4000B849E7
:1033E00008444078401EBA490870B748B549096892
:1033F00000EB0110406800EB4000B149085C223846
:10340000B4490870B048AF49096800EB0110406842
:1034100000EB4000AA4908444078401EAE490870BD
:1034200008460378AB480278A9480178A748007895
:10343000FEF728FBA448A349096800EB0110406887
:1034400000EB40009E49085C2238A04908709E4865
:103450009C49096800EB0110406800EB4000984966
:1034600008444078401E9A49087097489549096871
:1034700000EB0110806800EB40009149085C2238A5
:103480009449087090488F49096800EB01108068E2
:1034900000EB40008A4908444078401E8E4908707D
:1034A000084603788B480278894801788748007875
:1034B000FEF7E8FA84488349096800EB0110806848
:1034C00000EB40007E49085C2238804908707E4845
:1034D0007C49096800EB0110806800EB40007849E6
:1034E00008444078401E7A49087077487549096851
:1034F00000EB0110C06800EB40007149085C223805
:103500007449087070486F49096800EB0110C06881
:1035100000EB40006A4908444078401E6E4908703C
:10352000084603786B480278694801786748007854
:10353000FEF7A8FA64486349096800EB0110C06807
:1035400000EB40005E49085C2238604908705E4824
:103550005C49096800EB0110C06800EB4000584965
:1035600008444078401E5A49087057485549096830
:1035700000EB0110006800EB40005149085C223864
:103580005449087050484F49096800EB0110006821
:1035900000EB40004A4908444078401E4E490870FC
:1035A000084603784B480278494801784748007834
:1035B000FEF768FA43480068401C424908604148E9
:1035C00000680628FFF6F6AE00204022CDE9002074
:1035D0001346424A0146029000F000FA4FF400718F
:1035E0003E48FDF762F800F0EFF802F0EBF9FFF764
:1035F000E5F9044640F61C40844201DA384D0BE000
:10360000B4F5486F01DA374D06E040F6E4408442F5
:1036100001DA354D00E0354D00200822CDE90020CB
:1036200010232A46022102903C2000F0D7F9002600
:103630002F490120FEF77FFF70B100200822CDE95D
:10364000002010232B4A029029480178304600F0D0
:10365000C5F906F11400C6B2FDF78EFA08B10120D3
:1036600000E0002007462449FEF765FF70B1002006
:103670000822CDE900201346204A02901E48017816
:10368000304600F0ABF906F10C00C6B201F096FF2F
:1036900068B100200822CDE900201346184A3821DD
:1036A0000290304600F09AF906F10C00C6B20020F4
:1036B000FEBD00001012002008120020280100208A
:1036C000E11200200C1200203084000814120020A7
:1036D000161200201512002017120020F9120020E7
:1036E000AC7A0008BC7A0008CC7A0008DC7A0008C2
:1036F000181200209C7A000819120020EC7A0008A9
:10370000DC6F00083EB5FFF759F9054640F61C404E
:10371000854201DA0C4C0BE0B5F5486F01DA0B4C31
:1037200006E040F6E440854201DA094C00E0094C2D
:1037300000200822CDE900201023224638210290E3
:1037400000F04CF93EBD0000AC7A0008BC7A0008DD
:10375000CC7A0008DC7A000800B589B011480079FD
:10376000114A02EB800108A8FCF754FF0D4880794C
:103770000E4A02EB800107A8FCF74CFF0948C0790C
:1037800007A9CDE900100748437908AA08A102A8B3
:10379000FCF7CAFD00230C22194602A800F00CFA1F
:1037A00009B000BDF0000020896F0008A56F000877
:1037B0002573202530326868752025732032302526
:1037C000303268687500000000B587B01F48007986
:1037D0001F4A02EB800106A8FCF71CFF1B488079FA
:1037E0001C4A02EB800105A8FCF714FF1748437937
:1037F00006AA19A16846FCF797FD1E23572200214F
:10380000684600F0D9F905AA16A16846FCF78CFDB8
:1038100023233C220021684600F0CEF912A168461D
:10382000FCF782FD192340220021684600F0C4F90C
:103830000648C2790DA16846FCF776FD0F234322A6
:103840000021684600F0B8F907B000BDF000002084
:10385000896F0008A56F000825732025303268683D
:1038600075000000257300003230000025303268FA
:10387000687500002DE9FE4F0446217A627A01FB4B
:1038800002F0C11700EB5171C1F3C706A57AE17AC6
:10389000606801FB060894F8009094F801A0607B32
:1038A00010B10DB1FF2D0BD10021607ACDE90001DF
:1038B0000291237A42465146484600F08FF821E0B3
:1038C000E07A401EC7B2FF2F00D1277B607A281A0A
:1038D000001FC0B20022617ACDE900120290237A63
:1038E00042465146484600F079F80021607A8DE85A
:1038F0002300606807FB0602237A5146484600F021
:103900006DF800BFBDE8FE8F2DE9FE4F0446217A19
:10391000627A01FB02F0C11700EB5171C1F3C706D7
:10392000A57AE17A606801FB060894F8009094F8A3
:1039300001A0607B10B10DB1FF2D0BD10021607A89
:10394000CDE900010291237A42465146484600F0F3
:1039500045F821E0E07A401EC7B2FF2F00D1277B57
:10396000607A281A0E38C0B20022617ACDE90012BE
:103970000290237A42465146484600F02FF8002133
:10398000607A8DE82300606807FB0602237A5146BF
:10399000484600F023F800BFBDE8FE8F10B586B0A2
:1039A000202218216846FCF778FE0B494868FCF78E
:1039B00055FE0921A1EB50006946441806484168AC
:1039C0002046FCF727FE00231A461946684600F0F9
:1039D000F3F806B010BD0000B41200202DE9FF4F2F
:1039E00087B00E46FEF7CEFD3044C6B21698301AA8
:1039F000C7B21498C11700EB5171C1F3C70106910A
:103A00003846F91707EB5171C910A7EBC101C9B2CC
:103A1000059114983044C0B204904FF00008A8E01B
:103A200007EBC800C4B204F10800C5B2169838B15B
:103A3000B54204DB402D02DC0498844200DD94E0B2
:103A4000FF200390169878B1B44205DA311BFF20AD
:103A50008840C0B2039007E00498854204DD0498D2
:103A6000291AFF20084103902046E11704EB517109
:103A7000C9104FF6FF7202EAC119DDE9091008FB0F
:103A800000100290059840BB402C26DA4FF0000A47
:103A90001FE00798504400F0FF0BBBF1800F00DBE4
:103AA00013E0029901EB0A00159901F05BF8039904
:103AB000084001900BEB09003149095C019808436B
:103AC0000BEB09012E4A505400BF0AF1010000F02F
:103AD000FF0A0A988245DCDB46E02846E91705EB39
:103AE0005171C9104FF6FF7202EAC11101914FF0F6
:103AF000000B35E00798584400F0FF0ABAF1800F38
:103B000000DB29E0029901EB0B00159901F02AF87E
:103B1000039908400090402C0CDA0AEB0900184980
:103B2000095C059A009890400143C8B20AEB09016C
:103B3000134A5054402D0EDA019850441049095C44
:103B40000598C0F1080200981041084301990AEB5A
:103B500001020B49885400BF0BF1010000F0FF0B7C
:103B60000A988345C6DB00BF00BF08F1010000F0E2
:103B7000FF0806988045FFF653AF0BB0BDE8F08F05
:103B8000F91800202DE9F04105460C46164620465E
:103B9000E11704EB5171C91005EBC1118FB2034954
:103BA000C8193146FCF781FDBDE8F081F918002005
:103BB00010B500F027FF10BD2DE9FE4F05460E465B
:103BC00090461F464FF000092EE02878203800F07C
:103BD000FF0AC9EBC9004044C4B200200821CDE966
:103BE000001602900AEB8A00124942180523394652
:103BF0002046FFF7F3FE8EB1002C06DD601EC1B239
:103C0000FF233A460C4801F00BFA7B2C06DA601DC4
:103C1000C1B2FF233A46084801F002FA6D1C09F1CF
:103C2000010000F0FF0900BF28780028CDD1BDE8D1
:103C3000FE8F0000F47A0008F918002010B500206B
:103C400005490870054B064A0649074801F012FA73
:103C500000210648816110BDAC00002041400008F1
:103C600081450008E94300082D420008B4120020F5
:103C7000044801788078401E814201D101207047BC
:103C80000020FCE7B412002070B504460D4616462D
:103C9000257000F02DFE607070BD0220401C704742
:103CA00009480078022802D003280AD107E0074813
:103CB0008079012801D10C2070471720FCE73B20B8
:103CC000FAE70120F8E70000AC0000204A000020DD
:103CD0000E480078082816D2DFE800F01504071512
:103CE000050F111300BF0120704709480078012813
:103CF00001D10C20F8E71720F6E71F20F4E70B208E
:103D0000F2E76320F0E73B20EEE70000AC00002084
:103D10000C0100202DE9FC474FF0FF084FF6FF791A
:103D2000284880788DF806002648C0788DF807006E
:103D3000002101A802F030F9224B1A795B785B1C54
:103D4000D9B29DF8060002F0C7F9824606262FE098
:103D500069463046FEF78EFA9DF80200C00900B9A8
:103D600026E007251EE09DF802000121A940084039
:103D700000B917E09DF801109DF800002A4602F0F6
:103D8000ABF90746A7EB0A04002C02DA42F25F7097
:103D90000444A0B2484504DA1FFA84F9B0460A4840
:103DA000057000BF281EA5F10101CDB2DBD100BF17
:103DB000301EA6F10101CEB2CAD1044880F80080BD
:103DC000BDE8FC87F0000020150000201400002052
:103DD0001CB5174880788DF802001548C0788DF81A
:103DE00003000021684602F0D7F801A8FEF74EFA5A
:103DF000D8B19DF806000E490A790121914008408A
:103E000098B19DF804009DF8021088420DD19DF8EC
:103E1000050007494978884207D10548007810B95C
:103E200001200449087001201CBD0020FCE70000AF
:103E3000F00000201600002038B50446062C13DAE6
:103E40000B48007818B10B480078A04204D06946AE
:103E50002046FEF70FFA02E0074800680090694626
:103E6000204601F0EBFA00BFFEF7F0F938BD000084
:103E7000AC000020B41200204400002010B504461D
:103E800024B1012C05D0022C09D105E002F096F9ED
:103E900010BD02F0AFF9FBE702F070F9F8E700237C
:103EA0001A4607A1032001F089F900231A4609A147
:103EB000042001F083F9FEF7C9F900BFE8E700002C
:103EC0004657202020202020322E382054323032F5
:103ED0003000000055736572202020202020202013
:103EE00059756D6D7900000010B5044601F080F938
:103EF000FEF7ACF910BD000070B504460024204662
:103F0000641C0E4B0E4A0FA101F058F92046641CA8
:103F10000E4B0F4A0FA101F051F92046641C104BC3
:103F2000104A11A101F04AF9FFF7B7FE0546114BFF
:103F3000114A12A101F042F970BD00003D41000894
:103F400049800008416C61726D730000D155000812
:103F50004981000853746F707761746368000000D2
:103F6000014400084982000853657474696E6773E0
:103F700000000000D14600084983000845786974B4
:103F80000000000010B50446104B114A11A100209A
:103F900001F014F9124B134A13A1012001F00EF99C
:103FA000134B144A14A1022001F008F9144B154ACE
:103FB00015A1032001F002F9154B164A16A10420A1
:103FC00001F0FCF8FEF742F910BD0000F9440008CA
:103FD0009C70000854696D6520262064617465003A
:103FE000514400081C710008536C656570000000A6
:103FF000A94400089C710008536F756E64000000AE
:10400000E14100089C790008446973706C61790093
:1040100089410008C9820008446961676E6F737442
:104020006963730010B5044601F03EF9FEF70EF91E
:1040300010BD10B5044601F047F9FEF707F910BDB1
:1040400010B5044601F00CFA01F01AFA074800789E
:1040500008B107A000E008A00146094B0022052096
:1040600001F0ACF8FEF7F2F810BD00000D010020E1
:1040700053617665640000005361766500000000BE
:10408000994B000870B504460D4616460A48C0789C
:1040900088B114B1012C0CD105E00C222946074847
:1040A000FFF7F2FD06E00D2229460548FFF7ECFD7B
:1040B00000E000BF00BF70BD4A00002038120020A1
:1040C0003A1200200448007810B90448007808B17A
:1040D000012070470020FCE7381200203A1200202F
:1040E00008B501210820FDF74BF94FF44050ADF819
:1040F000000010208DF8030003208DF802006946AF
:104100000348FCF781FD20210148FCF75CFE08BD57
:10411000000C014070B505460C4616460548457032
:10412000847006700448C06918B10348C16920460C
:10413000884770BDAE000020B412002010B50AA25E
:104140000021062000F0A0FF0A4B0B4A0B490C4847
:1041500000F090FFAFF21B010A4801F003F90020C4
:10416000FEF739FC10BD00003C20414C41524D533C
:10417000203E0000393E00085D4A00082143000847
:10418000DD4900083C00002010B500F003FDFEF7FB
:10419000E7FB0AA20021052000F076FF0B4B0C4A3A
:1041A0000C490D4800F066FFAFF223010B4801F007
:1041B000D9F80020FEF70FFC10BD00003C20444958
:1041C00041474E4F5354494353203E007D3E000823
:1041D0005D4A000839430008DD49000884000020DA
:1041E00010B50AA20121052000F04EFF0A4B0B4A30
:1041F0000B490C4800F03EFFAFF21B010A4801F0EA
:10420000B1F80020FEF7E7FB10BD00003C20444958
:1042100053504C4159203E00E93E00085D4A0008D9
:104220005D430008DD4900089C00002010B500F047
:10423000D5FB0748007838B105480078022803D03C
:1042400003480078042801D100F0C8FB10BD00002D
:10425000B412002008B50A48007878B909480078F7
:1042600000EB8000C2B208A16846FCF75DF8282385
:10427000382200216846FFF79FFC00BF002008BDE0
:10428000B41200204A000020256868755300000021
:1042900010B5002203491046FEF70EFC0248FEF757
:1042A00093FB10BDA9480008AD42000810B50E48A8
:1042B000FEF732FE0D4A0E490E48FEF7FDFBFFF7F2
:1042C000ECFC04460CA2012100F0DEFE0E4B0F4A6E
:1042D0000F49104800F0CEFE0F49104801F042F897
:1042E0000020FEF778FB10BDFD460008E9460008F7
:1042F000A9480008DD4800083C204D41494E204DAA
:10430000454E55203E000000F93E00085D4A000879
:1043100081430008DD490008AD420008A4000020E8
:1043200010B5044801F00CF8FFF7A2FC0446FEF7B4
:1043300063FE10BD3C00002070B5FFF799FC0446F9
:104340000CB1FEF777FA044800F0FAFFFFF790FC93
:104350000546FEF751FE70BD8400002070B5FFF7E2
:1043600087FC04460CB1FEF765FA044800F0E8FF4C
:10437000FFF77EFC0546FEF73FFE70BD9C00002067
:1043800010B5034800F0DCFF0120FEF735FE10BD3C
:10439000A400002010B5034800F0D2FF0120FEF772
:1043A0002BFE10BDCC00002010B5FFF761FC0446C9
:1043B0000CB1FEF73FFA034800F0C2FF2046FEF7BB
:1043C0001BFE10BDD400002010B5FFF751FC0446C1
:1043D0000CB1FEF72FFA034800F0B2FF2046FEF7BB
:1043E0000BFE10BDDC00002010B5044800F0A8FF53
:1043F000FFF73EFC0446FEF7FFFD10BDFC00002069
:1044000010B50AA20121052000F03EFE0B4B0C4A1C
:104410000C490D4800F02EFEAFF21B010B4800F0D6
:10442000A1FF0020FEF7D7FA10BD00003C20534545
:104430005454494E4753203E00000000853F000879
:104440005D4A000895430008DD490008CC000020C3
:1044500010B50BA20121022000F016FE0B4B0C4AF6
:104460000C490D4800F006FE0C490D488161AFF281
:104470001F010C4800F076FF0020FEF7ACFA10BDDB
:104480003C20534C454550203E000000254000088C
:104490005D4A0008A9430008DD49000855420008AC
:1044A000B4120020D400002010B50BA2012103207B
:1044B00000F0EAFD0B4B0C4A0C490D4800F0DAFD08
:1044C00000F002FFAFF21F010A4800F04BFF00208E
:1044D000FEF781FA10BD00003C20534F554E44209A
:1044E0003E000000334000085D4A0008C943000850
:1044F000DD490008DC00002010B5124812490A68A6
:1045000002604968416011488079114908700020B3
:104510001049087010A20021062000F0B5FD124BD2
:10452000124A1349134800F0A5FDAFF233011248B7
:1045300000F018FF0120114908700020FEF74BFA27
:1045400010BD000004010020F00000204A000020FF
:104550000C0100200D0100203C2054494D4520262F
:104560002044415445203E00414000088145000858
:10457000E94300082D420008FC000020B41200208E
:1045800010B500F06BFA0748007838B1054800789C
:10459000022803D003480078042801D100F05EFA15
:1045A00010BD0000B4120020FEF714FB01E0FEF77E
:1045B00005FBFCE77CB504460D4628788DF806001F
:1045C00020208DF80700002101A801F0E5FC9DF8EE
:1045D000070000906B789DF8062010A1601CFBF787
:1045E000A3FEA878C00908B1802000E02E2020702A
:1045F0000020207400BF0DE0A97801228240114004
:1046000011B10B49095C00E02D2100F10902A15410
:10461000411CC8B20728EFDB7CBD000020253032EA
:104620006868753A25303268687525632000000097
:10463000816F00081CB5044609488079094A02EBDD
:10464000800101A8FBF7E6FF0548C0790090044807
:10465000427901AB04A12046FBF766FE1CBD0000B9
:1046600004010020A56F0008202020253032686852
:1046700075202573203230253032686875000000BF
:104680007CB504460A48C078202801D00C2000E000
:10469000182005460648C07805494978CDE900103C
:1046A000034883782A4603A12046FBF73DFE7CBDE4
:1046B00004010020202020256868756872202530BC
:1046C000326868753A2530326868752563000000E5
:1046D00010B5FEF7BDFA00200249C8700862FEF767
:1046E0000BFC10BDB412002010B503494869FEF759
:1046F0008FFC012010BD0000B412002010B5002472
:104700000B48007A10B900F0A1F802E000F012F8AE
:1047100004460748806940B11CB90549886980474B
:1047200008B1012000E000200446204610BD000032
:10473000B4120020FEB54048007800EB40000001B4
:10474000C0F1400400263D48807800283BD03C4919
:1047500009688C4219DD3A4A1268A11ACA1701EB9E
:1047600092729210521CD0B2102800DD10203449F1
:1047700009680144324A1160114609688C4202DC22
:1047800011460C601EE001261CE02D4909688C4290
:1047900018DA2B4A1268111BCA1701EB9272921099
:1047A000521CD0B2102800DD102025490968091AD2
:1047B000234A1160114609688C4202DB11460C60E5
:1047C00000E0012601E01E4804601D480068A0F1D9
:1047D0001004FFF7E3F800200822CDE9002024238D
:1047E000184A0E2102902E20FFF7F8F80020082228
:1047F000CDE900202423144A2A2102902E20FFF71D
:10480000EDF800250CE0802C07DA14F1200F04DD10
:10481000E2B229460020FFF77DFC3034681CC5B2A7
:1048200005488078A842EEDC034801780022012088
:10483000FFF770FC3046FEBDB41200204A00002095
:10484000B400002001800008258000082DE9F04117
:10485000FFF7A4F8124845788078072801DD072083
:1048600001E00F4880782844C6B22C4614E0601B53
:10487000C0000830C7B20A480078A04205D13B46C4
:104880000022114607A0FFF797F93A462146022079
:10489000FFF740FC601CC4B2B442E8DBBDE8F08125
:1048A000B41200203E00000010B5FDF75BFE10B111
:1048B000FDF75EFE70B10848C07828B901200649AE
:1048C000C870FFF7E5FC05E00348006910B1024934
:1048D00008698047012010BDB412002010B50349BB
:1048E000C868FEF795FB012010BD0000B41200203F
:1048F0000149086870470000B80000201FB54FF458
:10490000E060FCF771FB1C208DF80C0001208DF895
:104910000F0000208DF80D008DF80E0003A8FCF7A5
:104920002BFB01210846FCF70BFD4FF08040FCF704
:10493000BBFE0020ADF80600ADF802004FF47A701F
:10494000ADF804002320ADF8000069464FF0804028
:10495000FCF7B8FF01218807FCF794FE01221146FD
:104960009007FCF7A6FF01218807FCF791FE1FBD09
:1049700001460A2091FBF0F200FB1210C0B2704712
:1049800038B5114801780078401C0F4A10700F4864
:10499000006830F81150ECB2022C0ED00C482912ED
:1049A00000900C4803780C4802782046FEF79EF8E9
:1049B00044B900200749087004E00020024908704B
:1049C000FFF7DEFF38BD00001001002014010020B9
:1049D00081490008190100201801002010B508487D
:1049E0000078401C0649087008460078897888429B
:1049F00002DB002002490870FEF714F910BD000028
:104A0000B412002070B500241DE004F1B001C8B25A
:104A10000021FCF7C9FB00210846FCF7C5FB00217B
:104A20001020FCF7C1FB002509E0802101FB0451A7
:104A3000094A505C0121FCF7B7FB681CC5B2802D08
:104A4000F3DB601CC4B2082CDFDB4FF4806102484A
:104A5000FBF72BFE70BD0000F918002010B50948C7
:104A60000078401E07490870084600788978884217
:104A700004DB04488078401E02490870FEF7D2F833
:104A800010BD0000B412002070B504460D466079D8
:104A90004006000E60711DB3607940F00100607146
:104AA0006079FDF7B7FF042822DB207920B9FFF7F2
:104AB0001FFF206001202071A079C8B9A068B8B19B
:104AC000A0688047A0B10120A07101221146E068D2
:104AD00001F012FBFF2232210120FFF7D3FA07E099
:104AE0006079FDF797FF042802DC00202071A07197
:104AF00070BD000038B510211548FCF759F98DF844
:104B0000000004211248FCF753F98DF80100082138
:104B10000F48FCF74DF98DF8020001210C48FCF715
:104B200047F98DF8030004240BE01DF804200AB9AE
:104B3000012200E000221146064A02EB0410FFF7B2
:104B4000A3FF201EA4F10101CCB2EED138BD0000BC
:104B50000008014074120020014A115470470000FF
:104B60001E010020024600BF1378184609B1C34356
:104B7000D8B270471CB504462068009060680146B2
:104B80000190009800F026F8FF2232210020FFF764
:104B900079FA1CBD7047000010B509480078094932
:104BA0008871FDF747FE084801F0DCF9064807491F
:104BB0000A6802604968416001200549087010BD1B
:104BC0000C0100204A00002004010020F000002019
:104BD0000D01002003B583B09DF80C008DF80A008C
:104BE0009DF80D008DF809009DF80E008DF8080065
:104BF0009DF811008DF807009DF810008DF8060053
:104C00009DF812008DF805009DF813008DF8040042
:104C100002A90120FCF73EFB01AA04210120FCF7B8
:104C2000F3FA05B000BD00007CB57D4B7D4A7E499E
:104C30007E4800F01FFA7E497E4881617E480078F8
:104C40000C2877D2DFE800F006133C6783A0A1A20E
:104C5000A3A4A5A6774908787849FDF70BFB0120A6
:104C60007549087075488078C0094870D5E0724869
:104C7000407808B1012000E000207049897860F395
:104C8000C7116E48817002206B4908706B4800782C
:104C90008DF8060020208DF807006948817901A869
:104CA00001F07AF99DF8060063494870634800787E
:104CB0000C2801DB012000E0002062490870ACE014
:104CC0005D4844785E488079012801D10C2000E0DD
:104CD00017200546AC4200DD2C4659488079012852
:104CE00010D18DF802405748007808B1502000E0FC
:104CF00041208DF803000021684601F04DF99DF830
:104D0000024000BF4D48047003204B4908704B48D7
:104D10004078487081E048484078484948704848A1
:104D20008079012807D1042043490870454800785C
:104D3000487008E070E005203F4908703F488078DF
:104D400000F00100487000203F49087065E03B48D2
:104D500000788DF802003848407808B1502000E013
:104D600041208DF803000021684601F015F99DF8F7
:104D700002003249087005202F4908702F488078BA
:104D800000F00100487048E000BF00BF00BF00BF56
:104D900000BF00BF2848407848B1284880782A4999
:104DA0000A780121914008432449887008E023488B
:104DB000807825490A780121914088431F498870ED
:104DC00021480078401C204908701C4880780A78E7
:104DD00001219140084008B1012000E0002016495F
:104DE0004870084600780B2804D008460078401C1C
:104DF000087010E00F4908781049FDF765FA0020A7
:104E00000D490870064B114A0749114800F032F964
:104E100000210848816100E000BF00BF7CBD0000A8
:104E2000393E0008C5240008214300089D230008DE
:104E3000DD230008B4120020AC0000204400002054
:104E40004A00002048000020470000205D4A00087A
:104E5000DD49000810B5FDF7C5FD2448007820B1F4
:104E6000052809D006282FD117E005201F49087012
:104E70001F484079487036E01C4841781C48417111
:104E80004079012802DA01211948417106201749A9
:104E9000087017488079487025E014484178144814
:104EA00081710246D179907901F04CF8044610489E
:104EB0004079A04201DD0E48447107200B4908707B
:104EC0000B48C07948700EE0084841780848C17125
:104ED00003465A799979D87900F0F4FF04490871AA
:104EE000FEF7ACFE00BF00BF10BD0000AC0000200C
:104EF0000401002010B5FDF775FD2A48007830B197
:104F000001280BD0022819D003283DD121E001202F
:104F10002449087024480078487040E021484078CF
:104F20002149087008460178204801F035F81F48EB
:104F300080781C4948700220087030E01948407899
:104F40001A4988700846407816494870032008704E
:104F500025E0144840781549487013480078012826
:104F60000CD104200F4908701048C078412801D1A5
:104F7000012000E000200B49487004E020200B498C
:104F8000C870FEF75BFE0AE00648407808B1412091
:104F900000E050200549C870FEF750FE00BF00BF7A
:104FA00010BD0000AC0000200C0100200401002016
:104FB0000448807808B9012000E000200149887089
:104FC000704700004A00002070B51448C079840979
:104FD000042C00DD0024601CC4B21048C07964F3C6
:104FE00087100E49C871002534B1012C06D0022C5F
:104FF00006D0032C08D105E0012505E00F2503E0CC
:105000005F2501E0FF2500BF00BF00218120FCF7E4
:10501000CBF8E8B20021FCF7C7F870BD4A000020C9
:1050200070B51546D61702EB5676F61001EBC6168C
:10503000B4B2055D1D43055570BD000010B50648AE
:10504000407808B9012000E0002003494870487802
:10505000FBF7E0FF10BD00004A0000200448007983
:1050600008B9012000E000200149087170470000E4
:105070004A00002010B5034CE06021616261E361E9
:1050800010BD0000B412002070B506460C4615464F
:10509000FDF7DEFD0020044948700870701C887020
:1050A00008460472456070BDB41200202DE9F04F2F
:1050B00087B005460E4691461C4639488078A8427E
:1050C00002D007B0BDE8F08F3548407830B10128F4
:1050D00049D002284ED003285ED153E030480078F2
:1050E0000690069801F074FE83462E4901F0AEFD4D
:1050F000824601F07FFD2C4A2C4BCDE9000101F0E6
:1051000085FB0746284A2A4B01F0F0F8CDE9020159
:1051100001F0BAF80590059801F06CFDCDE90201A7
:1051200000F0BEF907460022224B01F06FFB8246D9
:1051300001F014FBC0B204901C2004900020202237
:10514000CDE900200290B9F1000F01D04B4600E0FC
:10515000194B1A46049B0C3BD9B2114B18782023EB
:10516000FEF73CFC19E03823002211463046FEF7DA
:1051700023FD12E00A480378062200213046FEF79C
:105180001BFD0AE03CB10648007818B12046FDF747
:105190001BFC00E0A04700E000BF00BF00BF90E79D
:1051A000AE0000200000C0421F85EB51B81EF93F41
:1051B000B81EE93F00004040C9800008F0B587B044
:1051C00004460D4616461F4608488078A04201D086
:1051D00007B0F0BD294601A8FBF71CFA3B46324652
:1051E00001A92046FFF762FF00BFF1E7AE000020F3
:1051F00010B51648C0798009154901EBC012154B4E
:1052000015A10020FFF7DAFF164B174A17A101205E
:10521000FFF7D4FF174B184A18A10220FFF7CEFF63
:105220000A488078174901EBC012174B17A10320D9
:10523000FFF7C4FF05480079174901EBC012174B6F
:1052400017A10420FFF7BAFF10BD00004A0000209C
:105250009C720008C94F00084272696768746E65E5
:10526000737300003D5000089C750008496E766518
:1052700072740000855300081C760008526F746138
:10528000746500009C760008B14F0008416E696D9E
:105290006174696F6E7300009C7400085D500008B3
:1052A0004C4544730000000010B5034B034A04A1B1
:1052B0000020FFF783FF10BDB95300081C7A0008D7
:1052C00054696D656F75740010B51248C07900F0AF
:1052D0000300114901EBC012104B11A10020FFF790
:1052E0006DFF0C48C079C0F381000B4901EBC0127F
:1052F0000C4B0DA10120FFF761FF0648C079C0F3F8
:105300000110054901EBC012094B0AA10220FFF769
:1053100055FF10BD4A0000209C7700081D5400086E
:1053200055490000DD530008416C61726D73000047
:10533000FD530008486F7572206265657073000048
:1053400000B50246FEF794FC18B9054800781070C5
:1053500004E00020107002495068086200BD00009F
:10536000B4120020064A126A8A4202D0044A126A23
:1053700042600278024B1A701A46116270470000B0
:10538000B412002010B50548C47884F00100034928
:10539000C870C878FBF750FE10BD00004A0000201E
:1053A0000448407908B9012000E000200149487113
:1053B000704700004A00002004490878411CC8B228
:1053C0000C2800DD00200149087070474A000020C9
:1053D000411CC8B2032800DD0020704710B5064903
:1053E000C979C1F38100FFF7F3FF0349C97960F37D
:1053F00083010148C17110BD4A00002010B5064963
:10540000C979C1F30110FFF7E3FF0349C97960F3DC
:1054100005110148C17110BD4A00002010B50649B0
:10542000C97901F00300FFF7D3FF0349C97960F39D
:1054300001010148C17110BD4A00002030B585B09E
:1054400004460D4629466846FFF7B4F8034B002290
:1054500069462046FFF72AFE05B030BD294C0008FA
:1054600000B585B06846FFF7E5F8044B00226946B1
:105470000120FFF71BFE05B000BD0000554E0008DF
:1054800000B585B06846FFF7FBF8044B002269467B
:105490000320FFF70BFE05B000BD0000F54E00082D
:1054A00000B5254B21F0004287B09A4203DC002270
:1054B000134600922BE0214B9A4208D140B94FF09D
:1054C0000100FBF796F9FCF7A2FE07B000BD03DB75
:1054D000FCF79AFE07B000BD02AAFCF787FB10F0AC
:1054E00003014FF001000DD0012914D002291AD078
:1054F0000DF1080C9CE80F00FCF73CFD07B081F0B3
:10550000004100BD0DF1080C00909CE80F00FCF775
:1055100005FE07B000BD0DF1080C9CE80F00FCF77C
:1055200029FD07B000BD0DF1080C00909CE80F00AC
:10553000FCF7F4FDE2E70000FB21E93F0000F07F0B
:1055400010B500200549086000210548FCF7A0F8C7
:105550000020044908700449087010BD84012142EC
:1055600000040040281200203012002010B5FEF781
:10557000D1FB0C480068FDF7CFFC0B4802680B48D4
:1055800001680B480068FDF797FA0A494878FBF76D
:1055900041FD032000F0CEFD0020074908700120E6
:1055A00010BD000018000020240000202000002072
:1055B0001C0000204A00002016000020034800784C
:1055C000012800D170470020FCE70000E400002023
:1055D00010B5FFF77DF80448FDF79EFC034A044927
:1055E0000448FDF769FA10BD713100082D2A000842
:1055F0005D2A0008412A000810B50D4800780128EE
:1056000015D1FFF775F904460A480068201A0A49BF
:1056100009680844084908600648046008460068AC
:105620000649884202D908460349086000BF10BDF8
:10563000E4000020EC000020E8000020FF297515A0
:1056400010B588B0D2488078002877D0D14800784B
:10565000D1490978884263D00020D0490870D049E8
:1056600008700120CF490870CA498878FDF7BEFC50
:105670000446CD480078FDF7B9FC844201D00120F2
:1056800000E00020C9490870C2498878FFF770F926
:105690000446C5480078FFF76BF9844201D0012029
:1056A00000E00020C1494870BA494878FDF79EFCE7
:1056B0000446BF480078FDF799FC844201D00120E0
:1056C00000E00020B9498870B2494878FFF750F9E6
:1056D0000446B7480078FFF74BF9844201D0012017
:1056E00000E00020B149C870AA490878FDF77EFCA7
:1056F0000446A9480078FDF779FC844201D00120D6
:1057000000E00020A9490871A2488078A6490870E5
:10571000A0484078A64908709E4800789E490870C5
:10572000A048007800287BD09C480078032806DC3D
:105730009A480078401C9949087027E065E097482E
:105740000078062805DC95480078C01C934908704D
:105750001CE092480078102805DC90480078401D35
:105760008E49087012E08D480078162805DC8B48B9
:105770000078C01C8949087008E0884800781C2817
:1057800004DC86480078401C84490870834800780F
:105790001C2802DBFF20814908708148007801281D
:1057A00005DC7F480078401C7D49087012E07C4889
:1057B00000780D2805DC7A480078C01C784908700C
:1057C00008E077480078142804DC75480078401C0D
:1057D0007349087072480078142802DBFF20704972
:1057E00008706F48007814281ADD6C4800781C286F
:1057F00016DD002069490870694908706949087018
:105800006A480021016001710AE0002063490870C4
:1058100063490870634908706448002101600171A0
:1058200068208DF810001C208DF81100614805904B
:105830000B208DF8180010208DF8190058480078BA
:105840008DF81A0053490878FDF7D0FB8DF81B003E
:1058500005208DF81C00554800798DF81D0004A81E
:10586000FEF708F874208DF810004A490878FFF711
:105870007FF88DF81B0009208DF81C00494800783E
:105880008DF81D0004A8FDF7F5FF14208DF8110018
:1058900013208DF8180018208DF81900464805903F
:1058A0003E4800788DF81A003C208DF810003949E8
:1058B0004878FDF79BFB8DF81B0005208DF81C0038
:1058C0003A4880788DF81D0004A8FDF7D3FF5320D7
:1058D0008DF810002F494878FFF74AF88DF81B0023
:1058E00009208DF81C003148C0788DF81D0004A8EF
:1058F000FDF7C0FF01208DF8100026498878FDF7DC
:1059000075FB8DF81B0005208DF81C0027480078DA
:105910008DF81D0004A8FDF7ADFF18208DF81000CC
:105920001C498878FFF724F88DF81B0009208DF8B2
:105930001C001E4840788DF81D0004A8FDF79AFF52
:105940001E4800684FF46161B0FBF1F201FB1200E8
:10595000B0F5E16F0AD900201822CDE90020062316
:10596000174A142102903120FEF738F80948C07810
:105970008DF80C0000208DF80D0014236822002102
:1059800003A8FEF719F90748007808B010BD000019
:105990004A000020F0000020C8000020BE000020C7
:1059A000BF000020C0000020C6000020C100002071
:1059B000C7000020137F0008D97C0008B800002031
:1059C000EF7F000810B586B0C8488078002877D0EF
:1059D000C7480078C7490978884263D00020C64983
:1059E0000870C64908700120C5490870C049887808
:1059F000FDF7FCFA0446C3480078FDF7F7FA844245
:105A000001D0012000E00020BF490870B849887823
:105A1000FEF7AEFF0446BB480078FEF7A9FF8442BC
:105A200001D0012000E00020B7494870B049487813
:105A3000FDF7DCFA0446B5480078FDF7D7FA844252
:105A400001D0012000E00020AF498870A8494878C3
:105A5000FEF78EFF0446AD480078FEF789FF8442CA
:105A600001D0012000E00020A749C870A0490878B3
:105A7000FDF7BCFA04469F480078FDF7B7FA844268
:105A800001D0012000E000209F49087198488078EB
:105A90009C490870964840789C4908709448007862
:105AA000944908709648007800287BD09248007886
:105AB000032806DC90480078401C8F49087027E0D6
:105AC00065E08D480078062805DC8B480078C01C0E
:105AD000894908701CE088480078102805DC864851
