:020000040800F2
:100000001824002039020008511000081B0E0008B7
:100010004D100008750B0008871B00080000000049
:10002000000000000000000000000000951500081E
:10003000D10B000800000000C9140008A916000830
:10004000991B0008530200085302000853020008DD
:100050005302000853020008D30B000853020008A3
:10006000DD0B0008E70B0008F10B00085302000845
:10007000530200085302000853020008530200080C
:1000800053020008530200085302000853020008FC
:1000900053020008530200085302000853020008EC
:1000A00053020008530200085302000853020008DC
:1000B0000D1700085D1700085302000853020008DE
:1000C00053020008530200085302000853020008BC
:1000D00053020008A11A0008530200085302000846
:1000E000530200085302000853020008530200089C
:1000F000530200085302000853020008530200088C
:10010000530200085302000853020008530200087B
:10011000530200085302000853020008530200086B
:10012000530200085302000853020008530200085B
:1001300000F002F800F070F80AA090E8000C824489
:100140008344AAF10107DA4501D100F065F8AFF266
:10015000090EBAE80F0013F0010F18BFFB1A43F0A5
:1001600001031847CC800000EC80000010F8013B30
:100170000A4413F0030408BF10F8014B1D1108BF17
:1001800010F8015B641E05D010F8016B641E01F8C5
:10019000016BF9D1002D15D010F8014B03F00C03C1
:1001A0000C2BA1EB04040ABF10F8013BA4EB831451
:1001B000A4EB032405F1010314F8016B5B1E01F8A5
:1001C000016BF9D5914238BF10F8013BD1D370478C
:1001D0000023002400250026103A28BF78C1FBD850
:1001E000520728BF30C148BF0B607047642900F038
:1001F0001181752900F00E81632900F08083732935
:1002000000F08583002070471FB59DE8030000F0D3
:10021000B5FA1FBD10B510BD00F0A7FB1146FFF7E2
:10022000F3FF04F011F900F0C5FB03B4FFF7F2FF90
:1002300003BC02F09EF800000948804709480047C7
:10024000FEE7FEE7FEE7FEE7FEE7FEE7FEE7FEE786
:10025000FEE7FEE704480549054A064B70470000E3
:10026000AD16000831010008181E002018240020D7
:100270001820002018200020704770B5064600F0B6
:1002800061FA056806F10B0020F00704B4429CBF38
:10029000002070BD2B466A68BAB11068A04210D326
:1002A00004F1080188423CBF5068586007D3516888
:1002B000101941601168091B016058601460101D1D
:1002C00070BD13465268002AE7D12146284600F047
:1002D00041FA0028DED170BD70B50446051F00F05C
:1002E00031FA0068002C14BF446870BD002C18BFA0
:1002F000AC423CBF20466468F8D301680A18AA42A1
:1003000018BF456003D12A6805461144016028687A
:100310004119A1421CBF6C6070BD616869602168B1
:100320000844286070BD00000FB41CB5074B06AA36
:100330007B4469460090059800F0BFFA00206946AA
:1003400000F0CEFA1CBC5DF814FB0000AD05000007
:1003500070B5044685690068C10601D5302600E005
:100360002026C00707D070BDD4E901213046904750
:10037000206A401C20626D1EF6D570BD70B5044623
:1003800085690078C00707D170BDD4E9012120201C
:100390009047206A401C20626D1EF6D570BD09682A
:1003A0004A0501D540B27047C905FCD500B2704777
:1003B00009684A0501D5C0B27047C905FCD580B2AD
:1003C000704770B50C460546012A05D0287880068E
:1003D00000D5EA69002302E0012305E05B1C93429B
:1003E00002D2E05C0028F9D1A869E618C01AA86119
:1003F000286A184428622846FFF7AAFF04E0D5E9D6
:10040000012114F8010B9047B442F8D32846FFF7B6
:10041000B5FF70BD2DE9F04106460024106875292E
:10042000314616A510D0FFF7BAFF002802DA404285
:1004300013A507E031688A0701D512A502E0490734
:1004400004D511A5012401E0FFF7B2FF00210A2223
:1004500006F1240709E0B0FBF2FCB0FBF2F302FB6B
:100460001C00303078541846491C0028F3D123462C
:100470002A463046BDE8F04100F0C1B90000000056
:100480002D0000002B000000200000002DE9F05F8F
:10049000894604464FF0000ADFF874B1FB44C0F807
:1004A00020A02046E1688847002874D0252806D07F
:1004B000D4E901219047206A401C2062F1E7002620
:1004C0005F462046E16888472028054607DB312D36
:1004D00005D2781910F8200C08B10643F1E7B007EF
:1004E00001D526F00406C4F81CA00027C4F818A003
:1004F0002A2D09D0284601F035FF38B304EB8708D0
:10050000303DC8F8185019E059F8041B204604EB98
:1005100087029161E1688847012F054618D1E0699B
:10052000002820DA26F020061DE0D8F8180000EB9D
:10053000800005EB40003038C8F818002046E1681C
:100540008847054601F00EFF0028EED1012F0AD0A2
:100550002E2D08D12046E16888477F1C0546022FD2
:1005600046F02006C4DBA069002803DA404246F0CA
:100570000106A061F00701D026F010066C2D0BD00B
:10058000682D09D04C2D39D06A2D35D0742D35D039
:100590007A2D33D016E038E0E1682F4620468847B0
:1005A000B842054609D16C2F26D04FF48060E1682F
:1005B000064320468847054604E06C2F1AD04FF4C6
:1005C000807006430DB3A5F14100192802D82035EB
:1005D00046F400664A462946204626604E46FFF706
:1005E00005FE80B101280BD0F61D26F0070000F1B2
:1005F000080956E74020E4E78020D8E70020D6E746
:1006000006F104094DE7284652E7206ABDE8F09F4D
:10061000587C000040EA0103024630B59B0710D128
:100620004FF0013400E008C208C91D1B9D4315EAC4
:10063000C41FF8D013F0FF0102F8011B0DD01B0AF4
:10064000F8E711F8013B002B02F8013B05D011F847
:10065000013B002B02F8013BF3D130BD10B5431C28
:1006600002E010F8011B71B18107FAD14FF001329D
:1006700002C88C1A8C4314EAC211F9D0C01A0A06B7
:1006800003D0C01E10BDC01A10BD0A0401D0801EC8
:1006900010BD0902FCD0401E10BD02F0FF0343EA6A
:1006A000032242EA024200F002B84FF0000204299D
:1006B000C0F0128010F0030C00F01B80CCF1040C91
:1006C000BCF1020F18BF00F8012BA8BF20F8022BC5
:1006D000A1EB0C0100F00DB85FEAC17C24BF00F86B
:1006E000012B00F8012B48BF00F8012B70474FF099
:1006F000000200B5134694469646203922BFA0E872
:100700000C50A0E80C50B1F12001BFF4F7AF09077D
:1007100028BFA0E80C5048BF0CC05DF804EB89006E
:1007200028BF40F8042B08BF704748BF20F8022BB1
:1007300011F0804F18BF00F8012B704770477047C9
:100740007047704700487047BC1D002070477047D5
:100750007047704738B504460A4600206946AFF333
:100760000080002808BF38BD02460099204600F0EE
:10077000DBF8012038BD012000F0F0B8F8B5AFF388
:100780000080054600200C46102000BF0646A81930
:10079000A0420DD9324669460020AFF30080070021
:1007A00008BF00F0DBF80098A04218BF0546C41946
:1007B000FFF7C8FF05600746F01D20F00700461947
:1007C000284600F00AF8B44208BFF8BDA21B314623
:1007D0003868BDE8F84000F0A7B800210160C0E922
:1007E000011070471020704710B500F099F80068AC
:1007F00010BD10B5044600F093F8046010BD2DE95B
:10080000F0470D4699469246044600F124080168D7
:10081000880604D5E06921F01001216000E0012084
:10082000A84201DD471B00E00027A1697A1902EB0D
:100830000900081AA0612078C00602D42046FFF7FC
:1008400087FD002608E0D4E901211AF80600904748
:10085000206A401C761C20624E45F4DB2078C006DE
:100860000AD52046FFF774FD06E0D4E901213020C7
:100870009047206A401C2062381EA7F10107F4DC73
:1008800007E0D4E9012118F805009047206A401CD0
:100890002062281EA5F10105F3DC2046FFF76EFD5E
:1008A0002078000602D50220BDE8F0870120FBE792
:1008B00001694A1C02610878704700B58FB0CDE924
:1008C00001310021059105497944CDE90310114614
:1008D0006846FFF7DBFD0FB000BD0000E5FFFFFF3E
:1008E0000A6802F8010B0A60704710B5436913B13A
:1008F000AFF3008001E0FFF764FD012010BD127826
:1009000000F124010A7000224A700122EDE711680B
:100910004FF0FF32E9E7000000487047B41D0020A7
:1009200000487047B41D0020034640688C460028EC
:1009300018BF88423CBF03464068F8D31868184483
:10094000884207D00CF1030020F00700001D411A77
:10095000521A0146081D0A60FFF7BEBC10B500F030
:1009600037F8BDE8104000F02EB87546FFF7D4FF09
:10097000AE4605006946534620F00700854618B08C
:1009800020B5FFF767FCBDE820404FF000064FF0B0
:1009900000074FF000084FF0000B21F00701AC46B4
:1009A000ACE8C009ACE8C009ACE8C009ACE8C009D3
:1009B0008D46704710B50446AFF300802046BDE871
:1009C0001040FFF732BC002801D001F0D2BC7047C4
:1009D00010B5012805D0002103A000F021F8012066
:1009E00010BD09A1F8E7000053494752544D454D49
:1009F0003A204F7574206F662068656170206D65C0
:100A00006D6F7279000000003A2048656170206DBA
:100A1000656D6F727920636F7272757074656400B2
:100A200070B505460C460A2000E06D1C01F0A5FCDF
:100A300035B128780028F8D102E0641C01F09DFC53
:100A400014B120780028F8D1BDE870400A2001F0E8
:100A500094BC0146C86C80B27047024600201368FF
:100A60000B400BB1012000E000207047F0B50446B8
:100A70000D4600200021092D11DDE068A5F10A06D0
:100A800006EB4607072606FA07F18843A5F10A0692
:100A900006EB460603FA06F10843E0600CE0206925
:100AA00005EB4507072606FA07F1884305EB4506DF
:100AB00003FA06F108432061072A0FDA606B561E1D
:100AC00006EB86071F2606FA07F18843561E06EB3B
:100AD000860605FA06F10843606322E00D2A0FDA64
:100AE000206BD61F06EB86071F2606FA07F1884300
:100AF000D61F06EB860605FA06F10843206310E0D0
:100B0000E06AA2F10D0606EB86071F2606FA07F13A
:100B10008843A2F10D0606EB860605FA06F10843A6
:100B2000E062F0BD21B1826842F4A002826003E07D
:100B3000826822F4A00282607047000008B5014676
:100B4000002000900348009000980844009000980E
:100B5000008808BD006C004008B500220092044ADD
:100B60000092009A02440092009A116008BD0000B1
:100B7000006C004000BFFEE770B503F009FEC5B28F
:100B800001F050FF044610480078281AC0B2C82867
:100B900017DB0D48418805704480081DA04203DA28
:100BA00001200A4A107070BD04F10A00814203DD81
:100BB0000020064A1070F6E7A14201DA0120F2E7B0
:100BC00000BF0020EFE700003612002034120020A2
:100BD000704710B5012000F011F810BD10B50420C9
:100BE00000F00CF810BD10B5082000F007F810BD9B
:100BF00010B5102000F002F810BD00000149086097
:100C000070470000140401402DE9F0410246002520
:100C10000026002000230024002791F803C00CF0D8
:100C20000F0591F803C00CF0100CBCF1000F03D0BD
:100C300091F802C04CEA050591F800C0BCF1000F24
:100C400031D0146800202BE04FF0010C0CFA00F3B7
:100C5000B1F800C00CEA03069E4220D183004FF099
:100C60000F0C0CFA03F7BC4305FA03FC4CEA04042E
:100C700091F803C0BCF1280F06D14FF0010C0CFA1B
:100C800000FCC2F814C00AE091F803C0BCF1480FA0
:100C900005D14FF0010C0CFA00FCC2F810C0401C4A
:100CA0000828D1D31460B1F800C0BCF1FF0F34DDC7
:100CB000546800202EE000F1080C4FF0010808FAFB
:100CC0000CF3B1F800C00CEA03069E4221D1830068
:100CD0004FF00F0C0CFA03F7BC4305FA03FC4CEA87
:100CE000040491F803C0BCF1280F05D100F1080CF1
:100CF00008FA0CF8C2F8148091F803C0BCF1480F50
:100D000007D100F1080C4FF0010808FA0CF8C2F8FE
:100D10001080401C0828CED35460BDE8F08100004C
:100D2000F0B50A46002300240021002500F000460B
:100D3000B6F1004F02D11D4EF16901E01B4E716802
:100D4000C0F3034583B200F44016B6F5401F08D146
:100D500021F07061154E766826F07066134F7E6044
:100D600012E000F48016B6F5801F06D1032606FABD
:100D700005F4A14341F0706106E0460D360103FA27
:100D800006F6B14341F0706122B1460D360103FA17
:100D900006F6314300F00046B6F1004F02D1034E93
:100DA000F16101E0014E7160F0BD00000000014002
:100DB000416170470161704710B50446002301226C
:100DC00021460948FFF752FE01210748FFF7AAFE16
:100DD00000BF02210448FFF740FE0028F9D0024876
:100DE000FFF737FE10BD0000002401402DE9F0415F
:100DF00007460C460025002608E03846FFF7DCFFD2
:100E00000544012001F0F0FF701CC6B2A642F4DBDD
:100E1000B5FBF4F080B2BDE8F08100BFFEE7000052
:100E200010B5044600F082F81CB101200B4908609F
:100E300002E0002009490860042001F0D5FF0120EC
:100E40000649091F0860042001F0CEFF0020044974
:100E5000C1F89801042001F0C7FF10BD9C81214218
:100E60000080214208B50121082000F04FFB4020FE
:100E7000ADF8000003208DF8020010208DF803006B
:100E800069460848FFF7C0FE8020ADF800006946BB
:100E90000448FFF7B9FE0120034908600349C1F87F
:100EA000980108BD000C01409C8121420080214234
:100EB00070B5002401201449086000F029F80025CD
:100EC0001AE06006040E042001F08EFF01200E4996
:100ED000091F0860042001F087FF0C48D0F81C01AE
:100EE00008B144F0010400200749091F08600420EC
:100EF00001F07AFF681CC5B2082DE2DB0020024930
:100F0000091F0860204670BD9C812142008021425B
:100F100008B58020ADF8000048208DF80300694630
:100F20000148FFF771FE08BD000C014008B58020A4
:100F3000ADF8000003208DF8020010208DF80300AA
:100F400069460248FFF760FE08BD0000000C014042
:100F500010B5FFF7EBFF01200A4908600A49C1F804
:100F60009801042001F040FF002006490860042099
:100F700001F03AFF00200449C1F89801042001F073
:100F800033FF10BD9C8121420080214210B5FFF744
:100F9000CDFF002009490860042001F025FF012051
:100FA0000749C1F89801042001F01EFF0120034900
:100FB0000860042001F018FF10BD00009C81214250
:100FC0000080214270B504460025FFF7AFFF0026E0
:100FD0001BE004F0800018B101201A49086002E00B
:100FE000002018490860042001F0FEFE0120154988
:100FF000091F0860042001F0F7FE00201249C1F823
:1010000098016006040E701CC6B2082EE1DB0120B8
:101010000C490860FFF77CFF042001F0E5FE012089
:101020000949C1F89801042001F0DEFE0548803826
:1010300000682843C5B200200349C1F8980128463A
:1010400070BD00009C8121420080214200BFFEE76C
:101050007047000070B5002100230F22C47804B34C
:10106000154C246804F4E064C4F5E064210AC1F17D
:101070000403CA40447804FA03F1847814402143FD
:1010800009010E4C0678A155047804F01F050124CF
:10109000AC4005786D11AD0005F1E025C5F80041C3
:1010A00009E0047804F01F050124AC40044D0678E3
:1010B000761145F8264070BD0CED00E000E400E03C
:1010C00080E100E002490143024A116070470000DC
:1010D0000000FA050CED00E010B54FF48061034804
:1010E000FFF7E3FA00F0CAF810BD0000E91800208D
:1010F00010B504461CB90021A62000F0C3F8012C4D
:1011000003D10021A72000F0BDF80021AF2000F09E
:10111000B9F810BD10B504463CB90021C82000F054
:10112000B1F80021A12000F0ADF8012C07D1002179
:10113000C02000F0A7F80021A02000F0A3F810BD07
:1011400008B50121052000F0E1F901214948FFF728
:10115000E7FDF020ADF8000010208DF8030003201B
:101160008DF8020069464448FFF74EFD4FF4C55123
:101170004148FFF71FFE40213F48FFF719FEC820F6
:1011800001F00CFE40213C48FFF714FE0021AE2088
:1011900000F078F80021084600F074F800211020D3
:1011A00000F070F80021402000F06CF80021812050
:1011B00000F068F80021CF2000F064F80021A120A1
:1011C00000F060F80021C82000F05CF80021A620A3
:1011D00000F058F80021A82000F054F800213F202A
:1011E00000F050F80021D32000F04CF80021084610
:1011F00000F048F80021D52000F044F800218020BC
:1012000000F040F80021D92000F03CF80021F12046
:1012100000F038F80021DA2000F034F80021122024
:1012200000F030F80021DB2000F02CF800214020F5
:1012300000F028F80021202000F024F800210220EE
:1012400000F020F800218D2000F01CF8002114206F
:1012500000F018F80021A42000F014F80021A620C6
:1012600000F010F8FFF738FF0021AF2000F00AF877
:1012700008BD0000000230000008014010B503F076
:10128000E3FA10BD70B504460E4626B1102114488D
:10129000FFF790FD03E010211148FFF789FD0025BD
:1012A00017E020210E48FFF783FD04F0800020B1F5
:1012B00080210B48FFF77EFD03E080210848FFF7FF
:1012C00077FD20210648FFF775FD6006040E681CB7
:1012D000C5B2082DE5DB10210148FFF76BFD70BD9D
:1012E0000008014070B50446FFF732FEA220FFF768
:1012F00069FE68B92046FFF765FEFFF729FEA320C7
:10130000FFF760FEFFF7D4FD05460120FFF788FDDB
:10131000FFF73CFE284670BD70B505460E461446E4
:10132000012D23D12078632801DD00202070607812
:101330000C2801DD01206070A0781F2801DD01204C
:10134000A070E078062801DD0120E070207800F030
:10135000FDF82070607800F0F9F86070A07800F077
:10136000F5F8A070E07800F0F1F8E070032E04D1F9
:10137000607840F08000607003E0607820F08000CA
:101380006070A07806490870E078487060788870CE
:101390002078C8700A460421052000F072F870BD5C
:1013A0002C12002070B5054600240020FFF79AFF9C
:1013B0000446062D02D144F0800405E0052D03D13A
:1013C00004F07F0424F008042146002000F047F8D0
:1013D00070BD000070B505460C46012D1AD120786D
:1013E000172801DD0020207060783B2801DD0020F7
:1013F0006070A0783B2801DD0020A070207800F00C
:10140000A5F82070607800F0A1F86070A07800F076
:101410009DF8A070A0780649087060784870207820
:1014200088700A460321022000F02BF870BD0000EE
:101430003012002010B500240020FFF753FF0446AF
:1014400004F0200008B104F0DF0404F0800008B9C3
:1014500004F0F7042146002000F001F810BD70B53B
:1014600005460C46FFF774FDA220FFF7ABFD28B937
:101470002846FFF7A7FD2046FFF7A4FDFFF786FDEE
:1014800070BD2DE9F04107460D4614460026FFF7D2
:101490005FFDA220FFF796FD60B93846FFF792FD89
:1014A00000BF05E02078FFF78DFD641C701CC6B2FC
:1014B000AE42F7DBFFF76AFDBDE8F0810149086243
:1014C0007047000000000E427047000029B1064A34
:1014D000D2690243044BDA6104E0034AD2698243D1
:1014E000014BDA61704700000010024029B1064A42
:1014F00012690243044B1A6104E0034A12698243F1
:10150000014B1A61704700000010024029B1064AE1
:1015100092690243044B9A6104E0034A9269824350
:10152000014B9A61704700000010024029B1064A41
:10153000D2680243044BDA6004E0034AD268824373
:10154000014BDA60704700000010024001460022A3
:1015500004E0501CC2B2A1F10A00C1B20A29F8DAB3
:10156000100741EA1060704701460020034A1288C4
:101570000A400AB1012000E0002070470428004022
:1015800000BF0348008800F020000028F9D0704711
:1015900004280040704710B500F002F810BD0000AC
:1015A0000CB50020019000903348006840F4803072
:1015B0003149086000BF3048006800F400300090F6
:1015C0000198401C0190009818B90198B0F5A06FDF
:1015D000F1D12948006800F4003010B101200090DA
:1015E00001E0002000900098012843D123480068C2
:1015F00040F01000214908600846006820F0030010
:1016000008600846006840F0020008601A48406818
:10161000194948600846406848600846406840F4F8
:10162000806048600846406820F47C1048600846A6
:10163000406840F4E81048600846006840F0807058
:10164000086000BF0C48006800F000700028F9D066
:101650000948406820F00300074948600846406890
:1016600040F00200486000BF0348406800F00C00F2
:101670000828F9D10CBD00000010024000200240F3
:10168000042808D14FF0E021096941F004014FF02E
:10169000E022116107E04FF0E021096921F0040127
:1016A0004FF0E022116170477047000010B51348F9
:1016B000006840F001001149086008464068104980
:1016C00008400E494860084600680E4908400B492A
:1016D00008600846006820F48020086008464068DA
:1016E00020F4FE0048604FF41F008860FFF753FFAE
:1016F0004FF000600449086010BD00000010024077
:101700000000FFF8FFFFF6FE08ED00E010B5012134
:10171000880700F059F9A8B10D480068401C0C4931
:10172000086001200B490870094800684FF46161A6
:10173000B0FBF1F201FB120020B907480078401C11
:10174000054908700121880700F03BF810BD000032
:10175000B4000020F4000020EC00002010B50121AE
:10176000114800F031F9F0B101210F4800F029F8DB
:101770000E480088401C0D490880084600880C4926
:101780000988884203DA01200A49086002E0002043
:10179000084908600548008807490988884202DB33
:1017A00000200249088010BD0004004026120020DD
:1017B000221200208401214224120020CA43028206
:1017C0007047CA430282704721B1028842F0010289
:1017D000028004E002884FF6FE731A4002807047D0
:1017E00010B504466848844208D10121C014FFF7AF
:1017F0009DFE0021E014FFF799FEC4E0B4F1804F94
:1018000008D101210846FFF771FE00210120FFF7F2
:101810006DFEB8E05D48844208D101210220FFF747
:1018200065FE00210220FFF761FEACE058488442CB
:1018300008D101210420FFF759FE00210420FFF701
:1018400055FEA0E05348844208D101210820FFF74B
:101850004DFE00210820FFF749FE94E04E488442E7
:1018600008D101211020FFF741FE00211020FFF7D1
:101870003DFE88E04948844208D101212020FFF73D
:1018800035FE00212020FFF731FE7CE044488442F1
:1018900008D101214014FFF749FE00216014FFF731
:1018A00045FE70E03F48844209D10121C804FFF79A
:1018B0003DFE00214FF40020FFF738FE63E03A4878
:1018C000844209D101210805FFF730FE00214FF4C1
:1018D0008010FFF72BFE56E03448844209D10121E5
:1018E0004805FFF723FE00214FF40010FFF71EFE0E
:1018F00049E02F48844208D101214020FFF7F6FD3E
:1019000000214020FFF7F2FD3DE02A48844208D143
:1019100001218020FFF7EAFD00218020FFF7E6FD8E
:1019200031E02548844208D101218015FFF7DEFD12
:101930000021A015FFF7DAFD25E02048844209D1F7
:1019400001210804FFF7F2FD00214FF48030FFF77A
:10195000EDFD18E01A48844209D101214804FFF73F
:10196000E5FD00214FF40030FFF7E0FD0BE01548E6
:10197000844208D101218804FFF7D8FD00214FF4EB
:101980008020FFF7D3FD10BD002C01400004004073
:1019900000080040000C004000100040001400400F
:1019A00000340140004C014000500140005401400F
:1019B00000180040001C0040002000400040014092
:1019C000004401400048014030B502460020002399
:1019D0000024158A05EA0103958905EA010413B17B
:1019E0000CB1012000E0002030BD1AB183890B4307
:1019F000838102E083898B438381704700220288C0
:101A00001D4B98420ED01D4B98420BD0B0F1804F29
:101A100008D01B4B984205D01A4B984202D01A4B63
:101A2000984204D14FF68F731A404B881A43174BD4
:101A3000984207D0164B984204D04FF6FF431A4005
:101A4000CB881A4302808B8883850B8803850A4BD9
:101A500098420BD0094B984208D00E4B984205D0C3
:101A60000D4B984202D00D4B984201D10B7A038660
:101A70000123838270470000002C014000340140A4
:101A80000004004000080040000C0040001000402E
:101A90000014004000400140004401400048014063
:101AA00010B540F225511D4800F03EF810B31B4818
:101AB00000F064F8C4B21A48008800F40040C8B9C5
:101AC0001748008800F4804060B10A2C03D0002041
:101AD0001349088020E01248008840F40040104973
:101AE000088019E00D2C06D10D48008840F4804094
:101AF0000B49088010E00A480088C0F30D0009492E
:101B00000C5407480088401C054908800846008896
:101B1000C72801DD0020088010BD0000003801400A
:101B200044120020E91C002070B502460024002366
:101B30000025002040F66A16B14200D100BFC1F373
:101B4000421501F01F03012606FA03F3012D02D10D
:101B50009689334006E0022D02D1168A334001E017
:101B6000968A33400C12012606FA04F41688344093
:101B700013B10CB1012000E0002070BD014688883F
:101B8000C0F30800704700BFFEE7000000200149D5
:101B900008607047082C004010B50348007800F03A
:101BA00005F8FFF7F3FF10BD3A12002000F07F01A7
:101BB000014A116070470000002C00402DE9FF4FE2
:101BC00085B081468A460020049003900798A0EBD8
:101BD00009050898A0EB0A06CDF80890CDF804A0F6
:101BE000002D01DD012705E00DB9002702E04FF0CF
:101BF000FF376D42002E02DD4FF0010806E016B9F6
:101C00004FF0000802E04FF0FF387642B54201DDA8
:101C10002C4600E034464FF0000B22E0019AD1B28E
:101C2000029AD0B2012200F023F8049828440490CC
:101C30000398304403900498A04205DD0498001BEB
:101C400004900298384402900398A04205DD03985E
:101C5000001B03900198404401900BF101001FFA12
:101C600080FB601C8345D9DD09B0BDE8F08F000022
:101C7000F0B5144600263F2801DC3F2900DDF0BD09
:101C80000B46CF1701EB5777C7F3C702CF1701EB0E
:101C90005777FF10A1EBC707FDB20123AB40DEB2BF
:101CA0006CB1402303FB02030C4FFB5C3343402722
:101CB00007FB0207DFF824C00CF807300CE04023D4
:101CC00003FB0203054FFB5CB343402707FB0207FE
:101CD000DFF808C00CF8073000BFD0E7E912002099
:101CE000490050EAC12018BF04204A0D18BF40F037
:101CF000010040F2FF72B2EB515F08BF40F00200FA
:101D0000012808BF0520704705480078401C044999
:101D1000087008460078B42801D100200870704788
:101D2000F81100202DE9F74F144694B00021C4E9C2
:101D300002111599079121F00045C9498D4206DC31
:101D40001599C4E9000117B00020BDE8F08FC5491E
:101D5000DFF814A3A9423CDD0799C44E0029C44F03
:101D6000C44A1599534619DD04F0BAFC554506D00E
:101D7000C14AC24B04F0B4FCC4E900010AE04FF0D0
:101D8000D352BE4B04F0ACFC32463B4604F0A8FCF8
:101D9000C4E9000117B00120BDE8F08F04F006F996
:101DA000554506D0B44AB54B04F000F9C4E900012A
:101DB0000AE04FF0D352B14B04F0F8F832463B46FC
:101DC00004F0F4F8C4E9000117B04FF0FF30BDE8AB
:101DD000F08FAB49A942159978DB21F00041834689
:101DE0008846A84AA84B04F071FB0022A74B04F0D8
:101DF000DDF804F0E3FA099004F03DFB06460F46D7
:101E00009C4A534604F062FB43465A4604F05CFC8D
:101E100080468A46984A994B3046394604F056FB2C
:101E20002A0D01250B924246534604F04DFC032D2A
:101E3000C4E9000139D00B98C1F30A51401A05EBEF
:101E400045111139814230DA9148C346784400EB9C
:101E50000510CDF80CA00C90D0E90023304639468F
:101E600004F034FB02460B46049106905846039951
:101E700004F036FC80468A4602460B4658460399D3
:101E800004F02EFC049B069A04F02AFC83460C986E
:101E900003913946D0E90223304604F017FB5A4635
:101EA000039B04F01DFC6D1CBDE707980028A2BF32
:101EB000099817B0BDE8F08F616881F0004161605A
:101EC000099817B04042BDE8F08FFFE784461598A7
:101ED000C1F31301C0F30A50A0F2F5304FEA6018C5
:101EE00000F01F06C6F12000139000200690079016
:101EF00041F4801E05206D4676B1664A08EB00016C
:101F00007A4452F8213002EB8101B3404A681399B8
:101F100022FA01F1194305E05F4908EB0002794418
:101F200051F82210A1FB0E27A1FB0C131A449A4270
:101F300034BF0123002303EB070A05EB8003D3E939
:101F400001B70F448F4234BF0121002193448B44D9
:101F500011B1934502D903E0934501D2012100E07C
:101F60000021C3E901B7514445F82010011EA0F13A
:101F70000100C1DC0298059F00F10050800F129013
:101F80000298DDE90356800004F075FA834628467E
:101F90000D9104F087FA6FF01D0204F009FECDE9FF
:101FA0000E01304604F07EFA6FF03D0204F000FEB0
:101FB00080468A46384604F075FA6FF05D0204F0F8
:101FC000F7FD074642465346119103F0EFFFDDE966
:101FD0000E2303F0EBFF5A460D9B03F0E7FF0025AD
:101FE0000E465A4628460D9B04F07AFBDDE90E2387
:101FF00004F076FB4246534604F072FB3A46119BCE
:1020000004F062FBDFF898A0244A534604F05EFA1D
:1020100007468846234A244B3146284604F056FAA0
:102020003A46434603F0C2FF074688464FF0A842AF
:1020300053463146284604F049FA3A46434603F0EF
:10204000B5FF159A12F0004F04D0129A81F00041AA
:1020500052421292C4E90001129817B0BDE8F08F05
:10206000FB21E93F7CD90240FB21F93F7370032E2D
:102070008A19A33B000040543163621A61B4D03D19
:10208000FB21394183C8C96D305FE43F0000E03F68
:10209000F06200006C6200004E620000182D445493
:1020A000FB21F93D3326A611460B113C2DE9FF4DCE
:1020B00021F0004807460C46B8F1795F08DA04F0D1
:1020C0007DF9002801BF0020324904B0BDE8F08D41
:1020D0003A4623461046194604F0F8F905460246EA
:1020E0002D480E460B460621784400F05DF82A463E
:1020F000334604F0EBF9DDE9022382468B4638468D
:10210000214604F0E3F904460F4652465B46284652
:10211000314604F0DBF922463B4604F0E1FA07467B
:102120008A464FF0FF322846314604F041FD1B4AF3
:1021300090450ADA3A46534604F0D2FA04B0002237
:10214000BDE8F04D134B04F0BFBA154A4245A8BF95
:10215000A8F500154FF00004B8BF124D22462B46DB
:1021600004F0BEFA0646884622462B46002009495E
:1021700004F0B6FA04460D463A4653463046414608
:1021800004F0AEFA04B022462B46BDE8F04D04F050
:102190009BBA00000000F03F246000003333D33FBF
:1021A0000000E93F0000D23F2DE9F0414F1E00EB57
:1021B000C7010446D1E9000115461E4637F0060264
:1021C0000DD02A46334604F081F97F1E04EBC70385
:1021D000D3E9002303F0EAFE37F00602F1D1022F23
:1021E00025D0042F13D0062F18BFBDE8F0812A4652
:1021F000334604F06BF9D4E90A2303F0D7FE2A46EC
:10220000334604F063F9D4E9082303F0CFFE2A46ED
:10221000334604F05BF9D4E9062303F0C7FE2A46EF
:10222000334604F053F9D4E9042303F0BFFE2A46F1
:10223000334604F04BF9D4E9022303F0B7FE2A46F3
:10224000334604F043F9D4E90023BDE8F04103F03C
:10225000ADBE00002DE9FF4D054621F0004084B0E1
:102260000C46B0F1795F0BDA2846FFF739FD0428F8
:1022700008BF00F06FF8284608B02146BDE8F08D91
:102280002A460B46104604F021F906460F462A4618
:10229000234604F01BF9804626488A4632463B46D0
:1022A00005217844FFF780FF83461098029160B3C0
:1022B000214A224B4046514604F008F9CDE900017D
:1022C0005A4640465146029B04F000F98246884631
:1022D000DDE906014FF0FF3204F06AFC5246434646
:1022E00004F0FEF932463B4604F0F0F8DDE906233F
:1022F00004F0F6F9DDE9002304F0F2F908B02A460B
:102300002346BDE8F04D04F0DFB90B465A4630468F
:10231000394604F0DBF8084A084B03F047FE424612
:10232000534604F0D3F808B02A462346BDE8F04DE2
:1023300003F03CBE625F0000495555555555C5BF79
:10234000012204F035BC002213461046114603F06A
:10235000DDBE0000024A0020110704F029BC000085
:1023600001FDFFFF30380A2801D20120704700200C
:102370007047014600BF00207047014600BF0020A3
:102380007047000010B505498978491EC8B2044B52
:10239000044A054902F0E6FD10BD0000A412002029
:1023A00085290008098000083C6C000800EB400209
:1023B000034B1A4413880B8092788A707047000090
:1023C0002800002010B501F013FC10BD10B512213B
:1023D0000148FEF78CF910BD2800002070B50446B6
:1023E0000D4604EB44000449084429880180A9787B
:1023F000817001F0FDFB70BD2800002010B501F0D8
:10240000F7FB10BD10B50D494978491E0B4A5170B4
:1024100011460978022908D109498979012904D18D
:102420001146497809B90C21517001F0A7FB034905
:102430004978814201DD0149487010BDA8000020A3
:102440004A000020F8B5052600208DF8010032482A
:1024500000780C2839D2DFE800F038061013162077
:1024600021222324252607242B48407808B18020E8
:1024700000E02E208DF8000029E015240B2626E030
:102480002A240B2623E038242348407808B1502022
:1024900000E041208DF8000019E000BF00BF00BF40
:1024A00000BF00BF00BF1C490978491FC8B2C0EB7C
:1024B000C0014631CCB21849497811B11749095CBD
:1024C00000E02D218DF8001001E00020F8BD00BFD4
:1024D00013480078C10012484078A1EBC0000830D2
:1024E000C5B232462946204601F0BAFA0A480078B9
:1024F000022803D008480078032805D1064842780E
:1025000008A16846FDF710FF2B46224601216846C8
:1025100001F0C0FA0020D9E7A8000020416C0008B3
:10252000A4120020253032686875000010B50E48EE
:102530004078401C0C49487001F020FB0A4949785A
:10254000884202DA002008494870074800780228CB
:1025500009D106488079012805D10348407810B98F
:1025600001200149487010BDA80000204A00002049
:1025700002460B46197812B97AB940290DDA22B110
:10258000382902DD481EC1B204E01AB9402901DA37
:10259000481CC1B21970012070470020FCE70246B8
:1025A0000B46197812B97AB940290DDA22B13829C7
:1025B00002DD481EC1B204E01AB9402901DA481C04
:1025C000C1B21970012070470020FCE70148007873
:1025D00070470000481200200348007A08B9012023
:1025E00070470020FCE700004812002001484078B6
:1025F000704700004812002070B504460D460120C7
:10260000064908700DB1002000E0C0200349487061
:1026100008464460057204B1A04770BD481200200E
:1026200010B524480078002842D022484478007A27
:10263000C0B1042C02DA601CC4B20CE0082C02DA2F
:10264000E01CC4B207E0102C02DA601DC4B202E044
:1026500004F10800C4B2402C1CDB002015490870AE
:10266000002417E0FB2C02DD601CC4B20CE0F72C48
:1026700002DDE01CC4B207E0EF2C02DD601DC4B235
:1026800002E004F10800C4B20A2C03DA0020094970
:102690000870002407484470007840B90548406835
:1026A00028B104494868804700200249486000BFBB
:1026B00010BD00004812002070B501214FF0C0503D
:1026C000FEF704FFFEF75CFF0120FEF7F7FE042093
:1026D000FEF734FA05460820FDF7CFFD6049026891
:1026E0000A6040684860084600210160416041F28C
:1026F0003420854255D100245A4931F81400FEF7A0
:102700001DFA57490870641C564931F81400FEF749
:1027100015FA08B1012000E0002051494870641CFE
:10272000504931F81400FEF709FA08B1012000E021
:1027300000204B498870641C4A4931F81400FEF7A8
:10274000FDF908B1012000E000204549C870641C73
:10275000444931F81400FEF7F1F908B1012000E016
:1027600000203F490871641C3E4931F81400FEF70F
:10277000E5F908B1012000E0002039494871641CE6
:10278000384931F81400FEF7D9F935498871641CCD
:10279000344931F81400FEF7D1F93149C871641C8D
:1027A00055E041F2342529460420FEF7D5F91021E1
:1027B0002D48FDF77AFF00242B4A32F81410294ADD
:1027C00032F81400FEF7C8F9641C274A32F81410D6
:1027D000244A32F81400FEF7BFF9641C224A32F88A
:1027E0001410204A32F81400FEF7B6F9641C1E4A91
:1027F00032F814101B4A32F81400FEF7ADF9641CCD
:10280000194A32F81410174A32F81400FEF7A4F9E6
:10281000641C154A32F81410124A32F81400FEF7FC
:102820009BF9641C104A32F814100E4A32F8140056
:10283000FEF792F9641C0C4A32F81410094A32F877
:102840001400FEF789F9641C00F010F800BF04487A
:1028500000780C2802DD00200149087070BD0000DE
:102860004A000020520000205412002010B5012020
:10287000094908700020487001208870C870002045
:1028800008710120487100208871FF20C87100F094
:1028900005F8FFF79BFD10BD4A00002010B501218F
:1028A0004FF0C050FEF712FEFEF76AFE0120FEF761
:1028B00005FE31480078314908802F48407848802B
:1028C0002D48807888802C48C078C8802A480079B4
:1028D000088129484079488127488079888126489D
:1028E000C079C88100240A4632F81410244A32F80C
:1028F0001400FEF731F9641C204A32F81410204A03
:1029000032F81400FEF728F9641C1C4A32F814103F
:102910001B4A32F81400FEF71FF9641C174A32F8FC
:102920001410174A32F81400FEF716F9641C134A03
:1029300032F81410124A32F81400FEF70DF9641C34
:102940000E4A32F814100E4A32F81400FEF704F959
:10295000641C0A4A32F81410094A32F81400FEF7CF
:10296000FBF8641C054A32F81410054A32F81400CA
:10297000FEF7F2F8641C10BD4A000020541200203B
:102980005200002010B50648006A18B10449086AD0
:10299000804701E001F0CCFB01F0CAFB10BD000054
:1029A000A412002010B500F031F810BD03490870E2
:1029B00003490978034A1170704700000D01002097
:1029C000EC0000200C01002010B50D4800780D49E6
:1029D0000978884200D110BD09480078094908707B
:1029E0000948007828B108480078401E0649087058
:1029F000F1E70320FFF7DAFF00F008F800BFEAE78D
:102A0000EC0000200C0100200D01002010B5052174
:102A10000020FEF7EBF904460148048010BD0000D9
:102A20000A01002001480088704700000A010020C8
:102A300010B5044601212046FFF7DEFD10BD10B59C
:102A4000044600212046FFF7D7FD10BD10B5054B09
:102A5000054A0649064802F0E1F90649064881613F
:102A600010BD0000313F0008595A00088942000893
:102A7000FD590008B15A0008A412002010B5012128
:102A80000248FFF7B9FD012010BD0000352E0008F7
:102A900010B500200349086001F07AFE0249086081
:102AA000012010BDE4000020E800002010B50E4811
:102AB0000078012807D100200B490870002104206C
:102AC00001F004FF09E00848007830B90120064908
:102AD00008700121042001F0F9FE01F059FE0349BC
:102AE0000860012010BD0000E0000020E800002088
:102AF000024B986099619A6270470000641200204E
:102B000010B503F003F900F0ADF910BD10B5FEF7F4
:102B1000CDFD4FF4A060FEF7D5FA00F01DF94FF49B
:102B200080610C48FDF7C1FDFEF70AFBFFF7C4FD0D
:102B3000FFF748FC01F032FE03F068F801F0D4FE24
:102B4000054800F081F900F075F904494878FEF76E
:102B5000CFFA10BDE91800201D5F00084A000020D0
:102B6000094948780A78C11D8A4204DB0649097878
:102B7000891FC8B205E004490978814201DA024997
:102B80000878014948707047A412002010B514213C
:102B90000148FDF7ACFD10BDB01200202DE9F05F3B
:102BA0006B480478C5788078B0B96948407810B12E
:102BB000E01CC4B201E0E01EC4B2202C34DB644847
:102BC000407820B120240120614988702CE0002445
:102BD00000205F49487127E05D48007910B1A81FC7
:102BE000C5B202E005F10A00C5B2802D1CDB5848D1
:102BF000007908B1002500E080255548007910B91A
:102C00000020534988705248007928B150484078D4
:102C100010B100204E4948714D48007908B9012093
:102C200000E000204A4908712046E11704EB517189
:102C3000C1F3C708002710E0464901EBC710802107
:102C4000FDF733FD4FF46071A1EBC711414A8818BD
:102C50008021FDF72AFD781CC7B24745ECDB2046F2
:102C6000E11704EB5171C910A4EBC101CEB2C6B398
:102C70004FEAC81040F2FF32121A91B2FF22B2405E
:102C8000D3B2FF2242FA06F70122B24002F0FF0C53
:102C9000802242FA06F9002220E0DFF8B8A01AF8F4
:102CA00000A00AEA030A4AEA0C0ADFF8A8B00BF807
:102CB00000A000F1010A1FFA8AF0DA461AF801A012
:102CC0000AEA070A4AEA090A0BF801A0A1F1010A77
:102CD0001FFA8AF102F1010A0AF0FF02802ADCDB06
:102CE00031E0FFE77CB3C5F18002D1B201EBD172D4
:102CF0005310C4F14002D0B2C21700EB5272D2108E
:102D000003EBC2171349C81901222946FDF7C5FC78
:102D1000202C17D02046E11704EB5171C9104FF653
:102D2000FF7202EAC117802007E03918094A515C96
:102D300041F001013A18074B9954011EA0F101021C
:102D4000D0B2F2D100BF02480470C570BDE8F09F58
:102D500090000020E918002010B56FF00400FEF785
:102D60008FFC0A4800680A49B0FBF1F00949087075
:102D70000846007800EB4001C1EBC0104FF6FF7130
:102D800001EAC0000449088010BD000000000020D6
:102D900000127A003C1200203E1200200146114A27
:102DA00012884A434FF0E0235A6100229A611A4682
:102DB000126942F001021A6100BF4FF0E02210696F
:102DC00000F001021AB100F48032002AF5D04FF071
:102DD000E022126922F001024FF0E0231A61002282
:102DE0009A6170473E1200200146114A12784A4308
:102DF0004FF0E0235A6100229A611A46126942F0AC
:102E000001021A6100BF4FF0E022106900F00102D8
:102E10001AB100F48032002AF5D04FF0E022126996
:102E200022F001024FF0E0231A6100229A617047FC
:102E30003C12002010B50348006810B1014800683A
:102E4000804710BD8C0000200149086070470000D9
:102E50008C0000200146024A106811607047000093
:102E6000880000202DE9FC4101F092FCC4B2284802
:102E70000078201AC0B227490978884201DABDE8F3
:102E8000FC81234804700025FFF7CAFB2248006834
:102E900060B12248407928B92048407930B91F48AC
:102EA000407818B91C480068804705461B4840799F
:102EB00008B1FFF773FE1948407910B9FFF786FB98
:102EC00000B1012516484079B0B101F061FC401C09
:102ED000C6B2301BC0B24FF47A7191FBF0F087B2EA
:102EE0003A4610A16846FDF71FFA382364220021F4
:102EF000684600F0CFFD00BF00F0C8FD1DB92820D6
:102F00000449087002E010200249087000BFB6E7CB
:102F100096000020970000208800002090000020EC
:102F20004A0000202575000001460A2091FBF0F0C0
:102F3000C0B2704710B5044603480178224603200A
:102F400001F038F810BD0000A412002010B50446AE
:102F50000548C07838B1FFF739FB10B1FFF73CFBEB
:102F600008B104B1A04710BDA412002010B5034859
:102F7000FFF76AFFFFF75EFF012010BDE55E000866
:102F800010B50348FFF760FFFFF754FF012010BDA5
:102F90001D5F0008FEB500F04DFB02F0C3F90646C8
:102FA00000F01EFB14242349097809B1012100E037
:102FB000002108462049FFF7DBFA70B10020082203
:102FC000CDE9002010231D4A02901B4801782046BD
:102FD00000F072FC04F11400C4B2FDF7CDFD08B19D
:102FE000012000E0002005461549FFF7C1FA70B145
:102FF00000200822CDE900201346124A0290104812
:103000000178204600F058FC04F10C00C4B202F034
:103010006BF968B100200822CDE9002013460A4A66
:1030200038210290204600F047FC04F10C00C4B2A5
:103030003046FEBD34120020B80000205C77000846
:10304000B9000020AC7700089C6C00082DE9FE4F09
:1030500000F0C6FA6448006803F024FA0746634AA1
:10306000634B03F053F8CDE9000103F0D7F9824632
:103070004FF47A70BAFBF0F45E48824513D24FF4F5
:103080007A70BAFBF0F100FB11A00A21B0FBF1F05D
:1030900000F0FF093C20B4FBF0F100FB1146B4FB4B
:1030A000F0F0C5B210E03C20B4FBF0F100FB114998
:1030B000B4FBF0F03C21B0FBF1F201FB12064FF43F
:1030C0006160B4FBF0F0C5B22846FFF72DFFC0EBFE
:1030D000C001C1EB80104849471800201822CDE9F3
:1030E000002013233A4614210290012000F0E4FB53
:1030F000284601F08DFBC0EBC001C1EB80103E49BA
:10310000471800201822CDE9002013233A46142145
:103110000290182000F0D0FB3046FFF705FFC0EB0F
:10312000C001C1EB80103449471800201822CDE9B6
:10313000002013233A46142102903C2000F0BCFBEF
:10314000304601F065FBC0EBC001C1EB80102A499D
:10315000471800201822CDE9002013233A461421F5
:103160000290532000F0A8FB4846FFF7DDFE00EB7D
:10317000400101EBC000214901EB40070020102273
:10318000CDE900200B233A461C210290682000F074
:1031900093FB484601F03CFB00EB400101EBC00013
:1031A000164901EB400700201022CDE900200B2337
:1031B0003A461C210290742000F07EFB0020182269
:1031C000CDE9002006230E4A14210290312000F0A0
:1031D00073FB02F081FD074600233022194600F000
:1031E00059FC0120BDE8FE8FE40000208FC2F528C5
:1031F0005C8F024080EE360099790008D37B00088E
:10320000AF7C0008FEB5FEF77FFD0020E0490860B6
:1032100036E0E0480078DE49096801EBC00000EBC9
:103220004000DD49085CDA49096801EB4101DB4AED
:103230005054D8480078D649096801EBC00000EB2B
:103240004000D54908444078D149096801EB410163
:1032500011444870CF480078CD49096801EBC0009F
:1032600000EB4000CC4908448078C949096801EB6B
:10327000410111448870C6480068401CC449086078
:10328000C34800680828C4DB0020C549086004E181
:10329000C448C349096800EB0110006800EB400016
:1032A000BE49085C2238C0490870BE48BC4909685C
:1032B00000EB0110006800EB4000B849084440787A
:1032C000401EBA490870B748B549096800EB0110BB
:1032D000406800EB4000B149085C2238B4490870EE
:1032E000B048AF49096800EB0110406800EB4000AE
:1032F000AA4908444078401EAE4908700846037841
:10330000AB480278A9480178A7480078FEF756FC38
:10331000A448A349096800EB0110406800EB400095
:103320009E49085C2238A04908709E489C4909685B
:1033300000EB0110406800EB4000984908444078D9
:10334000401E9A49087097489549096800EB01109A
:10335000806800EB40009149085C2238944908706D
:1033600090488F49096800EB0110806800EB40002D
:103370008A4908444078401E8E4908700846037800
:103380008B4802788948017887480078FEF716FC58
:1033900084488349096800EB0110806800EB400015
:1033A0007E49085C2238804908707E487C4909685B
:1033B00000EB0110806800EB400078490844407839
:1033C000401E7A49087077487549096800EB01107A
:1033D000C06800EB40007149085C223874490870ED
:1033E00070486F49096800EB0110C06800EB4000AD
:1033F0006A4908444078401E6E49087008460378C0
:103400006B4802786948017867480078FEF7D6FB78
:1034100064486349096800EB0110C06800EB400094
:103420005E49085C2238604908705E485C4909685A
:1034300000EB0110C06800EB400058490844407898
:10344000401E5A49087057485549096800EB011059
:10345000006800EB40005149085C2238544908706C
:1034600050484F49096800EB0110006800EB40002C
:103470004A4908444078401E4E490870084603787F
:103480004B4802784948017847480078FEF796FB98
:1034900043480068401C42490860414800680628CB
:1034A000FFF6F6AE00204022CDE900201346424A46
:1034B0000146029000F000FA4FF400713E48FDF71B
:1034C000F4F800F0EFF802F0EFF8FFF7ABFA04467B
:1034D00040F61C40844201DA384D0BE0B4F5486FE9
:1034E00001DA374D06E040F6E440844201DA354D1A
:1034F00000E0354D00200822CDE9002010232A46A7
:10350000022102903C2000F0D7F900262F4901202B
:10351000FFF745F870B100200822CDE90020102304
:103520002B4A029029480178304600F0C5F906F18F
:103530001400C6B2FDF720FB08B1012000E0002016
:1035400007462449FFF72BF870B100200822CDE987
:1035500000201346204A02901E480178304600F0B1
:10356000ABF906F10C00C6B201F0BEFE68B1002056
:103570000822CDE900201346184A3821029030462F
:1035800000F09AF906F10C00C6B20020FEBD000062
:1035900000120020F811002018010020D112002094
:1035A000FC11002098800008041200200612002060
:1035B0000512002007120020E91200206C77000895
:1035C0007C7700088C7700089C77000808120020A0
:1035D0005C77000809120020AC7700089C6C00089A
:1035E0003EB5FFF71FFA054640F61C40854201DA5A
:1035F0000C4C0BE0B5F5486F01DA0B4C06E040F6D9
:10360000E440854201DA094C00E0094C0020082220
:10361000CDE90020102322463821029000F04CF919
:103620003EBD00006C7700087C7700088C770008AE
:103630009C77000800B589B011480079114A02EB67
:10364000800108A8FCF7E6FF0D4880790E4A02EBDE
:10365000800107A8FCF7DEFF0948C07907A9CDE97A
:1036600000100748437908AA08A102A8FCF75CFEED
:1036700000230C22194602A800F00CFA09B000BD84
:10368000EC000020496C0008656C000825732025BB
:1036900030326868752025732032302530326868F2
:1036A0007500000000B587B01F4800791F4A02EB83
:1036B000800106A8FCF7AEFF1B4880791C4A02EB8C
:1036C000800105A8FCF7A6FF1748437906AA19A1AF
:1036D0006846FCF729FE1E2357220021684600F0A9
:1036E000D9F905AA16A16846FCF71EFE23233C2241
:1036F0000021684600F0CEF912A16846FCF714FEDE
:10370000192340220021684600F0C4F90648C27916
:103710000DA16846FCF708FE0F23432200216846EE
:1037200000F0B8F907B000BDEC000020496C0008BB
:10373000656C00082573202530326868750000002C
:1037400025730000323000002530326868750000B3
:103750002DE9FE4F0446217A627A01FB02F0C1177F
:1037600000EB5171C1F3C706A57AE17A606801FBED
:10377000060894F8009094F801A0607B10B10DB198
:10378000FF2D0BD10021607ACDE900010291237A4F
:1037900042465146484600F08FF821E0E07A401E4C
:1037A000C7B2FF2F00D1277B607A281A001FC0B252
:1037B0000022617ACDE900120290237A42465146F6
:1037C000484600F079F80021607A8DE823006068AF
:1037D00007FB0602237A5146484600F06DF800BF09
:1037E000BDE8FE8F2DE9FE4F0446217A627A01FB87
:1037F00002F0C11700EB5171C1F3C706A57AE17A57
:10380000606801FB060894F8009094F801A0607BC2
:1038100010B10DB1FF2D0BD10021607ACDE900016F
:103820000291237A42465146484600F045F821E08D
:10383000E07A401EC7B2FF2F00D1277B607A281A9A
:103840000E38C0B20022617ACDE900120290237ACC
:1038500042465146484600F02FF80021607A8DE834
:103860002300606807FB0602237A5146484600F0B1
:1038700023F800BFBDE8FE8F10B586B020221821C6
:103880006846FCF70AFF0B494868FCF7E7FE092188
:10389000A1EB500069464418064841682046FCF7F1
:1038A000B9FE00231A461946684600F0F3F806B040
:1038B00010BD0000A41200202DE9FF4F87B00E4676
:1038C000FEF794FE3044C6B21698301AC7B2149868
:1038D000C11700EB5171C1F3C70106913846F917C2
:1038E00007EB5171C910A7EBC101C9B2059114983A
:1038F0003044C0B204904FF00008A8E007EBC800C5
:10390000C4B204F10800C5B2169838B1B54204DB60
:10391000402D02DC0498844200DD94E0FF200390F7
:10392000169878B1B44205DA311BFF208840C0B246
:10393000039007E00498854204DD0498291AFF20CB
:10394000084103902046E11704EB5171C9104FF66E
:10395000FF7202EAC119DDE9091008FB00100290AC
:10396000059840BB402C26DA4FF0000A1FE007986C
:10397000504400F0FF0BBBF1800F00DB13E0029915
:1039800001EB0A00159900F0A7FF03990840019088
:103990000BEB09003149095C019808430BEB090165
:1039A0002E4A505400BF0AF1010000F0FF0A0A98A5
:1039B0008245DCDB46E02846E91705EB5171C9106A
:1039C0004FF6FF7202EAC11101914FF0000B35E092
:1039D0000798584400F0FF0ABAF1800F00DB29E095
:1039E000029901EB0B00159900F076FF039908404E
:1039F0000090402C0CDA0AEB09001849095C059A82
:103A0000009890400143C8B20AEB0901134A505490
:103A1000402D0EDA019850441049095C0598C0F118
:103A2000080200981041084301990AEB01020B4972
:103A3000885400BF0BF1010000F0FF0B0A9883458A
:103A4000C6DB00BF00BF08F1010000F0FF080698C8
:103A50008045FFF653AF0BB0BDE8F08FE9180020AA
:103A60002DE9F04105460C4616462046E11704EBC9
:103A70005171C91005EBC1118FB20349C819314604
:103A8000FCF713FEBDE8F081E918002010B500F046
:103A9000DBFE10BD2DE9FE4F05460E4690461F4643
:103AA0004FF000092EE02878203800F0FF0AC9EB1B
:103AB000C9004044C4B200200821CDE9001602909C
:103AC0000AEB8A0012494218052339462046FFF7BF
:103AD000F3FE8EB1002C06DD601EC1B2FF233A4614
:103AE0000C4801F071F97B2C06DA601DC1B2FF238E
:103AF0003A46084801F068F96D1C09F1010000F030
:103B0000FF0900BF28780028CDD1BDE8FE8F000056
:103B1000B4770008E918002010B5002005490870A6
:103B2000054B064A0649074801F078F90021064886
:103B3000816110BDA8000020313F00082144000829
:103B400089420008CD400008A412002004480178F2
:103B50008078401E814201D1012070470020FCE79F
:103B6000A412002070B504460D461646257000F0DC
:103B70000FFE607070BD0220401C7047094800783D
:103B8000022802D003280AD107E0074880790128DB
:103B900001D10C2070471720FCE73B20FAE70120F9
:103BA000F8E70000A80000204A0000200E48007836
:103BB000082816D2DFE800F015040715050F1113C9
:103BC00000BF0120704709480078012801D10C206E
:103BD000F8E71720F6E71F20F4E70B20F2E7632051
:103BE000F0E73B20EEE70000A800002008010020DD
:103BF0002DE9FC474FF0FF084FF6FF792848807801
:103C00008DF806002648C0788DF80700002101A82D
:103C100002F038F8224B1A795B785B1CD9B29DF818
:103C2000060002F0E4F8824606262FE06946304698
:103C3000FEF7BCFB9DF80200C00900B926E007258D
:103C40001EE09DF802000121A940084000B917E0DC
:103C50009DF801109DF800002A4602F0C8F80746BA
:103C6000A7EB0A04002C02DA42F25F700444A0B20F
:103C7000484504DA1FFA84F9B0460A48057000BFC7
:103C8000281EA5F10101CDB2DBD100BF301EA6F187
:103C90000101CEB2CAD1044880F80080BDE8FC879B
:103CA000EC000020150000201400002000B51421B5
:103CB0001A48C17101218171052018490871072135
:103CC00016484171164800684FF46161B0FBF1F08D
:103CD00012498870124800684FF46161B0FBF1F23C
:103CE00001FB12003C21B0FBF1F00C4948700C487C
:103CF00000684FF46161B0FBF1F201FB12003C215E
:103D0000B0FBF1F201FB1200044908702020C870DA
:103D100004488179014801F0B5FF00BDEC000020A6
:103D2000B40000204A00002038B50446062C13DAFF
:103D30000B48007818B10B480078A04204D06946BF
:103D40002046FEF733FB02E0074800680090694612
:103D5000204601F047FA00BFFEF714FB38BD000013
:103D6000A8000020A41200204400002010B5044642
:103D700024B1012C05D0022C09D105E002F07AF81B
:103D800010BD02F093F8FBE702F054F8F8E70023C7
:103D90001A4607A1032001F0E5F800231A4609A1FD
:103DA000042001F0DFF8FEF7EDFA00BFE8E70000BD
:103DB0004657202020202020322E38205432303206
:103DC0003000000055736572202020202020202024
:103DD00059756D6D7900000010B5044601F0DCF8EE
:103DE000FEF7D0FA10BD000070B50446002420464E
:103DF000641C0E4B0E4A0FA101F0B4F82046641C5F
:103E00000E4B0F4A0FA101F0ADF82046641C104B79
:103E1000104A11A101F0A6F8FFF7ADFE0546114BBF
:103E2000114A12A101F09EF870BD0000DD3F0008AC
:103E3000097D0008416C61726D730000FD5200083D
:103E4000097E000853746F70776174636800000026
:103E5000A1420008097F000853657474696E677396
:103E60000000000071450008098000084578697469
:103E70000000000010B50446104B114A11A10020AB
:103E800001F070F8124B134A13A1012001F06AF8F7
:103E9000134B144A14A1022001F064F8144B154A84
:103EA00015A1032001F05EF8154B164A16A1042057
:103EB00001F058F8FEF766FA10BD000099430008BB
:103EC0005C6D000854696D6520262064617465008E
:103ED000F1420008DC6D0008536C6565700000005D
:103EE000494300085C6E0008536F756E6400000063
:103EF000814000085C760008446973706C61790049
:103F000029400008897F0008446961676E6F7374F7
:103F10006963730010B5044601F09AF8FEF732FAAF
:103F200010BD10B5044601F0A3F8FEF72BFA10BD42
:103F300010B5044601F068F901F076F907480078F9
:103F400008B107A000E008A00146094B00220520A7
:103F500001F008F8FEF716FA10BD00000901002074
:103F600053617665640000005361766500000000CF
:103F70004149000870B504460D4616460A48C07807
:103F800088B114B1012C0CD105E00C222946074858
:103F9000FFF7E8FD06E00D2229460548FFF7E2FDA0
:103FA00000E000BF00BF70BD4A00002028120020C2
:103FB0002A12002070B505460C4616460548457085
:103FC000847006700448C06918B10348C16920466E
:103FD000884770BDAA000020A412002010B50AA2D4
:103FE0000021062000F024FF0A4B0B4A0B490C4825
:103FF00000F014FFAFF21B010A4801F087F800201F
:10400000FEF71DFD10BD00003C20414C41524D53B8
:10401000203E0000293D0008A1480008C1410008D9
:10402000214800083C00002010B500F07FFCFEF79E
:10403000CBFC0AA20021052000F0FAFE0B4B0C4A33
:104040000C490D4800F0EAFEAFF223010B4801F0E5
:104050005DF80020FEF7F3FC10BD00003C20444951
:1040600041474E4F5354494353203E006D3D000895
:10407000A1480008D941000821480008800000201C
:1040800010B50AA20121052000F0D2FE0A4B0B4A0E
:104090000B490C4800F0C2FEAFF21B010A4801F0C8
:1040A00035F80020FEF7CBFC10BD00003C20444951
:1040B00053504C4159203E00D93D0008A14800080A
:1040C000FD410008214800089800002010B500F0CC
:1040D000A7FB0748007838B105480078022803D0CC
:1040E00003480078042801D100F09AFB10BD0000BD
:1040F000A412002008B50A48007878B90948007869
:1041000000EB8000C2B208A16846FCF70DF9282335
:10411000382200216846FFF7BDFC00BF002008BD23
:10412000A41200204A000020256868755300000092
:1041300010B5002203491046FEF7DAFC0248FEF7EC
:1041400077FC10BD494700084D41000810B50E48E6
:10415000FEF780FE0D4A0E490E48FEF7C9FCFFF738
:104160000AFD04460CA2012100F062FE0E4B0F4A2C
:104170000F49104800F052FE0F49104800F0C6FFEA
:104180000020FEF75CFC10BD9D4500088945000835
:10419000494700087D4700083C204D41494E204DCD
:1041A000454E55203E000000E93D0008A1480008AA
:1041B00021420008214800084D410008A0000020CD
:1041C00010B5044800F090FFFFF7C0FC0446FEF76E
:1041D000B1FE10BD3C00002070B5FFF7B7FC0446EF
:1041E0000CB1FEF75BFB044800F07EFFFFF7AEFC6E
:1041F0000546FEF79FFE70BD8000002070B5FFF7FA
:10420000A5FC04460CB1FEF749FB044800F06CFF26
:10421000FFF79CFC0546FEF78DFE70BD9800002060
:1042200010B5034800F060FF0120FEF783FE10BDCB
:10423000A000002010B5034800F056FF0120FEF753
:1042400079FE10BDC800002010B5FFF77FFC0446C2
:104250000CB1FEF723FB034800F046FF2046FEF7B3
:1042600069FE10BDD000002010B5FFF76FFC0446BA
:104270000CB1FEF713FB034800F036FF2046FEF7B3
:1042800059FE10BDD800002010B5044800F02CFFE6
:10429000FFF75CFC0446FEF74DFE10BDF800002061
:1042A00010B50AA20121052000F0C2FD0B4B0C4AFB
:1042B0000C490D4800F0B2FDAFF21B010B4800F0B5
:1042C00025FF0020FEF7BBFB10BD00003C2053453E
:1042D0005454494E4753203E00000000753E0008EC
:1042E000A14800083542000821480008C800002005
:1042F00010B50BA20121022000F09AFD0B4B0C4AD5
:104300000C490D4800F08AFD0C490D488161AFF25F
:104310001F010C4800F0FAFE0020FEF790FB10BDD4
:104320003C20534C454550203E000000153F0008FE
:10433000A14800084942000821480008F54000084B
:10434000A4120020D000002010B50BA201210320F0
:1043500000F06EFD0B4B0C4A0C490D4800F05EFD61
:1043600000F086FEAFF21F010A4800F0CFFE0020E9
:10437000FEF765FB10BD00003C20534F554E442016
:104380003E000000233F0008A148000869420008E1
:1043900021480008D800002010B5124812490A68C8
:1043A0000260496841601148807911490870002015
:1043B0001049087010A20021062000F039FD124BB0
:1043C000124A1349134800F029FDAFF23301124895
:1043D00000F09CFE0120114908700020FEF72FFB21
:1043E00010BD000000010020EC0000204A00002069
:1043F00008010020090100203C2054494D45202699
:104400002044415445203E00313F0008214400082B
:1044100089420008CD400008F8000020A4120020C6
:1044200010B500F03DFA0748007838B1054800782B
:10443000022803D003480078042801D100F030FAA4
:1044400010BD0000A4120020FEF760FB01E0FEF7A3
:1044500057FBFCE77CB504460D4628788DF806002E
:1044600020208DF80700002101A801F00BFC9DF829
:10447000070000906B789DF8062010A1601CFBF7E8
:1044800053FFA878C00908B1802000E02E202070DA
:104490000020207400BF0DE0A97801228240114065
:1044A00011B10B49095C00E02D2100F10902A15472
:1044B000411CC8B20728EFDB7CBD0000202530324C
:1044C0006868753A253032686875256320000000F9
:1044D000416C00081CB5044609488079094A02EB82
:1044E000800101A8FCF796F80548C07900900448BF
:1044F000427901AB04A12046FBF716FF1CBD00006A
:1045000000010020656C00082020202530326868FA
:104510007520257320323025303268687500000020
:104520007CB504460A48C078202801D00C2000E061
:10453000182005460648C07805494978CDE900109D
:10454000034883782A4603A12046FBF7EDFE7CBD95
:104550000001002020202025686875687220253021
:10456000326868753A253032686875256300000046
:1045700010B5FEF70BFB00200249C8700862FEF779
:1045800059FC10BDA412002010B503494869FEF77C
:10459000DDFC012010BD0000A412002010B5002495
:1045A0000B48007A10B900F0A1F802E000F012F810
:1045B00004460748806940B11CB9054988698047AD
:1045C00008B1012000E000200446204610BD000094
:1045D000A4120020FEB54048007800EB4000000126
:1045E000C0F1400400263D48807800283BD03C497B
:1045F00009688C4219DD3A4A1268A11ACA1701EB00
:1046000092729210521CD0B2102800DD1020344952
:1046100009680144324A1160114609688C4202DC83
:1046200011460C601EE001261CE02D4909688C42F1
:1046300018DA2B4A1268111BCA1701EB92729210FA
:10464000521CD0B2102800DD102025490968091A33
:10465000234A1160114609688C4202DB11460C6046
:1046600000E0012601E01E4804601D480068A0F13A
:104670001004FFF701F900200822CDE900202423CF
:10468000184A0E2102902E20FFF716F9002008226A
:10469000CDE900202423144A2A2102902E20FFF77E
:1046A0000BF900250CE0802C07DA14F1200F04DD53
:1046B000E2B229460020FFF77DFC3034681CC5B209
:1046C00005488078A842EEDC0348017800220120EA
:1046D000FFF770FC3046FEBDA41200204A00002007
:1046E000B0000020C17C0008E57C00082DE9F04105
:1046F000FFF7C2F8124845788078072801DD0720C7
:1047000001E00F4880782844C6B22C4614E0601BB4
:10471000C0000830C7B20A480078A04205D13B4625
:104720000022114607A0FFF7B5F93A4621460220BC
:10473000FFF740FC601CC4B2B442E8DBBDE8F08186
:10474000A41200203E00000010B5FDF73FFF10B19D
:10475000FDF742FF70B10848C07828B9012006492A
:10476000C870FFF7E5FC05E00348006910B1024995
:1047700008698047012010BDA412002010B503492C
:10478000C868FEF7E3FB012010BD0000A412002062
:104790000149086870470000B40000201FB54FF4BD
:1047A000E060FCF78FFC1C208DF80C0001208DF8D8
:1047B0000F0000208DF80D008DF80E0003A8FCF707
:1047C00049FC01210846FCF781FE4FF08040FDF7CF
:1047D00007F80020ADF80600ADF802004FF47A703B
:1047E000ADF804002320ADF8000069464FF080408A
:1047F000FDF704F901218807FCF7E0FF01221146CB
:104800009007FDF7F2F801218807FCF7DDFF1FBDD7
:1048100001460A2091FBF0F200FB1210C0B2704773
:1048200010B508480078401C064908700846007812
:104830008978884202DB002002490870FEF790F96F
:1048400010BD0000A412002070B500241DE004F18A
:10485000B001C8B20021FCF715FD00210846FCF7A5
:1048600011FD00211020FCF70DFD002509E080213D
:1048700001FB0451094A505C0121FCF703FD681C4F
:10488000C5B2802DF3DB601CC4B2082CDFDB4FF413
:1048900080610248FBF709FF70BD0000E9180020A5
:1048A00010B509480078401E07490870084600788E
:1048B0008978884204DB04488078401E02490870E9
:1048C000FEF74EF910BD0000A4120020014A115459
:1048D000704700000E010020024600BF1378184602
:1048E00009B1C343D8B2704710B5FCF7BBFAFCF767
:1048F000A1FD0520FCF756FD10BD1CB5044620683F
:104900000090606801460190009800F037F8FF229F
:1049100032210020FFF72EFB1CBD10B50220FCF752
:1049200023FE08B1012010BD0020FCE7704710B540
:104930000220FCF719FE08B1012010BD0020FCE7A1
:1049400010B50948007809498871FDF7A7FF0848A4
:1049500001F07EF9064807490A680260496841602B
:1049600001200549087010BD080100204A00002000
:1049700000010020EC0000200901002003B583B0F5
:104980009DF80C008DF80A009DF80D008DF80900C7
:104990009DF80E008DF808009DF811008DF80700B5
:1049A0009DF810008DF806009DF812008DF80500A6
:1049B0009DF813008DF8040002A90120FCF70AFD00
:1049C00001AA04210120FCF7A7FC05B000BD0000EE
:1049D0007CB57D4B7D4A7E497E4800F01FFA7E49BA
:1049E0007E4881617E4800780C2877D2DFE800F0AD
:1049F00006133C6783A0A1A2A3A4A5A677490878C3
:104A00007849FDF7D3FC0120754908707548807816
:104A1000C0094870D5E07248407808B1012000E034
:104A200000207049897860F3C7116E4881700220B8
:104A30006B4908706B4800788DF8060020208DF8CF
:104A400007006948817901A801F01CF99DF806006A
:104A500063494870634800780C2801DB012000E0BE
:104A6000002062490870ACE05D4844785E48807977
:104A7000012801D10C2000E017200546AC4200DDE2
:104A80002C4659488079012810D18DF802405748AA
:104A9000007808B1502000E041208DF8030000218B
:104AA000684601F0EFF89DF8024000BF4D480470E1
:104AB00003204B4908704B484078487081E04848D3
:104AC00040784849487048488079012807D1042037
:104AD0004349087045480078487008E070E00520B8
:104AE0003F4908703F48807800F00100487000207E
:104AF0003F49087065E03B4800788DF8020038486F
:104B0000407808B1502000E041208DF803000021DA
:104B1000684601F0B7F89DF8020032490870052098
:104B20002F4908702F48807800F00100487048E055
:104B300000BF00BF00BF00BF00BF00BF28484078D3
:104B400048B1284880782A490A78012191400843D1
:104B50002449887008E02348807825490A78012193
:104B6000914088431F49887021480078401C2049A3
:104B700008701C4880780A7801219140084008B1EB
:104B8000012000E0002016494870084600780B28F4
:104B900004D008460078401C087010E00F490878DF
:104BA0001049FDF71BFC00200D490870064B114A07
:104BB0000749114800F032F900210848816100E0FE
:104BC00000BF00BF7CBD0000293D00082D25000866
:104BD000C14100080524000845240008A412002053
:104BE000A8000020440000204A00002048000020C7
:104BF00047000020A14800082148000810B5FDF733
:104C000025FF2448007820B1052809D006282FD197
:104C100017E005201F4908701F484079487036E0AA
:104C20001C4841781C4841714079012802DA012171
:104C30001948417106201749087017488079487053
:104C400025E014484178144881710246D179907961
:104C500000F0EEFF044610484079A04201DD0E4806
:104C6000447107200B4908700B48C07948700EE06A
:104C7000084841780848C17103465A799979D8792A
:104C800000F092FF04490871FEF746FF00BF00BF25
:104C900010BD0000A80000200001002010B5FDF7A5
:104CA000D5FE2A48007830B101280BD0022819D04F
:104CB00003283DD121E001202449087024480078D0
:104CC000487040E021484078214908700846017842
:104CD000204800F0D7FF1F4880781C494870022008
:104CE000087030E0194840781A49887008464078C2
:104CF000164948700320087025E01448407815498B
:104D000048701348007801280CD104200F4908701E
:104D10001048C078412801D1012000E000200B4953
:104D2000487004E020200B49C870FEF7F5FE0AE049
:104D30000648407808B1412000E050200549C8707D
:104D4000FEF7EAFE00BF00BF10BD0000A800002073
:104D500008010020000100200448807808B90120E3
:104D600000E0002001498870704700004A000020E0
:104D700070B51448C0798409042C00DD0024601C3F
:104D8000C4B21048C07964F387100E49C871002579
:104D900034B1012C06D0022C06D0032C08D105E03A
:104DA000012505E00F2503E05F2501E0FF2500BF99
:104DB00000BF00218120FCF765FAE8B20021FCF772
:104DC00061FA70BD4A00002070B51546D61702EB97
:104DD0005676F61001EBC616B4B2055D1D430555B7
:104DE00070BD000010B50648407808B9012000E009
:104DF0000020034948704878FCF77AF910BD00009C
:104E00004A0000200448007908B9012000E0002091
:104E100001490871704700004A00002010B5034C9A
:104E2000E06021616261E36110BD0000A412002016
:104E300070B506460C461546FDF7A8FE002004494D
:104E400048700870701C887008460472456070BD18
:104E5000A41200202DE9F04F87B005460E4691467A
:104E60001C4639488078A84202D007B0BDE8F08FD0
:104E70003548407830B1012849D002284ED0032867
:104E80005ED153E0304800780690069801F000FEAD
:104E900083462E4901F03AFD824601F00BFD2C4A73
:104EA0002C4BCDE9000101F011FB0746284A2A4BA3
:104EB00001F07CF8CDE9020101F046F80590059873
:104EC00001F0F8FCCDE9020100F0BEF9074600222E
:104ED000224B01F0FBFA824601F0A0FAC0B2049026
:104EE0001C20049000202022CDE900200290B9F17E
:104EF000000F01D04B4600E0194B1A46049B0C3BB7
:104F0000D9B2114B18782023FEF7D6FC19E03823CC
:104F1000002211463046FEF7BDFD12E00A48037834
:104F2000062200213046FEF7B5FD0AE03CB10648F6
:104F3000007818B12046FDF77BFD00E0A04700E0B7
:104F400000BF00BF00BF90E7AA0000200000C042E1
:104F50001F85EB51B81EF93FB81EE93F00004040E5
:104F6000897D0008F0B587B004460D4616461F46F9
:104F700008488078A04201D007B0F0BD294601A8BA
:104F8000FBF748FB3B46324601A92046FFF762FF8C
:104F900000BFF1E7AA00002010B51648C0798009CB
:104FA000154901EBC012154B15A10020FFF7DAFFE0
:104FB000164B174A17A10120FFF7D4FF174B184AC9
:104FC00018A10220FFF7CEFF0A488078174901EBAD
:104FD000C012174B17A10320FFF7C4FF0548007943
:104FE000174901EBC012174B17A10420FFF7BAFFB6
:104FF00010BD00004A0000205C6F0008714D0008E1
:105000004272696768746E6573730000E54D00084D
:105010005C720008496E7665727400002D510008BC
:10502000DC720008526F7461746500005C730008E4
:10503000594D0008416E696D6174696F6E730000AF
:105040005C710008054E00084C45447300000000E8
:1050500010B5034B034A04A10020FFF783FF10BDE6
:1050600061510008DC76000854696D656F75740045
:1050700010B51248C07900F00300114901EBC012CD
:10508000104B11A10020FFF76DFF0C48C079C0F351
:1050900081000B4901EBC0120C4B0DA10120FFF761
:1050A00061FF0648C079C0F30110054901EBC01249
:1050B000094B0AA10220FFF755FF10BD4A0000204E
:1050C0005C740008C551000855490000855100086E
:1050D000416C61726D730000A5510008486F7572D4
:1050E000206265657073000000B50246FEF72EFD74
:1050F00018B905480078107004E0002010700249CB
:105100005068086200BD0000A4120020064A126A1E
:105110008A4202D0044A126A42600278024B1A7034
:105120001A46116270470000A412002010B505480D
:10513000C47884F001000349C870C878FBF7EAFF1F
:1051400010BD00004A0000200448407908B9012041
:1051500000E0002001494871704700004A0000202B
:1051600004490878411CC8B20C2800DD0020014920
:10517000087070474A000020411CC8B2032800DDB7
:105180000020704710B50649C979C1F38100FFF7C7
:10519000F3FF0349C97960F383010148C17110BD70
:1051A0004A00002010B50649C979C1F30110FFF784
:1051B000E3FF0349C97960F305110148C17110BDCE
:1051C0004A00002010B50649C97901F00300FFF735
:1051D000D3FF0349C97960F301010148C17110BDD2
:1051E0004A00002030B585B004460D462946684681
:1051F000FFF730F9034B002269462046FFF72AFEED
:1052000005B030BDD149000800B585B06846FFF74C
:1052100061F9044B002269460120FFF71BFE05B02F
:1052200000BD0000FD4B000800B585B06846FFF7E3
:1052300077F9044B002269460320FFF70BFE05B007
:1052400000BD00009D4C000800B5254B21F0004238
:1052500087B09A4203DC0022134600922BE0214BD8
:105260009A4208D140B94FF00100FBF7C2FAFDF7AE
:105270006AF807B000BD03DBFDF762F807B000BDB8
:1052800002AAFCF74FFD10F003014FF001000DD012
:10529000012914D002291AD00DF1080C9CE80F0046
:1052A000FCF704FF07B081F0004100BD0DF1080CD0
:1052B00000909CE80F00FCF7CDFF07B000BD0DF19A
:1052C000080C9CE80F00FCF7F1FE07B000BD0DF1E3
:1052D000080C00909CE80F00FCF7BCFFE2E7000020
:1052E000FB21E93F0000F07F03480078012800D14E
:1052F00070470020FCE70000E000002010B5FFF739
:1053000037F90448FDF7A6FD034A04490448FDF7B0
:10531000EFFB10BD4D3000087D2A0008AD2A0008C3
:10532000912A000810B588B0D2488078002877D03C
:10533000D1480078D1490978884263D00020D0490B
:105340000870D04908700120CF490870CA49887890
:10535000FDF7EAFD0446CD480078FDF7E5FD8442FF
:1053600001D0012000E00020C9490870C2498878B6
:10537000FFF74EFA0446C5480078FFF749FA844221
:1053800001D0012000E00020C1494870BA494878A6
:10539000FDF7CAFD0446BF480078FDF7C5FD84420D
:1053A00001D0012000E00020B9498870B249487856
:1053B000FFF72EFA0446B7480078FFF729FA84422F
:1053C00001D0012000E00020B149C870AA49087846
:1053D000FDF7AAFD0446A9480078FDF7A5FD844223
:1053E00001D0012000E00020A9490871A24880787E
:1053F000A6490870A0484078A64908709E480078E1
:105400009E490870A048007800287BD09C4800780E
:10541000032806DC9A480078401C9949087027E068
:1054200065E097480078062805DC95480078C01CA0
:10543000934908701CE092480078102805DC9048D9
:105440000078401D8E49087012E08D4800781628BB
:1054500005DC8B480078C01C8949087008E0884842
:1054600000781C2804DC86480078401C84490870B9
:10547000834800781C2802DBFF208149087081489E
:105480000078012805DC7F480078401C7D490870C1
:1054900012E07C4800780D2805DC7A480078C01CB2
:1054A0007849087008E077480078142804DC7548CB
:1054B0000078401C7349087072480078142802DB99
:1054C000FF20704908706F48007814281ADD6C4876
:1054D00000781C2816DD00206949087069490870A9
:1054E000694908706A480021016001710AE00020E2
:1054F0006349087063490870634908706448002173
:105500000160017168208DF810001C208DF81100D9
:10551000614805900B208DF8180010208DF81900B7
:10552000584800788DF81A0053490878FDF7FCFCBC
:105530008DF81B0005208DF81C00554800798DF86A
:105540001D0004A8FEF704F974208DF810004A49E4
:105550000878FFF75DF98DF81B0009208DF81C0015
:10556000494800788DF81D0004A8FEF7F1F81420D2
:105570008DF8110013208DF8180018208DF81900EF
:10558000464805903E4800788DF81A003C208DF87A
:10559000100039494878FDF7C7FC8DF81B0005203D
:1055A0008DF81C003A4880788DF81D0004A8FEF79D
:1055B000CFF853208DF810002F494878FFF728F9CD
:1055C0008DF81B0009208DF81C003148C0788DF83B
:1055D0001D0004A8FEF7BCF801208DF81000264934
:1055E0008878FDF7A1FC8DF81B0005208DF81C00C4
:1055F000274800788DF81D0004A8FEF7A9F81820A8
:105600008DF810001C498878FFF702F98DF81B000F
:1056100009208DF81C001E4840788DF81D0004A854
:10562000FEF796F81E4800684FF46161B0FBF1F296
:1056300001FB1200B0F5E16F0AD900201822CDE974
:1056400000200623174A142102903120FEF734F976
:105650000948C0788DF80C0000208DF80D00142347
:105660006822002103A8FEF715FA0748007808B061
:1056700010BD00004A000020EC000020C400002003
:10568000BA000020BB000020BC000020C2000020A7
:10569000BD000020C3000020D37B000899790008DA
:1056A000B4000020AF7C000810B586B0C8488078F0
:1056B000002877D0C7480078C7490978884263D066
:1056C0000020C6490870C64908700120C549087005
:1056D000C0498878FDF728FC0446C3480078FDF7E8
:1056E00023FC844201D0012000E00020BF49087063
:1056F000B8498878FFF78CF80446BB480078FFF774
:1057000087F8844201D0012000E00020B7494870AA
:10571000B0494878FDF708FC0446B5480078FDF725
:1057200003FC844201D0012000E00020AF498870D2
:10573000A8494878FFF76CF80446AD480078FFF7B1
:1057400067F8844201D0012000E00020A749C8701A
:10575000A0490878FDF7E8FB04469F480078FDF76C
:10576000E3FB844201D0012000E000209F49087142
:10577000984880789C490870964840789C49087001
:1057800094480078944908709648007800287BD0A7
:1057900092480078032806DC90480078401C8F4926
:1057A000087027E065E08D480078062805DC8B4806
:1057B0000078C01C894908701CE0884800781028CF
:1057C00005DC86480078401D8449087012E0834853
:1057D0000078162805DC81480078C01C7F490870D5
:1057E00008E07E480078262804DC7C480078401CCD
:1057F0007A49087079480078262802DBFF2077492B
:10580000087077480078012805DC75480078401C4E
:105810007349087012E0724800780D2805DC704862
:105820000078C01C6E49087008E06D4800781E289A
:1058300004DC6B480078401C6949087068480078AF
:105840001E2802DBFF2066490870654800781E2884
:105850001ADD62480078262816DD00205F490870AE
:105860005F4908705F49087060480021016001715C
:105870000AE00020594908705949087059490870D0
:105880005A4800210160017132208DF80800312052
:105890008DF80900574803900B208DF81000102058
:1058A0008DF811004E4800788DF8120049490878AB
:1058B000FDF73AFB8DF8130005208DF814004B48D6
:1058C00000798DF8150002A8FDF78CFF41208DF8B6
:1058D000080040490878FEF79BFF8DF81300092067
:1058E0008DF814003F4800788DF8150002A8FDF7E8
:1058F00079FF28208DF8090013208DF8100018205A
:105900008DF811003C480390344800788DF812005F
:1059100050208DF808002F494878FDF705FB8DF8D9
:10592000130005208DF81400304880788DF815009C
:1059300002A8FDF757FF6E208DF80800254948782A
:10594000FEF766FF8DF8130009208DF81400274834
:10595000C0788DF8150002A8FDF744FF01208DF8EE
:10596000090050208DF808001A498878FDF7DCFA04
:105970008DF8130005208DF814001C4800788DF870
:10598000150002A8FDF72EFF6E208DF808001149C2
:105990008878FEF73DFF8DF8130009208DF814007C
:1059A000124840788DF8150002A8FDF71BFF094842
:1059B000C0788DF8040000208DF8050014236822BB
:1059C000002101A8FEF766F80648007806B010BD71
:1059D0004A000020EC000020141200200A120020CF
:1059E0000B1200200C120020121200200D120020B9
:1059F00013120020D37B00089979000810B51349D1
:105A00004978491E114A51701146497889B91146A1
:105A10000978022906D10E490978012902D10C2101
:105A2000517006E009490978052902D11F21074A6A
:105A30005170FEF7BBF805494978814201DD034901
:105A400048700021034A117010BD0000A80000201A
:105A5000080100200901002010B512484078401CC0
:105A600010494870FEF7A2F80E494978884202DAD8
:105A700000200C4948700B480078022803D10A48DE
:105A80000078012803D007480078052805D105488B
:105A9000407810B90120034948700020034908707C
:105AA00010BD0000A800002008010020090100200E
:105AB0007CB50E263848007808281CD2DFE800F0B4
:105AC0001B0E12151804070B1C24102515E0312499
:105AD0001126102511E05B2410250EE01B241C2646
