:020000040800F2
:10000000E80F0020D5010008610700085907000823
:100010005D0700086D05000877100008000000006B
:10002000000000000000000000000000850A000839
:100030007105000800000000D5090008990B0008B0
:1000400089100008EF010008EF010008EF01000827
:10005000EF010008EF01000873050008EF01000838
:100060007D0500088705000891050008EF010008DC
:10007000EF010008EF010008EF010008EF010008A0
:10008000EF010008EF010008EF010008EF01000890
:10009000EF010008EF010008EF010008EF01000880
:1000A000EF010008EF010008EF010008EF01000870
:1000B000FD0B00084D0C0008EF010008EF010008DF
:1000C000EF010008EF010008EF010008EF01000850
:1000D000EF010008910F0008EF010008EF01000890
:1000E000EF010008EF010008EF010008EF01000830
:1000F000EF010008EF010008EF010008EF01000820
:10010000EF010008EF010008EF010008EF0100080F
:10011000EF010008EF010008EF010008EF010008FF
:10012000EF010008EF010008EF010008EF010008EF
:1001300000F002F800F03EF80AA090E8000C8244BB
:100140008344AAF10107DA4501D100F033F8AFF298
:10015000090EBAE80F0013F0010F18BFFB1A43F0A5
:1001600001031847642C0000842C0000103A24BFBF
:1001700078C878C1FAD8520724BF30C830C144BF0C
:1001800004680C607047000000230024002500264E
:10019000103A28BF78C1FBD8520728BF30C148BFEA
:1001A0000B6070471FB59DE8030000F0F3F81FBD1A
:1001B00010B510BD00F049F91146FFF7F3FF01F04B
:1001C00009FB00F067F903B4FFF7F2FF03BC00F08E
:1001D0006DFF00000948804709480047FEE7FEE739
:1001E000FEE7FEE7FEE7FEE7FEE7FEE7FEE7FEE7E7
:1001F00004480549054A064B704700009D0B00085E
:1002000031010008E8090020E80F0020E80B002079
:10021000E80B0020704770B5064600F09FF80568AF
:1002200006F10B0020F00704B4429CBF002070BD13
:100230002B466A68BAB11068A04210D304F10801D5
:1002400088423CBF5068586007D35168101941601C
:100250001168091B016058601460101D70BD1346C1
:100260005268002AE7D12146284600F07FF800288E
:10027000DED170BD70B50446051F00F06FF8006850
:10028000002C14BF446870BD002C18BFAC423CBFAA
:1002900020466468F8D301680A18AA4218BF45606E
:1002A00003D12A6805461144016028684119A1421A
:1002B0001CBF6C6070BD616869602168084428607B
:1002C00070BD4FF000020429C0F0128010F0030C42
:1002D00000F01B80CCF1040CBCF1020F18BF00F839
:1002E000012BA8BF20F8022BA1EB0C0100F00DB8E8
:1002F0005FEAC17C24BF00F8012B00F8012B48BF46
:1003000000F8012B70474FF0000200B513469446E9
:100310009646203922BFA0E80C50A0E80C50B1F15D
:100320002001BFF4F7AF090728BFA0E80C5048BF71
:100330000CC05DF804EB890028BF40F8042B08BF0F
:10034000704748BF20F8022B11F0804F18BF00F80B
:10035000012B7047704770477047704700487047DF
:1003600090090020704770477047704738B50446C1
:100370000A4600206946AFF30080002808BF38BD58
:1003800002460099204600F03FF8012038BD0120C8
:1003900000F054B8F8B5AFF30080054600200C46D5
:1003A000102000BF0646A819A0420DD93246694662
:1003B0000020AFF30080070008BF00F03FF800986E
:1003C000A04218BF0546C419FFF7C8FF05600746DD
:1003D000F01D20F007004619284600F00AF8B44244
:1003E00008BFF8BDA21B31463868BDE8F84000F0F0
:1003F0000BB800210160C0E9011070471020704760
:100400000048704788090020034640688C46002851
:1004100018BF88423CBF03464068F8D318681844A8
:10042000884207D00CF1030020F00700001D411A9C
:10043000521A0146081D0A60FFF71CBF10B500F0F4
:1004400037F8BDE8104000F02EB87546FFF7D8FF2A
:10045000AE4605006946534620F00700854618B0B1
:1004600020B5FFF7C5FEBDE820404FF000064FF075
:1004700000074FF000084FF0000B21F00701AC46D9
:10048000ACE8C009ACE8C009ACE8C009ACE8C009F8
:100490008D46704710B50446AFF300802046BDE896
:1004A0001040FFF790BE002801D000F0FFBD70475C
:1004B00010B5012805D0002103A000F021F801208B
:1004C00010BD09A1F8E7000053494752544D454D6E
:1004D0003A204F7574206F662068656170206D65E5
:1004E0006D6F7279000000003A2048656170206DE0
:1004F000656D6F727920636F7272757074656400D8
:1005000070B505460C460A2000E06D1C00F0D2FDD7
:1005100035B128780028F8D102E0641C00F0CAFD4B
:1005200014B120780028F8D1BDE870400A2000F00E
:10053000C1BD000008B501460020009003480090AE
:100540000098084400900098008808BD006C0040A6
:1005500008B500220092044A0092009A02440092D8
:10056000009A116008BD0000006C004000BFFEE76B
:10057000704710B5012000F011F810BD10B504202F
:1005800000F00CF810BD10B5082000F007F810BD01
:1005900010B5102000F002F810BD000001490860FD
:1005A00070470000140401402DE9F0410246002587
:1005B0000026002000230024002791F803C00CF03F
:1005C0000F0591F803C00CF0100CBCF1000F03D024
:1005D00091F802C04CEA050591F800C0BCF1000F8B
:1005E00031D0146800202BE04FF0010C0CFA00F31E
:1005F000B1F800C00CEA03069E4220D183004FF000
:100600000F0C0CFA03F7BC4305FA03FC4CEA040494
:1006100091F803C0BCF1280F06D14FF0010C0CFA81
:1006200000FCC2F814C00AE091F803C0BCF1480F06
:1006300005D14FF0010C0CFA00FCC2F810C0401CB0
:100640000828D1D31460B1F800C0BCF1FF0F34DD2D
:10065000546800202EE000F1080C4FF0010808FA61
:100660000CF3B1F800C00CEA03069E4221D18300CE
:100670004FF00F0C0CFA03F7BC4305FA03FC4CEAED
:10068000040491F803C0BCF1280F05D100F1080C57
:1006900008FA0CF8C2F8148091F803C0BCF1480FB6
:1006A00007D100F1080C4FF0010808FA0CF8C2F865
:1006B0001080401C0828CED35460BDE8F0810000B3
:1006C000F0B50A46002300240021002500F0004672
:1006D000B6F1004F02D11D4EF16901E01B4E716869
:1006E000C0F3034583B200F44016B6F5401F08D1AD
:1006F00021F07061154E766826F07066134F7E60AB
:1007000012E000F48016B6F5801F06D1032606FA23
:1007100005F4A14341F0706106E0460D360103FA8D
:1007200006F6B14341F0706122B1460D360103FA7D
:1007300006F6314300F00046B6F1004F02D1034EF9
:10074000F16101E0014E7160F0BD00000000014068
:10075000416170470161704700BFFEE700BFFEE7DF
:100760007047000070B5002100230F22C47804B345
:10077000154C246804F4E064C4F5E064210AC1F176
:100780000403CA40447804FA03F1847814402143F6
:1007900009010E4C0678A155047804F01F050124C8
:1007A000AC4005786D11AD0005F1E025C5F80041BC
:1007B00009E0047804F01F050124AC40044D0678DC
:1007C000761145F8264070BD0CED00E000E400E035
:1007D00080E100E002490143024A116070470000D5
:1007E0000000FA050CED00E010B54FF480610348FD
:1007F000FFF767FD00F0B4F810BD0000C004002052
:1008000010B504461CB90021A62000F0ADF8012C5B
:1008100003D10021A72000F0A7F80021AF2000F0AD
:10082000A3F810BD08B50121052000F0F5F801215D
:100830004948FFF745FFF020ADF8000010208DF883
:10084000030003208DF8020069464448FFF7ACFE20
:100850004FF4C5514148FFF77DFF40213F48FFF766
:1008600077FFC82000F002FE40213C48FFF772FFEE
:100870000021AE2000F078F80021084600F074F85E
:100880000021102000F070F80021402000F06CF8EA
:100890000021812000F068F80021CF2000F064F8EA
:1008A0000021A12000F060F80021C82000F05CF8D1
:1008B0000021A62000F058F80021A82000F054F8EC
:1008C00000213F2000F050F80021D32000F04CF828
:1008D0000021084600F048F80021D52000F044F837
:1008E0000021802000F040F80021D92000F03CF8E1
:1008F0000021F12000F038F80021DA2000F034F86F
:100900000021122000F030F80021DB2000F02CF84C
:100910000021402000F028F80021202000F024F8D9
:100920000021022000F020F800218D2000F01CF8AA
:100930000021142000F018F80021A42000F014F881
:100940000021A62000F010F8FFF74EFF0021AF2095
:1009500000F00AF808BD0000000230000008014065
:1009600010B500F075FF10BD70B504460E4626B1F7
:1009700010211448FFF7EEFE03E010211148FFF7A5
:10098000E7FE002517E020210E48FFF7E1FE04F006
:10099000800020B180210B48FFF7DCFE03E08021BE
:1009A0000848FFF7D5FE20210648FFF7D3FE600672
:1009B000040E681CC5B2082DE5DB10210148FFF7C5
:1009C000C9FE70BD0008014001490862704700007F
:1009D00000000E427047000029B1064AD269024366
:1009E000044BDA6104E0034AD2698243014BDA61C5
:1009F000704700000010024029B1064A1269024304
:100A0000044B1A6104E0034A12698243014B1A61E4
:100A1000704700000010024029B1064A9269024363
:100A2000044B9A6104E0034A92698243014B9A6144
:100A3000704700000010024029B1064AD268024304
:100A4000044BDA6004E0034AD2688243014BDA6067
:100A5000704700000010024001460020034A12883F
:100A60000A400AB1012000E000207047042800403D
:100A700000BF0348008800F020000028F9D070472C
:100A800004280040704710B500F002F810BD0000C7
:100A90000CB50020019000903348006840F480308D
:100AA0003149086000BF3048006800F40030009011
:100AB0000198401C0190009818B90198B0F5A06FFA
:100AC000F1D12948006800F4003010B101200090F5
:100AD00001E0002000900098012843D123480068DD
:100AE00040F01000214908600846006820F003002B
:100AF00008600846006840F0020008601A48406834
:100B0000194948600846406848600846406840F413
:100B1000806048600846406820F47C1048600846C1
:100B2000406840F4E81048600846006840F0807073
:100B3000086000BF0C48006800F000700028F9D081
:100B40000948406820F003000749486008464068AB
:100B500040F00200486000BF0348406800F00C000D
:100B60000828F9D10CBD000000100240002002400E
:100B7000042808D14FF0E021096941F004014FF049
:100B8000E022116107E04FF0E021096921F0040142
:100B90004FF0E022116170477047000010B5134814
:100BA000006840F00100114908600846406810499B
:100BB00008400E494860084600680E4908400B4945
:100BC00008600846006820F48020086008464068F5
:100BD00020F4FE0048604FF41F008860FFF753FFC9
:100BE0004FF000600449086010BD00000010024092
:100BF0000000FFF8FFFFF6FE08ED00E010B5012150
:100C0000880700F059F9A8B10D480068401C0C494C
:100C1000086001200B490870094800684FF46161C1
:100C2000B0FBF1F201FB120020B907480078401C2C
:100C3000054908700121880700F03BF810BD00004D
:100C400074000020800000207800002010B50121F1
:100C5000114800F031F9F0B101210F4800F029F8F6
:100C60000E480088401C0D490880084600880C4941
:100C70000988884203DA01200A49086002E000205E
:100C8000084908600548008807490988884202DB4E
:100C900000200249088010BD00040040920000209E
:100CA0008E0000208401214290000020CA4302826D
:100CB0007047CA430282704721B1028842F00102A4
:100CC000028004E002884FF6FE731A4002807047EB
:100CD00010B504466848844208D10121C014FFF7CA
:100CE000ABFE0021E014FFF7A7FEC4E0B4F1804F93
:100CF00008D101210846FFF77FFE00210120FFF700
:100D00007BFEB8E05D48844208D101210220FFF754
:100D100073FE00210220FFF76FFEACE058488442CA
:100D200008D101210420FFF767FE00210420FFF70E
:100D300063FEA0E05348844208D101210820FFF758
:100D40005BFE00210820FFF757FE94E04E488442E6
:100D500008D101211020FFF74FFE00211020FFF7DE
:100D60004BFE88E04948844208D101212020FFF74A
:100D700043FE00212020FFF73FFE7CE044488442F0
:100D800008D101214014FFF757FE00216014FFF73E
:100D900053FE70E03F48844209D10121C804FFF7A7
:100DA0004BFE00214FF40020FFF746FE63E03A4877
:100DB000844209D101210805FFF73EFE00214FF4CE
:100DC0008010FFF739FE56E03448844209D10121F2
:100DD0004805FFF731FE00214FF40010FFF72CFE0D
:100DE00049E02F48844208D101214020FFF704FE4A
:100DF00000214020FFF700FE3DE02A48844208D150
:100E000001218020FFF7F8FD00218020FFF7F4FD8D
:100E100031E02548844208D101218015FFF7ECFD1F
:100E20000021A015FFF7E8FD25E02048844209D104
:100E300001210804FFF700FE00214FF48030FFF786
:100E4000FBFD18E01A48844209D101214804FFF74C
:100E5000F3FD00214FF40030FFF7EEFD0BE01548E5
:100E6000844208D101218804FFF7E6FD00214FF4F8
:100E70008020FFF7E1FD10BD002C01400004004080
:100E800000080040000C004000100040001400402A
:100E900000340140004C014000500140005401402A
:100EA00000180040001C00400020004000400140AD
:100EB000004401400048014030B5024600200023B4
:100EC0000024158A05EA0103958905EA010413B196
:100ED0000CB1012000E0002030BD1AB183890B4322
:100EE000838102E083898B438381704700220288DB
:100EF0001D4B98420ED01D4B98420BD0B0F1804F45
:100F000008D01B4B984205D01A4B984202D01A4B7E
:100F1000984204D14FF68F731A404B881A43174BEF
:100F2000984207D0164B984204D04FF6FF431A4020
:100F3000CB881A4302808B8883850B8803850A4BF4
:100F400098420BD0094B984208D00E4B984205D0DE
:100F50000D4B984202D00D4B984201D10B7A03867B
:100F60000123838270470000002C014000340140BF
:100F70000004004000080040000C00400010004049
:100F8000001400400040014000440140004801407E
:100F900010B540F225511D4800F03EF810B31B4833
:100FA00000F064F8C4B21A48008800F40040C8B9E0
:100FB0001748008800F4804060B10A2C03D000205C
:100FC0001349088020E01248008840F4004010498E
:100FD000088019E00D2C06D10D48008840F48040AF
:100FE0000B49088010E00A480088C0F30D00094949
:100FF0000C5407480088401C0549088008460088B2
:10100000C72801DD0020088010BD00000038014025
:10101000A0000020C008002070B502460024002374
:101020000025002040F66A16B14200D100BFC1F38E
:10103000421501F01F03012606FA03F3012D02D128
:101040009689334006E0022D02D1168A334001E032
:10105000968A33400C12012606FA04F416883440AE
:1010600013B10CB1012000E0002070BD014688885A
:10107000C0F30800704700BFFEE7000000200149F0
:1010800008607047082C004010B50348007800F055
:1010900005F8FFF7F3FF10BD9400002000F07F017A
:1010A000014A116070470000002C0040014600BF5B
:1010B00000207047014600BF0020704700EB40024F
:1010C000034B1A4413880B8092788A707047000093
:1010D0002800002010B500F0C7FA10BD10B512218D
:1010E0000148FFF710F910BD2800002001484078A2
:1010F00070470000A400002070B501214FF0C050DF
:10110000FFF76AFCFFF7B4FC0120FFF75DFC042049
:10111000FFF710FA05460820FFF77DF860490268DE
:101120000A6040684860084600210160416041F261
:101130003420854255D100245A4931F81400FFF774
:10114000F9F957490870641C564931F81400FFF743
:10115000F1F908B1012000E0002051494870641CF9
:10116000504931F81400FFF7E5F908B1012000E01B
:1011700000204B498870641C4A4931F81400FFF77D
:10118000D9F908B1012000E000204549C870641C6D
:10119000444931F81400FFF7CDF908B1012000E00F
:1011A00000203F490871641C3E4931F81400FFF7E4
:1011B000C1F908B1012000E0002039494871641CE0
:1011C000384931F81400FFF7B5F935498871641CC6
:1011D000344931F81400FFF7ADF93149C871641C86
:1011E00055E041F2342529460420FFF7B1F91021DA
:1011F0002D48FFF766F800242B4A32F81410294ACC
:1012000032F81400FFF7A4F9641C274A32F81410CE
:10121000244A32F81400FFF79BF9641C224A32F882
:101220001410204A32F81400FFF792F9641C1E4A89
:1012300032F814101B4A32F81400FFF789F9641CC5
:10124000194A32F81410174A32F81400FFF780F9DF
:10125000641C154A32F81410124A32F81400FFF7D1
:1012600077F9641C104A32F814100E4A32F8140050
:10127000FFF76EF9641C0C4A32F81410094A32F870
:101280001400FFF765F9641C00F010F800BF044873
:1012900000780C2802DD00200149087070BD0000B4
:1012A0003C00002044000020B000002010B50120C8
:1012B000094908700020487001208870C87000201B
:1012C00008710120487100208871FF20C87100F06A
:1012D00005F8FFF703FF10BD3C00002010B5012109
:1012E0004FF0C050FFF778FBFFF7C2FB0120FFF77C
:1012F0006BFB31480078314908802F48407848809E
:101300002D48807888802C48C078C8802A48007989
:101310000881294840794881274880798881264872
:10132000C079C88100240A4632F81410244A32F8E1
:101330001400FFF70DF9641C204A32F81410204AFB
:1013400032F81400FFF704F9641C1C4A32F8141038
:101350001B4A32F81400FFF7FBF8641C174A32F8F6
:101360001410174A32F81400FFF7F2F8641C134AFD
:1013700032F81410124A32F81400FFF7E9F8641C2E
:101380000E4A32F814100E4A32F81400FFF7E0F853
:10139000641C0A4A32F81410094A32F81400FFF7A4
:1013A000D7F8641C054A32F81410054A32F81400C4
:1013B000FFF7CEF8641C10BD3C000020B0000020F8
:1013C000440000200EB5FFF7E9FB4FF4A060FFF7E3
:1013D00001FA00F029F84FF480611048FEF771FF20
:1013E000FFF720FA00F0DCF9FFF786FEFFF772FE48
:1013F00000F0F4F900F072FA00200822CDE9002094
:101400001023074A302102900A2000F055F800F01E
:1014100027F904494878FFF7F3F90EBDC00400200E
:10142000CB2400083C00002010B56FF00400FFF74B
:101430009FFB0A4800680A49B0FBF1F009490870AF
:101440000846007800EB4001C1EBC0104FF6FF7179
:1014500001EAC0000449088010BD0000000000201F
:1014600000127A0096000020980000200146114AE0
:1014700012884A434FF0E0235A6100229A611A46CB
:10148000126942F001021A6100BF4FF0E0221069B8
:1014900000F001021AB100F48032002AF5D04FF0BA
:1014A000E022126922F001024FF0E0231A610022CB
:1014B0009A617047980000202DE9FF4F87B00E46D3
:1014C000FFF714FE3044C6B21698301AC7B214980B
:1014D000C11700EB5171C1F3C70106913846F917E6
:1014E00007EB5171C910A7EBC101C9B2059114985E
:1014F0003044C0B204904FF00008A8E007EBC800E9
:10150000C4B204F10800C5B2169838B1B54204DB84
:10151000402D02DC0498844200DD94E0FF2003901B
:10152000169878B1B44205DA311BFF208840C0B26A
:10153000039007E00498854204DD0498291AFF20EF
:10154000084103902046E11704EB5171C9104FF692
:10155000FF7202EAC119DDE9091008FB00100290D0
:10156000059840BB402C26DA4FF0000A1FE0079890
:10157000504400F0FF0BBBF1800F00DB13E0029939
:1015800001EB0A00159900F08FF9039908400190CA
:101590000BEB09003149095C019808430BEB090189
:1015A0002E4A505400BF0AF1010000F0FF0A0A98C9
:1015B0008245DCDB46E02846E91705EB5171C9108E
:1015C0004FF6FF7202EAC11101914FF0000B35E0B6
:1015D0000798584400F0FF0ABAF1800F00DB29E0B9
:1015E000029901EB0B00159900F05EF90399084090
:1015F0000090402C0CDA0AEB09001849095C059AA6
:10160000009890400143C8B20AEB0901134A5054B4
:10161000402D0EDA019850441049095C0598C0F13C
:10162000080200981041084301990AEB01020B4996
:10163000885400BF0BF1010000F0FF0B0A988345AE
:10164000C6DB00BF00BF08F1010000F0FF080698EC
:101650008045FFF653AF0BB0BDE8F08FC00400200B
:1016600010B500F0F5F810BD2DE9FC474FF0FF086C
:101670004FF6FF79284880788DF806002648C07814
:101680008DF80700002101A800F02CF9224B1A79EF
:101690005B785B1CD9B29DF8060000F062F98246C7
:1016A00006262FE069463046FFF708FD9DF8020048
:1016B000C00900B926E007251EE09DF802000121BF
:1016C000A940084000B917E09DF801109DF80000FE
:1016D0002A4600F046F90746A7EB0A04002C02DA76
:1016E00042F25F700444A0B2484504DA1FFA84F95C
:1016F000B0460A48057000BF281EA5F10101CDB211
:10170000DBD100BF301EA6F10101CEB2CAD1044820
:1017100080F80080BDE8FC877800002015000020DC
:101720001400002000B514211A48C17101218171F3
:1017300005201849087107211648417116480068AC
:101740004FF46161B0FBF1F01249887012480068F3
:101750004FF46161B0FBF1F201FB12003C21B0FBE0
:10176000F1F00C4948700C4800684FF46161B0FB1F
:10177000F1F201FB12003C21B0FBF1F201FB12007F
:10178000044908702020C87004488179014800F09D
:10179000A9F800BD78000020740000203C00002063
:1017A00008B501210820FFF737F94FF44050ADF894
:1017B000000010208DF8030003208DF80200694618
:1017C0000348FEF7F1FE20210148FEF7C3FF08BDE4
:1017D000000C0140FFF7F6FD00BFFEE71FB54FF418
:1017E000E060FEF7F7FF1C208DF80C0001208DF85B
:1017F0000F0000208DF80D008DF80E0003A8FEF7F5
:10180000B1FF01210846FFF7E7F84FF08040FFF7EE
:101810005FFA0020ADF80600ADF802004FF47A70D0
:10182000ADF804002320ADF8000069464FF0804079
:10183000FFF75CFB01218807FFF738FA0122114608
:101840009007FFF74AFB01218807FFF735FA1FBD14
:1018500070B500241DE004F1B001C8B20021FFF70B
:1018600083F800210846FFF77FF800211020FFF7DA
:101870007BF8002509E0802101FB0451094A505CF6
:101880000121FFF771F8681CC5B2802DF3DB601CE5
:10189000C4B2082CDFDB4FF480610248FEF711FD73
:1018A00070BD0000C0040020024600BF1378184637
:1018B00009B1C343D8B2704710B50220FFF7CCF886
:1018C00008B1012010BD0020FCE710B50220FFF791
:1018D000C3F808B1012010BD0020FCE710B500F0EE
:1018E0002BF810BD0A468178012A11D1C378202B2C
:1018F00000D070470C2906DB02DDA1F10C03D9B240
:101900005023C37015E001B90C214123C37010E0CE
:10191000C378412B03D10C2901D1002107E0C37802
:10192000502B04D10C2902DA01F10C03D9B2202387
:10193000C370817000BFDCE770B5FFF7F3FEFFF7FF
:10194000C4FF0446FFF7B8FF054614B10DB10320EC
:1019500070BD0CB10220FBE70DB10120F8E70020BB
:10196000F6E710B503460846C3EB031400EB84000A
:10197000C2EB021404EB440400EB4414A0B210BD0B
:101980004D545754465353004D6F6E0054756500C7
:1019900057656400546875004672690053617400AD
:1019A00053756E004A616E00466562004D617200BB
:1019B000417072004D6179004A756E004A756C0085
:1019C00041756700536570004F6374004E6F760079
:1019D00044656300060F1F3E1F0F063C42819DA118
:1019E00081423C0F0102016F909060011F0100785D
:1019F0008080780F0402040FF8A8A8011F0100F8E6
:101A00002020F81F050500F828689012150900F03D
:101A10002828F01215090078808078000000000066
:101A2000000000000000000000000000FFFF7C70CC
:101A3000E0C0800000000000000000000000000086
:101A4000000000000000000000000000FFFF000098
:101A50000001071FFC200000000000000000000043
:101A60000000008080C0C0C0C0C080C0FFFF000078
:101A70000000000001000000000000000000000065
:101A8000187E7FFFFFFFFFFF7F7F3F1F1F030000C8
:101A900000000000000000000000000080C0C00046
:101AA00000F8F8C00000F8F8C0C00000F8F8C0C0A6
:101AB000C080000000000000000000FFFFFF3F3E6C
:101AC0003F3F3FBFBFBE3FBFBFBFBEBEFFFFFF7FA9
:101AD0007F3FB8307070F0E0C08000FFFFFF806C87
:101AE0006C6C006D6D6D006D6D6DFFFFF789000210
:101AF000061C7800000008C3FFFF3E00010303033B
:101B000003030303030303030303030303070F0E8A
:101B10000E0E0F0E0E0E070703010000000000005E
:101B200000000000000000000000000000000000B5
:101B30000000000484E4741C0C000000000000009D
:101B40000000000000000000000383C3F33B1F07F8
:101B500003000003030202020200000000070787DF
:101B6000C7E7F77F3F1F0F000006070706060606B8
:101B70000600000000000000000000003C3E3F3F67
:101B80003B393838383838000000000000000000C9
:101B90000000000000000000000000000000000045
:101BA000000000000000000080C0E0E00000000035
:101BB00080000070E0C0800000000000F0F8F8F83D
:101BC000F8F8F8F8F8FCFEFFFFFFFFFF00003CF814
:101BD000C1071FFCF0031FFEF00000000F1F1F1FB6
:101BE0001F1F1F1F1F3F7FFFFFFFFFFF00003C1F46
:101BF00083E0F83F0FC0F87F0F00000000000000F6
:101C000000000000000000000103070700000000C2
:101C10000100000E0703010000000000000000802A
:101C200080808080000000000000000000000000B4
:101C3000000080808080800000000000E0F89C9F11
:101C400007079F9FFCFCFCFCFCFCFCFCFCFCFCFC78
:101C5000FCFC9F9F67679F9CF8E000F8FFFFFFFF79
:101C6000FE7E3F1F312424311F0F0F0F0F1F312421
:101C700024311F3F7EFEFFFFFFFFF800010101013D
:101C80000000000000000000000000000000000054
:101C90000000000000000101010100000000000040
:101CA0000000000000000000000000000000000034
:101CB0000000000000000000000000000000000024
:101CC0000000000000C0F0F8381C1C1C1C38F8F0A4
:101CD000C000000000000000000000000000000044
:101CE0000000000000030F1F1C383838381C1F0F7D
:101CF00003000000000000000000000000000000E1
:101D000000000000000000000000000000000000D3
:101D100000000000000000000000000000000000C3
:101D200000000000000000000000FEFE00000000B7
:101D300000000000000000000000000000000000A3
:101D40000000000000C0F0F8381C1C1C1C38F8F023
:101D5000C0000000000000000000000000000000C3
:101D6000000080C0C0030F1F1C383838381C1F0FFC
:101D700003C0C08000000000000000000000000060
:101D80000607030100000000000000000000000042
:101D90000000010307060000000000000000000032
:101DA00060E0C080000000000000000000000000B3
:101DB000000080C0E06000000000000000000000A3
:101DC0000000010303C0F0F8381C1C1C1C38F8F09C
:101DD000C00303010000000000000000000000003C
:101DE000000080C0C0030F1F1C383838381C1F0F7C
:101DF00003C0C080000000000000000000000000E0
:101E000006070301000000000000000000000000C1
:101E100000000103070600000000000000000000B1
:101E200060E0C080000000000000FEFE0000000036
:101E3000000080C0E0600000000000008080808022
:101E40008080810303C0F0F8381C1C1C1C38F8F09B
:101E5000C003038180808080808000000101010137
:101E6000010181C0C0030F1F1C383838381C1F0FF8
:101E700003C0C08101010101010100000000000058
:101E8000060703010000000000007F7F0000000043
:101E90000000010307060000000000000000000031
:101EA00000000000102040800000F800008040206A
:101EB0001000000000000000000000000000000012
:101EC000000000000000F00C04020202040CF0000C
:101ED0000000000000000000000000000000000002
:101EE0000000000000001F10FF101F1FFF101F0048
:101EF00000000000000000000000000000000000E2
:101F00000000000000000000FF0000001F000000B3
:101F100000000000000000000000000000000000C1
:101F200000000000000000000000000000000000B1
:101F300000000000000000000000000000000000A1
:101F4000000000000000F00C04020202040CF0008B
:101F50000000000000000000000000000000000081
:101F60000000000000001F10FF101F1FFF101F00C7
:101F70000000000000000000000000000000000061
:101F80000000000000000000FF0000001F00000033
:101F90000000000000000000000000FFFFFFFFFF46
:101FA000EFCF8F0F0F0F0F0F0F0F0F0F0F0F0F0F21
:101FB0000F0F0F0F0F0F0FFFFFFFFFFFFFFFFFFFC1
:101FC000FFFFFFFFFE040C1C3C7CFCFCFCFCFCFC4B
:101FD000FC000000000000FFFFFFFFFFFFFFFFFF0E
:101FE000FFFFFFFFFFC0C0C0C0C0C0C1C3C7CFDF7D
:101FF000FFC08000000000FFFFFFFFFFFFFFFFFFAB
:10200000FFFFFFFFFFFFFFFFFFFFFFFFFFFFFFFFE0
:10201000FFFFFFFFFEFCF8FFFFFFFF0000000000D6
:1020200080C0E0F0F0F878783C3C3C3C3C3C787870
:10203000F8F0F0E0C00000000000000C1C7CFCFE8A
:10204000FFFFFF7F3C0C00000000000000000000CC
:1020500000000101C0C0C00000000000000000033B
:10206000030380800000000000000000000000006A
:10207000303CFEFFFFFF7F3F3E3C30000000000091
:102080000003070F0F1F1E1E3C3C3C3C3C3C1E1E29
:102090001F0F0F0703010000000000000080E0F0A8
:1020A000F8F8FCFC7C7C3CBC9EDEDEDEDEDEFEBCAA
:1020B0003CF8F8F0F0E0C00000000000E0FFFFFF97
:1020C0007F7F7D0030F8F8F1F1E3C3E7FFFF7F7F0A
:1020D0007F7F7F03031FFFFFFEF00000073FFFFF2E
:1020E000F8E0C0E0F0F97F3F1F0F0FF3FDFC7860D0
:1020F00001071F9FDFFFFFFFFFFF0000000000013F
:1021000003070F1F1F3C3C3C7878787F7F7F7F7FE1
:102110007E7E7F7F7F3F1F0F070300000080E0F07F
:10212000F8383C3C7C7C389890C0C0C0C0C0C080AF
:1021300000000000000000000000000000071F3F3A
:102140007C7C7C0030F8F8F1F1E3C3870F1F3F7F00
:102150007F7E7C0000000000000000000000000006
:1021600000000000000103070F0F0FF3FDFC786073
:1021700001071F1FDFFFFEFCF8F000000000000059
:102180000000000000000000000000070F1F3F7F5C
:102190007E7E7C7C7F3F1F0F070300000000000055
:1021A000000000000000000000000000000000002F
:1021B000000000000000000000000000000000001F
:1021C000000000000000000000000000000000000F
:1021D00000000000000000000000000000000000FF
:1021E00000000000000000000000000000000000EF
:1021F00000000000000000000000000000000000DF
:10220000000000000000001E3F313D3D313F1E0038
:1022100000000000000000000000000000000000BE
:1022200000000000000000000000000000000000AE
:10223000000000000000000000000000000000009E
:10224000000000000000000000000000000000008E
:10225000000000000000000000000000000000007E
:102260000000003C7E627A3A3A3A3A3A3A3A3A7A8E
:10227000627E3C0000000000000000000000000042
:10228000000000000000001E3F313D3D313F1E00B8
:10229000000000000000000000000000000000003E
:1022A000000000000000000000000000000000002E
:1022B00000000000000000000000000000000078A6
:1022C000FCC4F47474747474747474747474747476
:1022D000747474F4C4FC7800000000000000000076
:1022E0000000003C7E627A3A3A3A3A3A3A3A3A7A0E
:1022F000627E3C00000000000000000000000000C2
:10230000000000000000001E3F313D3D313F1E0037
:10231000000000000000000000000000F0F888E865
:10232000E8E8E8E8E8E8E8E8E8E8E8E8E8E8E8E82D
:10233000E8E8E8E8E8E8E888F8F00000000101785B
:10234000FCC4F474747474747474747474747474F5
:10235000747474F4C4FC78010100000000000000F3
:102360000000003C7E627A3A3A3A3A3A3A3A3A7A8D
:10237000627E3C0000000000000000000000000041
:10238000000000000000001E3F313D3D313F1E00B7
:1023900000000000000000000000000080C0C0C07D
:1023A000C0C0C0C0C0C0C0C0C0C0C0C0C0C0C0C02D
:1023B000C0C0C0C0C0C0C0C0C0800000FFFF007E61
:1023C0001E0E0602020000000000000000000000D7
:1023D0000000000000000000FFFF0000FFFF000001
:1023E00000000000000000000000000000000000ED
:1023F0000000006060606000FFFF00000103030355
:10240000030303030303030303030303030303039C
:1024100003030303030303030301000000000000A0
:10242000000000C0E03030181808CCCC0818183074
:1024300030E0C000000000000000000000000000CC
:102440000018FFC30000000000000F1F3060C080B4
:10245000000083FF180000000000000000000000E2
:1024600000000003070C0C18101030301010180D6D
:102470000C07030000000000000000000000000046
:10248000000000000000000000000000000000004C
:10249000000000000000000000000010387C381030
:1024A000101814345656D0D0103810FF81BD8181D9
:1024B000818181818181818181FF3CFF81BDBDBDA1
:1024C000BD8181818181818181FF3CFF81BDBDBD55
:1024D000BDBDBDBDBD81818181FF3CFF81BDBDBD55
:1024E000BDBDBDBDBDBDBDBD81FF3C0010189C7212
:1024F0003010000000000000005F00000000070036
:102500000700147F147F14242A7F2A1223130864DF
:1025100062364955225000050300001C224100008C
:1025200041221C0000082A1C2A0808083E0808A0AE
:102530006000000008080808086060000000201023
:102540000804023E5149453E00427F400062514925
:10255000494622414949361814127F1027454545FE
:10256000393C4A4949300171090503364949493620
:10257000064949291E003636000000AC6C000008F0
:1025800014224100141414141441221408000201EE
:10259000510906324979413E7E0909097E7F494940
:1025A00049363E414141227F4141221C7F494949F0
:1025B000417F090909013E414151727F0808087FA6
:1025C000417F4100002040413F017F081422417FAC
:1025D000404040407F020C027F7F0408107F3E4154
:1025E00041413E7F090909063E4151215E7F09199B
:1025F0002946264949493201017F01013F404040B7
:102600003F1F2040201F3F4038403F6314081463A1
:10261000030478040361514945437F4141000002AE
:102620000408102041417F00000402010204808060
:10263000808080010204000020545454787F484474
:1026400044383844442800384444487F385454546B
:1026500018087E09020018A4A4A47C7F080404784A
:10266000007D00000080847D00007F102844004130
:102670007F4000007C041804787C08047C00384407
:10268000443800FC24241800182424FC00007C0892
:1026900004004854542400047F4400003C40407C23
:1026A000001C2040201C3C4030403C442810284462
:1026B0001CA0A07C004464544C4408364100000037
:1026C0007F000000413608000002010102010205FE
:1026D00005020060C0F0381CFEFFFFFFFF0F0F0F68
:1026E0000F0F0F0F0F0FFFFFFFFFFEFFFFFFFFFF9B
:1026F000000000000000000000FFFFFFFFFF7FFF61
:10270000FFFFFFF0F0F0F0F0F0F0F0F0FFFFFFFF60
:102710007F000000000000203CFFFFFFFFFF0000E3
:10272000000000000000000000000000FFFFFFFFAD
:10273000FF0000000000000000000000000000FF9B
:10274000FFFFFFFF00000000000000FEFFFFFFFF93
:102750000F0F0F0F0F0F0F0FFFFFFFFFFE00000007
:1027600000000080C0E0F0F8FC7E3F1F0F0703016F
:10277000E0F0F8FCFEFFFFFFF7F3F1F0F0F0F0F00F
:10278000F0F0F0FEFFFFFFFF0F0F0F0F0F0F0F0F07
:102790000FFFFFFFFFFE00000000000000081C1CF0
:1027A0003E3E7E7FF7F7F7E3E37FFFFFFFFFF0F0AA
:1027B000F0F0F0F0F0F0F0FFFFFFFF7F000000000E
:1027C0000080E0F0FCFF7F1F0F030100000000808D
:1027D000C0F0FCFEFF3F0F0301000000FFFFFFFF02
:1027E00000000F0F0F0F0F0F0F0F0F0F0F0F0FFF27
:1027F000FFFFFF0F0FFFFFFFFFFF0F0F0F0F0F0F69
:102800000F0F0F0F0F0F0F0F1F1F1F1F1F1E1E1E5B
:102810001E1E1E1E1E1EFEFEFEFEFC7FFFFFFFFF95
:10282000F0F0F0F0F0F0F0F0F0FFFFFFFF7FFEFFC0
:10283000FFFFFF0F0F0F0F0F0F0F0F0F7F7F7F7F18
:102840007EFFFFFFFFFF3C3C3C3C3C3C3C3C3CFCF7
:10285000FCFCFCF87FFFFFFFFFF0F0F0F0F0F0F081
:10286000F0F0FFFFFFFF7F7F7F7F7F7F0F0F0F0F56
:102870000F0F0F0FCFFFFFFFFF1F00000000000032
:1028800000000080F0FCFFFF3F0F0300000000008D
:10289000000080E0F8FEFFFF1F07010000000000BD
:1028A000FEFFFFFFFF0F0F0F0F0F0F0F0F0FFFFFA9
:1028B000FFFFFEC3E7E7F7FF7E3E3E3C1C3C3E3E8B
:1028C0007EFFF7E7E7C37FFFFFFFFFF0F0F0F0F0D8
:1028D000F0F0F0F0FFFFFFFF7FFEFFFFFFFF0F0FA5
:1028E0000F0F0F0F0F0F0FFFFFFFFFFE1F3F3F3FA9
:1028F0003F3C3C3C3C3C3C3C3C3CFFFFFFFFFF7E04
:10290000FEFEFEFEF0F0F0F0F0F0F0F0F0FFFFFF62
:10291000FF7FFEFFFF0F0707070FFFFFFE7FFFFF91
:10292000F0E0E0E0F0FFFF7F0000181C1EFFFFFF5B
:102930000000000000000000FFFFFF0000001E1F5D
:102940001F070787C7E7FF7F3EF0F8FCFEEFE7E3CE
:10295000E1E0E0E00E0F0F070787C7EFFF7F3E7053
:10296000F0F0E0E0E1E3F7FFFE7CC0E0F0783C1E31
:10297000FFFFFF00001F1F1F1C1C1CFFFFFF1C1C74
:10298000FFFFFFC7C7C7C7C7C7870771F1F1E1E1FD
:10299000E1E1F3FF7F3FFEFFFF8F878787878F8F00
:1029A0000E7FFFFFE3E3E3E3E3FFFF7F0F0F0F077C
:1029B000070787C7FFFF7FE0F0783C1E0F07030182
:1029C00000007EFFFFC7878787C7FFFF7E7EFFFF70
:1029D000E3E1E1E1E3FFFF7EFEFFFFC7C7C7C7C733
:1029E000FFFFFE78F9F9E1E1E1E1E1FFFF7F00F8A7
:1029F000F8F8F80000C3C3C3C300001F1F1F1F0067
:102A00001C06030101010101010101010101010194
:102A100001010101010101010101010101010101A6
:102A20000103061C3860C0808080808080808080A8
:102A30008080808080808080808080808080808096
:102A40008080808080C0603800000070783C9ECE1E
:102A50006F6737331A1818F8D818181A3337676F92
:102A6000CE9E3C78700000000000F07C0E03010058
:102A700000000000000000FFFF0000000000000058
:102A80000001030E7CF0000000077FF282030303C5
:102A9000030303030303030303000000000000001B
:102AA00000000082F27F07000000000103060C18FE
:102AB00030306060C0C0C0F0C0C0C0C060603030A6
:102AC000180C060301000000000000000080E0F088
:102AD000F8FCFCFC3E1E1E1E1E1E3E7CFCFCF8F09C
:102AE000E080000000000000000000000001010183
:102AF0000101010000000080C0E0F0F8FFFFFF7F4F
:102B00003F0F000000000000000000000000000077
:102B1000000000007C7E7F7F7F7F0F0301010000AB
:102B200000000000000000000000000000000000A5
:102B3000000000007E7E7E7E7E7E000000000000A1
:102B40000000000000000000000060F0F8F8F0E075
:102B50006060B030181818F8D818181830B06060D5
:102B6000E0F0F8F8F06000000000F07C0F130100C6
:102B700000000000000000FFFF0000000000000057
:102B80000001130F7CF0000000077FF2824000007C
:102B90000000000000000003070E1C3870E0C08039
:102BA00000004082F27F07000000000103060C18BD
:102BB00030306860C0C0C0F0C0C0C0C06068313193
:102BC000180C0603010000000000000000000000D7
:102BD00000000000000000000000000000000000F5
:102BE0000000000000000000C0E0F0F0F0F0F0F0A5
:102BF000F0F0F0F0F0F0F0F0F0F0F0F8F8FCFCFCA1
:102C0000FCFCFC00B090988803070F0F0F0F0F0F0C
:102C10000F0F0F0F0F0F0F0F0F0F0F1F1F3F3F3F14
:102C20003F3F3F000D0919110000000000000000A7
:102C30000000000000000000000000000000000094
:102C400000000000000000000000000040E0F0E094
:102C5000E0C080C0C0E0FEFEFEFEE0C0C080C0E07C
:102C6000E0F0E0400000000000C0C0C0C0E1FBFF99
:102C70001F07E3F1F97C3C1C1C3C7CF9F1E3071FC6
:102C8000FFFBE1C0C0C0C000000303030387DFFFF8
:102C9000F8E0C78F9F3E3C38383C3E9F8FC7E0F836
:102CA000FFDF8703030303000000000002070F0794
:102CB0000703010303077F7F7F7F070303010307E8
:102CC000070F0702000000000000000000000000E5
:102CD0000000C0F8F000000000000000000000004C
:102CE0000000000000000000008080808080808064
:102CF000C0FC3F013FFE800000000000000000001B
:102D000000000000000000000001010101010101BC
:102D1000010100000007FFE080F83C0C0C0C0C0CDB
:102D20000C0C0C0C0C0C0C0000000000000000004F
:102D3000000000000000010F0F0300000000000071
:102D400000000000000000000080C0C0C0C0C0C083
:102D5000C0C0C0C0C0C0C0C0C0C0C0C0C080000033
:102D6000000000000000000000FFFF010000000064
:102D70000000000000000000808080818F8F808034
:102D80008C9CB8F0E0C0800000FFFF8000000000D5
:102D9000000000000000000001010181F1F10101CB
:102DA00031391D0F0703010000010303030303036F
:102DB00003030303030303030303030303010000EB
:102DC0000000000000000000E82D000800000020C6
:102DD000A40000006C0100088C2E0008A400002054
:102DE000440F00008801000800A24A04000000000F
:102DF00000000000010203040607080900000000AB
:102E000000000000000000000000000000000000C2
:102E1000162D00013004072D3F09040003010700AF
:102E200000000100000000000000000008000C008D
:102E30001000140018001C0020002400280040008E
:102E4000440048004C005000540058005C006000F2
:102E5000640068006C007000740000000000000056
:102E60000000000000000000000000000000000062
:102E70000000000000000000000000007F000000D3
:0C2E800000000000000000000000000046
:0400000508000131BD
:00000001FF
