:020000040800F2
:1000000078100020E9010008310C0008290C0008D4
:100010002D0C0008E50900089B15000800000000F1
:100020000000000000000000000000003D0F00087C
:10003000410A000800000000A50E00085110000849
:10004000AD150008030200080302000803020008BF
:100050000302000803020008430A00080302000824
:100060004D0A0008570A0008610A00080302000848
:10007000030200080302000803020008030200084C
:10008000030200080302000803020008030200083C
:10009000030200080302000803020008030200082C
:1000A000030200080302000803020008030200081C
:1000B000B51000080511000803020008030200083B
:1000C00003020008030200080302000803020008FC
:1000D00003020008B5140008030200080302000828
:1000E00003020008030200080302000803020008DC
:1000F00003020008030200080302000803020008CC
:1001000003020008030200080302000803020008BB
:1001100003020008030200080302000803020008AB
:10012000030200080302000803020008030200089B
:1001300000F002F800F049F80AA090E8000C8244B0
:100140008344AAF10107DA4501D100F03EF8AFF28D
:10015000090EBAE80F0013F0010F18BFFB1A43F0A5
:1001600001031847F840000018410000103A24BF6E
:1001700078C878C1FAD8520724BF30C830C144BF0C
:1001800004680C607047000000230024002500264E
:10019000103A28BF78C1FBD8520728BF30C148BFEA
:1001A0000B607047752900F00D81632900F05783BB
:1001B000732900F05C83002070471FB59DE80300A1
:1001C00000F096FA1FBD10B510BD00F07AFB114685
:1001D000FFF7F3FF02F0F2F900F098FB03B4FFF72A
:1001E000F2FF03BC01F0FBF90948804709480047CA
:1001F000FEE7FEE7FEE7FEE7FEE7FEE7FEE7FEE7D7
:10020000FEE7FEE704480549054A064B7047000033
:100210005510000831010008780A002078100020ED
:10022000780C0020780C0020704770B5064600F06E
:1002300043FA056806F10B0020F00704B4429CBFA6
:10024000002070BD2B466A68BAB11068A04210D376
:1002500004F1080188423CBF5068586007D35168D8
:10026000101941601168091B016058601460101D6D
:1002700070BD13465268002AE7D12146284600F097
:1002800023FA0028DED170BD70B50446051F00F0CA
:1002900013FA0068002C14BF446870BD002C18BF0E
:1002A000AC423CBF20466468F8D301680A18AA42F1
:1002B00018BF456003D12A680546114401602868CB
:1002C0004119A1421CBF6C6070BD61686960216802
:1002D0000844286070BD00000FB41CB5074B06AA87
:1002E0007B4469460090059800F097FA0020694623
:1002F00000F0A6FA1CBC5DF814FB00005D050000D0
:1003000070B5044685690068C10601D5302600E055
:100310002026C00707D070BDD4E9012130469047A0
:10032000206A401C20626D1EF6D570BD70B5044673
:1003300085690078C00707D170BDD4E9012120206C
:100340009047206A401C20626D1EF6D570BD09687A
:100350004A0501D540B27047C905FCD500B27047C7
:1003600009684A0501D5C0B27047C905FCD580B2FD
:10037000704770B50C460546012A05D028788006DE
:1003800000D5EA69002302E0012305E05B1C9342EB
:1003900002D2E05C0028F9D1A869E618C01AA86169
:1003A000286A184428622846FFF7AAFF04E0D5E926
:1003B000012114F8010B9047B442F8D32846FFF707
:1003C000B5FF70BD2DE9F04106460024106875297F
:1003D000314616A510D0FFF7BAFF002802DA4042D6
:1003E00013A507E031688A0701D512A502E0490785
:1003F00004D511A5012401E0FFF7B2FF00210A2274
:1004000006F1240709E0B0FBF2FCB0FBF2F302FBBB
:100410001C00303078541846491C0028F3D123467C
:100420002A463046BDE8F04100F098B900000000CF
:100430002D0000002B000000200000002DE9F05FDF
:10044000894604464FF0000ADFF874B1FB44C0F857
:1004500020A02046E1688847002874D0252806D0CF
:10046000D4E901219047206A401C2062F1E7002670
:100470005F462046E16888472028054607DB312D86
:1004800005D2781910F8200C08B10643F1E7B0073F
:1004900001D526F00406C4F81CA00027C4F818A053
:1004A0002A2D09D0284601F093F838B304EB8708C9
:1004B000303DC8F8185019E059F8041B204604EBE9
:1004C00087029161E1688847012F054618D1E069EC
:1004D000002820DA26F020061DE0D8F8180000EBEE
:1004E000800005EB40003038C8F818002046E1686D
:1004F0008847054601F06CF80028EED1012F0AD09C
:100500002E2D08D12046E16888477F1C0546022F22
:1005100046F02006C4DBA069002803DA404246F01A
:100520000106A061F00701D026F010066C2D0BD05B
:10053000682D09D04C2D39D06A2D35D0742D35D089
:100540007A2D33D016E038E0E1682F462046884700
:10055000B842054609D16C2F26D04FF48060E1687F
:10056000064320468847054604E06C2F1AD04FF416
:10057000807006430DB3A5F14100192802D820353B
:1005800046F400664A462946204626604E46FFF756
:1005900009FE80B101280BD0F61D26F0070000F1FE
:1005A000080956E74020E4E78020D8E70020D6E796
:1005B00006F104094DE7284652E7206ABDE8F09F9E
:1005C000F83D000040EA0103024630B59B0710D118
:1005D0004FF0013400E008C208C91D1B9D4315EA15
:1005E000C41FF8D013F0FF0102F8011B0DD01B0A45
:1005F000F8E711F8013B002B02F8013B05D011F898
:10060000013B002B02F8013BF3D130BD02F0FF03A8
:1006100043EA032242EA024200F002B84FF000022D
:100620000429C0F0128010F0030C00F01B80CCF104
:10063000040CBCF1020F18BF00F8012BA8BF20F872
:10064000022BA1EB0C0100F00DB85FEAC17C24BFC6
:1006500000F8012B00F8012B48BF00F8012B704770
:100660004FF0000200B5134694469646203922BF4B
:10067000A0E80C50A0E80C50B1F12001BFF4F7AF96
:10068000090728BFA0E80C5048BF0CC05DF804EB78
:10069000890028BF40F8042B08BF704748BF20F8E6
:1006A000022B11F0804F18BF00F8012B70477047E4
:1006B000704770477047000000487047200A0020CC
:1006C000704770477047704738B504460A460020A7
:1006D0006946AFF30080002808BF38BD0246009984
:1006E000204600F0CDF8012038BD012000F0E2B82E
:1006F000F8B5AFF30080054600200C46102000BF7F
:100700000646A819A0420DD9324669460020AFF32B
:100710000080070008BF00F0CDF80098A04218BF85
:100720000546C419FFF7C8FF05600746F01D20F015
:1007300007004619284600F00AF8B44208BFF8BD81
:10074000A21B31463868BDE8F84000F099B8002196
:100750000160C0E901107047102070472DE9F04793
:100760000D4699469246044600F124080168880621
:1007700004D5E06921F01001216000E00120A842C9
:1007800001DD471B00E00027A1697A1902EB09008F
:10079000081AA0612078C00602D42046FFF7B0FDF9
:1007A000002608E0D4E901211AF806009047206AE3
:1007B000401C761C20624E45F4DB2078C0060AD52A
:1007C0002046FFF79DFD06E0D4E901213020904747
:1007D000206A401C2062381EA7F10107F4DC07E004
:1007E000D4E9012118F805009047206A401C2062D6
:1007F000281EA5F10105F3DC2046FFF797FD2078C0
:10080000000602D50220BDE8F0870120FBE70000CA
:1008100001694A1C02610878704700B58FB0CDE9C4
:1008200001310021059105497944CDE903101146B4
:100830006846FFF703FE0FB000BD0000E5FFFFFFB5
:100840000A6802F8010B0A60704710B5436913B1DA
:10085000AFF3008001E0FFF78CFD012010BD12789E
:1008600000F124010A7000224A700122EDE71168AC
:100870004FF0FF32E9E7000000487047180A0020F7
:10088000034640688C46002818BF88423CBF034698
:100890004068F8D318681844884207D00CF1030068
:1008A00020F00700001D411A521A0146081D0A6077
:1008B000FFF7EABC10B500F037F8BDE8104000F0D3
:1008C0002EB87546FFF7D8FFAE4605006946534679
:1008D00020F00700854618B020B5FFF793FCBDE86F
:1008E00020404FF000064FF000074FF000084FF097
:1008F000000B21F00701AC46ACE8C009ACE8C00928
:10090000ACE8C009ACE8C0098D46704710B5044694
:10091000AFF300802046BDE81040FFF75FBC002821
:1009200001D000F05CBE704710B5012805D0002151
:1009300003A000F021F8012010BD09A1F8E7000094
:1009400053494752544D454D3A204F7574206F66B8
:100950002068656170206D656D6F72790000000020
:100960003A2048656170206D656D6F727920636F04
:10097000727275707465640070B505460C460A2085
:1009800000E06D1C00F02FFE35B128780028F8D16A
:1009900002E0641C00F027FE14B120780028F8D192
:1009A000BDE870400A2000F01EBE000008B50146F8
:1009B00000200090034800900098084400900098A0
:1009C000008808BD006C004008B500220092044A6F
:1009D0000092009A02440092009A116008BD000043
:1009E000006C004000BFFEE770B501F0EDFDC5B240
:1009F00001F054F8044610480078281AC0B2C828FC
:100A000017DB0D48418805704480081DA04203DAB9
:100A100001200A4A107070BD04F10A00814203DD12
:100A20000020064A1070F6E7A14201DA0120F2E741
:100A300000BF0020EFE70000D6000020D400002017
:100A4000704710B5012000F011F810BD10B504205A
:100A500000F00CF810BD10B5082000F007F810BD2C
:100A600010B5102000F002F810BD00000149086028
:100A700070470000140401402DE9F04102460025B2
:100A80000026002000230024002791F803C00CF06A
:100A90000F0591F803C00CF0100CBCF1000F03D04F
:100AA00091F802C04CEA050591F800C0BCF1000FB6
:100AB00031D0146800202BE04FF0010C0CFA00F349
:100AC000B1F800C00CEA03069E4220D183004FF02B
:100AD0000F0C0CFA03F7BC4305FA03FC4CEA0404C0
:100AE00091F803C0BCF1280F06D14FF0010C0CFAAD
:100AF00000FCC2F814C00AE091F803C0BCF1480F32
:100B000005D14FF0010C0CFA00FCC2F810C0401CDB
:100B10000828D1D31460B1F800C0BCF1FF0F34DD58
:100B2000546800202EE000F1080C4FF0010808FA8C
:100B30000CF3B1F800C00CEA03069E4221D18300F9
:100B40004FF00F0C0CFA03F7BC4305FA03FC4CEA18
:100B5000040491F803C0BCF1280F05D100F1080C82
:100B600008FA0CF8C2F8148091F803C0BCF1480FE1
:100B700007D100F1080C4FF0010808FA0CF8C2F890
:100B80001080401C0828CED35460BDE8F0810000DE
:100B9000F0B50A46002300240021002500F000469D
:100BA000B6F1004F02D11D4EF16901E01B4E716894
:100BB000C0F3034583B200F44016B6F5401F08D1D8
:100BC00021F07061154E766826F07066134F7E60D6
:100BD00012E000F48016B6F5801F06D1032606FA4F
:100BE00005F4A14341F0706106E0460D360103FAB9
:100BF00006F6B14341F0706122B1460D360103FAA9
:100C000006F6314300F00046B6F1004F02D1034E24
:100C1000F16101E0014E7160F0BD00000000014093
:100C2000416170470161704700BFFEE700BFFEE70A
:100C30007047000070B5002100230F22C47804B370
:100C4000154C246804F4E064C4F5E064210AC1F1A1
:100C50000403CA40447804FA03F184781440214321
:100C600009010E4C0678A155047804F01F050124F3
:100C7000AC4005786D11AD0005F1E025C5F80041E7
:100C800009E0047804F01F050124AC40044D067807
:100C9000761145F8264070BD0CED00E000E400E060
:100CA00080E100E002490143024A11607047000000
:100CB0000000FA050CED00E010B54FF48061034828
:100CC000FFF7ACFC00F0B4F810BD00004D050020AB
:100CD00010B504461CB90021A62000F0ADF8012C87
:100CE00003D10021A72000F0A7F80021AF2000F0D9
:100CF000A3F810BD08B50121052000F0F5F8012189
:100D00004948FFF745FFF020ADF8000010208DF8AE
:100D1000030003208DF8020069464448FFF7ACFE4B
:100D20004FF4C5514148FFF77DFF40213F48FFF791
:100D300077FFC82001F066F840213C48FFF772FFBA
:100D40000021AE2000F078F80021084600F074F889
:100D50000021102000F070F80021402000F06CF815
:100D60000021812000F068F80021CF2000F064F815
:100D70000021A12000F060F80021C82000F05CF8FC
:100D80000021A62000F058F80021A82000F054F817
:100D900000213F2000F050F80021D32000F04CF853
:100DA0000021084600F048F80021D52000F044F862
:100DB0000021802000F040F80021D92000F03CF80C
:100DC0000021F12000F038F80021DA2000F034F89A
:100DD0000021122000F030F80021DB2000F02CF878
:100DE0000021402000F028F80021202000F024F805
:100DF0000021022000F020F800218D2000F01CF8D6
:100E00000021142000F018F80021A42000F014F8AC
:100E10000021A62000F010F8FFF74EFF0021AF20C0
:100E200000F00AF808BD0000000230000008014090
:100E300010B501F03FFC10BD70B504460E4626B15A
:100E400010211448FFF7EEFE03E010211148FFF7D0
:100E5000E7FE002517E020210E48FFF7E1FE04F031
:100E6000800020B180210B48FFF7DCFE03E08021E9
:100E70000848FFF7D5FE20210648FFF7D3FE60069D
:100E8000040E681CC5B2082DE5DB10210148FFF7F0
:100E9000C9FE70BD000801400149086270470000AA
:100EA00000000E427047000029B1064AD269024391
:100EB000044BDA6104E0034AD2698243014BDA61F0
:100EC000704700000010024029B1064A126902432F
:100ED000044B1A6104E0034A12698243014B1A6110
:100EE000704700000010024029B1064A926902438F
:100EF000044B9A6104E0034A92698243014B9A6170
:100F0000704700000010024029B1064AD26802432F
:100F1000044BDA6004E0034AD2688243014BDA6092
:100F2000704700000010024000BF0348008800F036
:100F300020000028F9D0704704280040704710B501
:100F400000F002F810BD00000CB5002001900090E8
:100F50003348006840F480303149086000BF3048B1
:100F6000006800F4003000900198401C0190009847
:100F700018B90198B0F5A06FF1D12948006800F4C4
:100F8000003010B10120009001E000200090009896
:100F9000012843D12348006840F01000214908602F
:100FA0000846006820F0030008600846006840F02A
:100FB000020008601A4840681949486008464068BD
:100FC00048600846406840F48060486008464068D1
:100FD00020F47C1048600846406840F4E8104860FF
:100FE0000846006840F08070086000BF0C48006848
:100FF00000F000700028F9D00948406820F0030094
:10100000074948600846406840F00200486000BF59
:101010000348406800F00C000828F9D10CBD00001E
:101020000010024000200240042808D14FF0E021C7
:10103000096941F004014FF0E022116107E04FF02F
:10104000E021096921F004014FF0E02211617047AD
:101050007047000010B51348006840F001001149C6
:10106000086008464068104908400E494860084634
:1010700000680E4908400B4908600846006820F4E3
:10108000802008600846406820F4FE0048604FF465
:101090001F008860FFF753FF4FF0006004490860AD
:1010A00010BD0000001002400000FFF8FFFFF6FE38
:1010B00008ED00E010B50121880700F08FF9A8B114
:1010C0000D480068401C0C49086001200B4908705D
:1010D000094800684FF46161B0FBF1F201FB1200B6
:1010E00020B907480078401C05490870012188078D
:1010F00000F071F810BD000084000020AC0000205A
:10110000A400002010B50121114800F067F9F0B1EA
:1011100001210F4800F05FF80E480088401C0D497F
:101120000880084600880C490988884203DA0120B3
:101130000A49086002E00020084908600548008864
:1011400007490988884202DB00200249088010BD57
:1011500000040040CE000020CA000020840121428B
:10116000CC0000201FB5044601210220FFF79CFEA1
:101170004FF47A60B0FBF4F0401E80B2ADF8080086
:101180004720ADF804000020ADF80A00ADF80600D5
:1011900001A90E4800F03CF9012211460B4800F06D
:1011A0002EF91D208DF8000000208DF8010003208D
:1011B0008DF8020001208DF803006846FFF73AFD24
:1011C0000121024800F00AF81FBD000000040040A1
:1011D000CA4302827047CA430282704721B1028823
:1011E00042F00102028004E002884FF6FE731A40CA
:1011F0000280704710B504466848844208D1012136
:10120000C014FFF781FE0021E014FFF77DFEC4E06B
:10121000B4F1804F08D101210846FFF755FE0021A7
:101220000120FFF751FEB8E05D48844208D101215A
:101230000220FFF749FE00210220FFF745FEACE047
:101240005848844208D101210420FFF73DFE0021C7
:101250000420FFF739FEA0E05348844208D1012161
:101260000820FFF731FE00210820FFF72DFE94E053
:101270004E48844208D101211020FFF725FE0021AD
:101280001020FFF721FE88E04948844208D101215F
:101290002020FFF719FE00212020FFF715FE7CE03B
:1012A0004448844208D101214014FFF72DFE00215B
:1012B0006014FFF729FE70E03F48844209D1012104
:1012C000C804FFF721FE00214FF40020FFF71CFEA9
:1012D00063E03A48844209D101210805FFF714FE72
:1012E00000214FF48010FFF70FFE56E0344884428F
:1012F00009D101214805FFF707FE00214FF4001036
:10130000FFF702FE49E02F48844208D10121402026
:10131000FFF7DAFD00214020FFF7D6FD3DE02A4827
:10132000844208D101218020FFF7CEFD00218020DA
:10133000FFF7CAFD31E02548844208D1012180151C
:10134000FFF7C2FD0021A015FFF7BEFD25E02048F4
:10135000844209D101210804FFF7D6FD00214FF492
:101360008030FFF7D1FD18E01A48844209D10121ED
:101370004804FFF7C9FD00214FF40030FFF7C4FD1A
:101380000BE01548844208D101218804FFF7BCFD19
:1013900000214FF48020FFF7B7FD10BD002C014065
:1013A0000004004000080040000C00400010004015
:1013B0000014004000340140004C01400050014046
:1013C0000054014000180040001C00400020004074
:1013D00000400140004401400048014030B5024651
:1013E000002000230024158A05EA0103958905EAF7
:1013F000010413B10CB1012000E0002030BD1AB18E
:1014000083890B43838102E083898B438381704707
:10141000002202881D4B98420ED01D4B98420BD0E3
:10142000B0F1804F08D01B4B984205D01A4B984220
:1014300002D01A4B984204D14FF68F731A404B8852
:101440001A43174B984207D0164B984204D04FF6D8
:10145000FF431A40CB881A4302808B8883850B8810
:1014600003850A4B98420BD0094B984208D00E4B8B
:10147000984205D00D4B984202D00D4B984201D1B5
:101480000B7A03860123838270470000002C014001
:10149000003401400004004000080040000C0040FF
:1014A0000010004000140040004001400044014092
:1014B0000048014010B540F225511D4800F03EF8AB
:1014C00010B31B4800F064F8C4B21A48008800F456
:1014D0000040C8B91748008800F4804060B10A2C69
:1014E00003D000201349088020E01248008840F40F
:1014F00000401049088019E00D2C06D10D480088E5
:1015000040F480400B49088010E00A480088C0F38E
:101510000D0009490C5407480088401C0549088003
:1015200008460088C72801DD0020088010BD0000A3
:1015300000380140E40000204D09002070B502464B
:10154000002400230025002040F66A16B14200D195
:1015500000BFC1F3421501F01F03012606FA03F391
:10156000012D02D19689334006E0022D02D1168A60
:10157000334001E0968A33400C12012606FA04F447
:101580001688344013B10CB1012000E0002070BD7A
:1015900001468888C0F30800704700BFFEE70000DE
:1015A0000020014908607047082C004010B503482E
:1015B000007800F005F8FFF7F3FF10BDDA00002017
:1015C00000F07F01014A116070470000002C0040CC
:1015D00030380A2801D201207047002070470146A8
:1015E00000BF00207047014600BF00207047000088
:1015F00000EB4002034B1A4413880B8092788A70E8
:10160000704700002800002010B504460648007806
:10161000FF2801D1002010BD214603480078FFF7C4
:10162000E7FF0120F7E700001400002010B500F0EC
:10163000EBFE10BD10B512210148FFF711F810BDE7
:101640002800002070B52148057800F03BFF0446D3
:101650001E480078002837D094B31C480078854293
:101660001BD01B4800F004FC1A4908600021084602
:1016700000F01AFA184908601849012000F014FA1D
:10168000174908600021022000F00EFA1549086091
:1016900003220221144801F04BFB00F067FF98B9C8
:1016A00012480078012801D0012000E000200F49F5
:1016B0000870FF2296210D48007800F037FF03E004
:1016C000FFE70CB901F04EF870BD000016000020D5
:1016D000511F0008180000201C000020652700088A
:1016E00020000020240000201E4200083A000020B4
:1016F00002460B46197812B97AB940290DDA22B19F
:10170000382902DD481EC1B204E01AB9402901DAC5
:10171000481CC1B21970012070470020FCE700008E
:101720000148007870470000E80000200148407838
:1017300070470000E800002010B524480078002819
:1017400042D022484478007AC0B1042C02DA601CEE
:10175000C4B20CE0082C02DAE01CC4B207E0102C82
:1017600002DA601DC4B202E004F10800C4B2402CE9
:101770001CDB002015490870002417E0FB2C02DD5B
:10178000601CC4B20CE0F72C02DDE01CC4B207E020
:10179000EF2C02DD601DC4B202E004F10800C4B207
:1017A0000A2C03DA00200949087000240748447015
:1017B000007840B90548406828B104494868804726
:1017C00000200249486000BF10BD0000E800002072
:1017D00070B501214FF0C050FFF766FBFFF7A4FB87
:1017E0000120FFF759FB0420FFF7E0F80546082029
:1017F000FEF71BFD604902680A60406848600846C1
:1018000000210160416041F23420854255D100241D
:101810005A4931F81400FFF7C9F857490870641C99
:10182000564931F81400FFF7C1F808B1012000E073
:10183000002051494870641C504931F81400FFF7EA
:10184000B5F808B1012000E000204B498870641C05
:101850004A4931F81400FFF7A9F808B1012000E067
:1018600000204549C870641C444931F81400FFF752
:101870009DF808B1012000E000203F490871641C78
:101880003E4931F81400FFF791F808B1012000E05B
:10189000002039494871641C384931F81400FFF7B9
:1018A00085F835498871641C344931F81400FFF714
:1018B0007DF83149C871641C55E041F23425294650
:1018C0000420FFF781F810212D48FEF7A7FE002421
:1018D0002B4A32F81410294A32F81400FFF774F832
:1018E000641C274A32F81410244A32F81400FFF717
:1018F0006BF8641C224A32F81410204A32F81400A3
:10190000FFF762F8641C1E4A32F814101B4A32F8C2
:101910001400FFF759F8641C194A32F81410174ADA
:1019200032F81400FFF750F8641C154A32F814100E
:10193000124A32F81400FFF747F8641C104A32F8D4
:1019400014100E4A32F81400FFF73EF8641C0C4ADB
:1019500032F81410094A32F81400FFF735F8641C05
:1019600000F010F800BF044800780C2802DD0020C9
:101970000149087070BD00003C00002044000020B8
:10198000F400002010B501200949087000204870BB
:1019900001208870C8700020087101204871002063
:1019A0008871FF20C87100F005F8FFF743FE10BDF5
:1019B0003C00002010B501214FF0C050FFF774FA31
:1019C000FFF7B2FA0120FFF767FA31480078314992
:1019D00008802F48407848802D48807888802C489F
:1019E000C078C8802A480079088129484079488110
:1019F0002748807988812648C079C88100240A4612
:101A000032F81410244A32F81400FEF7DDFF641C8B
:101A1000204A32F81410204A32F81400FEF7D4FF9E
:101A2000641C1C4A32F814101B4A32F81400FEF7EA
:101A3000CBFF641C174A32F81410174A32F814000E
:101A4000FEF7C2FF641C134A32F81410124A32F82F
:101A50001400FEF7B9FF641C0E4A32F814100E4A47
:101A600032F81400FEF7B0FF641C0A4A32F8141072
:101A7000094A32F81400FEF7A7FF641C054A32F841
:101A80001410054A32F81400FEF79EFF641C10BDC6
:101A90003C000020F40000204400002001480088A1
:101AA00070470000BA0000200246044B03EB02130B
:101AB0009868024B03EB0213996070470401002001
:101AC000024B986099619A627047000004010020FF
:101AD0002DE9F04707460D4690461E46DDF820905A
:101AE00026480078864201DABDE8F08715B900F093
:101AF00023FEF9E7214806702148C0F800902148EC
:101B0000077000F061FD20490870012D07D1002108
:101B10001E48FFF763FB00201D490860E4E7B8F1A9
:101B2000010F06D0B8F1020F08D0B8F1030F0FD1A2
:101B300009E01848807900F003040BE0154880792B
:101B4000C0F3810406E013488079C0F3011401E07A
:101B5000022400BF00BF601EC4B20F4805804FF4CE
:101B6000807090FBF4F00C49098848430B490880C9
:101B700009480088FFF7F6FA00BFB5E7C800002063
:101B8000C4000020C0000020C1000020000400406C
:101B9000840121423C000020CA000020CC0000202B
:101BA00010B501F059F800F00FFEFFF74BFD00F003
:101BB00067F910BD10B5FFF74DFA4FF4A060FFF7BD
:101BC00071F800F0FDF84FF480610B48FEF726FD38
:101BD000FFF790F800F0D8FCFFF7FAFDFFF726FDBD
:101BE00000F0F8FC054800F03DF900F031F9044937
:101BF0004878FFF76DF810BD4D0500208D2D0008C9
:101C00003C0000202DE9F05F6B480478C5788078AF
:101C1000B0B96948407810B1E01CC4B201E0E01EE0
:101C2000C4B2202C34DB6448407820B12024012049
:101C3000614988702CE0002400205F49487127E04A
:101C40005D48007910B1A81FC5B202E005F10A0095
:101C5000C5B2802D1CDB5848007908B1002500E092
:101C600080255548007910B90020534988705248A2
:101C7000007928B15048407810B100204E49487191
:101C80004D48007908B9012000E000204A49087158
:101C90002046E11704EB5171C1F3C708002710E09B
:101CA000464901EBC7108021FEF7B8FC4FF4607184
:101CB000A1EBC711414A88188021FEF7AFFC781CC0
:101CC000C7B24745ECDB2046E11704EB5171C91060
:101CD000A4EBC101CEB2C6B34FEAC81040F2FF3246
:101CE000121A91B2FF22B240D3B2FF2242FA06F793
:101CF0000122B24002F0FF0C802242FA06F90022D3
:101D000020E0DFF8B8A01AF800A00AEA030A4AEABD
:101D10000C0ADFF8A8B00BF800A000F1010A1FFAC6
:101D20008AF0DA461AF801A00AEA070A4AEA090A1A
:101D30000BF801A0A1F1010A1FFA8AF102F1010AD0
:101D40000AF0FF02802ADCDB31E0FFE77CB3C5F15B
:101D50008002D1B201EBD1725310C4F14002D0B273
:101D6000C21700EB5272D21003EBC2171349C81905
:101D700001222946FEF74AFC202C17D02046E11705
:101D800004EB5171C9104FF6FF7202EAC1178020AF
:101D900007E03918094A515C41F001013A18074B34
:101DA0009954011EA0F10102D0B2F2D100BF024845
:101DB0000470C570BDE8F09F7C0000204D05002038
:101DC00010B56FF00400FFF72FF90A4800680A49C0
:101DD000B0FBF1F0094908700846007800EB4001BB
:101DE000C1EBC0104FF6FF7101EAC0000449088042
:101DF00010BD00000000002000127A00DC0000206E
:101E0000DE0000200146114A12884A434FF0E023C9
:101E10005A6100229A611A46126942F001021A615F
:101E200000BF4FF0E022106900F001021AB100F487
:101E30008032002AF5D04FF0E022126922F0010230
:101E40004FF0E0231A6100229A617047DE00002003
:101E500010B50348006810B101480068804710BD04
:101E600078000020014908607047000078000020D9
:101E70000146024A1068116070470000740000209B
:101E80002DE9FC4100F0A0FBC4B228480078201ADC
:101E9000C0B227490978884201DABDE8FC812348AD
:101EA00004700025FFF748FC2248006860B1224812
:101EB000407928B92048407930B91F48407818B98E
:101EC0001C480068804705461B48407908B1FFF769
:101ED00099FE1948407910B9FFF722FC00B101259D
:101EE00016484079B0B100F06FFB401CC6B2301B01
:101EF000C0B24FF47A7191FBF0F087B23A4610A16C
:101F00006846FEF7E9F9382364220021684600F0AC
:101F10002FFA00BF00F028FA1DB9282004490870E4
:101F200002E010200249087000BFB6E782000020DE
:101F300083000020740000207C0000203C00002072
:101F40002575000001460A2091FBF0F0C0B27047F1
:101F50001FB500F039FBC0B280280ADA0020202229
:101F6000CDE9002013460F4A10210290084600F0E8
:101F700027F900F057FE044614234F22002100F0F9
:101F8000F7F909480079094A02EB800103A8FEF736
:101F900019FB24235622002103A800F0E9F90020B0
:101FA00004B010BD643E0008A4000020A42D000869
:101FB000FEB500F083F800F02BFC064600F054F864
:101FC00014242349097809B1012100E000210846C1
:101FD0002049FFF78DFB70B100200822CDE90020D9
:101FE00010231D4A02901B480178204600F0E8F8B3
:101FF00004F11400C4B2FEF7F7FC08B1012000E0C0
:10200000002005461549FFF773FB70B10020082238
:10201000CDE900201346124A02901048017820466C
:1020200000F0CEF804F10C00C4B200F0C3FB68B1BC
:1020300000200822CDE9002013460A4A38210290E8
:10204000204600F0BDF804F10C00C4B23046FEBDDD
:10205000D400002088000020B73800088900002044
:1020600007390008F72D00083EB5FFF717FD0546B4
:1020700040F61C40854201DA0C4C0BE0B5F5486F88
:1020800001DA0B4C06E040F6E440854201DA094CE7
:1020900000E0094C00200822CDE900201023224650
:1020A0003821029000F08CF83EBD0000C7380008CF
:1020B000D7380008E7380008F738000800B589B0BD
:1020C00011480079114A02EB800108A8FEF77AFA5C
:1020D0000D4880790E4A02EB800107A8FEF772FADC
:1020E0000948C07907A9CDE900100748437908AA33
:1020F00008A102A8FEF7F0F800230C22194602A856
:1021000000F036F909B000BDA4000020A42D00089D
:10211000C02D00082573202530326868752025738E
:102120002032302530326868750000002DE9FE4FFE
:102130000446217A627A01FB02F0C11700EB51716B
:10214000C1F3C706A57AE17A606801FB060894F836
:10215000009094F801A0607B10B10DB1FF2D0BD160
:102160000021607ACDE900010291237A424651466E
:10217000484600F025F821E0E07A401EC7B2FF2F64
:1021800000D1277B607A281A001FC0B20022617A32
:10219000CDE900120290237A42465146484600F0AB
:1021A0000FF80021607A8DE82300606807FB0602C3
:1021B000237A5146484600F003F800BFBDE8FE8F81
:1021C0002DE9FF4F87B00E46FFF7B0FA3044C6B294
:1021D0001698301AC7B21498C11700EB5171C1F3A9
:1021E000C70106913846F91707EB5171C910A7EBE3
:1021F000C101C9B2059114983044C0B204904FF0A7
:102200000008A8E007EBC800C4B204F10800C5B29A
:10221000169838B1B54204DB402D02DC04988442A4
:1022200000DD94E0FF200390169878B1B44205DAFF
:10223000311BFF208840C0B2039007E0049885421C
:1022400004DD0498291AFF20084103902046E11775
:1022500004EB5171C9104FF6FF7202EAC119DDE9B2
:10226000091008FB00100290059840BB402C26DAAC
:102270004FF0000A1FE00798504400F0FF0BBBF13D
:10228000800F00DB13E0029901EB0A00159900F0C2
:102290003DFA0399084001900BEB09003149095CB4
:1022A000019808430BEB09012E4A505400BF0AF174
:1022B000010000F0FF0A0A988245DCDB46E0284670
:1022C000E91705EB5171C9104FF6FF7202EAC1110F
:1022D00001914FF0000B35E00798584400F0FF0AD9
:1022E000BAF1800F00DB29E0029901EB0B00159990
:1022F00000F00CFA039908400090402C0CDA0AEB2D
:1023000009001849095C059A009890400143C8B239
:102310000AEB0901134A5054402D0EDA019850443B
:102320001049095C0598C0F1080200981041084363
:1023300001990AEB01020B49885400BF0BF101001F
:1023400000F0FF0B0A988345C6DB00BF00BF08F111
:10235000010000F0FF0806988045FFF653AF0BB070
:10236000BDE8F08F4D05002010B500F0A3F910BDB9
:102370002DE9FE4F05460E4690461F464FF00009D8
:102380002EE02878203800F0FF0AC9EBC90040444D
:10239000C4B200200821CDE9001602900AEB8A00A1
:1023A00012494218052339462046FFF709FF8EB12E
:1023B000002C06DD601EC1B2FF233A460C4800F037
:1023C000ADF97B2C06DA601DC1B2FF233A460848FE
:1023D00000F0A4F96D1C09F1010000F0FF0900BF35
:1023E00028780028CDD1BDE8FE8F00000F39000805
:1023F0004D05002070B504460D461646257000F0C8
:10240000E3F8607070BD00002DE9FC474FF0FF0855
:102410004FF6FF79284880788DF806002648C07866
:102420008DF80700002101A800F0D2FB224B1A7999
:102430005B785B1CD9B29DF8060000F069FC82460F
:1024400006262FE069463046FFF7D2F89DF80200D5
:10245000C00900B926E007251EE09DF80200012111
:10246000A940084000B917E09DF801109DF8000050
:102470002A4600F04DFC0746A7EB0A04002C02DABE
:1024800042F25F700444A0B2484504DA1FFA84F9AE
:10249000B0460A48057000BF281EA5F10101CDB263
:1024A000DBD100BF301EA6F10101CEB2CAD1044873
:1024B00080F80080BDE8FC87A40000201500002003
:1024C000140000201CB5174880788DF802001548CC
:1024D000C0788DF803000021684600F079FB01A860
:1024E000FFF792F8D8B19DF806000E490A7901214C
:1024F0009140084098B19DF804009DF80210884270
:102500000DD19DF8050007494978884207D1054853
:10251000007810B901200449087001201CBD00207A
:10252000FCE70000A40000201600002070B504465F
:102530000D4616460A48C07888B114B1012C0CD15A
:1025400005E00C2229460748FFF754FF06E00D225C
:1025500029460548FFF74EFF00E000BF00BF70BDF1
:102560003C000020D0000020D20000200448007869
:1025700010B90448007808B1012070470020FCE73A
:10258000D0000020D200002008B501210820FEF76D
:10259000ABFC4FF44050ADF8000010208DF8030064
:1025A00003208DF8020069460348FEF765FA2021F2
:1025B0000148FEF737FB08BD000C0140FFF7FAFAAF
:1025C00001E0FFF7EDFAFCE70149086870470000F9
:1025D000840000201FB54FF4E060FEF763FB1C2071
:1025E0008DF80C0001208DF80F0000208DF80D00F3
:1025F0008DF80E0003A8FEF71DFB01210846FEF72B
:1026000053FC4FF08040FEF7F5FD0020ADF80600CA
:10261000ADF802004FF47A70ADF804002320ADF855
:10262000000069464FF08040FEF7F2FE0121880766
:10263000FEF7CEFD012211469007FEF7E0FE0121D4
:102640008807FEF7CBFD1FBD01460A2091FBF0F283
:1026500000FB1210C0B2704738B5114801780078FD
:10266000401C0F4A10700F48006830F81150ECB24F
:10267000022C0ED00C48291200900C4803780C480C
:1026800002782046FFF724FA44B900200749087071
:1026900004E0002002490870FFF7DEFF38BD0000AB
:1026A000B0000020B400002059260008B900002026
:1026B000B800002070B500241DE004F1B001C8B2DC
:1026C0000021FEF7B9FB00210846FEF7B5FB00210B
:1026D0001020FEF7B1FB002509E0802101FB045129
:1026E000094A505C0121FEF7A7FB681CC5B2802D8A
:1026F000F3DB601CC4B2082CDFDB4FF480610248BE
:10270000FDF78CFF70BD00004D050020024600BFA4
:102710001378184609B1C343D8B2704770B515464F
:10272000D61702EB5676F61001EBC616B4B2055D6D
:102730001D43055570BD000010B500200549086017
:1027400000210548FEF74AFD0020044908700449AD
:10275000087010BD8401214200040040C000002028
:10276000C800002010B5FFF74FFE0C480068FFF7C7
:102770007FFB0B4802680B4801680B480068FFF7B5
:102780009FF90A494878FEF7A3FA032000F0EEFA11
:10279000002007490870012010BD0000180000202B
:1027A00024000020200000201C0000203C0000200D
:1027B0001600002003480078012800D1704700204F
:1027C000FCE700009800002010B50D4800780128B3
:1027D00015D1FFF7F9FE04460A480068201A0A4995
:1027E000096808440849086006480460084600680B
:1027F0000649884202D908460349086000BF10BD57
:1028000098000020A00000209C000020FF297515E2
:1028100010B588B0D2488078002877D0D1480078A9
:10282000D1490978884263D00020D0490870D04946
:1028300008700120CF490870CA498878FFF782FBE9
:102840000446CD480078FFF77DFB844201D001208B
:1028500000E00020C9490870C2498878FFF7F4FEFB
:102860000446C5480078FFF7EFFE844201D00120FE
:1028700000E00020C1494870BA494878FFF762FB80
:102880000446BF480078FFF75DFB844201D0012079
:1028900000E00020B9498870B2494878FFF7D4FEBB
:1028A0000446B7480078FFF7CFFE844201D00120EC
:1028B00000E00020B149C870AA490878FFF742FB40
:1028C0000446A9480078FFF73DFB844201D001206F
:1028D00000E00020A9490871A2488078A649087044
:1028E000A0484078A64908709E4800789E49087024
:1028F000A048007800287BD09C480078032806DC9C
:102900009A480078401C9949087027E065E097488C
:102910000078062805DC95480078C01C93490870AB
:102920001CE092480078102805DC90480078401D93
:102930008E49087012E08D480078162805DC8B4817
:102940000078C01C8949087008E0884800781C2875
:1029500004DC86480078401C84490870834800786D
:102960001C2802DBFF20814908708148007801287B
:1029700005DC7F480078401C7D49087012E07C48E7
:1029800000780D2805DC7A480078C01C784908706A
:1029900008E077480078142804DC75480078401C6B
:1029A0007349087072480078142802DBFF207049D0
:1029B00008706F48007814281ADD6C4800781C28CD
:1029C00016DD002069490870694908706949087076
:1029D0006A480021016001710AE000206349087023
:1029E00063490870634908706448002101600171FF
:1029F00068208DF810001C208DF8110061480590AA
:102A00000B208DF8180010208DF819005848007818
:102A10008DF81A0053490878FFF794FA8DF81B00D7
:102A200005208DF81C00554800798DF81D0004A87C
:102A3000FFF77CFB74208DF810004A490878FFF7F7
:102A400003FE8DF81B0009208DF81C004948007812
:102A50008DF81D0004A8FFF769FB14208DF8110004
:102A600013208DF8180018208DF81900464805909D
:102A70003E4800788DF81A003C208DF81000394946
:102A80004878FFF75FFA8DF81B0005208DF81C00D1
:102A90003A4880788DF81D0004A8FFF747FB5320C3
:102AA0008DF810002F494878FFF7CEFD8DF81B00F8
:102AB00009208DF81C003148C0788DF81D0004A84D
:102AC000FFF734FB01208DF8100026498878FFF7C6
:102AD00039FA8DF81B0005208DF81C002748007876
:102AE0008DF81D0004A8FFF721FB18208DF81000B9
:102AF0001C498878FFF7A8FD8DF81B0009208DF888
:102B00001C001E4840788DF81D0004A8FFF70EFB3E
:102B10001E4800684FF46161B0FBF1F201FB120046
:102B2000B0F5E16F0AD900201822CDE90020062374
:102B3000174A142102903120FFF742FB0948C07860
:102B40008DF80C0000208DF80D0014236822002160
:102B500003A8FFF70DFC0748007808B010BD00007F
:102B60003C000020A4000020940000208A000020E7
:102B70008B0000208C000020920000208D0000209F
:102B8000930000202E3D0008F43A00088400002045
:102B90000A3E000801460A46C81701EB90708010F3
:102BA000A1EB800008B9012070470020FCE700007D
:102BB00030B503460C460548C55C012B04D12046C0
:102BC000FFF7E8FF00B11D25284630BDE4410008AD
:102BD0000A468178012A11D1C378202B00D0704792
:102BE0000C2906DB02DDA1F10C03D9B25023C3701E
:102BF00015E001B90C214123C37010E0C378412BCB
:102C000003D10C2901D1002107E0C378502B04D156
:102C10000C2902DA01F10C03D9B22023C3708170B0
:102C200000BFDCE708B50648C07800900448437848
:102C3000827804A10748FDF74FFB064808BD000055
:102C4000A40000202530326868753A253032686863
:102C5000752563004401002010B52B48007800B9A9
:102C600010BD002028490870284800783C2849D128
:102C700000202649087008464078401CC0B24870C1
:102C80003C283FD10020487008468078401CC0B2E4
:102C90008870182836D10A46D1799079FFF788FFD5
:102CA000044600201949887008464079401CC1B28A
:102CB00016484171601C814207D114488079401C3C
:102CC000C1B21248817101214171104880790D28EB
:102CD0000DD101210D488171C079401CC1B20B4852
:102CE000C171C079642802D100210848C171074828
:102CF0000079401CC0B205490871072801D10020A5
:102D0000087100BF00BFABE7AC000020A4000020AA
:102D100010B503460846C3EB031400EB8400C2EB76
:102D2000021404EB440400EB4414A0B210BD0000F4
:102D300070B505460E46144608480078844200DA0D
:102D400070BD0648047006480560064806700020FD
:102D500005490870FFF780FC00BFF1E7B9000020CB
:102D6000B4000020B8000020B000002038B50446B0
:102D700000202346024601460090FEF7A9FE0020EF
:102D80000149087038BD0000B900002010B50248A4
:102D9000FFF76EF810BD0000B11F00084D545754E6
:102DA000465353004D6F6E005475650057656400BF
:102DB00054687500467269005361740053756E0063
:102DC0004A616E00466562004D617200417072009A
:102DD0004D6179004A756E004A756C004175670057
:102DE000536570004F6374004E6F76004465630056
:102DF000060F1F3E1F0F063C42819DA181423C0FE2
:102E00000102016F909060011F0100788080780FAF
:102E10000402040FF8A8A8011F0100F82020F81FE1
:102E2000050500F828689012150900F02828F0120E
:102E30001509007880807800000000000000000084
:102E40000000000000000000FFFF7C70E0C0800078
:102E50000000000000000000000000000000000072
:102E60000000000000000000FFFF00000001071F3D
:102E7000FC200000000000000000000000000080B6
:102E800080C0C0C0C0C080C0FFFF000000000000C4
:102E9000010000000000000000000000187E7FFF1D
:102EA000FFFFFFFF7F7F3F1F1F03000000000000A8
:102EB000000000000000000080C0C00000F8F8C062
:102EC0000000F8F8C0C00000F8F8C0C0C0800000E2
:102ED00000000000000000FFFFFF3F3E3F3F3FBFFC
:102EE000BFBE3FBFBFBFBEBEFFFFFF7F7F3FB8304B
:102EF0007070F0E0C08000FFFFFF806C6C6C006DB4
:102F00006D6D006D6D6DFFFFF7890002061C780086
:102F1000000008C3FFFF3E00010303030303030394
:102F2000030303030303030303070F0E0E0E0F0E29
:102F30000E0E070703010000000000000000000063
:102F4000000000000000000000000000000000047D
:102F500084E4741C0C00000000000000000000006D
:102F600000000000000383C3F33B1F0703000003BE
:102F7000030202020200000000070787C7E7F77F8D
:102F80003F1F0F00000607070606060606000000A2
:102F900000000000000000003C3E3F3F3B39383855
:102FA0003838380000000000000000000000000079
:102FB0000000000000000000000000000000000011
:102FC0000000000080C0E0E0000000008000007011
:102FD000E0C0800000000000F0F8F8F8F8F8F8F819
:102FE000F8FCFEFFFFFFFFFF00003CF8C1071FFCDD
:102FF000F0031FFEF00000000F1F1F1F1F1F1F1FE9
:103000001F3F7FFFFFFFFFFF00003C1F83E0F83FF3
:103010000FC0F87F0F00000000000000000000005B
:103020000000000001030707000000000100000E7F
:103030000703010000000000000000808080808005
:103040000000000000000000000000000000808080
:103050008080800000000000E0F89C9F07079F9F91
:10306000FCFCFCFCFCFCFCFCFCFCFCFCFCFC9F9F5A
:1030700067679F9CF8E000F8FFFFFFFFFE7E3F1FA1
:10308000312424311F0F0F0F0F1F312424311F3F14
:103090007EFEFFFFFFFFF8000101010100000000BC
:1030A0000000000000000000000000000000000020
:1030B000000001010101000000000000000000000C
:1030C0000000000000000000000000000000000000
:1030D00000000000000000000000000000000000F0
:1030E00000C0F0F8381C1C1C1C38F8F0C0000000B0
:1030F00000000000000000000000000000000000D0
:1031000000030F1F1C383838381C1F0F0300000045
:1031100000000000000000000000000000000000AF
:10312000000000000000000000000000000000009F
:10313000000000000000000000000000000000008F
:10314000000000000000FEFE000000000000000083
:10315000000000000000000000000000000000006F
:1031600000C0F0F8381C1C1C1C38F8F0C00000002F
:10317000000000000000000000000000000080C00F
:10318000C0030F1F1C383838381C1F0F03C0C08005
:10319000000000000000000000000000060703011E
:1031A000000000000000000000000000000001031B
:1031B00007060000000000000000000060E0C08082
:1031C000000000000000000000000000000080C0BF
:1031D000E0600000000000000000000000000103AB
:1031E00003C0F0F8381C1C1C1C38F8F0C0030301A5
:1031F000000000000000000000000000000080C08F
:10320000C0030F1F1C383838381C1F0F03C0C08084
:10321000000000000000000000000000060703019D
:10322000000000000000000000000000000001039A
:1032300007060000000000000000000060E0C08001
:10324000000000000000FEFE00000000000080C042
:10325000E0600000000000008080808080808103AA
:1032600003C0F0F8381C1C1C1C38F8F0C0030381A4
:10327000808080808080000001010101010181C007
:10328000C0030F1F1C383838381C1F0F03C0C08103
:103290000101010101010000000000000607030117
:1032A0000000000000007F7F00000000000001031C
:1032B0000706000000000000000000000000000001
:1032C000102040800000F800008040201000000026
:1032D00000000000000000000000000000000000EE
:1032E0000000F00C04020202040CF00000000000D8
:1032F00000000000000000000000000000000000CE
:1033000000001F10FF101F1FFF101F000000000013
:1033100000000000000000000000000000000000AD
:1033200000000000FF0000001F000000000000007F
:10333000000000000000000000000000000000008D
:10334000000000000000000000000000000000007D
:10335000000000000000000000000000000000006D
:103360000000F00C04020202040CF0000000000057
:10337000000000000000000000000000000000004D
:1033800000001F10FF101F1FFF101F000000000093
:10339000000000000000000000000000000000002D
:1033A00000000000FF0000001F00000000000000FF
:1033B00000000000000000FFFFFFFFFFEFCF8F0FB6
:1033C0000F0F0F0F0F0F0F0F0F0F0F0F0F0F0F0F0D
:1033D0000F0F0FFFFFFFFFFFFFFFFFFFFFFFFFFFCD
:1033E000FE040C1C3C7CFCFCFCFCFCFCFC00000017
:1033F000000000FFFFFFFFFFFFFFFFFFFFFFFFFFDA
:10340000FFC0C0C0C0C0C0C1C3C7CFDFFFC0800005
:10341000000000FFFFFFFFFFFFFFFFFFFFFFFFFFB9
:10342000FFFFFFFFFFFFFFFFFFFFFFFFFFFFFFFFAC
:10343000FEFCF8FFFFFFFF000000000080C0E0F08E
:10344000F0F878783C3C3C3C3C3C7878F8F0F0E094
:10345000C00000000000000C1C7CFCFEFFFFFF7F92
:103460003C0C000000000000000000000000010112
:10347000C0C0C00000000000000000030303808003
:10348000000000000000000000000000303CFEFFD3
:10349000FFFF7F3F3E3C3000000000000003070FAD
:1034A0000F1F1E1E3C3C3C3C3C3C1E1E1F0F0F07CA
:1034B00003010000000000000080E0F0F8F8FCFCD0
:1034C0007C7C3CBC9EDEDEDEDEDEFEBC3CF8F8F042
:1034D000F0E0C00000000000E0FFFFFF7F7F7D0004
:1034E00030F8F8F1F1E3C3E7FFFF7F7F7F7F7F03D1
:1034F000031FFFFFFEF00000073FFFFFF8E0C0E002
:10350000F0F97F3F1F0F0FF3FDFC786001071F9F4D
:10351000DFFFFFFFFFFF00000000000103070F1F98
:103520001F3C3C3C7878787F7F7F7F7F7E7E7F7FEB
:103530007F3F1F0F070300000080E0F0F8383C3C9D
:103540007C7C389890C0C0C0C0C0C0800000000023
:10355000000000000000000000071F3F7C7C7C0092
:1035600030F8F8F1F1E3C3870F1F3F7F7F7E7C00C7
:10357000000000000000000000000000000000004B
:10358000000103070F0F0FF3FDFC786001071F1FF9
:10359000DFFFFEFCF8F0000000000000000000006B
:1035A00000000000000000070F1F3F7F7E7E7C7C34
:1035B0007F3F1F0F07030000000000000000000015
:1035C00000000000000000000000000000000000FB
:1035D00000000000000000000000000000000000EB
:1035E00000000000000000000000000000000000DB
:1035F00000000000000000000000000000000000CB
:1036000000000000000000000000000000000000BA
:1036100000000000000000000000000000000000AA
:103620000000001E3F313D3D313F1E000000000004
:10363000000000000000000000000000000000008A
:10364000000000000000000000000000000000007A
:10365000000000000000000000000000000000006A
:10366000000000000000000000000000000000005A
:103670000000000000000000000000000000003C0E
:103680007E627A3A3A3A3A3A3A3A3A7A627E3C007A
:10369000000000000000000000000000000000002A
:1036A0000000001E3F313D3D313F1E000000000084
:1036B000000000000000000000000000000000000A
:1036C00000000000000000000000000000000000FA
:1036D000000000000000000000000078FCC4F4744A
:1036E000747474747474747474747474747474F41A
:1036F000C4FC780000000000000000000000003C56
:103700007E627A3A3A3A3A3A3A3A3A7A627E3C00F9
:1037100000000000000000000000000000000000A9
:103720000000001E3F313D3D313F1E000000000003
:103730000000000000000000F0F888E8E8E8E8E891
:10374000E8E8E8E8E8E8E8E8E8E8E8E8E8E8E8E8F9
:10375000E8E8E888F8F0000000010178FCC4F4749F
:10376000747474747474747474747474747474F499
:10377000C4FC780101000000000000000000003CD3
:103780007E627A3A3A3A3A3A3A3A3A7A627E3C0079
:103790000000000000000000000000000000000029
:1037A0000000001E3F313D3D313F1E000000000083
:1037B000000000000000000080C0C0C0C0C0C0C049
:1037C000C0C0C0C0C0C0C0C0C0C0C0C0C0C0C0C0F9
:1037D000C0C0C0C0C0800000FFFF007E1E0E0602F9
:1037E00002000000000000000000000000000000D7
:1037F00000000000FFFF0000FFFF000000000000CD
:103800000000000000000000000000000000006058
:1038100060606000FFFF0000010303030303030374
:103820000303030303030303030303030303030368
:10383000030303030301000000000000000000C0B8
:10384000E03030181808CCCC0818183030E0C00030
:103850000000000000000000000000000018FFC38E
:103860000000000000000F1F3060C080000083FFD8
:10387000180000000000000000000000000000032D
:10388000070C0C18101030301010180D0C07030026
:103890000000000000000000000000000000000028
:1038A0000000000000000000000000000000000018
:1038B0000000000000000010387C3810101814348C
:1038C0005656D0D0103810FF81BD81818181818111
:1038D0008181818181FF3CFF81BDBDBDBD81818131
:1038E0008181818181FF3CFF81BDBDBDBDBDBDBD6D
:1038F000BD81818181FF3CFF81BDBDBDBDBDBDBD21
:10390000BDBDBDBD81FF3C0010189C723010000091
:1039100000000000005F0000000007000700147FA7
:10392000147F14242A7F2A1223130864623649550F
:10393000225000050300001C2241000041221C000F
:1039400000082A1C2A0808083E0808A06000000099
:103950000808080808606000000020100804023E03
:103960005149453E00427F4000625149494622414B
:103970004949361814127F1027454545393C4A49B4
:103980004930017109050336494949360649492933
:103990001E003636000000AC6C0000081422410006
:1039A000141414141441221408000201510906329F
:1039B0004979413E7E0909097E7F494949363E41A0
:1039C0004141227F4141221C7F494949417F0909E8
:1039D00009013E414151727F0808087F417F410043
:1039E000002040413F017F081422417F4040404079
:1039F0007F020C027F7F0408107F3E4141413E7FE1
:103A0000090909063E4151215E7F091929462649C7
:103A100049493201017F01013F4040403F1F2040A2
:103A2000201F3F4038403F631408146303047804A8
:103A30000361514945437F414100000204081020C1
:103A400041417F00000402010204808080808001E7
:103A50000204000020545454787F484444383844C9
:103A6000442800384444487F3854545418087E0988
:103A7000020018A4A4A47C7F08040478007D000040
:103A80000080847D00007F10284400417F400000BA
:103A90007C041804787C08047C003844443800FC1A
:103AA00024241800182424FC00007C080400485436
:103AB000542400047F4400003C40407C001C204013
:103AC000201C3C4030403C44281028441CA0A07CD2
:103AD000004464544C440836410000007F0000005C
:103AE00041360800000201010201020505020060E2
:103AF000C0F0381CFEFFFFFFFF0F0F0F0F0F0F0F5F
:103B00000F0FFFFFFFFFFEFFFFFFFFFF00000000A2
:103B10000000000000FFFFFFFFFF7FFFFFFFFFF03F
:103B2000F0F0F0F0F0F0F0F0FFFFFFFF7F0000009A
:103B3000000000203CFFFFFFFFFF0000000000002E
:103B40000000000000000000FFFFFFFFFF0000007A
:103B50000000000000000000000000FFFFFFFFFF6A
:103B600000000000000000FEFFFFFFFF0F0F0F0F1F
:103B70000F0F0F0FFFFFFFFFFE000000000000808F
:103B8000C0E0F0F8FC7E3F1F0F070301E0F0F8FCF7
:103B9000FEFFFFFFF7F3F1F0F0F0F0F0F0F0F0FED1
:103BA000FFFFFFFF0F0F0F0F0F0F0F0F0FFFFFFF95
:103BB000FFFE00000000000000081C1C3E3E7E7F4F
:103BC000F7F7F7E3E37FFFFFFFFFF0F0F0F0F0F02F
:103BD000F0F0F0FFFFFFFF7F000000000080E0F04A
:103BE000FCFF7F1F0F03010000000080C0F0FCFEFF
:103BF000FF3F0F0301000000FFFFFFFF00000F0F5A
:103C00000F0F0F0F0F0F0F0F0F0F0FFFFFFFFF0F04
:103C10000FFFFFFFFFFF0F0F0F0F0F0F0F0F0F0F04
:103C20000F0F0F0F1F1F1F1F1F1E1E1E1E1E1E1EEB
:103C30001E1EFEFEFEFEFC7FFFFFFFFFF0F0F0F019
:103C4000F0F0F0F0F0FFFFFFFF7FFEFFFFFFFF0F40
:103C50000F0F0F0F0F0F0F0F7F7F7F7F7EFFFFFF75
:103C6000FFFF3C3C3C3C3C3C3C3C3CFCFCFCFCF852
:103C70007FFFFFFFFFF0F0F0F0F0F0F0F0F0FFFF5B
:103C8000FFFF7F7F7F7F7F7F0F0F0F0F0F0F0F0FC4
:103C9000CFFFFFFFFF1F00000000000000000080BA
:103CA000F0FCFFFF3F0F030000000000000080E079
:103CB000F8FEFFFF1F07010000000000FEFFFFFFEE
:103CC000FF0F0F0F0F0F0F0F0F0FFFFFFFFFFEC3B1
:103CD000E7E7F7FF7E3E3E3C1C3C3E3E7EFFF7E7BB
:103CE000E7C37FFFFFFFFFF0F0F0F0F0F0F0F0F03F
:103CF000FFFFFFFF7FFEFFFFFFFF0F0F0F0F0F0FF5
:103D00000F0F0FFFFFFFFFFE1F3F3F3F3F3C3C3CBD
:103D10003C3C3C3C3C3CFFFFFFFFFF7EFEFEFEFECA
:103D2000F0F0F0F0F0F0F0F0F0FFFFFFFF7FFEFFAB
:103D3000FF0F0707070FFFFFFE7FFFFFF0E0E0E048
:103D4000F0FFFF7F0000181C1EFFFFFF00000000B7
:103D500000000000FFFFFF0000001E1F1F07078775
:103D6000C7E7FF7F3EF0F8FCFEEFE7E3E1E0E0E0CD
:103D70000E0F0F070787C7EFFF7F3E70F0F0E0E000
:103D8000E1E3F7FFFE7CC0E0F0783C1EFFFFFF00A0
:103D9000001F1F1F1C1C1CFFFFFF1C1CFFFFFFC779
:103DA000C7C7C7C7C7870771F1F1E1E1E1E1F3FFD9
:103DB0007F3FFEFFFF8F878787878F8F0E7FFFFFF5
:103DC000E3E3E3E3E3FFFF7F0F0F0F07070787C777
:103DD000FFFF7FE0F0783C1E0F07030100007EFF2D
:103DE000FFC7878787C7FFFF7E7EFFFFE3E1E1E133
:103DF000E3FFFF7EFEFFFFC7C7C7C7C7FFFFFE7811
:103E0000F9F9E1E1E1E1E1FFFF7F00F8F8F8F800FE
:103E100000C3C3C3C300001F1F1F1F001C060301F4
:103E20000101010101010101010101010101010182
:103E30000101010101010101010101010103061C50
:103E40003860C0808080808080808080808080809A
:103E50008080808080808080808080808080808062
:103E600080C0603800000070783C9ECE6F673733AA
:103E70001A1818F8D818181A3337676FCE9E3C787E
:103E8000700000000000F07C0E0301000000000044
:103E9000000000FFFF000000000000000001030E12
:103EA0007CF0000000077FF2820303030303030397
:103EB0000303030303000000000000000000008271
:103EC000F27F07000000000103060C18303060602C
:103ED000C0C0C0F0C0C0C0C060603030180C060365
:103EE00001000000000000000080E0F0F8FCFCFC95
:103EF0003E1E1E1E1E1E3E7CFCFCF8F0E0800000F4
:103F000000000000000000000001010101010100AB
:103F100000000080C0E0F0F8FFFFFF7F3F0F0000CF
:103F20000000000000000000000000000000000091
:103F30007C7E7F7F7F7F0F03010100000000000077
:103F40000000000000000000000000000000000071
:103F50007E7E7E7E7E7E000000000000000000006D
:103F600000000000000060F0F8F8F0E06060B030A1
:103F7000181818F8D818181830B06060E0F0F8F881
:103F8000F06000000000F07C0F1301000000000052
:103F9000000000FFFF000000000000000001130F00
:103FA0007CF0000000077FF282400000000000006B
:103FB00000000003070E1C3870E0C0800000408243
:103FC000F27F07000000000103060C183030686023
:103FD000C0C0C0F0C0C0C0C060683131180C06035A
:103FE00001000000000000000000000000000000D0
:103FF00000000000000000000000000000000000C1
:1040000000000000C0E0F0F0F0F0F0F0F0F0F0F0B0
:10401000F0F0F0F0F0F0F0F8F8FCFCFCFCFCFC0038
:10402000B090988803070F0F0F0F0F0F0F0F0F0F90
:104030000F0F0F0F0F0F0F1F1F3F3F3F3F3F3F005F
:104040000D09191100000000000000000000000030
:104050000000000000000000000000000000000060
:10406000000000000000000040E0F0E0E0C080C080
:10407000C0E0FEFEFEFEE0C0C080C0E0E0F0E04038
:104080000000000000C0C0C0C0E1FBFF1F07E3F15B
:10409000F97C3C1C1C3C7CF9F1E3071FFFFBE1C0F1
:1040A000C0C0C000000303030387DFFFF8E0C78F31
:1040B0009F3E3C38383C3E9F8FC7E0F8FFDF8703C8
:1040C000030303000000000002070F0707030103BA
:1040D00003077F7F7F7F070303010307070F0702A3
:1040E0000000000000000000000000000000C0F818
:1040F000F0000000000000000000000000000000D0
:10410000000000000080808080808080C0FC3F0133
:104110003FFE8000000000000000000000000000E2
:104120000000000000010101010101010101000086
:104130000007FFE080F83C0C0C0C0C0C0C0C0C0C79
:104140000C0C0C000000000000000000000000004B
:104150000000010F0F03000000000000000000003D
:10416000000000000080C0C0C0C0C0C0C0C0C0C04F
:10417000C0C0C0C0C0C0C0C0C080000000000000FF
:104180000000000000FFFF01000000000000000030
:1041900000000000808080818F8F80808C9CB8F030
:1041A000E0C0800000FFFF80000000000000000071
:1041B0000000000001010181F1F1010131391D0F01
:1041C00007030100000103030303030303030303C5
:1041D00003030303030303030301000000000000C3
:1041E000000000001F1C1F1E1F1E1F1F1E1F1E1F62
:1041F00032FA640132C86401C8A6000032A6640124
:1042000032C86401C8FA000096FA960196FA96013F
:10421000FA7DFA7D000096C8500196C8000064FA45
:10422000320164FA320164A6320164A6320102004E
:1042300064FA320164A6000064A6320164A600009C
:1042400064A6320164FA00000400000800000000C7
:104250000000000200010000100000007C42000885
:1042600000000020E80000006C0100086443000822
:10427000E8000020900F00008801000800A24A0416
:104280000000000000000000010203040607080906
:10429000000000000000000000000000000000001E
:1042A00000000000162D00013004072D3F09040016
:1042B00003010700000001000000000000000000F2
:1042C00008000C001000140018001C00200024003E
:1042D00028004000440048004C00500054005800A2
:1042E0005C006000640068006C00700074000000F6
:1042F00000000000000000000000000000000000BE
:10430000000000004040000000000000000000002D
:10431000000000000000000000000000000000009D
:10432000000000000000000000000000000000008D
:10433000000000000000000000000000000000007D
:10434000000000000000000000000000000000006D
:104350000000000000007F000000000000000000DE
:044360000000000059
:0400000508000131BD
:00000001FF
