:020000040800F2
:10000000A808002045010008C50B0008910B000856
:10001000C10B0008B1010008890E000800000000B3
:10002000000000000000000000000000990C000823
:10003000B501000800000000690C0008CD0C0008A4
:100040005F0100085F0100085F0100085F01000810
:100050005F0100085F0100085F0100085F01000800
:100060005F0100085F0100085F0100085F010008F0
:100070005F0100085F0100085F0100085F010008E0
:100080005F0100085F0100085F0100085F010008D0
:100090005F0100085F0100085F0100085F010008C0
:1000A0005F0100085F0100085F0100085F010008B0
:1000B0005F0100085F0100085F0100085F010008A0
:1000C0005F0100085F0100085F0100085F01000890
:1000D0005F0100086D0E00085F0100085F01000865
:1000E0005F0100085F0100085F0100085F01000870
:1000F0005F0100085F0100085F0100085F01000860
:100100005F0100085F0100085F0100085F0100084F
:100110005F0100085F010008850D00085F0100080D
:100120005F0100085F0100085F0100085F0100082F
:10013000DFF80CD000F02AF8004800472D11000825
:10014000A80800200648804706480047FEE7FEE76B
:10015000FEE7FEE7FEE7FEE7FEE7FEE7FEE7FEE777
:10016000350D000831010008D2B201E000F8012B82
:10017000491EFBD270470022F6E710B513460A4627
:1001800004461946FFF7F0FF204610BD064C074D08
:1001900006E0E06840F0010394E807009847103457
:1001A000AC42F6D3FFF7C8FF94140008B41400085B
:1001B000FEE7000070470000B0B5044600F00AF901
:1001C000054640F20400C2F200000078611C18BF2E
:1001D000044400BF00F0FEF8401BA042FAD3B0BDBB
:1001E0002DE9F04F83B00C68002C00F0EA80A0F1FC
:1001F0008042A2F5843240F2004E4FEAB22241F62C
:100200000047C4F2010E0092C4F201070622002545
:100210004FF001094FF0000B4FF0000AB84208BF41
:100220000522019209E000BF0C680BF1010B34FAC2
:100230000BF205F1040500F0C48009FA0BF814EA8A
:10024000080CF1D04C684FF6FF72C1F210029442D4
:1002500010DC122C50D8DFE804F0330A41454F4F30
:100260004F4F4F4F4F4F4F4F4F4F4F484C00D1F8CC
:100270000CA041E04FF6FF72C1F2210294420FDC64
:100280000022C1F2110294421AD00022C1F21202DD
:10029000944215D00022C1F22102944210D02BE0EA
:1002A0000022C1F2220294420AD00022C1F231029D
:1002B000944205D00022C1F2320294421CD100BF08
:1002C0008C6844B1012C14BFC0F81480C0F81080B1
:1002D0004FF0080A10E04FF0040A0DE0CC6804F17A
:1002E000080A09E04FF0000A06E0CC6804F1040AAD
:1002F00002E0CC6804F10C0A2C460746BCF5807F6E
:1003000024BF203C04373A680F2303FA04F6B243B3
:100310000AFA04F422433A60CA79D2067FF584AF20
:1003200041F21804C4F2020422684FF6084842F071
:10033000010222602268CFF6FF7802F001020292E9
:10034000029A2BF00302724452F8084005F00C06A2
:1003500003FA06F7009BBC43019F052B38BF1F46DD
:1003600007FA06F6344342F808404C68E203DEF828
:10037000002054BF22EA0C0742EA0C07A203CEF881
:100380000070DEF8042054BF22EA0C0742EA0C0792
:10039000E202CEF80470DEF8082054BF22EA0C070F
:1003A00042EA0C07A20240F20C44CEF80870C4F2F4
:1003B0000104226854BF22EA0C0242EA0C022260C5
:1003C00032E703B0BDE8F08F002A08BF09040161DD
:1003D0007047000040F2A440C2F20000006870477D
:1003E00040F2040040F2A441C2F20000C2F2000157
:1003F00000780A68104408607047000080B542F237
:100400000000C4F20200016841F010010160032005
:1004100000F046F80F2000F005F800F02BF800205F
:1004200080BD0000B0B540F20402C2F2000240F20A
:1004300000011278C2F200014FF47A730968B3FB2D
:10044000F2F20446B1FBF2F1084600F09DFA0F2CDF
:100450004FF001050CD858B94FF0FF30214600226B
:10046000002500F00DF840F20800C2F20000046020
:100470002846B0BD7047000080B500F007FD80BD84
:1004800070B514460D46064600F010FD294622467A
:1004900000F09AFB0146304600F010FD70BD0000F0
:1004A00080B500F01DFD80BD2DE9F04381B000282E
:1004B00000F0898042F20008C4F202080446D8F82D
:1004C00000000D4600F0070088420CD2D8F800006A
:1004D00020F007002843C8F80000D8F8000000F01A
:1004E0000700A8426FD1206841F204098107C4F2D5
:1004F000020917D5410705D5D9F8001041F4E0618C
:10050000C9F80010010705D5D9F8001041F4605171
:10051000C9F80010D9F80010A26821F0F0011143C9
:10052000C9F80010C00745D1D8F8000000F0070056
:10053000A8420CD9D8F8000020F007002843C8F8DA
:100540000000D8F8000000F00700A8423BD1206866
:10055000410707D5D9F80010E26821F4E0611143A2
:10056000C9F80010000708D5D9F80000216920F467
:10057000605040EAC100C9F8000000F04FF8D9F817
:10058000001041F27242C1F30311C0F60002515C47
:1005900040F2000220FA01F140F20800C2F200002D
:1005A0000068C2F200021160FFF73CFF002001B0BA
:1005B000BDE8F0836068022809D0012829D159F8E4
:1005C000041C890307D4012001B0BDE8F08359F869
:1005D000041C8901F7D5D9F8001021F00301084364
:1005E000C9F80000FFF7F6FE064641F2883700BF63
:1005F000D9F80000616800F00C00B0EB810F93D0D7
:10060000FFF7E8FE801BB842F2D9032001B0BDE835
:10061000F08359F8041C8907D5D5DCE741F2040CB6
:10062000C4F2020CDCF8003003F00C00082841F2A0
:100630000020C0F27A0018BF7047C3F383420AA1BA
:100640008A5CD90305D440F60010C0F23D00504347
:100650007047DCF8001008A3C1F34041595C5043D7
:10066000B0FBF1F0704700BF02030405060708095C
:100670000A0B0C0D0E0F1010010200002DE9F041C5
:1006800082B0002800F0C4800446007841F20006E1
:10069000C007C4F2020643D0706800F00C000428C2
:1006A00017D0706800F00C00082802D17068C003F1
:1006B0000FD465682DB1B5F5A02F10D0B5F5803FEA
:1006C00011D0306820F480303060306820F4802011
:1006D0000CE03068800323D5606808BB98E0306880
:1006E00040F480203060306840F480303060FFF7A4
:1006F00071FE002D054610D03068800310D4FFF73E
:1007000069FE401B6428F7D904E100BFFFF762FED1
:10071000401B64284FF0030077D830688003F5D47D
:100720002078800718D5706810F00C0F07D070681B
:1007300000F00C00082826D17068C00323D430686C
:10074000800702D52069012862D13068616920F0F4
:10075000F80040EAC1003060207800073DD5A0696C
:1007600038B30020C4F242200121C0F88014FFF702
:1007700031FE0546706A80072DD4FFF72BFE401B23
:100780000228F7D9C6E02069002840F20000C4F230
:10079000422000F0968001210160FFF71BFE054614
:1007A00030688007D1D4FFF715FE401B0228F7D927
:1007B000B0E00020C4F242200021C0F88014FFF70E
:1007C00009FE0546706A800707D5FFF703FE401B48
:1007D0000228F7D99EE000F049FA207840071BD4A0
:1007E000E5698DB1706800F00C00082847D1012D33
:1007F0000ED07068216A00F480328A4208D1616AA2
:1008000000F47010884203D1002002B0BDE8F081EE
:10081000012002B0BDE8F081F06910F0805808D1E5
:10082000F06940F08050F061F06900F08050019074
:10083000019847F20007C4F200073868C00510D4D9
:10084000386840F480703860FFF7C4FD054600BF8B
:100850003868C00505D4FFF7BDFD401B6428F7D9F3
:1008600058E0E5681DB1052D3CD0012D3ED0306A21
:1008700020F001003062306A20F0040039E00027E7
:10088000C4F2422700203866FFF7A4FD022D05467A
:100890000CD100BF3068800154D5FFF79BFD401B91
:1008A00002284FF00300F5D9AFE700BF30688001A0
:1008B000AAD5FFF78FFD401B02284FF00300F5D9A2
:1008C000A3E700210160FFF785FD0546306880073A
:1008D0007FF542AFFFF77EFD401B02284FF003007B
:1008E000F4D992E7306A40F004003062306A40F098
:1008F00001003062FFF76EFD002D054641F288379A
:1009000014D000BF306A800713D4FFF763FD401B8B
:10091000B842F7D9032002B0BDE8F081FFF75AFDD5
:10092000401BB8424FF003003FF66FAF306A8007BC
:10093000F4D4B8F1000F7FF453AFF06920F0805089
:10094000F0614DE7206AB0F5803F05D17168A2687B
:1009500021F40031114371607168626A21F47411ED
:1009600010430843706001203866FFF733FD0446EA
:10097000306880013FF548AFFFF72CFD001B0228CF
:100980004FF00300F4D940E780B500F087F980BD4F
:100990007047000070470000002804BF0120704726
:1009A00010B5044690F83D0028B9002084F83C00BA
:1009B000204600F00DF8022084F83D002068211D3B
:1009C00000F0E8F9012084F83D00002010BD00008F
:1009D000704700000068C16841F00101C160816892
:1009E00001F00701062903D0016841F0010101600F
:1009F000002070477047000010B504460068016988
:100A0000890744BFC1685FEA817138D420680169F1
:100A1000490744BFC1685FEA41713CD4206801695D
:100A2000090744BFC1685FEA017141D420680169C8
:100A3000C90644BFC1685FEAC16145D42068016945
:100A4000C9071CBFC1685FEAC1714AD1206801694A
:100A5000090644BFC1685FEA016149D420680169A1
:100A6000490644BFC1685FEA416148D42068016912
:100A7000890644BFC1685FEA816147D410BD6FF049
:100A800002010161012121778069800745D020465C
:100A9000FFF7B0FF47E06FF0040101610221217709
:100AA000806910F4407F41D02046FFF7A3FF43E068
:100AB0006FF00801016104212177C06980073ED0F1
:100AC0002046FFF797FF40E06FF010010161082119
:100AD0002177C06910F4407F3AD02046FFF78AFFA3
:100AE0003CE06FF001010161204600F03FF8ADE706
:100AF0006FF0800101612046FFF74AFFAEE76FF01B
:100B000040010161204600F041F8AFE76FF020019D
:100B100001612046FFF73EFF10BD204600F022F89D
:100B2000204600F021F8002020776FE7204600F0F3
:100B300019F8204600F018F8002020776EE72046CC
:100B400000F010F8204600F00FF8002020776DE745
:100B5000204600F007F8204600F006F80020207735
:100B60006CE700007047000070470000006841F229
:100B70000001C4F20001884218BF704740F2A00093
:100B8000C2F2000001680131016070477047000047
:100B9000FEE7000010B504466FF04F0000EBD100F7
:100BA000C0B2002100F036F820091030002100F01A
:100BB00031F804F00E000130002100F02BF810BDD8
:100BC000FEE700007047000000F0070080F0070318
:100BD000042B28BF04234FF0FF3C03380CFA03F327
:100BE00038BF0020994381400CFA00F022EA00004F
:100BF0000843704780B518B1012805D1A72000E04F
:100C0000A620002100F006F8AF20002100F002F835
:100C100080BD000070B5044640F60005481EC4F2D1
:100C20000105B0FA80F0420928461021FFF7CCFBFD
:100C3000284620210022FFF7C7FB0726E0B2C209A1
:100C400028468021FFF7C0FB284620210122FFF71C
:100C5000BBFB284620210022FFF7B6FB64003006CC
:100C6000A6F10106EAD170BD7047000081B040F2E4
:100C70000000C2F20000006844F6D351C1F26201E4
:100C8000A0FB0101480A009000BF0098411E002807
:100C90000091F9D101B0704770470000B0B501383C
:100CA0000024B4EB106F1CBF0120B0BD4EF2100544
:100CB000CEF2000568604FF0FF300F2100F0FEF823
:100CC0000720AC6028602046B0BD000080B5FFF76B
:100CD00087FB80BD70B590B001AC0025204628216F
:100CE0000F95CDE90D55CDE90B55FFF744FA0120DD
:100CF00001904FF480300226CDE90205CDE908606D
:100D00004FF4E0100A902046FFF7B8FC08B100BF8E
:100D1000FEE70F20CDE90B064FF480600E900BA884
:100D200002210D950F95FFF7BFFB00B1FEE710B054
:100D300070BD000041F20000C4F202000168002210
:100D400041F0010101604168CFF6FF0211404160AE
:100D500001684FF6FF72CFF6F6621140016001683C
:100D600021F480210160416821F4FE0141604FF4CB
:100D70001F0181604EF60850CEF200004FF0006176
:100D80000160704780B540F26000C2F20000FFF7DA
:100D900033FE80BD10B540F6FF3E0368C4F2000E7E
:100DA00043F2004C7045C4F2010C20DCB0F1804FDE
:100DB0002BD040F20042C4F20002904225D040F60F
:100DC0000002C4F2000290421FD0704523DCB0F153
:100DD000804F2ED040F20042C4F20002904228D050
:100DE00040F60002C4F20002904222D025E040F614
:100DF0000042C4F20002904207D0604505D042F69E
:100E00000042C4F201029042DFD14A6823F070032D
:100E100013437045DBDD40F60042C4F2000290420D
:100E200007D0604505D042F60042C4F2010290426C
:100E300003D1CA6823F44073134323F080024B6943
:100E4000D1F800E08C681A4360450260C462C0F8C3
:100E500028E005D042F60042C4F20102904201D1DE
:100E6000096901630121416110BD000040F21000D9
:100E7000C2F2000000680168890658BF70474168E7
:100E8000C9B2416070470000FEE70000002848BF7B
:100E9000704700F01F01012202FA01F14EF2001228
:100EA0004009CEF2000242F8201070474EF60C5076
:100EB000CEF200000068C0F3022070474EF61453D3
:100EC00000F00F02CEF2000309011A4400F1604362
:100ED000B0F1FF3FC8BF03F56442117070470000D6
:100EE0004EF60C51CEF200010A684FF6FF031A408D
:100EF00060F30A2242F0806040F0FD7008607047A5
:100F000040F25000C2F20000007870474DF6000039
:100F1000C0F60400006840F25800C2F20000002150
:100F2000C0E90011704700002DE9F04F8BB0149F0D
:100F30001C46934688468146FFF7E2FF0021B1EB4D
:100F4000D70F00F0A48016994044C2B20192411A12
:100F5000FA08CDE9022101F007013844C2B2C1F11B
:100F60000800002308910690049207E0059B029870
:100F70000133049A8342A34400F0898003981699B0
:100F800000EBC300C5B2002900F1080109910593E7
:100F900010D09542EAD80999019AC9B29142E5D395
:100FA0004029E3D8019AAA4207D9511BFF2202FA2D
:100FB00001F80BE04FF0FF0808E0049A914291BF5E
:100FC0004FF0FF08891AFF2222FA01F80899002938
:100FD0004FF4786101EA00100A901FD13F2D1DD80F
:100FE000002CC3D0002702E00137BC42BED007EB83
:100FF000090040B20028F7D41599C6B20BEB0700E0
:1010000000F020FA0A9940F2A4033144C2F200032E
:101010005A5C00EA080010435854E5E7002CA5D0BC
:1010200009994FF4786000EA01100027079002E068
:101030000137BC429AD007EB090041B20029F7D42E
:1010400015995FFA80FA0BEB070000F0FBF93F2DD2
:1010500000EA08000BD80A9940F2A4065144C2F2F3
:101060000006089B725C00FA03F31A437254099954
:10107000C9B23F29DCD8079940F2A4065144C2F214
:101080000006069B725CD84010437054D0E70BB04A
:10109000BDE8F08F80B500F0DDF880BD70B5044686
:1010A000002500BFA5F15000C0B200210026FFF7C7
:1010B000B1FD01200021FFF7ADFD10200021FFF759
:1010C000A9FD00BF20460121FFF7A4FD701C46B218
:1010D000B6F1FF3FF6DCE8B20135072828BF70BD46
:1010E000E0E7000080B586B00020CDE90400CDE93E
:1010F000020041F21800C4F20200016841F0100140
:101100000160006802A900F01000019001984FF4FE
:10111000005002900120CDE90300059041F200004B
:10112000C4F20100FFF75CF806B080BD84B0FFF7A1
:1011300065F9FFF7CFFD40F2A400C2F200004FF4C2
:101140008061FFF718F800F0B1F8FFF7CBFFFFF769
:10115000DDFE00F017F84FF0000C082041F282424B
:10116000CDE9000CC0F60002002038211023CDF894
:1011700008C0FFF7D9FEFFF78DFF0020FFF73AFD0B
:10118000FEE7000010B582B041F21C00C4F202007C
:10119000016840F2600441F0100101600068C2F291
:1011A000000400F010000190019841F20000C4F228
:1011B00000004721002240F2E73384E80F0080203E
:1011C000A06120462261FFF7E7FB362001210022C3
:1011D000FFF756F93620FFF74FF92046FFF7FAFBE5
:1011E00002B010BDB0B584B00024CDE90244CDE911
:1011F000004400F0F1F80120CDE90104032040F69D
:10120000000403904020C4F201046D460090204683
:101210002946FEF7E5FF2020009020462946FEF7EC
:10122000DFFF8020009020462946FEF7D9FF1020DE
:10123000009020462946FEF7D3FF08200090204664
:101240002946FEF7CDFF04B0B0BD000080B5FEF723
:10125000B3FF80BD70B540F2A4050024C2F20005C2
:10126000A4F15000C0B20021FFF7D4FC00200021FF
:10127000FFF7D0FC10200021FFF7CCFC4FF0FF3629
:10128000A81940780121FFF7C5FC01367F2EF7D160
:101290000134082C05F18005E2D140F2A400C2F22D
:1012A00000004FF48061FEF766FF70BD10B5FFF7D8
:1012B00099FF40F60004C4F20104204608210022F0
:1012C000FFF782F8204620210122FFF77DF8204613
:1012D00040210022FFF778F83220FFF7B7FF2046C1
:1012E00040210122FFF770F8AE200021FFF792FCA9
:1012F00000200021FFF78EFC10200021FFF78AFC60
:1013000040200021FFF786FC81200021FFF782FCAE
:10131000CF200021FFF77EFCA1200021FFF77AFCFF
:10132000C8200021FFF776FCA6200021FFF772FC01
:10133000A8200021FFF76EFC3F200021FFF76AFC88
:10134000D3200021FFF766FC00200021FFF762FC9C
:10135000D5200021FFF75EFC80200021FFF75AFC1A
:10136000D9200021FFF756FCF1200021FFF752FCA5
:10137000DA200021FFF74EFC12200021FFF74AFC83
:10138000DB200021FFF746FC40200021FFF742FC54
:1013900020200021FFF73EFC02200021FFF73AFC4D
:1013A0008D200021FFF736FC14200021FFF732FCCE
:1013B000A4200021FFF72EFCA6200021FFF72AFC25
:1013C000AF200021FFF726FC0020FFF767FE00207A
:1013D0000021FFF7DFFB10BD81B041F21800C4F21D
:1013E0000200016841F004010160016801F004019C
:1013F00000910099016841F004010160016801F069
:10140000040100910099016841F004010160016844
:1014100001F0040100910099016841F004010160AC
:10142000016801F0040100910099016841F0040194
:101430000160006800F004000090009801B070475F
:101440000078704710B50C46FFF7FAFF614248403C
:10145000C0B210BD02E008C8121F08C1002AFAD1AC
:1014600070477047002001E001C1121F002AFBD124
:10147000704700000000000000000102030406079E
:101480000809FF81BDBDBDBDBDBDBDBD81818181DF
:10149000FF3C0000B814000800000020100000000D
:1014A00054140008C8140008100000209808000018
:1014B00064140008000000000024F4000100000093
:0814C000100000000000000014
:0400000508000131BD
:00000001FF
