:020000040800F2
:10000000681D00204501000861180008C11700089C
:100010005D180008A1080008911C000800000000FD
:10002000000000000000000000000000111A00089D
:10003000DD0800080000000081190008451A0008CA
:100040005F0100085F0100085F0100085F01000810
:100050005F0100085F0100085F0100085F01000800
:100060005F0100085F0100085F0100085F010008F0
:100070005F0100085F0100085F0100085F010008E0
:100080005F0100085F0100085F0100085F010008D0
:100090005F0100085F0100085F0100085F010008C0
:1000A0005F0100085F0100085F0100085F010008B0
:1000B0005F0100085F0100085F0100085F010008A0
:1000C0005F0100085F0100085F0100085F01000890
:1000D0005F010008751C00085F0100085F0100084F
:1000E0005F0100085F0100085F0100085F01000870
:1000F0005F0100085F0100085F0100085F01000860
:100100005F0100085F0100085F0100085F0100084F
:100110005F0100085F010008FD1A00085F01000888
:100120005F0100085F0100085F0100085F0100082F
:10013000DFF80CD000F00EFB0048004789370008BC
:10014000681D00200648804706480047FEE7FEE796
:10015000FEE7FEE7FEE7FEE7FEE7FEE7FEE7FEE777
:10016000AD1A000831010008D2B201E000F8012BFD
:10017000491EFBD270470022F6E710B513460A4627
:1001800004461946FFF7F0FF204610BD421C10F848
:10019000011B0029FBD1801A7047034611F8012B7F
:1001A00000F8012B002AF9D11846704730B480EAD4
:1001B000010202F0004530F0004221F0004013D06F
:1001C00090B1C30DD40DC2F31601C0F31600E41AAA
:1001D00041F4000140F400027D34914201D3641CDB
:1001E00000E04900002C02DA30BC002070474FF4D8
:1001F00000000023914201D3891A034340084FEACB
:100200004101F7D151B1914202D14FF0004105E0D7
:1002100002D24FF0010101E06FF0010103EBC45085
:10022000284430BC00F092B92DE9FE4F804681EAA7
:100230000300C00F0C46009021F0004123F0004560
:10024000B8EB0200A94105D24046214690461C4623
:100250000B46024623F00040104347D0270DC7F35A
:100260000A00C3F30A510290401A019040286BDA49
:10027000C3F3130040F4801B0098924620B1002382
:10028000D2EB030A63EB0B0B01985946C0F1400215
:10029000504600F03AF906460D4650465946019A36
:1002A00000F042F910EB08006141002487EA115286
:1002B00084EAE7731A4340D0009A62B3019A012A94
:1002C0004FEA075215DC001B61EB02014FF00042C0
:1002D00002EA0752CDE90042001C41F58011324686
:1002E0002B4600F079F903B0BDE8F08F4046214677
:1002F000F9E7001B61EB0201001C41F580130018B7
:100300005B412018A2F5001747EB030140EAD570C6
:10031000B6196D4111E06D084FEA360645EAC07521
:100320004FEA0752001B61EB0201001C41F58011EE
:1003300049084FEA30000019514132462B4603B0BC
:10034000BDE8F04F00F039B90098012240000023C9
:10035000D0EB020263EBE073009821464FEAE074B1
:10036000B8EB000061EB0401E9E783F000435BE7D1
:1003700081F0004158E72DE9FE4F81EA030404F0C3
:10038000004421F0004100944FF0000B23F00043A3
:1003900050EA01045ED052EA03045BD0C3F30A546E
:1003A000C1F30A552C44A4F2F3340194A0FB025487
:1003B000C1F3130141F48011C3F3130343F4801319
:1003C00001FB024400FB034E840A970A44EA81546D
:1003D00047EA8357A4FB076802958D0A05FB07854A
:1003E0004FEA932C04FB0C542705029D4FEA065854
:1003F00047EA1637B5EB08056EEB070C870E920E31
:1004000047EA811742EA8312A7FB0201B6EB0B0110
:1004100064EB00042B0D43EA0C335E1844EB1C50D4
:10042000DA465146E7FB0201C5F313044FEA0B33EA
:1004300043EA14534FEA0432019C43EA0603A4F151
:100440000C040294009CCDE900B400F0C5F803B0A0
:10045000BDE8F08F00200146F9E7002801DBC0F17C
:100460000040002901DBC1F10041814201D101209E
:1004700070470020704796230022114600F06FB8A5
:1004800000F0004230F000400AD0C10D01F560716B
:10049000C0F3160042EA0151C208400711437047F9
:1004A00000200146704701F0004330B421F00041C4
:1004B00050EA010206D00A0DA2F56072C1F31301E1
:1004C000002A02DC30BC00207047440F44EAC1041B
:1004D000C100E01830BC00EBC25000F037B830B5B6
:1004E0000B46014600202022012409E021FA02F5F2
:1004F0009D4205D303FA02F5491B04FA02F528448C
:10050000151EA2F10102F1DC30BD202A04DB203AE5
:1005100000FA02F1002070479140C2F1200320FA56
:1005200003F3194390407047202A06DBCB17203A8B
:1005300041FA02F043EAE07306E041FA02F3D040E8
:10054000C2F1200291400843194670470029A8BF14
:100550007047401C490008BF20F00100704710B4EC
:10056000B0FA80FC00FA0CF050EA010404BF10BCA1
:10057000704749B1CCF1200421FA04F411FA0CF1CE
:1005800018BF012121430843A3EB0C01CB1D4FEA07
:1005900000614FEA102042BF002010BC704700EB02
:1005A000C35010440029A4BF10BC7047401C490030
:1005B00008BF20F0010010BC704710B5141E73F185
:1005C000000408DA401C41F1000192185B411A4313
:1005D00001D120F0010010BD2DE9F04D92469B465F
:1005E00011B1B1FA81F202E0B0FA80F22032904605
:1005F000FFF78BFF04460F4640EA0A0041EA0B0171
:1006000053465A46084313D0114653EA010019D005
:10061000C8F14002504600F0AFF805460E4650467D
:1006200059464246FFF771FF084305D0012004E018
:1006300020463946BDE8F08D0020054346EAE076C5
:100640002C4337430A986305E40AA0EB0800002214
:10065000FD0A44EA47540A3002D500200146E9E782
:10066000010510196941DDE9084500196941BDE836
:10067000F04DA2E72DE9F04D81EA030404F0004BB0
:1006800021F0004514464FF0000A23F0004150EAE3
:10069000050220D054EA01021DD0C5F30A570246D4
:1006A000C5F31303C1F31300C1F30A5640F48015D8
:1006B00043F48013A7EB0608101BD64608F2FD385A
:1006C00073EB050002D308F1010801E092185B41C9
:1006D000B8F1000F03DA00200146BDE8F08D0020DC
:1006E0004FF48011064684460EE0171B73EB050796
:1006F00005D3121B63EB050306434CEA010C4908C2
:100700004FEA300092185B4150EA0107EDD152EAFE
:10071000030012D082EA040083EA0501084305D0F1
:10072000101BAB4106D20122002306E000224FF04D
:10073000004302E06FF0010253101AEB06004CEB8D
:10074000085110EB0A0041EB0B01BDE8F04DFFF73B
:1007500034BF0000064C074D06E0E06840F001039E
:1007600094E8070098471034AC42F6D3FFF7E4FC56
:100770006C6F00088C6F0008202A04DB203A21FAF5
:1007800002F00021704721FA02F3D040C2F12002AA
:10079000914008431946704770B521F00043034368
:1007A0000CD0C1F30A550024D5EB040564EB040317
:1007B000D617AD1AB34102DB0020014670BD2018E8
:1007C00041EB025170BD0EB5C10F80EAE0700844E4
:1007D000CA07002140F233438DE80E000A460B465B
:1007E000FFF7FAFE03B000BD0EB540F233410291AF
:1007F0000021CDE900110A460B46FFF7EDFE03B0DC
:1008000000BD70B5C1F30A5201F000450024C1F3E8
:10081000130140F2FF3341F480119A4201DA0020C3
:1008200070BD40F233439A42A2F2334203DC52429B
:10083000FFF7A2FF00E090402C43F1D0404270BD92
:1008400070B58D1810F8014B14F0030201D110F8A7
:10085000012B231106D110F8013B03E010F8016BC6
:1008600001F8016B521EF9D1ABB110F8012B04F065
:100870000C048A1A0C2C03D0A2EB84129B1C08E0F7
:1008800010F8014BA2EB0422F8E712F8014B01F833
:10089000014B5B1EF9D5A942D4D3002070BD0000E6
:1008A000FEE7000010B541F2B01443F60000C2F2BA
:1008B0000004C4F201004FF4E13100220C2384E86B
:1008C00007002046C4E90322C4E9053200F002FF14
:1008D0002068C16841F02001C16010BD7047000070
:1008E000B0B5044600F010F9054640F29800C2F297
:1008F00000000078611C18BF044400BF00F004F938
:10090000401BA042FAD3B0BD2DE9F04F83B00C6874
:10091000002C00F0EA80A0F18042A2F5843240F27F
:10092000004E4FEAB22241F60047C4F2010E009297
:10093000C4F20107062200254FF001094FF0000B19
:100940004FF0000AB84208BF0522019209E000BF3B
:100950000C680BF1010B34FA0BF205F1040500F001
:10096000C48009FA0BF814EA080CF1D04C684FF671
:10097000FF72C1F21002944210DC122C50D8DFE852
:1009800004F0330A41454F4F4F4F4F4F4F4F4F4F9A
:100990004F4F4F484C00D1F80CA041E04FF6FF728A
:1009A000C1F2210294420FDC0022C1F211029442F2
:1009B0001AD00022C1F21202944215D00022C1F2D4
:1009C0002102944210D02BE00022C1F22202944274
:1009D0000AD00022C1F23102944205D00022C1F2B5
:1009E000320294421CD100BF8C6844B1012C14BF68
:1009F000C0F81480C0F810804FF0080A10E04FF0E3
:100A0000040A0DE0CC6804F1080A09E04FF0000A7E
:100A100006E0CC6804F1040A02E0CC6804F10C0A98
:100A20002C460746BCF5807F24BF203C04373A683B
:100A30000F2303FA04F6B2430AFA04F422433A609D
:100A4000CA79D2067FF584AF41F21804C4F20204D9
:100A500022684FF6084842F0010222602268CFF671
:100A6000FF7802F001020292029A2BF00302724414
:100A700052F8084005F00C0603FA06F7009BBC4349
:100A8000019F052B38BF1F4607FA06F6344342F88C
:100A900008404C68E203DEF8002054BF22EA0C074D
:100AA00042EA0C07A203CEF80070DEF8042054BF1F
:100AB00022EA0C0742EA0C07E202CEF80470DEF8E4
:100AC000082054BF22EA0C0742EA0C07A20240F2B7
:100AD0000C44CEF80870C4F20104226854BF22EA24
:100AE0000C0242EA0C02226032E703B0BDE8F08F4C
:100AF0008068084018BF012070470000002A08BF26
:100B0000090401617047000041F64410C2F2000080
:100B10000068704740F2980041F64411C2F20000AC
:100B2000C2F2000100780A681044086070470000B3
:100B300080B542F20000C4F20200016841F01001E9
:100B40000160032000F046F80F2000F005F800F0E7
:100B50002BF8002080BD0000B0B540F29802C2F230
:100B6000000240F278011278C2F200014FF47A7369
:100B70000968B3FBF2F20446B1FBF2F1084600F05B
:100B800089FC0F2C4FF001050CD858B94FF0FF30FD
:100B900021460022002500F00DF840F29C00C2F230
:100BA000000004602846B0BD7047000080B501F029
:100BB000D5F880BD70B514460D46064601F0DEF846
:100BC0002946224600F04EFE0146304601F0DEF88E
:100BD00070BD000080B501F0EBF880BD2020C4F2AC
:100BE0000E2001210160704780B5411E0F294FF092
:100BF000000043D8DFE801F00B34420842424208CB
:100C0000424242424242424300F0DEF980BD41F29C
:100C10000400C4F20200C16940F202320A40B2F597
:100C2000817F04BF4FF4004080BD01F44071B1F5F5
:100C3000407F0DD0B1F5007F51D1026A920744BFC9
:100C400049F6404080BDB1F5407F1CBF002080BD0B
:100C500050F8040C4FF22441800301EAE07080BD9B
:100C600000F0A0F941F20401C4F202010968022275
:100C7000C1F3813102EB4101B0FBF1F080BD41F2E3
:100C80000401C4F202010A6851F8040CC0015CBFFF
:100C9000002080BDC2F3834012A3185CD20305D4A8
:100CA00040F60012C0F23D0250430BE00A6811A367
:100CB000C2F340429A5C41F20023C0F27A03B3FBD4
:100CC000F2F250430968490248BF80BD4AF6AB21A1
:100CD0004000CAF6AA21A0FB0101480880BD0020FF
:100CE00080BD00BF02030405060708090A0B0C0DAE
:100CF0000E0F1010010200002DE9F04182B00446F1
:100D0000007841F21C06C007C4F202064AD03068DF
:100D100010F0805808D1306840F080503060306862
:100D200000F080500190019847F20007C4F20007DC
:100D30003868C00512D4386840F480703860FFF716
:100D4000E3FE05463868C00508D4FFF7DDFE401B0A
:100D50006428F7D9032002B0BDE8F081706810F470
:100D6000407012D0616801F4407188420DD0706803
:100D700040F24042C4F24222012320F44071136049
:100D80000023C0071360716029D17068616820F486
:100D900040700843B8F1000F706003D1306820F054
:100DA000805030602068810707D556F8181CA2686B
:100DB00021F44041114346F8181CC00603D400201A
:100DC00002B0BDE8F08156F8180C616920F480008B
:100DD000084346F8180C002002B0BDE8F081FFF788
:100DE00093FE054641F2883770688007CDD4FFF73F
:100DF0008BFE401BB8424FF00300F5D9ECE7000032
:100E00002DE9F04381B0002800F0898042F200080B
:100E1000C4F202080446D8F800000D4600F00700AE
:100E200088420CD2D8F8000020F007002843C8F808
:100E30000000D8F8000000F00700A8426FD1206839
:100E400041F204098107C4F2020917D5410705D50B
:100E5000D9F8001041F4E061C9F80010010705D588
:100E6000D9F8001041F46051C9F80010D9F8001009
:100E7000A26821F0F0011143C9F80010C00745D164
:100E8000D8F8000000F00700A8420CD9D8F80000FC
:100E900020F007002843C8F80000D8F8000000F050
:100EA0000700A8423BD12068410707D5D9F80010B8
:100EB000E26821F4E0611143C9F80010000708D589
:100EC000D9F80000216920F4605040EAC100C9F857
:100ED000000000F079F8D9F8001045F68052C1F30F
:100EE0000311C0F60002515C40F2780220FA01F1D1
:100EF00040F29C00C2F200000068C2F200021160E1
:100F0000FFF72AFE002001B0BDE8F08360680228E8
:100F100009D0012829D159F8041C890307D40120DC
:100F200001B0BDE8F08359F8041C8901F7D5D9F860
:100F3000001021F003010843C9F80000FFF7E4FDA9
:100F4000064641F2883700BFD9F80000616800F01A
:100F50000C00B0EB810F93D0FFF7D6FD801BB84299
:100F6000F2D9032001B0BDE8F08359F8041C8907C9
:100F7000D5D5DCE740F27800C2F200000068704787
:100F800080B5FFF7F7FF41F20401C4F202010968DE
:100F900045F69052C1F30221C0F60002515CC840F0
:100FA00080BD000080B5FFF7E5FF41F20401C4F207
:100FB0000201096845F69052C1F3C221C0F6000251
:100FC000515CC84080BD000041F2040CC4F2020C28
:100FD000DCF8003003F00C00082841F20020C0F2D9
:100FE0007A0018BF7047C3F383420AA18A5CD90311
:100FF00005D440F60010C0F23D0050437047DCF8C5
:10100000001008A3C1F34041595C5043B0FBF1F01C
:10101000704700BF02030405060708090A0B0C0D00
:101020000E0F1010010200002DE9F04182B00028DF
:1010300000F0C4800446007841F20006C007C4F204
:10104000020643D0706800F00C00042817D07068C6
:1010500000F00C00082802D17068C0030FD4656846
:101060002DB1B5F5A02F10D0B5F5803F11D0306867
:1010700020F480303060306820F480200CE030684C
:10108000800323D5606808BB98E0306840F4802076
:101090003060306840F480303060FFF735FD002D5F
:1010A000054610D03068800310D4FFF72DFD401B9B
:1010B0006428F7D904E100BFFFF726FD401B642830
:1010C0004FF0030077D830688003F5D4207880078C
:1010D00018D5706810F00C0F07D0706800F00C0085
:1010E000082826D17068C00323D43068800702D551
:1010F0002069012862D13068616920F0F80040EA77
:10110000C1003060207800073DD5A06938B30020C9
:10111000C4F242200121C0F88014FFF7F5FC054617
:10112000706A80072DD4FFF7EFFC401B0228F7D927
:10113000C6E02069002840F20000C4F2422000F01E
:10114000968001210160FFF7DFFC054630688007CB
:10115000D1D4FFF7D9FC401B0228F7D9B0E000201A
:10116000C4F242200021C0F88014FFF7CDFC0546F0
:10117000706A800707D5FFF7C7FC401B0228F7D924
:101180009EE000F0FFFB207840071BD4E5698DB19D
:10119000706800F00C00082847D1012D0ED070684F
:1011A000216A00F480328A4208D1616A00F470102A
:1011B000884203D1002002B0BDE8F081012002B0D6
:1011C000BDE8F081F06910F0805808D1F06940F076
:1011D0008050F061F06900F080500190019847F272
:1011E0000007C4F200073868C00510D4386840F41E
:1011F00080703860FFF788FC054600BF3868C0057E
:1012000005D4FFF781FC401B6428F7D958E0E56856
:101210001DB1052D3CD0012D3ED0306A20F00100DB
:101220003062306A20F0040039E00027C4F242271F
:1012300000203866FFF768FC022D05460CD100BF80
:101240003068800154D5FFF75FFC401B02284FF047
:101250000300F5D9AFE700BF30688001AAD5FFF7DA
:1012600053FC401B02284FF00300F5D9A3E70021EF
:101270000160FFF749FC0546306880077FF542AF03
:10128000FFF742FC401B02284FF00300F4D992E71D
:10129000306A40F004003062306A40F00100306291
:1012A000FFF732FC002D054641F2883714D000BF0D
:1012B000306A800713D4FFF727FC401BB842F7D9E8
:1012C000032002B0BDE8F081FFF71EFC401BB842CE
:1012D0004FF003003FF66FAF306A8007F4D4B8F1E7
:1012E000000F7FF453AFF06920F08050F0614DE7BC
:1012F000206AB0F5803F05D17168A26821F4003101
:10130000114371607168626A21F4741110430843DB
:10131000706001203866FFF7F7FB044630688001F3
:101320003FF548AFFFF7F0FB001B02284FF003002A
:10133000F4D940E746F60040C4F2000050F821001E
:1013400080B2704790B246F60042C4F2000242F802
:1013500021007047B0B5002842D00446407C20B937
:1013600000202074204600F047F8022060742046D8
:1013700000F074F878BB204600F01AFB58BB2268D6
:10138000A068536846F62C41C4F2000123F007031D
:10139000536018B14A6822F001024A600A6822F4D8
:1013A0006072104308606068411C05D1012001256E
:1013B000FFF71AFCF0B1013821688A6822F00F02A9
:1013C00042EA10428A60CA6860F30F022046CA608F
:1013D00000F006FB30B10125042060742846B0BD42
:1013E0000120B0BD40F201100025A4F80D0001203D
:1013F000E573F2E70420F0E710B590B041F21C0469
:10140000C4F20204206840F080502060206800F0A0
:10141000805006900698FFF7E1FB206840F00060DE
:1014200020602068012400F00060069006980420E7
:10143000069000200D9006A80994FFF7F5FD4FF4E3
:101440008070019068460094FFF756FC40F23C40E3
:10145000C4F24220046010B010BD0000B0B5A8B1C5
:1014600004460068416821F008014160FFF74CFB29
:10147000054600BF20684068000709D4FFF744FB19
:10148000401BB0F57A7FF5D90320B0BD0120B0BD77
:101490000020B0BD80B500F0BDFA80BD70470000EF
:1014A00070470000002804BF0120704710B50446B3
:1014B00090F83D0028B9002084F83C00204600F058
:1014C0000DF8022084F83D002068211D00F01EFB6D
:1014D000012084F83D00002010BD0000704700008E
:1014E0000068C16841F00101C160816801F0070135
:1014F000062903D0016841F0010101600020704716
:101500007047000010B5044600680169890744BFB0
:10151000C1685FEA817138D420680169490744BF16
:10152000C1685FEA41713CD420680169090744BF82
:10153000C1685FEA017141D420680169C90644BFEE
:10154000C1685FEAC16145D420680169C9071CBF51
:10155000C1685FEAC1714AD120680169090644BFC8
:10156000C1685FEA016149D420680169490644BF46
:10157000C1685FEA416148D420680169890644BFB7
:10158000C1685FEA816147D410BD6FF0020101615B
:10159000012121778069800745D02046FFF7B0FF01
:1015A00047E06FF00401016102212177806910F4A6
:1015B000407F41D02046FFF7A3FF43E06FF00801D2
:1015C000016104212177C06980073ED02046FFF7E2
:1015D00097FF40E06FF01001016108212177C06999
:1015E00010F4407F3AD02046FFF78AFF3CE06FF0CE
:1015F00001010161204600F03FF8ADE76FF0800186
:1016000001612046FFF74AFFAEE76FF0400101613C
:10161000204600F05DF8AFE76FF020010161204641
:10162000FFF73EFF10BD204600F022F8204600F0F4
:1016300021F8002020776FE7204600F019F82046B7
:1016400000F018F8002020776EE7204600F010F830
:10165000204600F00FF8002020776DE7204600F0CC
:1016600007F8204600F006F8002020776CE700001D
:101670007047000070470000006841F20001C4F2AA
:101680000001884200D0704741F2CC40C2F2000015
:10169000016847F6D5020131C2F2E96201605143A7
:1016A00048F6371241F641104FEAF101C0F241020B
:1016B000C2F2000091424FF00101017088BF7047F3
:1016C00041F63010C2F2000001780131017070471C
:1016D00070470000002804BF0120704710B5044681
:1016E00090F8390028B9002084F83800204600F02E
:1016F00021F8242084F839002068C16821F40051C1
:10170000C160204600F06EFA2068016921F4904122
:101710000161416921F02A014161C16841F4005130
:10172000C16000202021E06384F8391084F83A1069
:1017300010BD0000B0B584B041F21800C4F2020040
:10174000016840F6000441F4804101600168C4F280
:10175000010401F480410091009901686D4641F057
:1017600004010160016801F0040100910099016821
:1017700041F0040101600068294600F00400009077
:1017800000984FF400700090022001900120029018
:10179000032003902046FFF7B7F84FF480600090D5
:1017A0000020019020462946FFF7AEF825200221AF
:1017B0000022FFF7FFF92520FFF7F8F904B0B0BDCC
:1017C000FEE70000F0B585B0002641F21800CDE933
:1017D0000366CDE90166C4F20200016841F200042B
:1017E00041F0100101600168C4F2010401F0100130
:1017F00000910099016801AD41F08001016000682D
:10180000012700F0800000900098022001902046FF
:1018100029460397FFF778F840F2144001A9C1C1A7
:1018200004F540602946FFF76FF805B0F0BD0000F1
:1018300010B50446A1F15000C0B2002100F060F8DC
:101840000234102040EA1410002100F059F804F08E
:101850000F00002100F054F810BD0000FEE700006A
:101860007047000000F0070080F00703042B28BF3A
:1018700004234FF0FF3C03380CFA03F338BF002079
:10188000994381400CFA00F022EA000008437047B7
:1018900080B541F2D440C2F200004FF48061FEF7FF
:1018A0006AFC00F029F880BD80B518B1012805D187
:1018B000A72000E0A620002100F022F8AF200021A0
:1018C00000F01EF880BD000010B5012809D00028E6
:1018D00018BF10BD8D20002100F012F8AF24142095
:1018E00001E0A024C020002100F00AF820460021D9
:1018F00000F006F810BD000080B502F07FF980BD51
:10190000F0B581B041F20045C4F2010505F540642F
:101910000A460646002920464FF0200118BF012242
:10192000FFF7ECF828464FF4007100220027FFF77C
:10193000E5F800BF28464FF400510022FFF7DEF81B
:10194000F0B2C20928464FF40061FFF7D7F82846E5
:101950004FF400510122FFF7D1F87600072F07F16D
:101960000107E7D328464FF400710122FFF7C6F8BC
:10197000204620210122FFF7C1F801B0F0BD000090
:101980007047000081B040F27800C2F200000068A9
:1019900044F6D351C1F26201A0FB0101480A009054
:1019A00000BF0098411E00280091F9D101B0704796
:1019B000B0B50446FFF7A8F8054600BF20684168A7
:1019C000890607D4FFF7A0F8401BB0F57A7FF5D958
:1019D0000320B0BD416841F0100141600020B0BD5E
:1019E000B0B504460068416821F010014160FFF77E
:1019F0008BF8054620684068800607D4FFF784F816
:101A0000401BB0F57A7FF5D90320B0BD0020B0BDF2
:101A100070470000B0B501380024B4EB106F1CBF54
:101A20000120B0BD4EF21005CEF2000568604FF007
:101A3000FF300F2100F0AAF90720AC602860204693
:101A4000B0BD000080B5FFF765F880BD70B590B0FF
:101A500001AC0025204628210F95CDE90D55CDE993
:101A60000B55FEF788FB012001904FF480300226D1
:101A7000CDE90205CDE908604FF4E0100A90204658
:101A8000FFF7D2FA08B100BFFEE70F20CDE90B0641
:101A90004FF480600E900BA802210D950F95FFF773
:101AA000AFF900B1FEE710B070BD000041F20000D8
:101AB000C4F202000168002241F0010101604168A6
:101AC000CFF6FF021140416001684FF6FF72CFF67A
:101AD000F66211400160016821F4802101604168D3
:101AE00021F4FE0141604FF41F0181604EF6085061
:101AF000CEF200004FF000610160704780B541F206
:101B00006040C2F20000FFF7FDFC80BD10B540F65A
:101B1000FF3E0368C4F2000E43F2004C7045C4F26D
:101B2000010C20DCB0F1804F2BD040F20042C4F217
:101B30000002904225D040F60002C4F2000290421A
:101B40001FD0704523DCB0F1804F2ED040F2004210
:101B5000C4F20002904228D040F60002C4F2000213
:101B6000904222D025E040F60042C4F200029042AA
:101B700007D0604505D042F60042C4F2010290420F
:101B8000DFD14A6823F0700313437045DBDD40F674
:101B90000042C4F20002904207D0604505D042F6F0
:101BA0000042C4F20102904203D1CA6823F4407398
:101BB000134323F080024B69D1F800E08C681A438C
:101BC00060450260C462C0F828E005D042F60042D9
:101BD000C4F20102904201D109690163012141610E
:101BE00010BD000010B504460068D4E902C22369A4
:101BF000016921F4405111430161616943EA0C021A
:101C00001143C26841F20C639A431143C1604169B8
:101C1000A26921F44071114343F60002C4F20102AB
:101C20009042416102D0FFF7ABF901E0FFF7BAF94A
:101C30006268192148439100B0FBF1F048F21F514E
:101C4000C5F2EB11A0FB01235A096FF0630302FBFD
:101C50000300322303EB0010A0FB0101F02303EA91
:101C60005113206803EB0212C1F343111144816048
:101C700010BD000041F2B010C2F20000006801681F
:101C8000890658BF70474168C9B24160704700007B
:101C9000FEE700002DE9F04F83B00C46111A05460F
:101CA000A3EB04008B460B4618BF4FF0FF3B48BF29
:101CB0004B4200290646C8BF4FF0010B002818BF51
:101CC0004FF0FF36029044BF474202970028C8BF3A
:101CD000012602984FF0000A8342C8BF18460190BF
:101CE00001304FF000094FF000080090E8B2E1B277
:101CF0001F4600F01BF83B4609EB07000299019FC5
:101D00005144B0EB0709D4BF81465D44B1EB070AEB
:101D1000D4BF8A46344408F10108009F1FFA88F0B6
:101D20008742E3D203B0BDE8F08F000041EA000231
:101D30003F2A88BF704701F0070201F0F80100EB6D
:101D4000C10041F2F011C2F200014FF0010C0B5C36
:101D50000CFA02F21A430A5470470000002848BFE8
:101D6000704700F01F01012202FA01F14EF2001249
:101D70004009CEF2000242F8201070474EF60C5097
:101D8000CEF200000068C0F3022070474EF61453F4
:101D900000F00F02CEF2000309011A4400F1604383
:101DA000B0F1FF3FC8BF03F56442117070470000F7
:101DB0004EF60C51CEF200010A684FF6FF031A40AE
:101DC00060F30A2242F0806040F0FD7008607047C6
:101DD00041F2A040C2F2000001780131CAB2B43A27
:101DE00018BF0A460270704780B541F2A840C2F29F
:101DF0000000807845F65861013846F2DD3242F243
:101E00002533C0B2C0F60001C0F60002C0F60003E0
:101E100002F052FB80BD000040F2800200EB400067
:101E2000C2F20002135A10440B8080788870704709
:101E300040F28000C2F2000000210182C0E90011DE
:101E4000C0E902117047000080B50A8840F28003A3
:101E500000EB4000C2F200031A52897818448170E6
:101E600001F0AAF880BD000080B501F0A5F880BDA2
:101E700070B541F61314C2F2000460782178451E53
:101E800041F20840C2F20000807981F0020180F046
:101E9000010029430843000608BF0C25EEB2657017
:101EA00001F050F8864288BF0546657070BD00009D
:101EB00070B582B041F61316C2F2000631780020E8
:101EC0004B1E0A2B8DF805003CD80B221520DFE8AD
:101ED00003F03C19474A06060606060606000539C1
:101EE0007078C1EBC102002802F1460006D045F629
:101EF000EE52C9B2C0F60002515C00E02D2105226D
:101F00008DF8041041F2A841C2F200010B78497823
:101F1000C5B2591A082303EBC101CCB228462146A9
:101F200000F086FF307800F0FE00022804D17278BD
:101F300012A101A803F03CF901A801212A46234679
:101F400000F088FF002002B070BD70786FF07F0154
:101F5000002808BF2E218DF8041005220720D1E7A4
:101F60000B222A20CEE770785021002808BF41219B
:101F70008DF8041005223820C4E700BF25303268F0
:101F80006875000070B541F61314C2F20004607861
:101F9000451CEEB2657000F0D5FF41F20841864263
:101FA00088BF00252078C2F20001897980F0020004
:101FB00081F0010128430843000608BF0125657030
:101FC00070BD000080B591F800C086460020BCF1CD
:101FD000400F38BF012040EA0E0001284FF00003F7
:101FE00018BF80BD8EF00102BCF1400F38BF012345
:101FF0001A401346BEF1000F18BF4FF0FF33BCF17B
:10200000380F98BF13460CEB03020A7080BD000026
:1020100040F27E00C2F200000178382988BF013901
:102020000170704741F2F430C2F20000007870474E
:1020300041F20040C2F200000078B0FA80F040099E
:102040007047000041F2F830C2F20000007870479B
:1020500080B541F20842C2F200029278D2B141F258
:10206000F432C2F20002012313706FF03F0241F21A
:10207000F833002918BF0022C2F200031A7041F29F
:10208000FC32C2F20002106041F20040C2F20000D5
:10209000017080BD002818BF804780BD10B541F297
:1020A000F430C2F200000178012932D141F200423D
:1020B00041F2F831C2F20002C2F2000113780A784C
:1020C0001BB1042A05D201230FE0FB2A05D9012305
:1020D00024E0082A05D2032307E0F72A1AD90323AC
:1020E0001CE00823102A38BF05231A44D3B2402B22
:1020F00001D30022027000780A7050B941F2FC341A
:10210000C2F200042068002808BF10BD80470020EC
:10211000206010BD0823EF2A88BF05231A44D3B2DC
:10212000092BE6D9E7E700002DE9F04141F29810CC
:10213000C2F200000121FFF7FDF841F2084880B229
:1021400041F23421C2F2000800268842C8F800603B
:10215000C8F8046040D140F20407C2F2000741F21F
:1021600098143968C2F200042046FFF7E3F8796852
:1021700088F800002046FFF7DDF8002818BF01208E
:10218000B96888F801002046FFF7D4F8002818BF86
:102190000120F96888F802002046FFF7CBF80028F4
:1021A00018BF0120396988F803002046FFF7C2F8FC
:1021B000002818BF0120B96988F80400204688F873
:1021C0000560FFF7B7F8F96988F806002046FFF7C1
:1021D000B1F888F807003FE041F29814C2F2000419
:1021E0002046012141F23422FFF7ACF840F2040509
:1021F000C2F2000541F280172968C2F200072046AA
:102200000022C7E90066BE60FE60FFF79BF86968C0
:102210007A882046FFF796F8A968BA882046FFF723
:1022200091F8E968FA882046FFF78CF829693A891D
:102230002046FFF787F869697A892046FFF782F818
:10224000A969BA892046FFF77DF8E969FA8920462D
:10225000FFF778F800F00AF898F800000D2824BF7E
:10226000002088F80000BDE8F081000080B541F250
:1022700008400121C2F20000C0F201114FF07F427C
:10228000C0E9001200F004F8FFF7D2FD80BD0000A5
:1022900070B541F20840C2F2000041F28015417869
:1022A000C2F20005C678698001798378EE802981C1
:1022B000417940F204060278AB808379C079C2F29A
:1022C000000641F2981469813168C2F20004E88185
:1022D00020462A80AB81FFF735F871686A8820466E
:1022E000FFF730F8B168AA882046FFF72BF8F168AD
:1022F000EA882046FFF726F831692A892046FFF749
:1023000021F871696A892046FFF71CF8B169AA892A
:102310002046FFF717F8F169EA892046FFF712F81F
:1023200070BD000080B541F2A840C2F20000006A12
:1023300018B1804701F082F880BD01F07FF801F00C
:102340007DF880BD80B50121FFF782FE80BD0000D1
:1023500080B50021FFF77CFE80BD000080B544F60B
:102360008D5043F2195144F6DD5243F21523C0F665
:102370000000C0F60001C0F60002C0F6000302F043
:1023800005F841F2A84044F63961C2F20000C0F6F7
:102390000001816180BD0000002130B100F0010228
:1023A000C0F3460000281144F8D1C8B270470000BD
:1023B00080B500F009F880BD41F21043C2F200037D
:1023C000986099619A62704780B5FFF7FBF980BD0C
:1023D00080B501F083FB41F25041C2F200010A785E
:1023E000821AD2B20A2A38BF80BD087001F04AFDB5
:1023F00080BD000080B502F033FE01F079FD0028B9
:1024000018BFFFF7E5FF00F03BF980BD80B5FEF790
:102410008FFBFFF71BFBFEF745FA41F2D440C2F2F7
:1024200000004FF48061FDF7A6FE01F013FC00F000
:1024300037FF01F067FDFFF777FEFFF7B9FF01F007
:1024400053FB02F0B3FD45F27D10C0F6000000F032
:1024500007F900F0FBF841F20840C2F200004078B2
:10246000FFF722FA80BD000041F2A840C2F200004E
:1024700041780278CB1D8A4238BF1146934298BFFB
:10248000911F41707047000041F2A840C2F2000065
:102490000021C0E90311C0E90511C16170470000C6
:1024A0002DE9F04F81B041F25140C2F2000090F8A6
:1024B000009041F2534041F25442C2F20000C2F295
:1024C0000002017892F800B019B341F25540C2F20F
:1024D000000001786FF00502002908BF0A225A4463
:1024E0004FFA82FBBBF1FF3F3ADC002200294FF09C
:1024F000000B08BF6FF07F0B29D041F25243C2F2AC
:1025000000031B78012B27D141F25643C2F200038E
:1025100021E041F25241C2F2000109786FF002025B
:10252000002918BF032291445FFA89F2202A17D3A9
:1025300021B1012101704FF0200911E041F2564014
:10254000C2F200004FF0000980F8009008E041F26C
:102550005343C2F200031A70B1FA81F149090170C4
:10256000C9F3C40841F2D44AB8F1000FC2F2000A1C
:1025700011D0AAF180040AF56075464680342046E1
:102580008021FDF7F8FD28468021FDF7F4FD013E8E
:10259000A5F18005F2D119F0070333D04FF0FF30D9
:1025A000FF21012280269840D9409A4026FA03F361
:1025B00040F2FF3609F0F805A6EBC816B6B20AEBF2
:1025C00005155644013D002415F8017F01340740EC
:1025D00017432F70377864B20F401F43B4F1FF3FA9
:1025E00006F80179F0DC41F25140C2F2000080F8B7
:1025F000009041F25440C2F2000080F800B001B0F7
:10260000BDE8F08F5FEA0960EDD06FF07F00C9F19F
:102610004002A0EB0B0002F0F802C0B2120142EA45
:1026200050005FFA8BF1504401225FFA89F4FDF704
:102630009BFD202CD7D00AEBC8107F21425C42F0D2
:102640000102425401394A1CF8D1CCE780B541F26D
:102650005C40C2F200000068002818BF804780BDBF
:1026600041F25C41C2F200010860704741F25843F8
:10267000C2F200031968024608461A60704700005B
:10268000B0B582B001F02AFA0446FFF707FD41F227
:102690005840C2F20000006841F25645C2F20005FF
:1026A00058B1297809B1804707E041F25241C2F29E
:1026B00000010978002908BF80472878012808BF51
:1026C000FFF7EEFE2878002808BFFFF7ABFC41F2C9
:1026D0000840C2F200004079A0B101F0FFF9001BF0
:1026E0000130C0B24FF47A71B1FBF0F20DF1030486
:1026F00006A1204602F05CFD20460021642238231A
:1027000000F0A8FB00F0A2FB02B0B0BD25750000F0
:102710004CF6CD41CCF6CC41A0FB0101C808704776
:1027200080B541F2A841C2F20001097802460320B7
:1027300000F0DAFD80BD000010B541F2A841C2F200
:102740000001C97851B10446FFF76CFC38B1FFF7BE
:102750006FFC1CB1002808BF10BDA04710BD002CA5
:1027600018BFA04710BD000080B545F23D10C0F66F
:102770000000FFF775FFFFF769FF012080BD000033
:1027800080B545F27D10C0F60000FFF769FFFFF746
:102790005DFF012080BD000010B584B000F060F93D
:1027A00002F004F8044600F047F941F2AC10C2F21E
:1027B0000000007840F27D01C2F20001002818BF3D
:1027C0000120FFF7FFFB78B14FF0000C082046F620
:1027D0005B72CDE9000CC0F600020020002110233E
:1027E000CDF808C000F06EFA40F27C01C2F20001A0
:1027F0000120FFF7E7FB78B14FF0000C082045F609
:10280000B852CDE9000CC0F60002142000210823C4
:10281000CDF808C000F056FA204604B010BD000004
:102820002DE9F04F83B0FFF7D3FA41F2A042C2F294
:10283000000241F294101278C2F2000000210160FF
:1028400002EB420140F2A002C2F2000241F648143B
:1028500002EBC101C2F200040239A21E082300BF2C
:1028600031F8037F013B11F8016C22F8037F02F875
:10287000016CF5D1082141F2901545F6F85641F664
:10288000601841F6621941F6611A41F6631B016056
:10289000C2F200050020C0F60006C2F20008C2F233
:1028A0000009C2F2000AC2F2000B2860010106EB27
:1028B00000107158406801EB410100EB4000625C80
:1028C0002144235C204449784078223A0139223B54
:1028D000471E88F8002089F800108AF80030D0B22E
:1028E000DAB2C9B2FBB28BF80070FFF7D3F92868EF
:1028F00006EB0010D0E9011001EB410100EB4000B4
:10290000625C2144235C204449784078223A0139B2
:10291000223B471E88F8002089F800108AF8003012
:10292000D0B2DAB2C9B2FBB28BF80070FFF7B2F9DD
:10293000286806EB0010D0E9021001EB410100EB22
:102940004000625C2144235C204449784078223A6C
:102950000139223B471E88F8002089F800108AF8C8
:102960000030D0B2DAB2C9B2FBB28BF80070FFF718
:1029700091F9286806EB00110001C968305801EB95
:10298000410100EB4000625C2144235C2044497813
:102990004078223A0139223B471E88F8002089F806
:1029A00000108AF80030D0B2DAB2C9B2FBB28BF8AC
:1029B0000070FFF76FF92968481C05292860FFF6A9
:1029C00075AF41F2F01400254020C2F20004CDE9B9
:1029D00000050020002122464023029500F072F9F4
:1029E00020464FF40071FDF7C6FB00F073F802F0CB
:1029F0005BF845F698520824C0F600023C200221FC
:102A00001023CDE90045029500F05CF9FFF700FBCB
:102A100040F27E00C2F20000017846F65B72C0F61A
:102A2000000200201023CDE90045029500F04AF98C
:102A3000002003B0BDE8F08F80B584B04FF0000CEB
:102A4000082045F6A852CDE9000CC0F6000200208F
:102A500038211023CDF808C000F034F904B080BD4F
:102A600070B58AB041F63015C2F20005287945F6F6
:102A7000D251C0F6000109AE01EB80013046FDF7EE
:102A80008CFBA87946F61741C0F6000101EB8001E6
:102A900008A8FDF782FB6B79EC790DF10E0500902B
:102AA00006A128463246019402F082FB2846002106
:102AB0000C22002300F0CEF90AB070BD257320254A
:102AC00030326868752025732032302530326868CE
:102AD00075000000F0B587B041F63017C2F200076C
:102AE000387945F6D251C0F6000106AD01EB800100
:102AF0002846FDF752FBB87946F61741C0F60001AB
:102B000005AE01EB80013046FDF747FB7B796C4653
:102B100016A120462A4602F04BFB204600215722F0
:102B20001E23002500F096F920463146FDF735FBBF
:102B300000213C22232300F08DF943F23200ADF84E
:102B4000000020460021402219238DF8025000F099
:102B500081F9FA7908A1204602F02AFB20460021DB
:102B600043220F2300F076F907B0F0BD257320252E
:102B700030326868750000002530326868750000E2
:102B80002DE9F04784B00646037A407AB77A00FB15
:102B900003F27568F17AC2F3C70404FB01527D1C8D
:102BA00096F800A096F80180EDB2022D1CD3757B3B
:102BB000D5B100290CBF96F80C90A1F10109391A82
:102BC0000439C9B200250090029150464146019552
:102BD00000F078F870685FFA89F104FB0102707AFE
:102BE000337ACDE9000502E00027CDE90007504621
:102BF0004146029700F066F804B0BDE8F087000097
:102C00002DE9F04784B00646037A407AB77A00FB94
:102C100003F27568F17AC2F3C70404FB01527D1C0C
:102C200096F800A096F80180EDB2022D1CD3757BBA
:102C3000D5B100290CBF96F80C90A1F10109391A01
:102C40000E39C9B2002500900291504641460195C7
:102C500000F038F870685FFA89F104FB0102707ABD
:102C6000337ACDE9000502E00027CDE900075046A0
:102C70004146029700F026F804B0BDE8F087000056
:102C8000B0B586B041F2A840C2F2000044684FF0EF
:102C90002030CDE90400CDE90200CDE90000204656
:102CA000FDF774FA6D46A5EB500009302146FDF79B
:102CB00074FA284600210022002300F0CBF806B069
:102CC000B0BD00002DE9F04F8BB0149F1C46934619
:102CD00088468146FFF7B6F90021B1EBD70F00F027
:102CE000A48016994044C2B20192411AFA08CDE973
:102CF000022101F007013844C2B2C1F108000023EB
:102D000008910690049207E0059B02980133049A0B
:102D10008342A34400F089800398169900EBC30016
:102D2000C5B2002900F108010991059310D0954220
:102D3000EAD80999019AC9B29142E5D34029E3D86A
:102D4000019AAA4207D9511BFF2202FA01F80BE0AF
:102D50004FF0FF0808E0049A914291BF4FF0FF083E
:102D6000891AFF2222FA01F8089900294FF47861A4
:102D700001EA00100A901FD13F2D1DD8002CC3D0AE
:102D8000002702E00137BC42BED007EB090040B289
:102D90000028F7D41599C6B20BEB070001F0AAF88A
:102DA0000A9941F2D4433144C2F200035A5C00EA6A
:102DB000080010435854E5E7002CA5D009994FF4BA
:102DC000786000EA01100027079002E00137BC425A
:102DD0009AD007EB090041B20029F7D415995FFAA0
:102DE00080FA0BEB070001F085F83F2D00EA0800A0
:102DF0000BD80A9941F2D4465144C2F20006089B0E
:102E0000725C00FA03F31A4372540999C9B23F295C
:102E1000DCD8079941F2D4465144C2F20006069B21
:102E2000725CD84010437054D0E70BB0BDE8F08F0F
:102E300080B501F0F80100EB011041F2D441C2F27B
:102E4000000108441146FDF796F980BD80B500F0F9
:102E5000D5FE80BD2DE9F04F83B09B460378CBB300
:102E600090460E46451C4FF00009002405E000BFC7
:102E700015F8013B09F1010963B3A3F12000C9EB87
:102E8000C90101EB080AC0B246F66B5100EB8000A5
:102E9000C0F600010A1808205FFA8AF7CDE900069B
:102EA0003846594605230294FFF70CFF002EDFD069
:102EB0005FEA0A6005D0AAF10100C0B2594601F0EC
:102EC00043FA7A2FD4D80AF10500C0B2594601F06E
:102ED0003BFACDE703B0BDE8F08F000010B541F636
:102EE0001310C2F200000024047043F2D13043F208
:102EF000195143F2617243F21523C0F60000C0F687
:102F00000001C0F60002C0F6000301F03FFA41F2F2
:102F1000A840C2F20000846110BD000041F2A84048
:102F2000C2F2000001788078C9430844B0FA80F00A
:102F30004009704710B50446017000F0CFFD607085
:102F400010BD000041F61310C2F200000078032803
:102F500004BF3B20704702281CBF0120704741F28C
:102F60000840C2F2000081791720012908BF0C2017
:102F70007047000041F61310C2F200000078411EB5
:102F8000062911D80120DFE801F004050F04111310
:102F90001500704741F64010C2F20000017817207A
:102FA000012908BF0C2070473B2070471F20704745
:102FB0000B207047632070472DE9F04F83B04FF22C
:102FC0005E3B4FF6FF78FF20052702ACCFF6FF7B74
:102FD000019003E03806A7F1010738D0F8B2214686
:102FE000FEF71AFF9DF90A00B0F1FF3FF2DC9DF8F1
:102FF00008509DF809605FFA80F94FF0070A5FFA00
:103000008AFA00BFBAF1000FE4D0AAF1010A29FA46
:103010000AF0C007F6D05FFA8AF22846314602F07D
:103020006BF840F6A2418842594638BF41F6BD21AF
:10303000084481B21FFA88F29142E0D241F2D141B4
:10304000C2F2000181F800A080460197D7E741F263
:10305000D0400199C2F20000017003B0BDE8F08FCA
:1030600080B541F2CC40C2F2000000684BF2C5319D
:10307000C9F2A211A0FB0112D10A4FF4616201FB57
:10308000120148F68900C8F68800A1FB000241F64B
:103090003010C2F200001423C3710823A0F80530D9
:1030A00041F23B73C0F22063C0F8013053091B01A9
:1030B000A3EB5212A1EB820241F20841C2F20001DD
:1030C0008979027001F0A6FF80BD000080B545F649
:1030D0005D7243F2213310A1C0F60002C0F6000376
:1030E000002001F0E9F946F25D5243F29D530CA134
:1030F000C0F60002C0F60003012001F0DDF946F23F
:10310000DD3243F6B50309A1C0F60002C0F60003A4
:10311000022001F0D1F980BD416C61726D73000035
:1031200053657474696E67730000000045786974B4
:103130000000000080B546F25D7243F2C16317A142
:10314000C0F60002C0F60003002001F0B5F946F217
:10315000DD5243F2F95314A1C0F60002C0F6000399
:10316000012001F0A9F946F2DD6243F2656310A186
:10317000C0F60002C0F60003022001F09DF946F2FD
:103180005D3243F279330CA1C0F60002C0F60003B1
:10319000032001F091F9FEF727FE80BD54696D65AB
:1031A0002026206461746500536C65657000000022
:1031B000536F756E64000000446973706C61790030
:1031C00010B582B0052820D8044641F61310C2F28B
:1031D0000000007888B141F2A840C2F200000078F7
:1031E000A0420AD141F2F030C2F20000817800889A
:1031F0008DF80610ADF8040003E001A92046FEF7A3
:103200000BFE01A9204601F099FAFEF7EDFD02B090
:1032100010BD000080B501F0A5FA01F0B5FA41F645
:103220001010C2F20000007846F6507246F6567151
:10323000C0F60002C0F6000143F62573002818BF4F
:103240001146C0F600030520002201F035F9FEF713
:10325000CBFD80BD80B501F047F9FEF7C5FD80BD0F
:1032600080B501F053F9FEF7BFFD80BD80B501F0D8
:103270008BF9FEF7B9FD80BD38B1012818BF704742
:1032800041F2A140C2F2000003E041F2A340C2F2C9
:10329000000080B5FFF74EFEBDE88040704700009B
:1032A00080B586B00020CDE90400CDE9020041F2EE
:1032B0001800C4F20200016841F0100101600068CA
:1032C00002A900F01000019001984FF40050029004
:1032D0000120CDE90300059041F20000C4F2010095
:1032E000FDF712FB06B080BD80B541F6D503C2F2F2
:1032F0000003187041F6D600C2F20000017041F2DE
:10330000A840C2F20000C36941F6D400C2F2000036
:10331000002B027008BF80BD0846984780BD0000A2
:1033200080B512A20620002101F03EF843F661307C
:1033300043F2015143F6F55243F2C113C0F60000C7
:10334000C0F60001C0F60002C0F6000301F01EF84E
:1033500041F6E80043F22131C2F20000C0F600015C
:1033600001F08EF90020FEF7F3FF80BD3C20414CB8
:1033700041524D53203E000080B512A2052001218C
:1033800001F012F843F6613043F2795143F6F552F9
:1033900043F26D23C0F60000C0F60001C0F6000243
:1033A000C0F6000300F0F2FF41F6081043F2793155
:1033B000C2F20000C0F6000101F062F90020FEF741
:1033C000C7FF80BD3C20444953504C4159203E002A
:1033D00080B500F0C5FB41F2A840C2F200000078C1
:1033E000042808D8012101FA00F010F0150F08BFD9
:1033F00080BD00F0B5FB80BD10B582B041F2A840A1
:10340000C2F20000007890B941F20840C2F2000018
:10341000007801AC00EB8000C2B206A1204601F0AA
:10342000C7FE2046002138222823FFF713FD002085
:1034300002B010BD256868755300000080B543F2E6
:103440004D40C0F60000FEF77DFF80BD80B543F61D
:10345000E500C0F60000FFF709F943F6C92043F67E
:10346000952143F6D102C0F60000C0F60001C0F677
:103470000002FEF7A1FF12A20220012100F094FF3A
:1034800043F6613043F2D14143F6F55243F2CD03A6
:10349000C0F60000C0F60001C0F60002C0F600034E
:1034A00000F074FF41F6D80043F24D41C2F2000033
:1034B000C0F6000101F0E4F80020FEF749FF80BDEE
:1034C0003C204D41494E204D454E55203E000000C8
:1034D00080B541F6D800C2F2000001F0BBF801202F
:1034E000FFF71EF980BD000080B541F6E000C2F292
:1034F000000001F0AFF80120FFF712F980BD0000D5
:1035000080B541F6E800C2F2000001F0A3F8FFF731
:1035100005FDFFF705F980BD80B541F6F000C2F268
:10352000000001F097F8FFF7F9FCFFF7F9F880BD0C
:1035300010B5FFF7F3FC0028044618BFFEF7A8FEFD
:1035400041F6F800C2F2000001F084F82046FFF7CF
:10355000E7F810BD10B5FFF7E1FC0028044618BFDE
:10356000FEF796FE41F60010C2F2000001F072F87C
:103570002046FFF7D5F810BD80B5FFF7CFFC002837
:1035800018BFFEF785FE41F60810C2F2000001F0F8
:1035900061F8FFF7C3FCFFF7C3F880BD80B512A246
:1035A0000520012100F000FF43F6613043F2E941BC
:1035B00043F6F55243F23513C0F60000C0F60001A1
:1035C000C0F60002C0F6000300F0E0FE41F6E000A5
:1035D00043F29D51C2F20000C0F6000101F050F824
:1035E0000020FEF7B5FE80BD3C2053455454494EA3
:1035F0004753203E0000000080B517A202200121A1
:1036000000F0D2FE43F6613043F2315143F6F552F9
:1036100043F25523C0F60000C0F60001C0F60002D8
:10362000C0F6000300F0B2FE41F2A84043F2F931C7
:10363000C2F20000C0F60001816141F6F80043F2D9
:10364000F951C2F20000C0F6000101F019F80020A3
:10365000FEF77EFE80BD00BF3C20534C4545502008
:103660003E00000080B513A20320012100F09CFE63
:1036700043F6613043F2555143F6F55243F261236C
:10368000C0F60000C0F60001C0F60002C0F600035C
:1036900000F07CFE00F03AFF41F6001043F2656155
:1036A000C2F20000C0F6000100F0EAFF0020FEF7C1
:1036B0004FFE80BD3C20534F554E44203E0000003D
:1036C00080B541F63010C2F200000168406841F652
:1036D0003812C2F20002C2E9001041F20840C2F200
:1036E0000000807941F64011C2F20001087041F6F5
:1036F0001010C2F200000021017015A20620002166
:1037000000F052FE43F2D13043F2195143F261729C
:1037100043F21523C0F60000C0F60001C0F6000217
:10372000C0F6000300F032FE41F6F00043F2C16142
:10373000C2F20000C0F6000100F0A2FF41F2A84072
:10374000C2F20000012101700020FEF701FE80BDE1
:103750003C2054494D4520262044415445203E00FC
:1037600080B500F047FB41F2A840C2F200000078AB
:10377000042808D8012101FA00F010F0150F08BF45
:1037800080BD00F037FB80BDFEF740FEFEF732FE45
:10379000FCE7000070B582B00C4609780546202091
:1037A0008DF806108DF8070001A80021002601F011
:1037B00031FC63789DF806209DF807C0681C10A1B5
:1037C000CDF800C001F0F4FC94F902006FF07F0125
:1037D000B0F1FF3FC8BF2E21297045F6EE5105F12B
:1037E0000900C0F600012E74A278F240D20714BF7F
:1037F0008A5D2D2282550136072EF5D102B070BDAB
:10380000202530326868753A25303268687525633E
:103810002000000070B582B041F63816C2F20006F2
:103820000446B07946F61741C0F6000101AD01EB40
:1038300080012846FCF7B1FC7279F67903A1204695
:103840002B46009601F0B4FC02B070BD202020256C
:103850003032686875202573203230253032686830
:103860007500000080B582B041F63811C2F2000147
:1038700091F801C08B7891F803E00C2206A1BEF10B
:10388000200F08BF1822CDF800C0CDF804E001F0E9
:103890008FFC02B080BD00BF2020202568687568BD
:1038A00072202530326868753A253032686875258F
:1038B0006300000080B5FEF7E7FD41F2A840C2F2C8
:1038C00000000021C1700162FEF7C0FE80BD000053
:1038D00080B541F2A840C2F200004069FEF72CFF1B
:1038E000012080BD10B541F2A844C2F20004207A44
:1038F00010B100F011F802E000F092F80020A16988
:10390000002908BF10BD00281CBF012010BD88473A
:10391000002818BF012010BD2DE9F04184B041F20C
:10392000A845C2F20005287841F20842C2F200021E
:10393000A0EB80004021927801EB001140F294004E
:10394000C2F20000BAB10268914217DD8B1ADF178C
:1039500003EB9773012707EB9303DFB2102F28BF08
:103960001023DBB21A444FF000089142C4BF4FF05D
:103970000108114617E04FF0000814E04FF000086E
:1039800012DA531ADF1703EB9773012707EB930340
:10399000DFB2102F28BF1023DBB2D21A9142BCBF76
:1039A0004FF00108114601600668FFF769F946F615
:1039B0006B4200270824C0F600022E200E2124238B
:1039C000CDE900470297FFF77DF946F64742C0F67A
:1039D00000022E202A212423CDE900470297FFF779
:1039E00071F9A87898B1103E002706E00137A87851
:1039F000F9B2814206F1300609D206F11F009E2875
:103A0000F4D8F9B2F2B20020FFF76EFCEEE72978A5
:103A100001200022FFF768FC404604B0BDE8F081B9
:103A20002DE9F04F81B0FFF72BF941F2A849C2F21E
:103A3000000999F8020099F80160072828BF0720BB
:103A400030445FFA80FB5E451ED24FF0080A0FF249
:103A50004008374609E000BFE2B202202946FFF7DE
:103A600043FC0137F8B258450ED299F80010B81B44
:103A7000FDB28D420AEBC004EED1E3B24046002114
:103A80000022FFF7E7F9E7E701B0BDE8F08F00BFDC
:103A90003E00000080B5FEF7C5FA10B1FEF7C8FA87
:103AA00048B141F2A840C2F20000C17829B10069D2
:103AB000002818BF8047012080BD0121C170FFF799
:103AC000BDFC012080BD000080B541F2A840C2F2DB
:103AD0000000C068FEF730FE012080BD41F2CC40FE
:103AE000C2F200000068704710B582B041F21C00BD
:103AF000C4F20200016841F2604441F0100101602B
:103B00000068C2F2000400F010000190019841F238
:103B10000000C4F200004721002240F2E73384E8AD
:103B20000F008020A06120462261FDF7BBFC3620FB
:103B300001210022FDF73EF83620FDF737F8204638
:103B4000FDF7CEFC02B010BD4CF6CD41CCF6CC4119
:103B5000A0FB0112D10801EB8101A0EB41007047ED
:103B600080B541F2A840C2F20000017882780131AC
:103B7000CBB2934228BF00210170FEF775FC80BDD7
:103B8000B0B584B00024CDE90244CDE9004400F092
:103B9000FBF80120CDE90104032041F20044039029
:103BA0004FF48050C4F201046D460090A4F54060CB
:103BB0002946FCF7A9FE4FF4005000902046294604
:103BC000FCF7A2FE4FF40060009020462946FCF767
:103BD0009BFE2020009004F540602946FCF794FEEF
:103BE0004FF40070009020462946FCF78DFE04B08B
:103BF000B0BD000080B5FCF773FE80BD70B541F22A
:103C0000D4450024C2F20005A4F15000C0B2002146
:103C1000FDF776FE02200021FDF772FE1020002144
:103C2000FDF76EFE4FF0FF36A81940780121FDF731
:103C300067FE01367F2EF7D10134082C05F180058F
:103C4000E2D141F2D440C2F200004FF48061FCF7AF
:103C500092FA70BD10B5FFF793FF40F60004C4F26E
:103C6000010420464FF480510122FCF747FF6420F5
:103C7000FFF7C0FF20464FF480510022FCF73EFFC3
:103C8000C820FFF7B7FF20464FF480510122FCF710
:103C900035FFAE200021FDF733FE02200021FDF7A5
:103CA0002FFE10200021FDF72BFE40200021FDF704
:103CB00027FE81200021FDF723FECF200021FDF704
:103CC0001FFEA1200021FDF71BFEC8200021FDF7EB
:103CD00017FEA6200021FDF713FEA8200021FDF706
:103CE0000FFE3F200021FDF70BFED3200021FDF742
:103CF00007FE00200021FDF703FED5200021FDF77F
:103D0000FFFD80200021FDF7FBFDD9200021FDF7FC
:103D1000F7FDF1200021FDF7F3FDDA200021FDF78A
:103D2000EFFD12200021FDF7EBFDDB200021FDF768
:103D3000E7FD40200021FDF7E3FD20200021FDF7F5
:103D4000DFFD02200021FDF7DBFD8D200021FDF7C6
:103D5000D7FD14200021FDF7D3FDA4200021FDF79D
:103D6000CFFDA6200021FDF7CBFDAF200021FDF700
:103D7000C7FDAF200021FDF7C3FDFDF789FD002041
:103D80000021FDF755FD10BD81B041F21800C4F2CD
:103D90000200016841F020010160016801F020018A
:103DA00000910099016841F020010160016801F073
:103DB000200100910099016841F00401016001684F
:103DC00001F0040100910099016841F480710160E3
:103DD000016801F4807100910099016841F02001AF
:103DE0000160006800F020000090009801B070476A
:103DF0000078704780B541F2A840C2F20000027816
:103E00008178013AD3B28B42027024BF013901702C
:103E1000FEF72AFB80BD000010B5044640794FEA4A
:103E200040006071B1B101203221FF22FFF724FA76
:103E3000607940F001006071FEF7AEFA042808D303
:103E4000207920B9FFF74AFE206001202071A07977
:103E500048B110BDC0B2FEF79FFA04289EBF0020F3
:103E60002071A07110BDA0680028F2D08047002802
:103E700008BF10BD0120A07101203221FF22FFF7F1
:103E8000FBF910BD70B582B041F60044C4F20104E4
:103E900020460421FCF72CFE8DF80400A4F54060B8
:103EA0000221FCF725FE8DF8050020464FF48061C5
:103EB000FCF71EFE8DF8060020461021FCF718FEC8
:103EC0008DF8070041F21040C2F2000000F130040A
:103ED000032501AE705DB0FA80F041092046FFF77E
:103EE0009BFF013D681CA4F11004F3D102B070BD2A
:103EF0000120704710B50C46FFF77AFF6142484039
:103F0000C0B210BD80B541F2981042F60001C2F275
:103F10000000C4F200014FF0FF32C0E90012FDF7CB
:103F200019FA80BD10B541F64010C2F200000078C9
:103F300041F20841C2F200018871FEF7A9F941F689
:103F40003814C2F20004204601F04EF841F6301059
:103F5000C2F2000001684068C4E9001041F6101088
:103F6000C2F200000121017010BD00002DE9F043F4
:103F700083B041F6716043F2015141F6857243F21C
:103F8000C113C0F60000C0F60001C0F60002C0F682
:103F9000000300F0FBF941F61318C2F2000898F88C
:103FA000000041F2A84941F6B161C2F20009C0F631
:103FB00000010B28C9F8181048D8DFE800F09EB1BE
:103FC00050DF810606060606060641F61112C2F209
:103FD000000241F2F0361378C2F2000698F80110A0
:103FE0000125B7789D4047EA0504002903F1010146
:103FF00008BF27EA05041170E2B2C9B222FA01F142
:1040000001F001010B28B47088F8011021D199F852
:10401000000041F2F031C2F20001FDF715FF43F656
:10402000613043F2015143F6F55243F2C1130024CB
:10403000C0F60000C0F60001C0F60002C0F60003A2
:1040400088F8004000F0A2F9C9F8184003B0BDE8B4
:10405000F083013088F8000003B0BDE8F08341F23E
:104060000840C2F20000827998F801101720012A56
:1040700008BF0C20814298BF0846012A12D18DF852
:10408000060041F61210C2F200000078502100280C
:1040900008BF41218DF8071001A8002100F0BAFFE8
:1040A0009DF8060041F2F031C2F200010870497833
:1040B000032088F8000088F8011003B0BDE8F08301
:1040C00041F2F034C2F20004207850218DF8020051
:1040D00098F80100002808BF41218DF803106846B8
:1040E000002100F097FF9DF80200A17820700520C4
:1040F00088F8000001F001000DE041F2F03499F879
:104100000000C2F200042146FDF786FEA1780120DE
:1041100088F80000C80988F8010003B0BDE8F08302
:1041200098F8010041F2F034C2F20004002818BFF0
:104130000120A178227801F07F0141EAC01041F20C
:104140000841A0700220C2F2000188F8000020207F
:1041500089798DF80B0002A88DF80A2000F05AFF2B
:104160009DF80A00002188F8010020780B2841F60C
:10417000121088BF0121C2F2000021E041F2084084
:10418000C2F20000827998F8011041F2F030C2F2D8
:104190000000012A417006D141F61210C2F200005F
:1041A0000421007803E08078052100F0010088F800
:1041B000001088F8010041F61110C2F20000002141
:1041C000017003B0BDE8F083B0B5FEF7C7F841F663
:1041D0001314C2F200042078062809D0052817D04D
:1041E00020BB41F63811C2F20001497905201AE0DE
:1041F00041F63815C2F200056078E979A87100F03F
:10420000DFFE6979814288BF6871E97907200AE099
:10421000607841F63811C2F20001002808BF012081
:1042200048718979062020706170B0BD607841F6D0
:104230003814C2F200046279A179E07100F072FED4
:104240002071FEF74BFEB0BDB0B5FEF787F841F622
:104250001315C2F20005287803282DD8DFE800F0F6
:1042600002360B1641F64011C2F200010978012016
:1042700028706970B0BD41F638116878C2F200014B
:104280004A78887003206A702870B0BD41F64010EB
:10429000C2F200000278697841F63810C2F20000DC
:1042A000012A417024D1C07804214138B0FA80F04D
:1042B000400929706870B0BD68784121002841F636
:1042C000381008BF5021C2F2000012E0697841F6B0
:1042D000401041F63814C2F20000C2F2000401702E
:1042E000204600F097FEA078687002202870B0BDCC
:1042F0002021C170FEF7F2FDB0BD000041F2084080
:10430000C2F20000817881F00101817070470000E5
:1043100010B541F20840C2F20000C1798A0940316B
:10432000C17145F60F71D000C0F2FF01D41E18BF55
:1043300021FA00F481200021FDF7E2FAE0B2002129
:10434000FDF7DEFA10BD000001F0F80100EB0110EE
:1043500041F2D441C2F20001FF220A54704700002A
:1043600080B541F20841C2F20001487880F00100B6
:104370004870FDF799FA80BD41F20840C2F2000092
:10438000017981F0010101717047000041F2A84CF0
:10439000C2F2000CCCF80C00CCF81010CCF81420B1
:1043A000CCF81C307047000070B514460D46064628
:1043B000FEF76AF841F2A840C2F200000021018035
:1043C000711C81700572446070BD000070B584B0CE
:1043D000144641F6D602C2F200021278824263D13C
:1043E00041F6D500C2F20000007803285CD8DFE86F
:1043F00000F0023D424E41F6D406C2F2000630788B
:10440000FCF739F80021C4F2C021FBF7CFFEFCF71E
:1044100037F848F21F55C5F2EB1541F6B863C3F6FD
:10442000F9732A46FBF7A7FF41F6B863C3F6E973B1
:104430002A46FBF7F9FEFCF736F84FF0FF41054638
:10444000FCF70BF890BB46F2DD223078C0F6000294
:1044500000262021002C18BF2246CDE9001610218D
:1044600020230296FEF72EFC04B070BD0846002102
:104470000022382307E041F6D400C2F2000003789E
:10448000084600210622FEF7E5FC04B070BD5BB1D2
:1044900041F6D400C2F20000007820B11846FDF7C2
:1044A00051FF04B070BD984704B070BD2846FBF7BB
:1044B000E7FF01F081FBC6E7F0B587B0154641F68E
:1044C000D602C2F20002127882420BD101AF064638
:1044D00038461C46FBF761FE304639462A462346DD
:1044E000FFF774FF07B0F0BD80B546F25D6244F29D
:1044F000B16304A1C0F60002C0F600030020FFF77C
:10450000DBFF80BD54696D656F757400B0B541F215
:104510000844C2F20004E07946F2DD7500F00300C1
:10452000C0F6000544F2197305EBC01210A1C0F6E5
:1045300000030020FFF7C0FFE07944F2D96300F0E8
:104540000C0005EB40120BA1C0F600030120FFF7A1
:10455000B3FFE07944F2F96300F0300005EBC002EC
:1045600006A1C0F600030220FFF7A6FFB0BD00BF02
:1045700055490000416C61726D730000486F75729F
:10458000206265657073000010B541F20844C2F204
:104590000004E07946F2DD0100F0C000C0F6000141
:1045A00044F2113301EB40021EA1C0F600030020CB
:1045B000FFF782FF46F25D4244F261331CA1C0F670
:1045C0000002C0F600030120FFF776FF46F2DD424D
:1045D00044F2996318A1C0F60002C0F6000302205D
:1045E000FFF76AFFA07845F6DD71C0F6000144F2DE
:1045F000FD2301EBC01212A1C0F600030320FFF758
:104600005BFF207945F65D61C0F6000144F2793325
:1046100001EBC0120DA1C0F600030420FFF74CFF10
:1046200010BD00BF4272696768746E6573730000E5
:10463000496E766572740000526F74617465000093
:10464000416E696D6174696F6E7300004C4544730F
:104650000000000010B50446FEF760FC40B10020E9
:104660002070606841F2A841C2F20001086210BDEA
:1046700041F2A840C2F200000078207010BD000096
:1046800041F2A842C2F20002136A8B4218BF436093
:10469000007811621070704780B541F20841C2F293
:1046A0000001C87880F00100C870FDF70DF980BDE9
:1046B00041F20840C2F2000001780131CAB20C2A6E
:1046C00088BF0021017070470130C1B2032988BF43
:1046D0000020C0B270470000B0B541F20844C2F2F9
:1046E0000004E579C5F38100FFF7EEFF05F0F30163
:1046F00060F38301E171B0BDB0B541F20844C2F28C
:104700000004E579C5F30110FFF7DEFF05F0CF01E6
:1047100060F30511E171B0BDB0B541F20844C2F2D9
:104720000004E57905F00300FFF7CEFF00F0030079
:1047300005F0FC010844E071B0BD0000B0B586B0E2
:104740000DF1070504462846FFF724F843F66D737C
:10475000C0F60003204629460022FFF737FE06B0C8
:10476000B0BD000010B586B00DF106042046FFF77D
:1047700051F844F2C913C0F600030120214600227B
:10478000FFF724FE06B010BD10B586B00DF107048A
:104790002046FFF767F844F24923C0F600030320E0
:1047A00021460022FFF712FE06B010BD2DE9F04FA2
:1047B00089B041F20840C2F20000807841F6291524
:1047C00041F6301741F61B1841F6191B41F627191F
:1047D0000028C2F20005C2F20007C2F20008C2F2CD
:1047E000000BC2F2000900F09E8041F6251AC2F2C9
:1047F000000A38789AF8001088425ED0002089F8C4
:1048000000002870B87801218BF80010FDF780FFB8
:1048100041F6151BC2F2000B9BF800100446084637
:10482000FDF776FF211A18BF0121B87888F800102B
:10483000FFF78AF99BF8001004460846FFF784F951
:10484000211A18BF0121787888F80110FDF760FF60
:1048500041F61716C2F20006317804460846FDF705
:1048600057FF211A18BF0121787888F80210FFF746
:104870006BF9317804460846FFF766F9211A18BF2C
:104880000121387888F80310FDF742FF9AF80010EC
:1048900004460846FDF73CFF201A18BF0120B978EE
:1048A00088F8040038787A788BF8001041F6191BE4
:1048B000C2F2000B32708AF800009BF80000012859
:1048C0003BD199F80000042801D2012109E0072812
:1048D00006D3112801D2052103E0172880F0E080DB
:1048E0000321084489F8000099F800001C2824BF1F
:1048F000FF2089F800002878022805D30E2801D26D
:10490000032102E0142802D80121084428702878E5
:10491000142824BFFF202870287815280DD399F873
:1049200000001D2809D3002089F8000028708BF8AA
:104930000000C8F8000088F8040041F66840ADF8AF
:10494000140046F68F40C0F60000069041F20B00BE
:10495000ADF81C00297838788DF81E10FDF7D8FEC8
:104960008DF81F0098F8040005AC05258DF821008E
:1049700020468DF82050FEF703F9387874218DF821
:104980001410FFF7E1F88DF81F009BF800000926CE
:104990008DF8210020468DF82060FEF7F1F841F6F1
:1049A0001300ADF81C0046F6DD10C0F6000099F8C3
:1049B0000010069078788DF81E1041F23C41ADF859
:1049C0001410FDF7A5FE8DF81F0098F802008DF871
:1049D00020508DF821002046FEF7D2F87878532138
:1049E0008DF81410FFF7B0F88DF81F0098F8030049
:1049F0008DF820608DF821002046FEF7C1F8B878C8
:104A000001218DF81410FDF783FE8DF81F0098F832
:104A100000008DF820508DF821002046FEF7B0F8F8
:104A2000B87818258DF81450FFF78EF88DF81F0010
:104A300098F801008DF820608DF821002046FEF7DF
:104A40009FF841F2CC40C2F20000006844F6D35116
:104A5000C1F26201A0FB011291094FF47A7201FBCD
:104A60001200B0F5FA7F0CD945F6C0520027C0F607
:104A70000002312014210623CDE900570297FEF7EA
:104A800021F95020ADF812000DF11200002168222A
:104A90001423FEF7DFF99BF8000009B0BDE8F08FA2
:104AA0001C287FF612AF1FE72DE9F04F85B041F2C9
:104AB0000840C2F20000807841F62A1741F630180B
:104AC00041F6201B41F61A1541F628190028C2F2BA
:104AD0000007C2F20008C2F2000BC2F20005C2F2E7
:104AE000000976D041F6261AC2F2000A98F80000B2
:104AF0009AF80010884263D0002089F800003870CE
:104B000098F8020001212970FDF702FE41F6161205
:104B1000C2F200021178044608461646FDF7F8FD79
:104B2000211A18BF012198F802008BF80010FFF736
:104B30000BF8317804460846FFF706F8211A18BF2B
:104B4000012198F801008BF80110FDF7E1FD41F615
:104B50001816C2F20006317804460846FDF7D8FD63
:104B6000211A18BF012198F801008BF80210FEF7F6
:104B7000EBFF317804460846FEF7E6FF211A18BF1E
:104B8000012198F800008BF80310FDF7C1FD9AF899
:104B9000001004460846FDF7BBFD201A18BF01208F
:104BA0008BF8040098F8000098F8021098F801209B
:104BB00041F61613C2F20003197032708AF8000031
:104BC0002878012844D199F8000004280BD201214B
:104BD00013E0002089F8000038702870CBF800003E
:104BE0008BF8040034E0072806D3112801D20521F0
:104BF00003E0172880F0C6800321084489F80000EC
:104C000099F80000262824BFFF2089F80000387892
:104C1000022805D30E2801D2032102E01E2802D863
:104C200001210844387038781E2824BFFF203870CE
:104C300038781F280CD399F80000272808D30020C3
:104C400089F8000038702870CBF800008BF8040059
:104C500043F23210ADF8040046F68F40C0F6000073
:104C6000029041F20B00ADF80C00397898F8000082
:104C70008DF80E10FDF74CFD8DF80F009BF8040029
:104C800001AC05278DF8110020468DF81070FDF756
:104C9000B7FF98F8000041218DF80410FEF754FF8B
:104CA0008DF80F00287809268DF8110020468DF820
:104CB0001060FDF7A5FF41F61300ADF80C0046F6B5
:104CC000DD10C0F6000099F80010029098F801007D
:104CD0008DF80E1042F65001ADF80410FDF718FDE6
:104CE0008DF80F009BF802008DF810708DF8110000
:104CF0002046FDF785FF98F801006E258DF80450D9
:104D0000FEF722FF8DF80F009BF803008DF810606E
:104D10008DF811002046FDF773FF98F802004FF45C
:104D2000A871ADF80410FDF7F3FC8DF80F009BF8A7
:104D300000008DF810708DF811002046FDF760FF1F
:104D400098F802008DF80450FEF7FEFE8DF80F0073
:104D50009BF801008DF810608DF811002046FDF7DA
:104D60004FFF98F8030000218DF8020000208DF815
:104D700003000DF1020068221423FEF76BF805B062
:104D8000BDE8F08F26287FF622AF39E710B541F64F
:104D90001314C2F2000460780138010660700FD16C
:104DA0002078022808D141F64011C2F200010978AA
:104DB000012901D10C2002E0052801D11F206070DB
:104DC000FEF7D8F86178814288BF607041F6101014
:104DD000C2F200000021017010BD000070B541F664
:104DE0001314C2F200046078451CEEB26570FEF741
:104DF000C1F8864288BF00252806657015D141F6A6
:104E00004011C2F200012078097880F0020281F09E
:104E1000010111430538B1FA81F1B0FA80F0490976
:104E2000400908431CBF0120607041F61010C2F217
:104E300000000021017070BD70B582B041F61316FC
:104E4000C2F2000630780138062864D80E221024F9
:104E50001C25DFE800F004080C101B1418001C22AD
:104E600020241B2512E00E2220243F250EE00E22D6
:104E7000202454250AE00E222024622506E0112277
:104E80001024312502E00E2210245B2528462146FD
:104E9000FDF7CEFF307801280FD0042822D0062855
:104EA0002CD1707846F61741C0F6000101EB800165
:104EB0000DF10300FBF771F926E07078312100282D
:104EC0004FF0320008BF322108BF34208DF80400B3
:104ED00047F26820ADF8050000208DF803108DF82A
:104EE000070011E07078412100284FF0000008BF52
:104EF00050218DF803108DF8040005E0727807A1A9
:104F00000DF1030000F054F90DF1030001212A46D0
:104F10002346FDF79FFF002002B070BD25303268A8
:104F200068750000B0B50131C9B2172301FB03FC5D
:104F300048F63963C3F6E303ACFB033C00F5FA6EB5
:104F400047F6E12303297146CAF6146338BF00F21D
:104F5000CF7181FB033448F21F53C5F2EB13A1FB61
:104F6000033528BF00F1CE0E0EEB02004FEA5C02C3
:104F7000631103EBD47302EB91011944C0B201EB4E
:104F8000D511084442F293410430C9F2492180FB13
:104F9000011211188A1002EBD171A1EBC101084472
:104FA000411E000608BF0621C8B2B0BD80B500F0A2
:104FB0009DF880BD00F00300B0FA80F04009704712
:104FC00010B506A2145C012805D10846FFF7F2FFD0
:104FD000002818BF1D24204610BD00BF1F1C1F1E27
:104FE0001F1E1F1F1E1F1E1F80B50168426841F64D
:104FF0003010C2F20000C0E9001241F20841C2F2D2
:10500000000189790022027000F004F8FCF72CFFFF
:1050100080BD00008278C378012909D1202B18BFF8
:1050200070470C2A10D318BF0C3A5021134613E0D6
:105030000C2A08BF412B0DD0502B134608BF0C3350
:105040000C2A28BF134606E0002A08BF0C22412183
:10505000134601E000232021C170837070470000D7
:10506000F0B581B041F64110C2F200000178D9B329
:1050700041F63016C2F20006327800213C2A017057
:1050800032D1707831700130C1B23C2970702BD1AF
:10509000B07800270130C1B218297770B07023D1E1
:1050A000B579F47928462146FFF78AFF71790130F6
:1050B0000131CAB29042B770717103D1681CB071EE
:1050C00001207071B0790D2807D10120B071601CEA
:1050D000C1B2643918BF0146F17130790130C1B2F3
:1050E000073918BF0146317101B0F0BD80B5FDF739
:1050F000B7FF002080BD0000C0EB001001EB800076
:105100004FF4B46102FB010080B2704780B545F2F4
:105110003D10C0F60000FDF7A3FAFDF797FA012055
:1051200080BD000080B545F27D10C0F60000FDF79F
:1051300097FAFDF78BFA012080BD000080B541F29F
:105140000840C2F200000021417142F62100C0F681
:105150000000FDF78BFA45F2251043F6952142F247
:105160008172C0F60000C0F60001C0F60002FDF733
:1051700023F900200021FCF76BFF80BD80B542F2CF
:105180009970C0F60000FDF771FA45F20D1043F674
:10519000952142F26972C0F60000C0F60001C0F627
:1051A0000002FDF709F900200021FCF751FF80BD46
:1051B0000FB4084B10B504A902AA039800F056FBDF
:1051C000044602A9002000F0F2FC204610BC5DF865
:1051D00014FB0000AF5B0008490050EAC12018BF73
:1051E00004204A0D18BF40F0010040F2FF72B2EBFC
:1051F000515F08BF40F00200012808BF052070473A
:105200002DE9F74F144694B00021C4E90211159915
:10521000079121F00045C9498D4206DC1599C4E982
:10522000000117B00020BDE8F08FC549DFF814A3D6
:10523000A9423CDD0799C44E0029C44FC44A1599C0
:10524000534619DDFBF791F8554506D0C14AC24BCC
:10525000FBF78BF8C4E900010AE04FF0D352BE4BD4
:10526000FBF783F832463B46FBF77FF8C4E90001C1
:1052700017B00120BDE8F08FFAF7D6FF554506D0EC
:10528000B44AB54BFAF7D0FFC4E900010AE04FF089
:10529000D352B14BFAF7C8FF32463B46FAF7C4FF88
:1052A000C4E9000117B04FF0FF30BDE8F08FAB4903
:1052B000A942159978DB21F0004183468846A84A27
:1052C000A84BFBF758F80022A74BFAF7ADFFFBF706
:1052D00098FA0990FBF777FA06460F469C4A534620
:1052E000FBF749F843465A46FBF742F880468A46A0
:1052F000984A994B30463946FBF73DF82A0D01256F
:105300000B9242465346FBF733F8032DC4E90001E4
:1053100039D00B98C1F30A51401A05EB45111139E8
:10532000814230DA9148C346784400EB0510CDF84D
:105330000CA00C90D0E9002330463946FBF71BF84F
:1053400002460B460491069058460399FBF70DF868
:1053500080468A4602460B4658460399FBF705F8F5
:10536000049B069AFBF701F883460C980391394693
:10537000D0E902233046FAF7FEFF5A46039BFAF7BC
:10538000F4FF6D1CBDE707980028A2BF099817B06D
:10539000BDE8F08F616881F000416160099817B045
:1053A0004042BDE8F08FFFE784461598C1F3130132
:1053B000C0F30A50A0F2F5304FEA601800F01F0663
:1053C000C6F12000139000200690079041F4801E43
:1053D00005206D4676B1664A08EB00017A4452F822
:1053E000213002EB8101B3404A68139922FA01F19E
:1053F000194305E05F4908EB0002794451F8221097
:10540000A1FB0E27A1FB0C131A449A4234BF0123BF
:10541000002303EB070A05EB8003D3E901B70F4430
:105420008F4234BF0121002193448B4411B1934535
:1054300002D903E0934501D2012100E00021C3E934
:1054400001B7514445F82010011EA0F10100C1DC54
:105450000298059F00F10050800F12900298DDE93C
:1054600003568000FBF7AFF9834628460D91FBF702
:10547000BBF96FF01D02FBF78FF9CDE90E01304645
:10548000FBF7B2F96FF03D02FBF786F980468A46DA
:105490003846FBF7A9F96FF05D02FBF77DF9074687
:1054A000424653461191FAF7BFFEDDE90E23FAF7A3
:1054B000BBFE5A460D9BFAF7B7FE00250E465A462C
:1054C00028460D9BFAF751FFDDE90E23FAF74DFF51
:1054D00042465346FAF749FF3A46119BFAF748FF0E
:1054E000DFF898A0244A5346FAF745FF0746884656
:1054F000234A244B31462846FAF73DFF3A464346B5
:10550000FAF792FE074688464FF0A84253463146C6
:105510002846FAF730FF3A464346FAF785FE159AD1
:1055200012F0004F04D0129A81F0004152421292C0
:10553000C4E90001129817B0BDE8F08FFB21E93FE4
:105540007CD90240FB21F93F7370032E8A19A33BDB
:10555000000040543163621A61B4D03DFB213941EF
:1055600083C8C96D305FE43F0000E03F5C09000084
:10557000D8080000BA080000182D4454FB21F93D5A
:105580003326A611460B113C2DE9FF4D21F00048B2
:1055900007460C46B8F1795F08DAFBF732F90028C4
:1055A00001BF0020324904B0BDE8F08D3A462346E1
:1055B00010461946FAF7DFFE054602462D480E460C
:1055C0000B460621784400F05DF82A463346FAF788
:1055D000D2FEDDE9022382468B4638462146FAF7A1
:1055E000CAFE04460F4652465B4628463146FAF745
:1055F000C2FE22463B46FAF7B8FE07468A464FF0FF
:10560000FF3228463146FBF7C7F81B4A90450ADAB5
:105610003A465346FAF7A9FE04B00022BDE8F04D21
:10562000134BFAF7A5BE154A4245A8BFA8F50015C9
:105630004FF00004B8BF124D22462B46FAF795FEF4
:105640000646884622462B4600200949FAF78DFE79
:1056500004460D463A46534630464146FAF785FE23
:1056600004B022462B46BDE8F04DFAF781BE00009B
:105670000000F03F900600003333D33F0000E93FC5
:105680000000D23F2DE9F0414F1E00EBC701044658
:10569000D1E9000115461E4637F006020DD02A4614
:1056A0003346FAF768FE7F1E04EBC703D3E90023F5
:1056B000FAF7BAFD37F00602F1D1022F25D0042FF8
:1056C00013D0062F18BFBDE8F0812A463346FAF7FB
:1056D00052FED4E90A23FAF7A7FD2A463346FAF721
:1056E0004AFED4E90823FAF79FFD2A463346FAF723
:1056F00042FED4E90623FAF797FD2A463346FAF725
:105700003AFED4E90423FAF78FFD2A463346FAF726
:1057100032FED4E90223FAF787FD2A463346FAF728
:105720002AFED4E90023BDE8F041FAF77DBD000070
:105730002DE9FF4D054621F0004084B00C46B0F144
:10574000795F0BDA2846FFF747FD042808BF00F011
:105750006FF8284608B02146BDE8F08D2A460B4672
:105760001046FAF708FE06460F462A462346FAF781
:1057700002FE804626488A4632463B46052178444A
:10578000FFF780FF83461098029160B3214A224BB5
:1057900040465146FAF7EFFDCDE900015A46404632
:1057A0005146029BFAF7E7FD82468846DDE906018D
:1057B0004FF0FF32FAF7F0FF52464346FAF7D5FDB5
:1057C00032463B46FAF7D7FDDDE90623FAF7CDFD71
:1057D000DDE90023FAF7C9FD08B02A462346BDE8F3
:1057E000F04DFAF7C5BD0B465A4630463946FAF732
:1057F000C2FD084A084BFAF717FD42465346FAF72E
:10580000BAFD08B02A462346BDE8F04DFAF70CBDB4
:10581000D6050000495555555555C5BF0122FAF723
:10582000BBBF0022134610461146FAF723BF000003
:10583000024A00201107FAF7AFBF000001FDFFFF89
:1058400002E008C8121F08C1002AFAD17047704749
:10585000002001E001C1121F002AFBD170470000A7
:105860000149086070470000000000202DE9FF4F4B
:105870008BB088460546002606E025280BD0DDE9DA
:105880000D1290476D1C761C28780028F5D10FB0BA
:105890003046BDE8F08F0024A146A2460122AE4961
:1058A00000E0044315F8013F203B02FA03F00842F0
:1058B000F7D128782A2810D06FF02F022878A0F18D
:1058C0003001092915D809EB890102EB410144F0A7
:1058D000020400EB01096D1CF0E758F8041B5FEAB5
:1058E000010903D544F40054C9F1000944F002044D
:1058F0006D1C28782E2817D115F8010F44F00404E8
:105900002A280ED06FF02F022878A0F13001092943
:105910000AD80AEB8A0102EB410100EB010A6D1C77
:10592000F2E758F804AB6D1C28786C280FD006DC21
:105930004C2817D068280DD06A2814D104E07428A8
:1059400010D07A280FD10DE044F400140AE044F49A
:10595000801401E044F440146978814202D104F5D6
:1059600080146D1C6D1C2878692865D006DC002821
:105970008DD0632827D0642806D15DE06E2808D03A
:1059800073282AD0752877D0DDE90D129047761C50
:10599000E0E0C4F30250022809D003280DD0D8F863
:1059A000001004280DD00E6008F10408D2E0D8F8E9
:1059B0000010F217C1E90062F6E7D8F800100E8077
:1059C000F2E70E70F0E718F8041B8DF800100020C5
:1059D0008DF80100EB46012003E058F804BB4FF0BE
:1059E000FF3061074FF0000701D40AE07F1C5745E4
:1059F0000DDA8742FADB1BF807100029F6D106E022
:105A00007F1C8742FCDB1BF807100029F8D1DDE979
:105A10000D23A9EB07008146214600F0B1F8304480
:105A2000C61904E0DDE90D121BF8010B90477F1E3B
:105A3000F8D22146484688E058F8040BC4F30251D6
:105A40004FF00A0B032900D100B2042900D140B263
:105A5000002802DA40422D2102E0210505D52B2144
:105A60008DF82410012104E006E0E10710D0202188
:105A7000F6E708AF089113E058F8040BC4F302519D
:105A80004FF00A0B032900D180B2042900D1C0B223
:105A90000021EEE75946FAF722FD303107F8011DE3
:105AA0000028F7D1ADEB070000F1200B600702D50D
:105AB00024F4803401E04FF0010ADA4502DDAAEB5C
:105AC0000B0000E00020824600EB0B010898014427
:105AD000A9EB01000A90E00306D4DDE90D2321467D
