:020000040800F2
:1000000088090020450100082D110008F91000089A
:1000100029110008F1010008E114000800000000A7
:100020000000000000000000000000006112000855
:100030002D02000800000000D111000895120008F0
:100040005F0100085F0100085F0100085F01000810
:100050005F0100085F0100085F0100085F01000800
:100060005F0100085F0100085F0100085F010008F0
:100070005F0100085F0100085F0100085F010008E0
:100080005F0100085F0100085F0100085F010008D0
:100090005F0100085F0100085F0100085F010008C0
:1000A0005F0100085F0100085F0100085F010008B0
:1000B0005F0100085F0100085F0100085F010008A0
:1000C0005F0100085F0100085F0100085F01000890
:1000D0005F010008C51400085F0100085F01000807
:1000E0005F0100085F0100085F0100085F01000870
:1000F0005F0100085F0100085F0100085F01000860
:100100005F0100085F0100085F0100085F0100084F
:100110005F0100085F0100084D1300085F0100083F
:100120005F0100085F0100085F0100085F0100082F
:10013000DFF80CD000F04AF8004800470D20000816
:10014000880900200648804706480047FEE7FEE78A
:10015000FEE7FEE7FEE7FEE7FEE7FEE7FEE7FEE777
:10016000FD12000831010008D2B201E000F8012BB5
:10017000491EFBD270470022F6E710B513460A4627
:1001800004461946FFF7F0FF204610BD034611F85C
:10019000012B00F8012B002AF9D11846704730B521
:1001A0000B46014600202022012409E021FA02F535
:1001B0009D4205D303FA02F5491B04FA02F52844CF
:1001C000151EA2F10102F1DC30BD0000064C074D06
:1001D00006E0E06840F0010394E807009847103417
:1001E000AC42F6D3FFF7A8FFBC2F0008DC2F0008B5
:1001F000FEE7000010B540F2B40443F60000C2F27E
:100200000004C4F201004FF4E13100220C2384E821
:1002100007002046C4E90322C4E9053200F0F6FED7
:100220002068C16841F02001C16010BD7047000026
:10023000B0B5044600F00AF9054640F28A00C2F261
:1002400000000078611C18BF044400BF00F0FEF8F5
:10025000401BA042FAD3B0BD2DE9F04F83B00C682B
:10026000002C00F0EA80A0F18042A2F5843240F236
:10027000004E4FEAB22241F60047C4F2010E00924E
:10028000C4F20107062200254FF001094FF0000BD0
:100290004FF0000AB84208BF0522019209E000BFF2
:1002A0000C680BF1010B34FA0BF205F1040500F0B8
:1002B000C48009FA0BF814EA080CF1D04C684FF628
:1002C000FF72C1F21002944210DC122C50D8DFE809
:1002D00004F0330A41454F4F4F4F4F4F4F4F4F4F51
:1002E0004F4F4F484C00D1F80CA041E04FF6FF7241
:1002F000C1F2210294420FDC0022C1F211029442A9
:100300001AD00022C1F21202944215D00022C1F28A
:100310002102944210D02BE00022C1F2220294422A
:100320000AD00022C1F23102944205D00022C1F26B
:10033000320294421CD100BF8C6844B1012C14BF1E
:10034000C0F81480C0F810804FF0080A10E04FF099
:10035000040A0DE0CC6804F1080A09E04FF0000A35
:1003600006E0CC6804F1040A02E0CC6804F10C0A4F
:100370002C460746BCF5807F24BF203C04373A68F2
:100380000F2303FA04F6B2430AFA04F422433A6054
:10039000CA79D2067FF584AF41F21804C4F2020490
:1003A00022684FF6084842F0010222602268CFF628
:1003B000FF7802F001020292029A2BF003027244CB
:1003C00052F8084005F00C0603FA06F7009BBC4300
:1003D000019F052B38BF1F4607FA06F6344342F843
:1003E00008404C68E203DEF8002054BF22EA0C0704
:1003F00042EA0C07A203CEF80070DEF8042054BFD6
:1004000022EA0C0742EA0C07E202CEF80470DEF89A
:10041000082054BF22EA0C0742EA0C07A20240F26D
:100420000C44CEF80870C4F20104226854BF22EADA
:100430000C0242EA0C02226032E703B0BDE8F08F02
:10044000002A08BF090401617047000040F2805093
:10045000C2F200000068704740F28A0040F280510A
:10046000C2F20000C2F2000100780A68104408607D
:100470007047000080B542F20000C4F2020001683B
:1004800041F010010160032000F046F80F2000F059
:1004900005F800F02BF8002080BD0000B0B540F258
:1004A0008A02C2F2000240F274011278C2F2000124
:1004B0004FF47A730968B3FBF2F20446B1FBF2F130
:1004C000084600F089FC0F2C4FF001050CD858B9F4
:1004D0004FF0FF3021460022002500F00DF840F2D9
:1004E0008C00C2F2000004602846B0BD70470000D6
:1004F00080B500F0F7FF80BD70B514460D46064686
:1005000001F000F82946224600F012FE014630466E
:1005100001F000F870BD000080B501F00DF880BD5D
:100520002020C4F20E2001210160704780B5411ED9
:100530000F294FF0000043D8DFE801F00B344208E8
:1005400042424208424242424242424300F0DEF905
:1005500080BD41F20400C4F20200C16940F20232DF
:100560000A40B2F5817F04BF4FF4004080BD01F422
:100570004071B1F5407F0DD0B1F5007F51D1026AD5
:10058000920744BF49F6404080BDB1F5407F1CBF93
:10059000002080BD50F8040C4FF22441800301EA92
:1005A000E07080BD00F0A0F941F20401C4F2020144
:1005B00009680222C1F3813102EB4101B0FBF1F085
:1005C00080BD41F20401C4F202010A6851F8040C32
:1005D000C0015CBF002080BDC2F3834012A3185C41
:1005E000D20305D440F60012C0F23D0250430BE0A6
:1005F0000A6811A3C2F340429A5C41F20023C0F2A0
:100600007A03B3FBF2F250430968490248BF80BD48
:100610004AF6AB214000CAF6AA21A0FB0101480816
:1006200080BD002080BD00BF020304050607080945
:100630000A0B0C0D0E0F1010010200002DE9F04105
:1006400082B00446007841F21C06C007C4F20206DC
:100650004AD0306810F0805808D1306840F080509F
:100660003060306800F080500190019847F2000738
:10067000C4F200073868C00512D4386840F48070AE
:100680003860FFF7E3FE05463868C00508D4FFF779
:10069000DDFE401B6428F7D9032002B0BDE8F081DD
:1006A000706810F4407012D0616801F440718842A3
:1006B0000DD0706840F24042C4F24222012320F47F
:1006C000407113600023C0071360716029D1706806
:1006D000616820F440700843B8F1000F706003D1E6
:1006E000306820F0805030602068810707D556F8C8
:1006F000181CA26821F44041114346F8181CC0069A
:1007000003D4002002B0BDE8F08156F8180C6169EE
:1007100020F48000084346F8180C002002B0BDE821
:10072000F081FFF793FE054641F288377068800735
:10073000CDD4FFF78BFE401BB8424FF00300F5D934
:10074000ECE700002DE9F04381B0002800F089803B
:1007500042F20008C4F202080446D8F800000D4630
:1007600000F0070088420CD2D8F8000020F0070003
:100770002843C8F80000D8F8000000F00700A8429D
:100780006FD1206841F204098107C4F2020917D52C
:10079000410705D5D9F8001041F4E061C9F800100F
:1007A000010705D5D9F8001041F46051C9F80010CF
:1007B000D9F80010A26821F0F0011143C9F8001027
:1007C000C00745D1D8F8000000F00700A8420CD9B6
:1007D000D8F8000020F007002843C8F80000D8F837
:1007E000000000F00700A8423BD12068410707D570
:1007F000D9F80010E26821F4E0611143C9F8001053
:10080000000708D5D9F80000216920F4605040EABB
:10081000C100C9F8000000F079F8D9F8001042F6DC
:100820001822C1F30311C0F60002515C40F27402B9
:1008300020FA01F140F28C00C2F200000068C2F21E
:1008400000021160FFF72AFE002001B0BDE8F0832E
:100850006068022809D0012829D159F8041C8903AD
:1008600007D4012001B0BDE8F08359F8041C8901C8
:10087000F7D5D9F8001021F003010843C9F80000AA
:10088000FFF7E4FD064641F2883700BFD9F80000C3
:10089000616800F00C00B0EB810F93D0FFF7D6FD3C
:1008A000801BB842F2D9032001B0BDE8F08359F8AB
:1008B000041C8907D5D5DCE740F27400C2F20000C1
:1008C0000068704780B5FFF7F7FF41F20401C4F2FA
:1008D0000201096842F62822C1F30221C0F6000293
:1008E000515CC84080BD000080B5FFF7E5FF41F2D4
:1008F0000401C4F20201096842F62822C1F3C221B0
:10090000C0F60002515CC84080BD000041F2040CFA
:10091000C4F2020CDCF8003003F00C00082841F2AD
:100920000020C0F27A0018BF7047C3F383420AA1C7
:100930008A5CD90305D440F60010C0F23D00504354
:100940007047DCF8001008A3C1F34041595C5043E4
:10095000B0FBF1F0704700BF020304050607080969
:100960000A0B0C0D0E0F1010010200002DE9F041D2
:1009700082B0002800F0C4800446007841F20006EE
:10098000C007C4F2020643D0706800F00C000428CF
:1009900017D0706800F00C00082802D17068C003FE
:1009A0000FD465682DB1B5F5A02F10D0B5F5803FF7
:1009B00011D0306820F480303060306820F480201E
:1009C0000CE03068800323D5606808BB98E030688D
:1009D00040F480203060306840F480303060FFF7B1
:1009E00035FD002D054610D03068800310D4FFF788
:1009F0002DFD401B6428F7D904E100BFFFF726FD59
:100A0000401B64284FF0030077D830688003F5D48A
:100A10002078800718D5706810F00C0F07D0706828
:100A200000F00C00082826D17068C00323D4306879
:100A3000800702D52069012862D13068616920F001
:100A4000F80040EAC1003060207800073DD5A06979
:100A500038B30020C4F242200121C0F88014FFF70F
:100A6000F5FC0546706A80072DD4FFF7EFFC401BAC
:100A70000228F7D9C6E02069002840F20000C4F23D
:100A8000422000F0968001210160FFF7DFFC05465F
:100A900030688007D1D4FFF7D9FC401B0228F7D972
:100AA000B0E00020C4F242200021C0F88014FFF71B
:100AB000CDFC0546706A800707D5FFF7C7FC401BD1
:100AC0000228F7D99EE000F085FB207840071BD470
:100AD000E5698DB1706800F00C00082847D1012D40
:100AE0000ED07068216A00F480328A4208D1616AAF
:100AF00000F47010884203D1002002B0BDE8F081FC
:100B0000012002B0BDE8F081F06910F0805808D1F2
:100B1000F06940F08050F061F06900F08050019081
:100B2000019847F20007C4F200073868C00510D4E6
:100B3000386840F480703860FFF788FC054600BFD5
:100B40003868C00505D4FFF781FC401B6428F7D93D
:100B500058E0E5681DB1052D3CD0012D3ED0306A2E
:100B600020F001003062306A20F0040039E00027F4
:100B7000C4F2422700203866FFF768FC022D0546C4
:100B80000CD100BF3068800154D5FFF75FFC401BDB
:100B900002284FF00300F5D9AFE700BF30688001AD
:100BA000AAD5FFF753FC401B02284FF00300F5D9EC
:100BB000A3E700210160FFF749FC05463068800784
:100BC0007FF542AFFFF742FC401B02284FF00300C5
:100BD000F4D992E7306A40F004003062306A40F0A5
:100BE00001003062FFF732FC002D054641F28837E4
:100BF00014D000BF306A800713D4FFF727FC401BD6
:100C0000B842F7D9032002B0BDE8F081FFF71EFC1F
:100C1000401BB8424FF003003FF66FAF306A8007C9
:100C2000F4D4B8F1000F7FF453AFF06920F0805096
:100C3000F0614DE7206AB0F5803F05D17168A26888
:100C400021F40031114371607168626A21F47411FA
:100C500010430843706001203866FFF7F7FB044635
:100C6000306880013FF548AFFFF7F0FB001B02281A
:100C70004FF00300F4D940E746F60040C4F200000C
:100C800050F8210080B2704790B246F60042C4F29C
:100C9000000242F821007047B0B5002842D0044657
:100CA000407C20B900202074204600F047F8022044
:100CB0006074204600F074F878BB204600F0A0FA7B
:100CC00058BB2268A068536846F62C41C4F2000164
:100CD00023F00703536018B14A6822F001024A600A
:100CE0000A6822F46072104308606068411C05D1F4
:100CF00001200125FFF71AFCF0B1013821688A684C
:100D000022F00F0242EA10428A60CA6860F30F02C2
:100D10002046CA6000F08CFA30B1012504206074CE
:100D20002846B0BD0120B0BD40F201100025A4F856
:100D30000D000120E573F2E70420F0E710B590B054
:100D400041F21C04C4F20204206840F0805020608C
:100D5000206800F0805006900698FFF7E1FB2068BD
:100D600040F0006020602068012400F000600690E0
:100D700006980420069000200D9006A80994FFF71D
:100D8000F5FD4FF48070019068460094FFF756FC23
:100D900040F23C40C4F24220046010B010BD00009C
:100DA000B0B5A8B104460068416821F0080141606F
:100DB000FFF74CFB054600BF20684068000709D4D8
:100DC000FFF744FB401BB0F57A7FF5D90320B0BD97
:100DD0000120B0BD0020B0BD80B500F043FA80BD59
:100DE0007047000070470000002804BF01207047D2
:100DF00010B5044690F83D0028B9002084F83C0066
:100E0000204600F00DF8022084F83D002068211DE6
:100E100000F0A4FA012084F83D00002010BD00007D
:100E2000704700000068C16841F00101C16081683D
:100E300001F00701062903D0016841F001010160BA
:100E4000002070477047000010B504460068016933
:100E5000890744BFC1685FEA817138D4206801699D
:100E6000490744BFC1685FEA41713CD42068016909
:100E7000090744BFC1685FEA017141D42068016974
:100E8000C90644BFC1685FEAC16145D420680169F1
:100E9000C9071CBFC1685FEAC1714AD120680169F6
:100EA000090644BFC1685FEA016149D4206801694D
:100EB000490644BFC1685FEA416148D420680169BE
:100EC000890644BFC1685FEA816147D410BD6FF0F5
:100ED00002010161012121778069800745D0204608
:100EE000FFF7B0FF47E06FF00401016102212177B5
:100EF000806910F4407F41D02046FFF7A3FF43E014
:100F00006FF00801016104212177C06980073ED09C
:100F10002046FFF797FF40E06FF0100101610821C4
:100F20002177C06910F4407F3AD02046FFF78AFF4E
:100F30003CE06FF001010161204600F03FF8ADE7B1
:100F40006FF0800101612046FFF74AFFAEE76FF0C6
:100F500040010161204600F057F8AFE76FF0200133
:100F600001612046FFF73EFF10BD204600F022F849
:100F7000204600F021F8002020776FE7204600F09F
:100F800019F8204600F018F8002020776EE7204678
:100F900000F010F8204600F00FF8002020776DE7F1
:100FA000204600F007F8204600F006F800202077E1
:100FB0006CE700007047000070470000006841F2D5
:100FC0000001C4F20001884200D0704740F2601076
:100FD000C2F20000016847F6D5020131C2F2E962AF
:100FE0004A4348F637134FEAF202C0F241039A42ED
:100FF000016088BF704740F27850C2F2000001786B
:10100000013101707047000070470000002804BFE4
:101010000120704710B5044690F8390028B9002027
:1010200084F83800204600F021F8242084F83900A4
:101030002068C16821F40051C160204600F0FAF92F
:101040002068016921F490410161416921F02A0180
:101050004161C16841F40051C16000202021E0637A
:1010600084F8391084F83A1010BD0000B0B584B08F
:1010700041F21800C4F20200016840F6000441F495
:10108000804101600168C4F2010401F480410091D3
:10109000009901686D4641F004010160016801F0AA
:1010A000040100910099016841F0040101600068A9
:1010B000294600F00400009000984FF40070009062
:1010C0000220019001200290032003902046FFF7A8
:1010D000C3F84FF48060009000200190204629461C
:1010E000FFF7BAF8252002210022FFF705FA252094
:1010F000FFF7FEF904B0B0BDFEE7000010B50446EE
:101100006FF04F0000EBD100C0B2002100F036F8C4
:1011100020091030002100F031F804F00E000130F9
:10112000002100F02BF810BDFEE700007047000022
:1011300000F0070080F00703042B28BF04234FF0C2
:10114000FF3C03380CFA03F338BF00209943814079
:101150000CFA00F022EA00000843704780B518B18D
:10116000012805D1A72000E0A620002100F006F804
:10117000AF20002100F002F880BD000070B50446E9
:1011800040F60005481EC4F20105B0FA80F042099D
:1011900028461021FFF754F9284620210022FFF7A6
:1011A0004FF90726E0B2C20928468021FFF748F927
:1011B000284620210122FFF743F92846202100225A
:1011C000FFF73EF964003006A6F10106EAD170BDD2
:1011D0007047000081B040F27400C2F20000006865
:1011E00044F6D351C1F26201A0FB0101480A00900C
:1011F00000BF0098411E00280091F9D101B070474E
:10120000B0B50446FFF722F9054600BF20684168E3
:10121000890607D4FFF71AF9401BB0F57A7FF5D994
:101220000320B0BD416841F0100141600020B0BD15
:10123000B0B504460068416821F010014160FFF735
:1012400005F9054620684068800607D4FFF7FEF8D8
:10125000401BB0F57A7FF5D90320B0BD0020B0BDAA
:1012600070470000B0B501380024B4EB106F1CBF0C
:101270000120B0BD4EF21005CEF2000568604FF0BF
:10128000FF300F2100F046F90720AC6028602046AF
:10129000B0BD000080B5FFF7DFF880BD70B590B03D
:1012A00001AC0025204628210F95CDE90D55CDE94B
:1012B0000B55FEF760FF012001904FF480300226AD
:1012C000CDE90205CDE908604FF4E0100A90204610
:1012D000FFF74CFB08B100BFFEE70F20CDE90B067E
:1012E0004FF480600E900BA802210D950F95FFF72B
:1012F00029FA00B1FEE710B070BD000041F2000015
:10130000C4F202000168002241F00101016041685D
:10131000CFF6FF021140416001684FF6FF72CFF631
:10132000F66211400160016821F48021016041688A
:1013300021F4FE0141604FF41F0181604EF6085018
:10134000CEF200004FF000610160704780B540F2BE
:101350002010C2F20000FFF777FD80BD10B540F607
:10136000FF3E0368C4F2000E43F2004C7045C4F225
:10137000010C20DCB0F1804F2BD040F20042C4F2CF
:101380000002904225D040F60002C4F200029042D2
:101390001FD0704523DCB0F1804F2ED040F20042C8
:1013A000C4F20002904228D040F60002C4F20002CB
:1013B000904222D025E040F60042C4F20002904262
:1013C00007D0604505D042F60042C4F201029042C7
:1013D000DFD14A6823F0700313437045DBDD40F62C
:1013E0000042C4F20002904207D0604505D042F6A8
:1013F0000042C4F20102904203D1CA6823F4407350
:10140000134323F080024B69D1F800E08C681A4343
:1014100060450260C462C0F828E005D042F6004290
:10142000C4F20102904201D10969016301214161C5
:1014300010BD000010B504460068D4E902C223695B
:10144000016921F4405111430161616943EA0C02D1
:101450001143C26841F20C639A431143C160416970
:10146000A26921F44071114343F60002C4F2010263
:101470009042416102D0FFF725FA01E0FFF734FA0C
:101480006268192148439100B0FBF1F048F21F5106
:10149000C5F2EB11A0FB01235A096FF0630302FBB5
:1014A0000300322303EB0010A0FB0101F02303EA49
:1014B0005113206803EB0212C1F343111144816000
:1014C00010BD000040F2B400C2F2000000680168E4
:1014D000890658BF70474168C9B241607047000033
:1014E000FEE70000002848BF704700F01F010122FE
:1014F00002FA01F14EF200124009CEF2000242F867
:10150000201070474EF60C50CEF200000068C0F379
:10151000022070474EF6145300F00F02CEF2000383
:1015200009011A4400F16043B0F1FF3FC8BF03F561
:1015300064421170704700004EF60C51CEF200016B
:101540000A684FF6FF031A4060F30A2242F08060F7
:1015500040F0FD700860704740F2780200EB4000F8
:10156000C2F20002135A10440B80807888707047D2
:1015700080B500F0AFFC80BD40F27800C2F2000000
:1015800000210182C0E90011C0E90211704700008A
:1015900040F2F400C2F200000078704740F2F80018
:1015A000C2F200000078704780B540F2F402C2F247
:1015B0000002012313706FF03F0240F2F80300298C
:1015C00018BF0022C2F200031A7040F2FC02C2F2FD
:1015D0000002106040F20012C2F2000200281170F6
:1015E00018BF804780BD000010B540F2F400C2F281
:1015F00000000178012932D140F2001240F2F801D6
:10160000C2F20002C2F2000113780A781BB1042A68
:1016100005D201230FE0FB2A05D9012324E0082A83
:1016200005D2032307E0F72A1AD903231CE0082375
:10163000102A38BF05231A44D3B2402B01D300220D
:10164000027000780A7050B940F2FC04C2F2000443
:101650002068002808BF10BD80470020206010BD12
:101660000823EF2A88BF05231A44D3B2092BE6D9F1
:10167000E7E700002DE9F04140F2A000C2F20000CF
:101680000121FFF7F9FA40F2081880B241F2342143
:10169000C2F2000800258842C8F80050C8F804507B
:1016A00047D140F20006C2F2000640F2A0043168C1
:1016B000C2F200042046FFF7DFFA716888F80000E4
:1016C0002046FFF7D9FA002818BF0120B16888F832
:1016D00001002046FFF7D0FA002818BF0120F1686A
:1016E00088F802002046FFF7C7FA002818BF01203B
:1016F000316988F803002046FFF7BEFA002818BFBA
:101700000120716988F804002046FFF7B5FA002827
:1017100018BF0120B16988F805002046FFF7ACFA30
:10172000F16988F806002046FFF7A6FA88F8070056
:101730003FE040F2A004C2F200042046012141F241
:101740003422FFF7A1FA40F20007C2F2000740F28C
:1017500090063968C2F2000620460022C6E900550C
:10176000B560F560FFF790FA796872882046FFF758
:101770008BFAB968B2882046FFF786FAF968F288D2
:101780002046FFF781FA396932892046FFF77CFA53
:10179000796972892046FFF777FAB969B2892046DC
:1017A000FFF772FAF969F2892046FFF76DFA00F047
:1017B00009F898F800000D2824BF002088F80000E0
:1017C000BDE8F08180B540F20810012140F200121E
:1017D000C2F20000C0F20111CFF60072C0E900129F
:1017E00000F004F8FFF7C8FE80BD000070B540F2BD
:1017F0000810C2F2000040F290054178C2F20005E4
:10180000C678698001798378EE802981417940F238
:1018100000060278AB808379C079C2F2000640F2FC
:10182000A00469813168C2F20004E88120462A8060
:10183000AB81FFF729FA71686A882046FFF724FA1E
:10184000B168AA882046FFF71FFAF168EA882046A7
:10185000FFF71AFA31692A892046FFF715FA7169EC
:101860006A892046FFF710FAB169AA892046FFF776
:101870000BFAF169EA892046FFF706FA70BD00000D
:1018800080B500F01DF980BD80B5FEF7F3FDFFF7D0
:1018900005FDFEF7AFFC40F26810C2F200004FF405
:1018A0008061FEF768FC00F05DFC00F08BFB00F04F
:1018B0002DFDFFF7DFFEFFF75BFE00F0B3FB42F20A
:1018C0006D60C0F6000000F0EBF800F0DFF840F2C9
:1018D0000810C2F200004078FFF740FC80BD000015
:1018E0002DE9F04F81B040F21010C2F2000090F8E4
:1018F000009040F2121040F21312C2F20000C2F245
:101900000002017892F800B019B340F21410C2F24C
:10191000000001786FF00502002908BF0A225A442E
:101920004FFA82FBBBF1FF3F3ADC002200294FF067
:10193000000B08BF6FF07F0B29D040F21113C2F2E9
:1019400000031B78012B27D140F21513C2F20003CC
:1019500021E040F21111C2F2000109786FF0020299
:10196000002918BF032291445FFA89F2202A17D375
:1019700021B1012101704FF0200911E040F2151052
:10198000C2F200004FF0000980F8009008E040F239
:101990001213C2F200031A70B1FA81F14909017001
:1019A000C9F3C40840F2681AB8F1000FC2F2000A85
:1019B00011D0AAF180040AF56075464680342046AD
:1019C0008021FEF7D8FB28468021FEF7D4FB013E9C
:1019D000A5F18005F2D119F0070333D04FF0FF30A5
:1019E000FF21012280269840D9409A4026FA03F32D
:1019F00040F2FF3609F0F805A6EBC816B6B20AEBBE
:101A000005155644013D002415F8017F01340740B7
:101A100017432F70377864B20F401F43B4F1FF3F74
:101A200006F80179F0DC40F21010C2F2000080F8F4
:101A3000009040F21310C2F2000080F800B001B034
:101A4000BDE8F08F5FEA0960EDD06FF07F00C9F16B
:101A50004002A0EB0B0002F0F802C0B2120142EA11
:101A600050005FFA8BF1504401225FFA89F4FEF7CF
:101A70007BFB202CD7D00AEBC8107F21425C42F0C0
:101A80000102425401394A1CF8D1CCE780B540F23A
:101A90001C10C2F200000068002818BF804780BDFB
:101AA00040F21C11C2F200010860704740F21813A6
:101AB000C2F200031968024608461A607047000027
:101AC000F0B583B000F0A8FA40F21711C2F200019D
:101AD0000A7840F21616C2F200060446801A3278DE
:101AE000C0B2904248D30C70FFF77EFD40F2181050
:101AF000C2F20000016840F21517C2F2000739B1C6
:101B0000387838B940F21110C2F20000007808B1FC
:101B1000002501E0884705463878012808BFFFF70F
:101B2000DFFE387808B1012504E0FFF731FD002819
:101B300018BF012540F20810C2F200004079A0B1A0
:101B400000F06AFA001B0130C0B24FF47A71B1FBA9
:101B5000F0F20DF1070409A1204600F093FD2046A4
:101B600000216422382300F071F900F06BF9102095
:101B7000002D08BF2820307003B0F0BD257500008F
:101B80004CF6CD41CCF6CC41A0FB0101C808704712
:101B900070B584B000F042F800F0D4FB044600F0C9
:101BA00029F842F6A97200250826C0F60002142082
:101BB00040211023CDE90065029500F08DF842F632
:101BC0004022C0F60002282040210823CDE900650C
:101BD000029500F081F842F6A172C0F600023420AE
:101BE00038210823CDE90065029500F075F82046FC
:101BF00004B070BD80B584B04FF0000C082042F6F0
:101C00003022CDE9000CC0F600020020382110235C
:101C1000CDF808C000F060F804B080BD80B588B091
:101C200042F65A20C0F6000000F1080107A8FEF7AE
:101C3000ADFA42F6B040C0F6000000F1080106A877
:101C4000FEF7A4FA0DF1060000210C22002300F09B
:101C5000FDF808B080BD00002DE9F04784B00646CD
:101C6000037A407AB77A00FB03F27568F17AC2F31F
:101C7000C70404FB01527D1C96F800A096F8018071
:101C8000EDB2022D1CD3757BD5B100290CBF96F89F
:101C90000C90A1F10109391A0439C9B2002500904C
:101CA000029150464146019500F016F870685FFABF
:101CB00089F104FB0102707A337ACDE9000502E074
:101CC0000027CDE9000750464146029700F004F88E
:101CD00004B0BDE8F08700002DE9F04F8BB0149FF1
:101CE0001C46934688468146FFF758FC0021B1EB1D
:101CF000D70F00F0A48016994044C2B20192411A55
:101D0000FA08CDE9022101F007013844C2B2C1F15D
:101D10000800002308910690049207E0059B0298B2
:101D20000133049A8342A34400F0898003981699F2
:101D300000EBC300C5B2002900F108010991059329
:101D400010D09542EAD80999019AC9B29142E5D3D7
:101D50004029E3D8019AAA4207D9511BFF2202FA6F
:101D600001F80BE04FF0FF0808E0049A914291BFA0
:101D70004FF0FF08891AFF2222FA01F8089900297A
:101D80004FF4786101EA00100A901FD13F2D1DD851
:101D9000002CC3D0002702E00137BC42BED007EBC5
:101DA000090040B20028F7D41599C6B20BEB070022
:101DB00000F0A4FA0A9940F268133144C2F2000319
:101DC0005A5C00EA080010435854E5E7002CA5D0FF
:101DD00009994FF4786000EA01100027079002E0AB
:101DE0000137BC429AD007EB090041B20029F7D471
:101DF00015995FFA80FA0BEB070000F07FFA3F2D90
:101E000000EA08000BD80A9940F268165144C2F261
:101E10000006089B725C00FA03F31A437254099996
:101E2000C9B23F29DCD8079940F268165144C2F282
:101E30000006069B725CD84010437054D0E70BB08C
:101E4000BDE8F08F80B500F061F980BD2DE9F04F5D
:101E500083B09B460378CBB390460E46451C4FF0AB
:101E60000009002405E000BF15F8013B09F1010954
:101E700063B3A3F12000C9EBC90101EB080AC0B2AA
:101E800042F6BC5100EB8000C0F600010A180820A1
:101E90005FFA8AF7CDE900063846594605230294D1
:101EA000FFF71AFF002EDFD05FEA0A6005D0AAF123
:101EB0000100C0B2594600F039FA7A2FD4D80AF19D
:101EC0000500C0B2594600F031FACDE703B0BDE8D5
:101ED000F08F00002DE9F04F83B04FF25E3B4FF6DC
:101EE000FF78FF20052702ACCFF6FF7B019003E0CF
:101EF0003806A7F1010738D0F8B22146FFF72CFBCE
:101F00009DF90A00B0F1FF3FF2DC9DF808509DF802
:101F100009605FFA80F94FF0070A5FFA8AFA00BF9A
:101F2000BAF1000FE4D0AAF1010A29FA0AF0C007B9
:101F3000F6D05FFA8AF22846314600F08DFB40F673
:101F4000A2418842594638BF41F6BD21084481B2BA
:101F50001FFA88F29142E0D240F26511C2F200010C
:101F600081F800A080460197D7E740F264100199FC
:101F7000C2F20000017003B0BDE8F08F70B50446F6
:101F8000002500BFA5F15000C0B200210026FFF7D8
:101F9000F5F801200021FFF7F1F810200021FFF7EC
:101FA000EDF800BF20460121FFF7E8F8701C46B2AB
:101FB000B6F1FF3FF6DCE8B20135072828BF70BD57
:101FC000E0E7000080B586B00020CDE90400CDE94F
:101FD000020041F21800C4F20200016841F0100151
:101FE0000160006802A900F01000019001984FF410
:101FF000005002900120CDE90300059041F200005D
:10200000C4F20100FEF728F906B080BDFFF73CFCE2
:10201000FFF736FCFCE7000040F26010C2F200005F
:102020000068704710B582B041F21C00C4F2020093
:10203000016840F2201441F0100101600068C2F212
:10204000000400F010000190019841F20000C4F279
:1020500000004721002240F2E73384E80F0080208F
:10206000A06120462261FEF7BFFE3620012100223A
:10207000FEF742FA3620FEF73BFA2046FEF7D2FE84
:1020800002B010BD4CF6CD41CCF6CC41A0FB011204
:10209000D10801EB8101A0EB41007047B0B584B0DD
:1020A0000024CDE90244CDE9004400F0F1F801201C
:1020B000CDE90104032040F6000403904020C4F25F
:1020C00001046D46009020462946FEF7C5F8202001
:1020D000009020462946FEF7BFF880200090204659
:1020E0002946FEF7B9F81020009020462946FEF751
:1020F000B3F80820009020462946FEF7ADF804B05A
:10210000B0BD000080B5FEF793F880BD70B540F219
:1021100068150024C2F20005A4F15000C0B20021ED
:10212000FFF72CF800200021FFF728F810200021ED
:10213000FFF724F84FF0FF36A81940780121FFF788
:102140001DF801367F2EF7D10134082C05F18005EA
:10215000E2D140F26810C2F200004FF48061FEF755
:102160000AF870BD10B5FFF799FF40F60004C4F2FD
:102170000104204608210022FEF762F920462021B2
:102180000122FEF75DF9204640210022FEF758F9B2
:102190003220FFF7B7FF204640210122FEF750F919
:1021A000AE200021FEF7EAFF00200021FEF7E6FF47
:1021B00010200021FEF7E2FF40200021FEF7DEFFA5
:1021C00081200021FEF7DAFFCF200021FEF7D6FFA5
:1021D000A1200021FEF7D2FFC8200021FEF7CEFF8C
:1021E000A6200021FEF7CAFFA8200021FEF7C6FFA7
:1021F0003F200021FEF7C2FFD3200021FEF7BEFFE3
:1022000000200021FEF7BAFFD5200021FEF7B6FF1F
:1022100080200021FEF7B2FFD9200021FEF7AEFF9B
:10222000F1200021FEF7AAFFDA200021FEF7A6FF29
:1022300012200021FEF7A2FFDB200021FEF79EFF07
:1022400040200021FEF79AFF20200021FEF796FF94
:1022500002200021FEF792FF8D200021FEF78EFF65
:1022600014200021FEF78AFFA4200021FEF786FF3C
:10227000A6200021FEF782FFAF200021FEF77EFF9F
:102280000020FFF77BFE00200021FEF737FF10BD86
:1022900081B041F21800C4F20200016841F004016B
:1022A0000160016801F0040100910099016841F0AA
:1022B00004010160016801F00401009100990168C6
:1022C00041F004010160016801F0040100910099EE
:1022D000016841F004010160016801F0040100910E
:1022E0000099016841F004010160006800F00400F9
:1022F0000090009801B070470078704710B50C4608
:10230000FFF7FAFF61424840C0B210BD80B540F20D
:10231000A00042F60001C2F20000C4F200014FF03A
:10232000FF32C0E90012FEF7B7FC80BD01F0F801F2
:1023300000EB011040F26811C2F20001FF220A54C2
:10234000704700002DE9F04F89B040F20810C2F24A
:102350000000807840F2725540F2785B40F26B5892
:1023600040F26A5640F271590028C2F20005C2F2EA
:10237000000BC2F20008C2F20006C2F2000900F02F
:10238000A28040F2705AC2F2000A9BF800009AF84C
:102390000010884262D0002089F8000028709BF865
:1023A000020001213170FFF7EBFB40F26856C2F2E8
:1023B0000006317804460846FFF7E2FB211A18BFF1
:1023C00001219BF8020088F80010FFF75BFE3178CE
:1023D00004460846FFF756FE211A18BF01219BF854
:1023E000010088F80110FFF7CBFB40F26957C2F2F9
:1023F0000007397804460846FFF7C2FB211A18BFC8
:1024000001219BF8010088F80210FFF73BFE3978A4
:1024100004460846FFF736FE211A18BF01219BF833
:10242000000088F80310FFF7ABFB9AF80010044691
:102430000846FFF7A5FB201A18BF01209BF80210E1
:1024400088F804009BF800009BF80120317040F2EE
:102450006A56C2F200063A708AF800003078012805
:102460003AD199F80000042801D2012109E0072897
:1024700006D3112801D2052103E0172880F0E78058
:102480000321084489F8000099F800001C2824BFA3
:10249000FF2089F800002878022805D30E2801D2F1
:1024A000032102E0142802D801210844287028786A
:1024B000142824BFFF202870287815280CD399F8F9
:1024C00000001D2808D3002089F800002870307013
:1024D000C8F8000088F8040041F66840ADF8140020
:1024E00042F6E040C0F60000069041F20B00ADF865
:1024F0001C0029789BF800008DF81E10FFF740FBA8
:102500008DF81F0098F8040005AC05258DF8210012
:1025100020468DF82050FFF79FFB9BF800007421A8
:102520008DF81410FFF7AEFD8DF81F0030780927E5
:102530008DF8210020468DF82070FFF78DFB41F6C5
:102540001300ADF81C0042F67620C0F6000099F8A2
:10255000001006909BF801008DF81E1041F23C41DE
:10256000ADF81410FFF70CFB8DF81F0098F802006F
:102570008DF820508DF821002046FFF76DFB9BF869
:10258000010053218DF81410FFF77CFD8DF81F001A
:1025900098F803008DF820708DF821002046FFF791
:1025A0005BFB9BF8020001218DF81410FFF7E8FA9D
:1025B0008DF81F0098F800008DF820508DF821004C
:1025C0002046FFF749FB9BF8020018258DF81450B0
:1025D000FFF758FD8DF81F0098F801008DF8207066
:1025E0008DF821002046FFF737FB40F26010C2F261
:1025F000000000684BF2C531C9F2A211A0FB011224
:10260000D10A4FF4616201FB1200B0F5E16F0CD901
:1026100042F648220027C0F600023120142106238A
:10262000CDE900570297FFF757FB9BF80300002105
:102630008DF8120000208DF813000DF112006822B1
:102640001423FFF703FC307809B0BDE8F08F1C2895
:102650007FF60BAF18E70000C0EB001001EB800025
:102660004FF4B46102FB010080B2704780B541F6BF
:102670009130C0F60000FFF719FA00200021FEF7A4
:1026800093FF80BD0FB4084B10B504A902AA0398AC
:1026900000F01CF8044602A9002000F0B8F920461A
:1026A00010BC5DF814FB00000F2A000802E008C807
:1026B000121F08C1002AFAD170477047002001E0BC
:1026C00001C1121F002AFBD1704700002DE9FF4F06
:1026D0008BB088460546002606E025280BD0DDE9AC
:1026E0000D1290476D1C761C28780028F5D10FB08C
:1026F0003046BDE8F08F0024A146A2460122AE4933
:1027000000E0044315F8013F203B02FA03F00842C1
:10271000F7D128782A2810D06FF02F022878A0F15E
:102720003001092915D809EB890102EB410144F078
:10273000020400EB01096D1CF0E758F8041B5FEA86
:10274000010903D544F40054C9F1000944F002041E
:102750006D1C28782E2817D115F8010F44F00404B9
:102760002A280ED06FF02F022878A0F13001092915
:102770000AD80AEB8A0102EB410100EB010A6D1C49
:10278000F2E758F804AB6D1C28786C280FD006DCF3
:102790004C2817D068280DD06A2814D104E074287A
:1027A00010D07A280FD10DE044F400140AE044F46C
:1027B000801401E044F440146978814202D104F5A8
:1027C00080146D1C6D1C2878692865D006DC0028F3
:1027D0008DD0632827D0642806D15DE06E2808D00C
:1027E00073282AD0752877D0DDE90D129047761C22
:1027F000E0E0C4F30250022809D003280DD0D8F835
:10280000001004280DD00E6008F10408D2E0D8F8BA
:102810000010F217C1E90062F6E7D8F800100E8048
:10282000F2E70E70F0E718F8041B8DF80010002096
:102830008DF80100EB46012003E058F804BB4FF08F
:10284000FF3061074FF0000701D40AE07F1C5745B5
:102850000DDA8742FADB1BF807100029F6D106E0F3
:102860007F1C8742FCDB1BF807100029F8D1DDE94B
:102870000D23A9EB07008146214600F0B1F8304452
:10288000C61904E0DDE90D121BF8010B90477F1E0D
:10289000F8D22146484688E058F8040BC4F30251A8
:1028A0004FF00A0B032900D100B2042900D140B235
:1028B000002802DA40422D2102E0210505D52B2116
:1028C0008DF82410012104E006E0E10710D020215A
:1028D000F6E708AF089113E058F8040BC4F302516F
:1028E0004FF00A0B032900D180B2042900D1C0B2F5
:1028F0000021EEE75946FDF752FC303107F8011D83
:102900000028F7D1ADEB070000F1200B600702D5DE
:1029100024F4803401E04FF0010ADA4502DDAAEB2D
:102920000B0000E00020824600EB0B0108980144F8
:10293000A9EB01000A90E00306D4DDE90D2321464E
:102940000A9800F04DF806444FF0000908E009A984
:1029500011F80900DDE90D12904709F10109761C13
:1029600008998945F3DBE0030CD5DDE90D23214609
:102970000A9800F035F8064404E0DDE90D12302035
:102980009047761CBAF10001AAF1010AF5DC05E0D6
:10299000DDE90D1217F8010B9047761CBBF1000121
:1029A000ABF1010BF4DC0A982146DDE90D2300F0C0
:1029B00005F806446D1C97E6092801002DE9F04151
:1029C000044600251E461746880404D405E039460F
:1029D0002020B0476D1C641EF9D52846BDE8F08163
:1029E0002DE9F041044600251E469046C80301D556
:1029F000302700E02027880404D505E0414638460A
:102A0000B0476D1C641EF9D52846BDE8F0810A6800
:102A1000531C0B60107070470000000000000000A5
:102A20000102030406070809000000000102030474
:102A3000FF81BD8181818181818181818181FF3C93
:102A40000010189C7230100000F8F8F8F80000C36D
:102A5000C3C3C300001F1F1F1F004D6F6E005475BE
:102A600065005765640054687500467269005361DB
:102A7000740053756E00FEFFFFFFFF0F0F0F0F0F67
:102A80000F0F0F0FFFFFFFFFFEFFFFFFFFFF000015
:102A900000000000000000FFFFFFFFFF7FFFFFFFBF
:102AA000FFF0F0F0F0F0F0F0F0F0FFFFFFFF7F003C
:102AB0000000000000203CFFFFFFFFFF00000000BF
:102AC00000000000000000000000FFFFFFFFFF000B
:102AD00000000000000000000000000000FFFFFFF9
:102AE000FFFF00000000000000FEFFFFFFFF0F0FD0
:102AF0000F0F0F0F0F0FFFFFFFFFFE000000000082
:102B00000080C0E0F0F8FC7E3F1F0F070301E0F0FB
:102B1000F8FCFEFFFFFFF7F3F1F0F0F0F0F0F0F05B
:102B2000F0FEFFFFFFFF0F0F0F0F0F0F0F0F0FFF35
:102B3000FFFFFFFE00000000000000081C1C3E3EDE
:102B40007E7FF7F7F7E3E37FFFFFFFFFF0F0F0F0A2
:102B5000F0F0F0F0F0FFFFFFFF7F000000000080CA
:102B6000E0F0FCFF7F1F0F03010000000080C0F0B9
:102B7000FCFEFF3F0F0301000000FFFFFFFF00000E
:102B80000F0F0F0F0F0F0F0F0F0F0F0F0FFFFFFF85
:102B9000FF0F0FFFFFFFFFFF0F0F0F0F0F0F0F0FA5
:102BA0000F0F0F0F0F0F1F1F1F1F1F1E1E1E1E1E9A
:102BB0001E1E1E1EFEFEFEFEFC7FFFFFFFFFF0F04E
:102BC000F0F0F0F0F0F0F0FFFFFFFF7FFEFFFFFFFF
:102BD000FF0F0F0F0F0F0F0F0F0F7F7F7F7F7EFFF6
:102BE000FFFFFFFF3C3C3C3C3C3C3C3C3CFCFCFCD9
:102BF000FCF87FFFFFFFFFF0F0F0F0F0F0F0F0F0F6
:102C0000FFFFFFFF7F7F7F7F7F7F0F0F0F0F0F0F74
:102C10000F0FCFFFFFFFFF1F0000000000000000AC
:102C20000080F0FCFFFF3F0F0300000000000000E9
:102C300080E0F8FEFFFF1F07010000000000FEFF1C
:102C4000FFFFFF0F0F0F0F0F0F0F0F0FFFFFFFFF04
:102C5000FEC3E7E7F7FF7E3E3E3C1C3C3E3E7EFF68
:102C6000F7E7E7C37FFFFFFFFFF0F0F0F0F0F0F0D1
:102C7000F0F0FFFFFFFF7FFEFFFFFFFF0F0F0F0FC3
:102C80000F0F0F0F0FFFFFFFFFFE1F3F3F3F3F3CA8
:102C90003C3C3C3C3C3C3C3CFFFFFFFFFF7EFEFEDF
:102CA000FEFEF0F0F0F0F0F0F0F0F0FFFFFFFF7F3D
:102CB0004A616E00466562004D61720041707200AB
:102CC0004D6179004A756E004A756C004175670068
:102CD000536570004F6374004E6F76004465630067
:102CE000FEFFFF0F0707070FFFFFFE7FFFFFF0E06C
:102CF000E0E0F0FFFF7F0000181C1EFFFFFF000058
:102D0000000000000000FFFFFF0000001E1F1F0763
:102D10000787C7E7FF7F3EF0F8FCFEEFE7E3E1E05F
:102D2000E0E00E0F0F070787C7EFFF7F3E70F0F060
:102D3000E0E0E1E3F7FFFE7CC0E0F0783C1EFFFF3F
:102D4000FF00001F1F1F1C1C1CFFFFFF1C1CFFFFA0
:102D5000FFC7C7C7C7C7C7870771F1F1E1E1E1E165
:102D6000F3FF7F3FFEFFFF8F878787878F8F0E7F61
:102D7000FFFFE3E3E3E3E3FFFF7F0F0F0F07070727
:102D800087C7FFFF7FE0F0783C1E0F0703010000BC
:102D90007EFFFFC7878787C7FFFF7E7EFFFFE3E1D8
:102DA000E1E1E3FFFF7EFEFFFFC7C7C7C7C7FFFF25
:102DB000FE78F9F9E1E1E1E1E1FFFF7F00000000C9
:102DC00000005F0000000007000700147F147F145C
:102DD000242A7F2A122313086462364955225000A0
:102DE000050300001C2241000041221C0000082AAB
:102DF0001C2A0808083E0808A0600000000808080F
:102E00000808606000000020100804023E51494597
:102E10003E00427F400062514949462241494936BD
:102E20001814127F1027454545393C4A494930015D
:102E3000710905033649494936064949291E0036B4
:102E400036000000AC6C0000081422410014141479
:102E50001414412214080002015109063249794133
:102E60003E7E0909097E7F494949363E414141225A
:102E70007F4141221C7F494949417F090909013E9F
:102E8000414151727F0808087F417F410000204086
:102E9000413F017F081422417F404040407F020CA7
:102EA000027F7F0408107F3E4141413E7F090909AE
:102EB000063E4151215E7F0919294626494949327A
:102EC00001017F01013F4040403F1F2040201F3F44
:102ED0004038403F631408146303047804036151CD
:102EE0004945437F41410000020408102041417FD1
:102EF000000004020102048080808080010204003E
:102F00000020545454787F484444383844442800BE
:102F1000384444487F3854545418087E0902001835
:102F2000A4A4A47C7F08040478007D0000008084B1
:102F30007D00007F10284400417F4000007C041881
:102F400004787C08047C003844443800FC242418AD
:102F500000182424FC00007C080400485454240079
:102F6000047F4400003C40407C001C2040201C3C6E
:102F70004030403C44281028441CA0A07C004464FD
:102F8000544C440836410000007F000000413608E0
:102F900000000201010201020505020060C0F038D4
:102FA0001C3C42819DA181423C10387C3810101895
:102FB00014345656D0D0103810000000E02F00080E
:102FC0000000002090000000AC26000870300008CF
:102FD00090000020F8080000BC2600080000000057
:102FE00002000000030000000400000005000000D3
:102FF00006000000070000000800000009000000B3
:103000000A00000010000000110000001200000083
:10301000130000001400000015000000160000005E
:103020001700000018000000190000001A0000003E
:103030001B0000001C0000001D0000001E0000001E
:103040001F000000200000002100000022000000FE
:10305000230000000024F400162D00013004072D89
:103060003F090400030107000000010010000000F8
:0400000508000131BD
:00000001FF
