:020000040800F2
:10000000881D0020450100080D19000895180008FA
:1000100009190008A10800086D1D00080000000073
:10002000000000000000000000000000851A000829
:10003000F108000800000000F5190008B91A0008CE
:100040005F0100085F0100085F0100085F01000810
:100050005F0100085F0100085F0100085F01000800
:100060005F0100085F0100085F0100085F010008F0
:100070005F0100085F0100085F0100085F010008E0
:100080005F0100085F0100085F0100085F010008D0
:100090005F0100085F0100085F0100085F010008C0
:1000A0005F0100085F0100085F0100085F010008B0
:1000B0005F0100085F0100085F0100085F010008A0
:1000C0005F0100085F0100085F0100085F01000890
:1000D0005F010008511D00085F0100085F01000872
:1000E0005F0100085F0100085F0100085F01000870
:1000F0005F0100085F0100085F0100085F01000860
:100100005F0100085F0100085F0100085F0100084F
:100110005F0100085F010008751B00085F0100080F
:100120005F0100085F0100085F0100085F0100082F
:10013000DFF80CD000F00EFB004800470D3A000835
:10014000881D00200648804706480047FEE7FEE776
:10015000FEE7FEE7FEE7FEE7FEE7FEE7FEE7FEE777
:10016000251B000831010008D2B201E000F8012B84
:10017000491EFBD270470022F6E710B513460A4627
:1001800004461946FFF7F0FF204610BD421C10F848
:10019000011B0029FBD1801A7047034611F8012B7F
:1001A00000F8012B002AF9D11846704730B480EAD4
:1001B000010202F0004530F0004221F0004013D06F
:1001C00090B1C30DD40DC2F31601C0F31600E41AAA
:1001D00041F4000140F400027D34914201D3641CDB
:1001E00000E04900002C02DA30BC002070474FF4D8
:1001F00000000023914201D3891A034340084FEACB
:100200004101F7D151B1914202D14FF0004105E0D7
:1002100002D24FF0010101E06FF0010103EBC45085
:10022000284430BC00F092B92DE9FE4F804681EAA7
:100230000300C00F0C46009021F0004123F0004560
:10024000B8EB0200A94105D24046214690461C4623
:100250000B46024623F00040104347D0270DC7F35A
:100260000A00C3F30A510290401A019040286BDA49
:10027000C3F3130040F4801B0098924620B1002382
:10028000D2EB030A63EB0B0B01985946C0F1400215
:10029000504600F03AF906460D4650465946019A36
:1002A00000F042F910EB08006141002487EA115286
:1002B00084EAE7731A4340D0009A62B3019A012A94
:1002C0004FEA075215DC001B61EB02014FF00042C0
:1002D00002EA0752CDE90042001C41F58011324686
:1002E0002B4600F079F903B0BDE8F08F4046214677
:1002F000F9E7001B61EB0201001C41F580130018B7
:100300005B412018A2F5001747EB030140EAD570C6
:10031000B6196D4111E06D084FEA360645EAC07521
:100320004FEA0752001B61EB0201001C41F58011EE
:1003300049084FEA30000019514132462B4603B0BC
:10034000BDE8F04F00F039B90098012240000023C9
:10035000D0EB020263EBE073009821464FEAE074B1
:10036000B8EB000061EB0401E9E783F000435BE7D1
:1003700081F0004158E72DE9FE4F81EA030404F0C3
:10038000004421F0004100944FF0000B23F00043A3
:1003900050EA01045ED052EA03045BD0C3F30A546E
:1003A000C1F30A552C44A4F2F3340194A0FB025487
:1003B000C1F3130141F48011C3F3130343F4801319
:1003C00001FB024400FB034E840A970A44EA81546D
:1003D00047EA8357A4FB076802958D0A05FB07854A
:1003E0004FEA932C04FB0C542705029D4FEA065854
:1003F00047EA1637B5EB08056EEB070C870E920E31
:1004000047EA811742EA8312A7FB0201B6EB0B0110
:1004100064EB00042B0D43EA0C335E1844EB1C50D4
:10042000DA465146E7FB0201C5F313044FEA0B33EA
:1004300043EA14534FEA0432019C43EA0603A4F151
:100440000C040294009CCDE900B400F0C5F803B0A0
:10045000BDE8F08F00200146F9E7002801DBC0F17C
:100460000040002901DBC1F10041814201D101209E
:1004700070470020704796230022114600F06FB8A5
:1004800000F0004230F000400AD0C10D01F560716B
:10049000C0F3160042EA0151C208400711437047F9
:1004A00000200146704701F0004330B421F00041C4
:1004B00050EA010206D00A0DA2F56072C1F31301E1
:1004C000002A02DC30BC00207047440F44EAC1041B
:1004D000C100E01830BC00EBC25000F037B830B5B6
:1004E0000B46014600202022012409E021FA02F5F2
:1004F0009D4205D303FA02F5491B04FA02F528448C
:10050000151EA2F10102F1DC30BD202A04DB203AE5
:1005100000FA02F1002070479140C2F1200320FA56
:1005200003F3194390407047202A06DBCB17203A8B
:1005300041FA02F043EAE07306E041FA02F3D040E8
:10054000C2F1200291400843194670470029A8BF14
:100550007047401C490008BF20F00100704710B4EC
:10056000B0FA80FC00FA0CF050EA010404BF10BCA1
:10057000704749B1CCF1200421FA04F411FA0CF1CE
:1005800018BF012121430843A3EB0C01CB1D4FEA07
:1005900000614FEA102042BF002010BC704700EB02
:1005A000C35010440029A4BF10BC7047401C490030
:1005B00008BF20F0010010BC704710B5141E73F185
:1005C000000408DA401C41F1000192185B411A4313
:1005D00001D120F0010010BD2DE9F04D92469B465F
:1005E00011B1B1FA81F202E0B0FA80F22032904605
:1005F000FFF78BFF04460F4640EA0A0041EA0B0171
:1006000053465A46084313D0114653EA010019D005
:10061000C8F14002504600F0AFF805460E4650467D
:1006200059464246FFF771FF084305D0012004E018
:1006300020463946BDE8F08D0020054346EAE076C5
:100640002C4337430A986305E40AA0EB0800002214
:10065000FD0A44EA47540A3002D500200146E9E782
:10066000010510196941DDE9084500196941BDE836
:10067000F04DA2E72DE9F04D81EA030404F0004BB0
:1006800021F0004514464FF0000A23F0004150EAE3
:10069000050220D054EA01021DD0C5F30A570246D4
:1006A000C5F31303C1F31300C1F30A5640F48015D8
:1006B00043F48013A7EB0608101BD64608F2FD385A
:1006C00073EB050002D308F1010801E092185B41C9
:1006D000B8F1000F03DA00200146BDE8F08D0020DC
:1006E0004FF48011064684460EE0171B73EB050796
:1006F00005D3121B63EB050306434CEA010C4908C2
:100700004FEA300092185B4150EA0107EDD152EAFE
:10071000030012D082EA040083EA0501084305D0F1
:10072000101BAB4106D20122002306E000224FF04D
:10073000004302E06FF0010253101AEB06004CEB8D
:10074000085110EB0A0041EB0B01BDE8F04DFFF73B
:1007500034BF0000064C074D06E0E06840F001039E
:1007600094E8070098471034AC42F6D3FFF7E4FC56
:100770005472000874720008202A04DB203A21FA1F
:1007800002F00021704721FA02F3D040C2F12002AA
:10079000914008431946704770B521F00043034368
:1007A0000CD0C1F30A550024D5EB040564EB040317
:1007B000D617AD1AB34102DB0020014670BD2018E8
:1007C00041EB025170BD0EB5C10F80EAE0700844E4
:1007D000CA07002140F233438DE80E000A460B465B
:1007E000FFF7FAFE03B000BD0EB540F233410291AF
:1007F0000021CDE900110A460B46FFF7EDFE03B0DC
:1008000000BD70B5C1F30A5201F000450024C1F3E8
:10081000130140F2FF3341F480119A4201DA0020C3
:1008200070BD40F233439A42A2F2334203DC52429B
:10083000FFF7A2FF00E090402C43F1D0404270BD92
:1008400070B58D1810F8014B14F0030201D110F8A7
:10085000012B231106D110F8013B03E010F8016BC6
:1008600001F8016B521EF9D1ABB110F8012B04F065
:100870000C048A1A0C2C03D0A2EB84129B1C08E0F7
:1008800010F8014BA2EB0422F8E712F8014B01F833
:10089000014B5B1EF9D5A942D4D3002070BD0000E6
:1008A000FEE7000080B503F0B5FC0138B0FA80F037
:1008B000400901F00DFE80BD10B541F2C81443F6A9
:1008C0000000C2F20004C4F201004FF4E131002242
:1008D0000C2384E807002046C4E90322C4E905325A
:1008E00000F002FF2068C16841F02001C16010BD26
:1008F00070470000B0B5044600F010F9054640F21C
:10090000AC00C2F200000078611C18BF044400BFB4
:1009100000F004F9401BA042FAD3B0BD2DE9F04F1E
:1009200083B00C68002C00F0EA80A0F18042A2F5B0
:10093000843240F2004E4FEAB22241F60047C4F240
:10094000010E0092C4F20107062200254FF00109B2
:100950004FF0000B4FF0000AB84208BF0522019289
:1009600009E000BF0C680BF1010B34FA0BF205F142
:10097000040500F0C48009FA0BF814EA080CF1D061
:100980004C684FF6FF72C1F21002944210DC122C38
:1009900050D8DFE804F0330A41454F4F4F4F4F4FD7
:1009A0004F4F4F4F4F4F4F484C00D1F80CA041E0F4
:1009B0004FF6FF72C1F2210294420FDC0022C1F215
:1009C000110294421AD00022C1F21202944215D0B0
:1009D0000022C1F22102944210D02BE00022C1F289
:1009E000220294420AD00022C1F23102944205D080
:1009F0000022C1F2320294421CD100BF8C6844B183
:100A0000012C14BFC0F81480C0F810804FF0080A01
:100A100010E04FF0040A0DE0CC6804F1080A09E088
:100A20004FF0000A06E0CC6804F1040A02E0CC684A
:100A300004F10C0A2C460746BCF5807F24BF203CFD
:100A400004373A680F2303FA04F6B2430AFA04F4AF
:100A500022433A60CA79D2067FF584AF41F2180486
:100A6000C4F2020422684FF6084842F001022260F4
:100A70002268CFF6FF7802F001020292029A2BF070
:100A80000302724452F8084005F00C0603FA06F718
:100A9000009BBC43019F052B38BF1F4607FA06F693
:100AA000344342F808404C68E203DEF8002054BFAB
:100AB00022EA0C0742EA0C07A203CEF80070DEF827
:100AC000042054BF22EA0C0742EA0C07E202CEF8E7
:100AD0000470DEF8082054BF22EA0C0742EA0C0733
:100AE000A20240F20C44CEF80870C4F2010422685D
:100AF00054BF22EA0C0242EA0C02226032E703B041
:100B0000BDE8F08F8068084018BF012070470000E2
:100B1000002A08BF090401617047000041F6641013
:100B2000C2F200000068704740F2AC0041F6641168
:100B3000C2F20000C2F2000100780A6810440860A6
:100B40007047000080B542F20000C4F20200016864
:100B500041F010010160032000F046F80F2000F082
:100B600005F800F02BF8002080BD0000B0B540F281
:100B7000AC02C2F2000240F27C011278C2F2000123
:100B80004FF47A730968B3FBF2F20446B1FBF2F159
:100B9000084600F089FC0F2C4FF001050CD858B91D
:100BA0004FF0FF3021460022002500F00DF840F202
:100BB000B000C2F2000004602846B0BD70470000DB
:100BC00080B501F039F980BD70B514460D46064672
:100BD00001F042F92946224600F09AFE01463046CD
:100BE00001F042F970BD000080B501F04FF980BD01
:100BF0002020C4F20E2001210160704780B5411E03
:100C00000F294FF0000043D8DFE801F00B34420811
:100C100042424208424242424242424300F0DEF92E
:100C200080BD41F20400C4F20200C16940F2023208
:100C30000A40B2F5817F04BF4FF4004080BD01F44B
:100C40004071B1F5407F0DD0B1F5007F51D1026AFE
:100C5000920744BF49F6404080BDB1F5407F1CBFBC
:100C6000002080BD50F8040C4FF22441800301EABB
:100C7000E07080BD00F0A0F941F20401C4F202016D
:100C800009680222C1F3813102EB4101B0FBF1F0AE
:100C900080BD41F20401C4F202010A6851F8040C5B
:100CA000C0015CBF002080BDC2F3834012A3185C6A
:100CB000D20305D440F60012C0F23D0250430BE0CF
:100CC0000A6811A3C2F340429A5C41F20023C0F2C9
:100CD0007A03B3FBF2F250430968490248BF80BD72
:100CE0004AF6AB214000CAF6AA21A0FB0101480840
:100CF00080BD002080BD00BF02030405060708096F
:100D00000A0B0C0D0E0F1010010200002DE9F0412E
:100D100082B00446007841F21C06C007C4F2020605
:100D20004AD0306810F0805808D1306840F08050C8
:100D30003060306800F080500190019847F2000761
:100D4000C4F200073868C00512D4386840F48070D7
:100D50003860FFF7E3FE05463868C00508D4FFF7A2
:100D6000DDFE401B6428F7D9032002B0BDE8F08106
:100D7000706810F4407012D0616801F440718842CC
:100D80000DD0706840F24042C4F24222012320F4A8
:100D9000407113600023C0071360716029D170682F
:100DA000616820F440700843B8F1000F706003D10F
:100DB000306820F0805030602068810707D556F8F1
:100DC000181CA26821F44041114346F8181CC006C3
:100DD00003D4002002B0BDE8F08156F8180C616918
:100DE00020F48000084346F8180C002002B0BDE84B
:100DF000F081FFF793FE054641F28837706880075F
:100E0000CDD4FFF78BFE401BB8424FF00300F5D95D
:100E1000ECE700002DE9F04381B0002800F0898064
:100E200042F20008C4F202080446D8F800000D4659
:100E300000F0070088420CD2D8F8000020F007002C
:100E40002843C8F80000D8F8000000F00700A842C6
:100E50006FD1206841F204098107C4F2020917D555
:100E6000410705D5D9F8001041F4E061C9F8001038
:100E7000010705D5D9F8001041F46051C9F80010F8
:100E8000D9F80010A26821F0F0011143C9F8001050
:100E9000C00745D1D8F8000000F00700A8420CD9DF
:100EA000D8F8000020F007002843C8F80000D8F860
:100EB000000000F00700A8423BD12068410707D599
:100EC000D9F80010E26821F4E0611143C9F800107C
:100ED000000708D5D9F80000216920F4605040EAE5
:100EE000C100C9F8000000F079F8D9F8001046F206
:100EF0006802C1F30311C0F60002515C40F27C02AB
:100F000020FA01F140F2B000C2F200000068C2F223
:100F100000021160FFF72AFE002001B0BDE8F08357
:100F20006068022809D0012829D159F8041C8903D6
:100F300007D4012001B0BDE8F08359F8041C8901F1
:100F4000F7D5D9F8001021F003010843C9F80000D3
:100F5000FFF7E4FD064641F2883700BFD9F80000EC
:100F6000616800F00C00B0EB810F93D0FFF7D6FD65
:100F7000801BB842F2D9032001B0BDE8F08359F8D4
:100F8000041C8907D5D5DCE740F27C00C2F20000E2
:100F90000068704780B5FFF7F7FF41F20401C4F223
:100FA0000201096846F27802C1F30221C0F600028C
:100FB000515CC84080BD000080B5FFF7E5FF41F2FD
:100FC0000401C4F20201096846F27802C1F3C221A9
:100FD000C0F60002515CC84080BD000041F2040C24
:100FE000C4F2020CDCF8003003F00C00082841F2D7
:100FF0000020C0F27A0018BF7047C3F383420AA1F1
:101000008A5CD90305D440F60010C0F23D0050437D
:101010007047DCF8001008A3C1F34041595C50430D
:10102000B0FBF1F0704700BF020304050607080992
:101030000A0B0C0D0E0F1010010200002DE9F041FB
:1010400082B0002800F0C4800446007841F2000617
:10105000C007C4F2020643D0706800F00C000428F8
:1010600017D0706800F00C00082802D17068C00327
:101070000FD465682DB1B5F5A02F10D0B5F5803F20
:1010800011D0306820F480303060306820F4802047
:101090000CE03068800323D5606808BB98E03068B6
:1010A00040F480203060306840F480303060FFF7DA
:1010B00035FD002D054610D03068800310D4FFF7B1
:1010C0002DFD401B6428F7D904E100BFFFF726FD82
:1010D000401B64284FF0030077D830688003F5D4B4
:1010E0002078800718D5706810F00C0F07D0706852
:1010F00000F00C00082826D17068C00323D43068A3
:10110000800702D52069012862D13068616920F02A
:10111000F80040EAC1003060207800073DD5A069A2
:1011200038B30020C4F242200121C0F88014FFF738
:10113000F5FC0546706A80072DD4FFF7EFFC401BD5
:101140000228F7D9C6E02069002840F20000C4F266
:10115000422000F0968001210160FFF7DFFC054688
:1011600030688007D1D4FFF7D9FC401B0228F7D99B
:10117000B0E00020C4F242200021C0F88014FFF744
:10118000CDFC0546706A800707D5FFF7C7FC401BFA
:101190000228F7D99EE000F02FFC207840071BD4EE
:1011A000E5698DB1706800F00C00082847D1012D69
:1011B0000ED07068216A00F480328A4208D1616AD8
:1011C00000F47010884203D1002002B0BDE8F08125
:1011D000012002B0BDE8F081F06910F0805808D11C
:1011E000F06940F08050F061F06900F080500190AB
:1011F000019847F20007C4F200073868C00510D410
:10120000386840F480703860FFF788FC054600BFFE
:101210003868C00505D4FFF781FC401B6428F7D966
:1012200058E0E5681DB1052D3CD0012D3ED0306A57
:1012300020F001003062306A20F0040039E000271D
:10124000C4F2422700203866FFF768FC022D0546ED
:101250000CD100BF3068800154D5FFF75FFC401B04
:1012600002284FF00300F5D9AFE700BF30688001D6
:10127000AAD5FFF753FC401B02284FF00300F5D915
:10128000A3E700210160FFF749FC054630688007AD
:101290007FF542AFFFF742FC401B02284FF00300EE
:1012A000F4D992E7306A40F004003062306A40F0CE
:1012B00001003062FFF732FC002D054641F288370D
:1012C00014D000BF306A800713D4FFF727FC401BFF
:1012D000B842F7D9032002B0BDE8F081FFF71EFC49
:1012E000401BB8424FF003003FF66FAF306A8007F3
:1012F000F4D4B8F1000F7FF453AFF06920F08050C0
:10130000F0614DE7206AB0F5803F05D17168A268B1
:1013100021F40031114371607168626A21F4741123
:1013200010430843706001203866FFF7F7FB04465E
:10133000306880013FF548AFFFF7F0FB001B022843
:101340004FF00300F4D940E746F60040C4F2000035
:1013500050F8210080B2704790B246F60042C4F2C5
:10136000000242F821007047B0B5002842D0044680
:10137000407C20B900202074204600F047F802206D
:101380006074204600F074F878BB204600F04AFBF9
:1013900058BB2268A068536846F62C41C4F200018D
:1013A00023F00703536018B14A6822F001024A6033
:1013B0000A6822F46072104308606068411C05D11D
:1013C00001200125FFF71AFCF0B1013821688A6875
:1013D00022F00F0242EA10428A60CA6860F30F02EC
:1013E0002046CA6000F036FB30B10125042060744D
:1013F0002846B0BD0120B0BD40F201100025A4F880
:101400000D000120E573F2E70420F0E710B590B07D
:1014100041F21C04C4F20204206840F080502060B5
:10142000206800F0805006900698FFF7E1FB2068E6
:1014300040F0006020602068012400F00060069009
:1014400006980420069000200D9006A80994FFF746
:10145000F5FD4FF48070019068460094FFF756FC4C
:1014600040F23C40C4F24220046010B010BD0000C5
:10147000B0B5A8B104460068416821F00801416098
:10148000FFF74CFB054600BF20684068000709D401
:10149000FFF744FB401BB0F57A7FF5D90320B0BDC0
:1014A0000120B0BD0020B0BD80B500F0EDFA80BDD8
:1014B0007047000070470000002804BF01207047FB
:1014C00010B5044690F83D0028B9002084F83C008F
:1014D000204600F00DF8022084F83D002068211D10
:1014E00000F050FB012084F83D00002010BD0000FA
:1014F000704700000068C16841F00101C160816867
:1015000001F00701062903D0016841F001010160E3
:10151000002070477047000010B50446006801695C
:10152000890744BFC1685FEA817138D420680169C6
:10153000490744BFC1685FEA41713CD42068016932
:10154000090744BFC1685FEA017141D4206801699D
:10155000C90644BFC1685FEAC16145D4206801691A
:10156000C9071CBFC1685FEAC1714AD1206801691F
:10157000090644BFC1685FEA016149D42068016976
:10158000490644BFC1685FEA416148D420680169E7
:10159000890644BFC1685FEA816147D410BD6FF01E
:1015A00002010161012121778069800745D0204631
:1015B000FFF7B0FF47E06FF00401016102212177DE
:1015C000806910F4407F41D02046FFF7A3FF43E03D
:1015D0006FF00801016104212177C06980073ED0C6
:1015E0002046FFF797FF40E06FF0100101610821EE
:1015F0002177C06910F4407F3AD02046FFF78AFF78
:101600003CE06FF001010161204600F03FF8ADE7DA
:101610006FF0800101612046FFF74AFFAEE76FF0EF
:1016200040010161204600F05DF8AFE76FF0200156
:1016300001612046FFF73EFF10BD204600F022F872
:10164000204600F021F8002020776FE7204600F0C8
:1016500019F8204600F018F8002020776EE72046A1
:1016600000F010F8204600F00FF8002020776DE71A
:10167000204600F007F8204600F006F8002020770A
:101680006CE700007047000070470000006841F2FE
:101690000001C4F20001884200D0704741F2F040DE
:1016A000C2F20000016847F6D5020131C2F2E962D8
:1016B0000160514348F6371241F661104FEAF101DB
:1016C000C0F24102C2F2000091424FF001010170EC
:1016D00088BF704741F65010C2F200000178013116
:1016E0000170704770470000002804BF0120704758
:1016F00010B5044690F8390028B9002084F8380065
:10170000204600F021F8242084F839002068C168C0
:1017100021F40051C160204600F0A0FA2068016960
:1017200021F490410161416921F02A014161C168C0
:1017300041F40051C16000202021E06384F8391099
:1017400084F83A1010BD0000B0B584B041F2180022
:10175000C4F20200016840F6000441F480410160D7
:101760000168C4F2010401F480410091009901680C
:101770006D4641F004010160016801F0040100912F
:101780000099016841F0040101600068294600F0F9
:101790000400009000984FF4007000900220019027
:1017A00001200290032003902046FFF7B7F84FF482
:1017B000806000900020019020462946FFF7AEF897
:1017C000252002210022FFF7FFF92520FFF7F8F975
:1017D00004B0B0BD2DE9F041044690F8390020284E
:1017E0000DD10E4600294FF0010050D01746002AB7
:1017F00008BFBDE8F08194F83800012802D102202A
:10180000BDE8F081012084F838000020E063212049
:101810001D4684F83900FFF781F9A784E784E18C3D
:10182000804661B92046402142462B4600F05EFAD0
:1018300038B30320BDE8F081E08C0028F2D0E08CC2
:1018400080210138E084A768204642462B4600F0FC
:101850004DFAB7F5805F0DD10028EAD130882169B3
:1018600022686FF35F200029506014BF01360236F2
:10187000E2E700BF0028DCD116F8010B21684860C0
:10188000DAE7202084F83900002084F83800BDE829
:10189000F0810000FEE7000080B586B00020CDE9B1
:1018A0000400CDE9020041F21800C4F20200016810
:1018B00041F004010160006802A900F004000190F9
:1018C00001984FF4004002900120049040F600007F
:1018D000C4F20100FFF722F806B080BD10B504463F
:1018E000A1F15000C0B2002100F05AF802341020DB
:1018F00040EA1410002100F053F804F00F0000211A
:1019000000F04EF810BD0000FEE700007047000038
:1019100000F0070080F00703042B28BF04234FF0DA
:10192000FF3C03380CFA03F338BF00209943814091
:101930000CFA00F022EA00000843704780B541F23B
:10194000F840C2F200004FF48061FEF714FC00F092
:1019500023F880BD80B518B1012805D1A72000E08B
:10196000A620002100F01CF8AF20002100F018F89C
:1019700080BD000010B528B1012818BF10BDA024FB
:10198000C02001E0A124C820002100F009F8204671
:10199000002100F005F810BD80B502F077FA80BD97
:1019A00070B5044640F60005481EC4F20105B0FAC1
:1019B00080F0420928461021FFF7AAF82846202186
:1019C0000022FFF7A5F80726E0B2C20928468021C9
:1019D000FFF79EF8284620210122FFF799F82846B4
:1019E00020210022FFF794F864003006A6F10106DA
:1019F000EAD170BD7047000081B040F27C00C2F2B5
:101A00000000006844F6D351C1F26201A0FB01015D
:101A1000480A009000BF0098411E00280091F9D1AB
:101A200001B07047B0B50446FFF778F8054600BF2F
:101A300020684168890607D4FFF770F8401BB0F5AD
:101A40007A7FF5D90320B0BD416841F010014160B3
:101A50000020B0BDB0B504460068416821F0100117
:101A60004160FFF75BF8054620684068800607D4B0
:101A7000FFF754F8401BB0F57A7FF5D90320B0BDCD
:101A80000020B0BD70470000B0B501380024B4EBB1
:101A9000106F1CBF0120B0BD4EF21005CEF2000544
:101AA00068604FF0FF300F2100F0DEF90720AC60D6
:101AB00028602046B0BD000080B5FFF735F8FEF77E
:101AC000F1FE80BD70B590B001AC00252046282104
:101AD0000F95CDE90D55CDE90B55FEF74CFB0120D7
:101AE00001904FF480300226CDE90205CDE908606F
:101AF0004FF4E0100A902046FFF7A0FA08B100BFAB
:101B0000FEE70F20CDE90B064FF480600E900BA886
:101B100002210D950F95FFF77DF900B1FEE710B09A
:101B200070BD000041F20000C4F202000168002212
:101B300041F0010101604168CFF6FF0211404160B0
:101B400001684FF6FF72CFF6F6621140016001683E
:101B500021F480210160416821F4FE0141604FF4CD
:101B60001F0181604EF60850CEF200004FF0006178
:101B70000160704780B541F28440C2F20000FFF777
:101B8000CBFC80BD10B540F6FF3E0368C4F2000EEA
:101B900043F2004C7045C4F2010C20DCB0F1804FE0
:101BA0002BD040F20042C4F20002904225D040F611
:101BB0000002C4F2000290421FD0704523DCB0F155
:101BC000804F2ED040F20042C4F20002904228D052
:101BD00040F60002C4F20002904222D025E040F616
:101BE0000042C4F20002904207D0604505D042F6A0
:101BF0000042C4F201029042DFD14A6823F0700330
:101C000013437045DBDD40F60042C4F2000290420F
:101C100007D0604505D042F60042C4F2010290426E
:101C200003D1CA6823F44073134323F080024B6945
:101C3000D1F800E08C681A4360450260C462C0F8C5
:101C400028E005D042F60042C4F20102904201D1E0
:101C5000096901630121416110BD000010B504460E
:101C60000068D4E902C22369016921F4405111439B
:101C70000161616943EA0C021143C26841F20C63DD
:101C80009A431143C1604169A26921F44071114333
:101C900043F60002C4F201029042416102D0FFF714
:101CA00079F901E0FFF788F962681921484391004A
:101CB000B0FBF1F048F21F51C5F2EB11A0FB01237C
:101CC0005A096FF0630302FB0300322303EB001099
:101CD000A0FB0101F02303EA5113206803EB021279
:101CE000C1F343111144816010BD00002DE9F041A2
:101CF0000446006800680840884202D10020BDE820
:101D0000F0811D460E4690465F1C04E02068006886
:101D10003040B042F2D0002FF8D02DB1FEF7FEFED9
:101D2000A0EB0800A842F1D92068C16821F4D07165
:101D3000C160416921F001014161202084F839002E
:101D400084F83A00002084F838000320BDE8F081D0
:101D500041F2C810C2F2000000680168890658BF4D
:101D600070474168C9B2416070470000FEE700005B
:101D70002DE9F04F83B00C46111A0546A3EB040081
:101D80008B460B4618BF4FF0FF3B48BF4B42002924
:101D90000646C8BF4FF0010B002818BF4FF0FF36B2
:101DA000029044BF474202970028C8BF012602980C
:101DB0004FF0000A8342C8BF1846019001304FF02F
:101DC00000094FF000080090E8B2E1B21F4600F0B1
:101DD0001BF83B4609EB07000299019F5144B0EB09
:101DE0000709D4BF81465D44B1EB070AD4BF8A46D8
:101DF000344408F10108009F1FFA88F08742E3D2BB
:101E000003B0BDE8F08F000041EA00023F2A88BF1E
:101E1000704701F0070201F0F80100EBC10041F248
:101E20000821C2F200014FF0010C0B5C0CFA02F227
:101E30001A430A5470470000002848BF704700F05A
:101E40001F01012202FA01F14EF200124009CEF206
:101E5000000242F8201070474EF60C50CEF20000FF
:101E60000068C0F3022070474EF6145300F00F02D2
:101E7000CEF2000309011A4400F16043B0F1FF3FC4
:101E8000C8BF03F564421170704700004EF60C5154
:101E9000CEF200010A684FF6FF031A4060F30A22EF
:101EA00042F0806040F0FD700860704741F2C4402D
:101EB000C2F2000001780131CAB2B43A18BF0A4632
:101EC0000270704780B541F2CC40C2F200008078C9
:101ED00046F24011013846F2C56242F21943C0B2DF
:101EE000C0F60001C0F60002C0F6000302F046FC96
:101EF00080BD000040F2940200EB4000C2F20002FC
:101F0000135A10440B8080788870704740F2940018
:101F1000C2F2000000210182C0E90011C0E90211F3
:101F20007047000080B50A8840F2940300EB40003F
:101F3000C2F200031A5289781844817001F076F9D0
:101F400080BD000080B501F071F980BD70B541F62B
:101F50003714C2F2000460782178451E41F228400F
:101F6000C2F20000807981F0020180F00100294373
:101F70000843000608BF0C25EEB2657001F01CF99D
:101F8000864288BF0546657070BD000070B582B09E
:101F900041F63716C2F20006317800204B1E0A2B9C
:101FA0008DF805003CD80B221520DFE803F03C1922
:101FB000474A060606060606060005397078C1EB94
:101FC000C102002802F1460006D046F2D602C9B28C
:101FD000C0F60002515C00E02D2105228DF80410AE
:101FE00041F2CC41C2F200010B784978C5B2591ACE
:101FF000082303EBC101CCB22846214601F042F888
:10200000307800F0FE00022804D1727812A101A8F5
:1020100003F040FA01A801212A46234601F044F8C2
:10202000002002B070BD70786FF07F01002808BFFB
:102030002E218DF8041005220720D1E70B222A203B
:10204000CEE770785021002808BF41218DF8041098
:1020500005223820C4E700BF2530326868750000CB
:1020600070B541F63714C2F200046078451CEEB238
:10207000657001F0A1F841F22841864288BF002531
:102080002078C2F20001897980F0020081F001011C
:1020900028430843000608BF0125657070BD000095
:1020A00080B591F800C086460020BCF1400F38BFD3
:1020B000012040EA0E0001284FF0000318BF80BD48
:1020C0008EF00102BCF1400F38BF01231A401346C5
:1020D000BEF1000F18BF4FF0FF33BCF1380F98BFAF
:1020E00013460CEB03020A7080BD000040F2920020
:1020F000C2F200000178382988BF013901707047A9
:1021000041F21840C2F200000078704741F22440CA
:10211000C2F200000078B0FA80F040097047000079
:1021200041F21C40C2F200000078704780B541F2D5
:102130002842C2F200029278D2B141F21842C2F2B1
:102140000002012313706FF03F0241F21C4300298B
:1021500018BF0022C2F200031A7041F22042C2F2FC
:102160000002106041F22440C2F20000017080BD04
:10217000002818BF804780BD10B541F21840C2F258
:1021800000000178012932D141F2244241F21C4180
:10219000C2F20002C2F2000113780A781BB1042ACD
:1021A00005D201230FE0FB2A05D9012324E0082AE8
:1021B00005D2032307E0F72A1AD903231CE00823DA
:1021C000102A38BF05231A44D3B2402B01D3002272
:1021D000027000780A7050B941F22044C2F2000443
:1021E0002068002808BF10BD80470020206010BD77
:1021F0000823EF2A88BF05231A44D3B2092BE6D956
:10220000E7E700002DE9F04141F2B010C2F2000012
:102210000121FFF799F841F2284880B241F23421B8
:10222000C2F2000800258842C8F80050C8F80450DF
:1022300047D140F20806C2F2000641F2B0143168FC
:10224000C2F200042046FFF77FF8716888F80000AA
:102250002046FFF779F8002818BF0120B16888F8F8
:1022600001002046FFF770F8002818BF0120F16830
:1022700088F802002046FFF767F8002818BF012001
:10228000316988F803002046FFF75EF8002818BF80
:102290000120716988F804002046FFF755F80028EE
:1022A00018BF0120B16988F805002046FFF74CF8F7
:1022B000F16988F806002046FFF746F888F807001D
:1022C0003FE041F2B014C2F200042046012141F285
:1022D0003422FFF741F840F20807C2F2000741F24A
:1022E00098163968C2F2000620460022C6E9005559
:1022F000B560F560FFF730F8796872882046FFF71F
:102300002BF8B968B2882046FFF726F8F968F288FA
:102310002046FFF721F8396932892046FFF71CF87B
:10232000796972892046FFF717F8B969B2892046A2
:10233000FFF712F8F969F2892046FFF70DF800F06F
:1023400009F898F800000D2824BF002088F8000044
:10235000BDE8F08180B541F22840012140F2001231
:10236000C2F20000C0F20111CFF60072C0E9001203
:1023700000F004F8FFF7CAFD80BD000070B541F21F
:102380002840C2F2000041F298154178C2F20005DF
:10239000C678698001798378EE802981417940F29D
:1023A00008060278AB808379C079C2F2000641F258
:1023B000B01469813168C2F20004E88120462A80A5
:1023C000AB81FEF7C9FF71686A882046FEF7C4FF3B
:1023D000B168AA882046FEF7BFFFF168EA88204668
:1023E000FEF7BAFF31692A892046FEF7B5FF716909
:1023F0006A892046FEF7B0FFB169AA892046FEF738
:10240000ABFFF169EA892046FEF7A6FF70BD000028
:1024100080B5FEF783FB80BD80B541F2CC40C2F2AF
:102420000000006A18B1804701F042F980BD01F058
:102430003FF901F03DF980BD80B50121FFF776FE3F
:1024400080BD000080B50021FFF770FE80BD000058
:1024500080B545F2510043F29D7145F2A10243F26D
:102460008943C0F60000C0F60001C0F60002C0F6C5
:10247000000302F0EDF841F2CC4045F2FD01C2F25A
:102480000000C0F60001816180BD0000002130B174
:1024900000F00102C0F3460000281144F8D1C8B290
:1024A0007047000041F21440C2F2000000210170A8
:1024B00041F20840C2F20000017041F20C40C2F249
:1024C0000000016041F21040C2F20000016070475C
:1024D00070B50546FFF79CFF41F21441C2F20001BE
:1024E0000978072945D841F21046C2F20006044691
:1024F0003068201ADFE801F00410253A3D3D4143E1
:10250000E5B3012001F06EFC41F20C40C2F2000084
:1025100000213460016070BD35B940F28401C2F21F
:1025200000010968884232D3002D69D040F28C0145
:10253000C2F200010968884220D9042001F052FC4F
:1025400070BD40F28401C2F2000109680DB18842F9
:102550001DD3884212D341F20C40C2F20000016840
:1025600001310160032001F03DFC70BDEDB101209F
:102570004DE0002001F036FC00E0CDB370BD40F22C
:102580008401C2F2000109684DB1884207D241F2CC
:102590000840C2F20000007801F024FC70BD8842BF
:1025A00038BF70BDFFF77EFF70BD40F28001C2F200
:1025B00000010968884241F20C40C2F2000007D8CD
:1025C00040F28802C2F20002016812689142D5D13D
:1025D00000680146022818BF0321012808BF0146F0
:1025E00041F23040C2F200000170FFF75BFF70BDA6
:1025F00041F23040C2F2000006210170072006E0DF
:1026000041F23040C2F2000000210170022001F0CE
:10261000E9FB346070BD000080B500F009F880BDB2
:1026200041F23443C2F20003986099619A627047A4
:1026300080B5FFF731F980BD80B501F091FB41F223
:102640007441C2F200010A78821AD2B20A2A38BF53
:1026500080BD087001F05EFD80BD000080B502F015
:1026600061FEFFF7E9FF00F033F980BD80B5FEF7AA
:1026700069FAFFF727FAFEF71FF941F2F840C2F2B4
:1026800000004FF48061FDF776FD01F02BFC00F0B7
:1026900041FF01F08BFDFFF7B5FDFFF7BDFF01F036
:1026A00065FB02F0E5FD45F24140C0F6000000F098
:1026B000FFF800F0F3F880BD41F2CC40C2F2000018
:1026C00041780278CB1D8A4238BF1146934298BFA9
:1026D000911F41707047000041F2CC40C2F20000EF
:1026E0000021C0E90311C0E90511C1617047000074
:1026F0002DE9F04F81B041F27540C2F2000090F830
:10270000009041F2774041F27842C2F20000C2F2FA
:102710000002017892F800B019B341F27940C2F298
:10272000000001786FF00502002908BF0A225A4410
:102730004FFA82FBBBF1FF3F3ADC002200294FF049
:10274000000B08BF6FF07F0B29D041F27643C2F235
:1027500000031B78012B27D141F27A43C2F2000318
:1027600021E041F27641C2F2000109786FF00202E5
:10277000002918BF032291445FFA89F2202A17D357
:1027800021B1012101704FF0200911E041F27A409E
:10279000C2F200004FF0000980F8009008E041F21A
:1027A0007743C2F200031A70B1FA81F1490901704E
:1027B000C9F3C40841F2F84AB8F1000FC2F2000AA6
:1027C00011D0AAF180040AF560754646803420468F
:1027D0008021FDF7D0FC28468021FDF7CCFC013E8E
:1027E000A5F18005F2D119F0070333D04FF0FF3087
:1027F000FF21012280269840D9409A4026FA03F30F
:1028000040F2FF3609F0F805A6EBC816B6B20AEB9F
:1028100005155644013D002415F8017F0134074099
:1028200017432F70377864B20F401F43B4F1FF3F56
:1028300006F80179F0DC41F27540C2F2000080F840
:10284000009041F27840C2F2000080F800B001B080
:10285000BDE8F08F5FEA0960EDD06FF07F00C9F14D
:102860004002A0EB0B0002F0F802C0B2120142EAF3
:1028700050005FFA8BF1504401225FFA89F4FDF7B2
:1028800073FC202CD7D00AEBC8107F21425C42F0A9
:102890000102425401394A1CF8D1CCE780B541F21B
:1028A0008040C2F200000068002818BF804780BD49
:1028B00041F28041C2F200010860704741F27C435E
:1028C000C2F200031968024608461A607047000009
:1028D000B0B582B001F044FA0446FFF74DFC41F276
:1028E0007C40C2F20000006841F27A45C2F2000565
:1028F00058B1297809B1804707E041F27641C2F228
:1029000000010978002908BF80472878012808BFFE
:10291000FFF7EEFE2878002808BFFFF7F1FB41F231
:102920002840C2F200004079A0B101F019FA001B62
:102930000130C0B24FF47A71B1FBF0F20DF1030433
:1029400006A1204602F0A6FD20460021642238237D
:1029500000F0AAFB00F0A4FB02B0B0BD257500009A
:102960004CF6CD41CCF6CC41A0FB0101C808704724
:1029700080B541F2CC41C2F2000109780246032041
:1029800000F0ECFD80BD000010B541F2CC41C2F278
:102990000001C97851B10446FFF7B2FB38B1FFF727
:1029A000B5FB1CB1002808BF10BDA04710BD002C0E
:1029B00018BFA04710BD000080B545F20140C0F629
:1029C0000000FFF775FFFFF769FF012080BD0000E1
:1029D00080B545F24140C0F60000FFF769FFFFF700
:1029E0005DFF012080BD000010B584B000F060F9EB
:1029F00002F03EF8044600F047F941F2C410C2F27A
:102A00000000007840F29101C2F20001002818BFD6
:102A10000120FFF745FB78B14FF0000C082047F28A
:102A20004322CDE9000CC0F6000200200021102353
:102A3000CDF808C000F070FA40F29001C2F2000137
:102A40000120FFF72DFB78B14FF0000C082046F273
:102A5000A002CDE9000CC0F60002142000210823DA
:102A6000CDF808C000F058FA204604B010BD0000B0
:102A70002DE9F04F83B0FFF719FA41F2C442C2F2D8
:102A8000000241F2AC101278C2F200000021016095
:102A900002EB420140F2B402C2F2000241F66814B5
:102AA00002EBC101C2F200040239A21E082300BFDA
:102AB00031F8037F013B11F8016C22F8037F02F823
:102AC000016CF5D1082141F2A81546F2E00641F665
:102AD000801841F6821941F6811A41F6831B016084
:102AE000C2F200050020C0F60006C2F20008C2F2E1
:102AF0000009C2F2000AC2F2000B2860010106EBD5
:102B000000107158406801EB410100EB4000625C2D
:102B10002144235C204449784078223A0139223B01
:102B2000471E88F8002089F800108AF80030D0B2DB
:102B3000DAB2C9B2FBB28BF80070FFF719F9286856
:102B400006EB0010D0E9011001EB410100EB400061
:102B5000625C2144235C204449784078223A013960
:102B6000223B471E88F8002089F800108AF80030C0
:102B7000D0B2DAB2C9B2FBB28BF80070FFF7F8F846
:102B8000286806EB0010D0E9021001EB410100EBD0
:102B90004000625C2144235C204449784078223A1A
:102BA0000139223B471E88F8002089F800108AF876
:102BB0000030D0B2DAB2C9B2FBB28BF80070FFF7C6
:102BC000D7F8286806EB00110001C968305801EBFE
:102BD000410100EB4000625C2144235C20444978C1
:102BE0004078223A0139223B471E88F8002089F8B4
:102BF00000108AF80030D0B2DAB2C9B2FBB28BF85A
:102C00000070FFF7B5F82968481C05292860FFF611
:102C100075AF41F2082400254020C2F20004CDE93E
:102C200000050020002122464023029500F074F99F
:102C300020464FF40071FDF79EFA00F075F802F09F
:102C400095F846F280020824C0F600023C200221DA
:102C50001023CDE90045029500F05EF9FFF746FA32
:102C600040F29200C2F20000017847F24322C0F61F
:102C7000000200201023CDE90045029500F04CF938
:102C8000002003B0BDE8F08F80B584B04FF0000C99
:102C9000082046F29002CDE9000CC0F600020020A8
:102CA00038211023CDF808C000F036F904B080BDFB
:102CB00070B58AB041F65015C2F20005287946F287
:102CC000BA01C0F6000109AE01EB80013046FDF704
:102CD00064FAA87946F6FF61C0F6000101EB8001B5
:102CE00008A8FDF75AFA0321EC7969710DF10E0578
:102CF000009007A1284632460323019402F0CAFB44
:102D0000284600211E22002300F0CEF90AB070BD33
:102D100025732025303268687520257320323025D0
:102D20003032686875000000F0B587B041F6501782
:102D3000C2F20007387946F2BA01C0F6000106ADCA
:102D400001EB80012846FDF728FAB87946F6FF61C5
:102D5000C0F6000105AE01EB80013046FDF71DFA1B
:102D60007B796C4616A120462A4602F093FB20464A
:102D7000002157221E23002500F096F920463146F7
:102D8000FDF70BFA00213C22232300F08DF943F2DA
:102D90003200ADF8000020460021402219238DF8B2
:102DA000025000F081F9FA7908A1204602F072FB86
:102DB0002046002143220F2300F076F907B0F0BD32
:102DC0002573202530326868750000002530326890
:102DD000687500002DE9F04784B00646037A407A12
:102DE000B77A00FB03F27568F17AC2F3C70404FBFB
:102DF00001527D1C96F800A096F80180EDB2022DDC
:102E00001CD3757BD5B100290CBF96F80C90A1F1AD
:102E10000109391A0439C9B20025009002915046BF
:102E20004146019500F078F870685FFA89F104FB7B
:102E30000102707A337ACDE9000502E00027CDE97E
:102E4000000750464146029700F066F804B0BDE81E
:102E5000F08700002DE9F04784B00646037A407AF7
:102E6000B77A00FB03F27568F17AC2F3C70404FB7A
:102E700001527D1C96F800A096F80180EDB2022D5B
:102E80001CD3757BD5B100290CBF96F80C90A1F12D
:102E90000109391A0E39C9B2002500900291504635
:102EA0004146019500F038F870685FFA89F104FB3B
:102EB0000102707A337ACDE9000502E00027CDE9FE
:102EC000000750464146029700F026F804B0BDE8DE
:102ED000F0870000B0B586B041F2CC40C2F20000ED
:102EE00044684FF02030CDE90400CDE90200CDE97F
:102EF00000002046FDF74AF96D46A5EB5000093069
:102F00002146FDF74AF9284600210022002300F05F
:102F1000CBF806B0B0BD00002DE9F04F8BB0149F88
:102F20001C46934688468146FFF7FAF80021B1EB2C
:102F3000D70F00F0A48016994044C2B20192411A02
:102F4000FA08CDE9022101F007013844C2B2C1F10B
:102F50000800002308910690049207E0059B029860
:102F60000133049A8342A34400F0898003981699A0
:102F700000EBC300C5B2002900F1080109910593D7
:102F800010D09542EAD80999019AC9B29142E5D385
:102F90004029E3D8019AAA4207D9511BFF2202FA1D
:102FA00001F80BE04FF0FF0808E0049A914291BF4E
:102FB0004FF0FF08891AFF2222FA01F80899002928
:102FC0004FF4786101EA00100A901FD13F2D1DD8FF
:102FD000002CC3D0002702E00137BC42BED007EB73
:102FE000090040B20028F7D41599C6B20BEB0700D0
:102FF00001F0D4F80A9941F2F8433144C2F20003D7
:103000005A5C00EA080010435854E5E7002CA5D0AC
:1030100009994FF4786000EA01100027079002E058
:103020000137BC429AD007EB090041B20029F7D41E
:1030300015995FFA80FA0BEB070001F0AFF83F2D0E
:1030400000EA08000BD80A9941F2F8465144C2F24E
:103050000006089B725C00FA03F31A437254099944
:10306000C9B23F29DCD8079941F2F8465144C2F26F
:103070000006069B725CD84010437054D0E70BB03A
:10308000BDE8F08F80B501F0F80100EB011041F2CE
:10309000F841C2F2000108441146FDF76CF880BD0A
:1030A00080B500F0F3FE80BD2DE9F04F83B09B4664
:1030B0000378CBB390460E46451C4FF00009002420
:1030C00005E000BF15F8013B09F1010963B3A3F165
:1030D0002000C9EBC90101EB080AC0B247F2530155
:1030E00000EB8000C0F600010A1808205FFA8AF79A
:1030F000CDE900063846594605230294FFF70CFF38
:10310000002EDFD05FEA0A6005D0AAF10100C0B24C
:10311000594601F07BFA7A2FD4D80AF10500C0B2E3
:10312000594601F073FACDE703B0BDE8F08F000017
:1031300010B541F63710C2F200000024047043F2CB
:10314000456043F29D7143F6E51243F28943C0F6B0
:103150000000C0F60001C0F60002C0F6000301F056
:1031600077FA41F2CC40C2F20000846110BD000049
:1031700041F2CC40C2F2000001788078C943084493
:10318000B0FA80F04009704710B50446017000F0B5
:10319000E7FD607010BD000080B582B0019041F283
:1031A000C810C2F2000001A901224FF47A73FEF7A1
:1031B00011FB019802B080BD41F63710C2F2000049
:1031C0000078032804BF3B20704702281CBF012061
:1031D000704741F22840C2F200008179172001298E
:1031E00008BF0C207047000041F63710C2F2000003
:1031F0000078411E062911D80120DFE801F00405FE
:103200000F0411131500704741F66010C2F2000060
:1032100001781720012908BF0C2070473B20704718
:103220001F2070470B207047632070472DE9F04F37
:1032300083B04FF25E3B4FF6FF78FF20052702ACCC
:10324000CFF6FF7B019003E03806A7F1010738D0E5
:10325000F8B22146FEF74EFE9DF90A00B0F1FF3F9D
:10326000F2DC9DF808509DF809605FFA80F94FF094
:10327000070A5FFA8AFA00BFBAF1000FE4D0AAF198
:10328000010A29FA0AF0C007F6D05FFA8AF2284646
:10329000314602F093F840F6A2418842594638BFC1
:1032A00041F6BD21084481B21FFA88F29142E0D272
:1032B00041F2F541C2F2000181F800A08046019779
:1032C000D7E741F2F4400199C2F20000017003B067
:1032D000BDE8F08F80B541F2F040C2F20000006816
:1032E0004BF2C531C9F2A211A0FB0112D10A4FF471
:1032F000616201FB120148F68900C8F68800A1FB53
:10330000000241F65010C2F200001423C3710823DA
:10331000A0F8053041F23B73C0F22063C0F80130E1
:1033200053091B01A3EB5212A1EB820241F2284187
:10333000C2F200018979027001F0CEFF80BD000069
:1033400080B546F2452243F2955310A1C0F6000223
:10335000C0F60003002001F011FA46F6450243F6DC
:1033600021030CA1C0F60002C0F60003012001F009
:1033700005FA46F2C56243F6393309A1C0F60002E8
:10338000C0F60003022001F0F9F980BD416C6172C2
:103390006D73000053657474696E677300000000FC
:1033A000457869740000000080B546F6452243F672
:1033B000451317A1C0F60002C0F60003002001F07B
:1033C000DDF946F6C50243F67D0314A1C0F60002FE
:1033D000C0F60003012001F0D1F946F6C51243F60C
:1033E000E90310A1C0F60002C0F60003022001F0BC
:1033F000C5F946F2456243F2ED530CA1C0F6000256
:10340000C0F60003032001F0B9F9FEF75BFD80BDB3
:1034100054696D652026206461746500536C656590
:1034200070000000536F756E640000004469737093
:103430006C61790010B582B0052820D8044641F6A9
:103440003710C2F20000007888B141F2CC40C2F2DD
:1034500000000078A0420AD141F21540C2F20000FB
:10346000817800888DF80610ADF8040003E001A90A
:103470002046FEF73FFD01A9204601F0C1FAFEF704
:1034800021FD02B010BD000080B501F0CDFA01F0C1
:10349000DDFA41F63410C2F20000007847F238221B
:1034A00047F23E21C0F60002C0F6000144F2CD13FF
:1034B000002818BF1146C0F600030520002201F0C5
:1034C0005DF9FEF7FFFC80BD80B501F06FF9FEF7F6
:1034D000F9FC80BD80B501F07BF9FEF7F3FC80BDFF
:1034E00080B501F0B3F9FEF7EDFC80BD38B10128DD
:1034F00018BF704741F2C540C2F2000003E041F23C
:10350000C740C2F2000080B5FFF73EFEBDE8804034
:103510007047000080B586B00020CDE90400CDE9F9
:10352000020041F21800C4F20200016841F01001EB
:103530000160006802A900F01000019001984FF4AA
:10354000005002900120CDE90300059041F20000F7
:10355000C4F20100FDF7E2F906B080BD80B541F686
:10356000F903C2F20003187041F6FA00C2F200003B
:10357000017041F2CC40C2F20000C36941F6F8008C
:10358000C2F20000002B027008BF80BD08469847B9
:1035900080BD000080B512A20620002101F066F86F
:1035A00043F6FD5043F2857144F2850243F2354300
:1035B000C0F60000C0F60001C0F60002C0F600032D
:1035C00001F046F841F60C1043F29551C2F20000AA
:1035D000C0F6000101F0B6F90020FEF733FF80BD10
:1035E0003C20414C41524D53203E000080B512A278
:1035F0000520012101F03AF843F6FD5043F2FD7138
:1036000044F2850243F2E143C0F60000C0F6000137
:10361000C0F60002C0F6000301F01AF841F62C10C3
:1036200043F2ED51C2F20000C0F6000101F08AF948
:103630000020FEF707FF80BD3C20444953504C4119
:1036400059203E0080B500F0D9FB41F2CC40C2F2D7
:1036500000000078042808D8012101FA00F010F0D9
:10366000150F08BF80BD00F0C9FB80BD10B582B04A
:1036700041F2CC40C2F20000007890B941F22840FB
:10368000C2F20000007801AC00EB8000C2B206A1DB
:10369000204601F0FFFE2046002138222823FFF7B4
:1036A00003FD002002B010BD2568687553000000BE
:1036B00080B543F61951C0F6000100200022FEF744
:1036C000AFFF43F2D160C0F60000FEF7B5FE80BD4B
:1036D00080B543F66930C0F60000FFF7EFF843F617
:1036E0004D5043F6195143F65532C0F60000C0F66E
:1036F0000001C0F60002FEF793FF12A20220012192
:1037000000F0B4FF43F6FD5043F2557144F28502D8
:1037100043F24133C0F60000C0F60001C0F60002DB
:10372000C0F6000300F094FF41F6FC0043F2D161C3
:10373000C2F20000C0F6000101F004F90020FEF71B
:1037400081FE80BD3C204D41494E204D454E5520C7
:103750003E00000080B541F6FC00C2F2000001F01E
:10376000DBF80120FFF704F980BD000080B541F6C9
:103770000410C2F2000001F0CFF80120FFF7F8F8C2
:1037800080BD000080B541F60C10C2F2000001F0CF
:10379000C3F8FFF7EDFCFFF7EBF880BD80B541F60D
:1037A0001410C2F2000001F0B7F8FFF7E1FCFFF7D8
:1037B000DFF880BD10B5FFF7DBFC0028044618BF1A
:1037C000FEF7DCFD41F61C10C2F2000001F0A4F887
:1037D0002046FFF7CDF810BD10B5FFF7C9FC002853
:1037E000044618BFFEF7CAFD41F62410C2F20000DD
:1037F00001F092F82046FFF7BBF810BD80B5FFF747
:10380000B7FC002818BFFEF7B9FD41F62C10C2F234
:10381000000001F081F8FFF7ABFCFFF7A9F880BDCD
:1038200080B512A20520012100F020FF43F6FD50D3
:1038300043F26D7144F2850243F2A933C0F60000F1
:10384000C0F60001C0F60002C0F6000300F000FF61
:1038500041F6041043F62101C2F20000C0F6000157
:1038600001F070F80020FEF7EDFD80BD3C205345CF
:103870005454494E4753203E0000000080B517A223
:103880000220012100F0F2FE43F6FD5043F2B57133
:1038900044F2850243F2C943C0F60000C0F60001BD
:1038A000C0F60002C0F6000300F0D2FE41F2CC40A8
:1038B00043F26D61C2F20000C0F60001816141F681
:1038C0001C1043F67D01C2F20000C0F6000101F0B9
:1038D00039F80020FEF7B6FD80BD00BF3C20534CF8
:1038E000454550203E00000080B513A20320012171
:1038F00000F0BCFE43F6FD5043F2D97144F285025C
:1039000043F2D543C0F60000C0F60001C0F6000245
:10391000C0F6000300F09CFE00F05AFF41F62410B0
:1039200043F6E901C2F20000C0F6000101F00AF816
:103930000020FEF787FD80BD3C20534F554E4420AC
:103940003E00000080B541F65010C2F20000016850
:10395000406841F65812C2F20002C2E9001041F27A
:103960002840C2F20000807941F66011C2F20001E5
:10397000087041F63410C2F200000021017015A257
:103980000620002100F072FE43F2456043F29D7173
:1039900043F6E51243F28943C0F60000C0F6000189
:1039A000C0F60002C0F6000300F052FE41F614100B
:1039B00043F64511C2F20000C0F6000100F0C2FF5C
:1039C00041F2CC40C2F20000012101700020FEF75C
:1039D00039FD80BD3C2054494D45202620444154AA
:1039E00045203E0080B500F04DFB41F2CC40C2F2D4
:1039F00000000078042808D8012101FA00F010F036
:103A0000150F08BF80BD00F03DFB80BDFEF72EFE08
:103A1000FEF724FEFCE7000070B582B00C46097882
:103A2000054620208DF806108DF8070001A800211A
:103A3000002601F051FC63789DF806209DF807C030
:103A4000681C10A1CDF800C001F024FD94F902001B
:103A50006FF07F01B0F1FF3FC8BF2E21297046F201
:103A6000D60105F10900C0F600012E74A278F240DB
:103A7000D20714BF8A5D2D2282550136072EF5D15B
:103A800002B070BD202530326868753A2530326842
:103A9000687525632000000070B582B041F65816A5
:103AA000C2F200060446B07946F6FF61C0F6000196
:103AB00001AD01EB80012846FCF76FFB7279F679C6
:103AC00003A120462B46009601F0E4FC02B070BD35
:103AD000202020253032686875202573203230255B
:103AE000303268687500000080B582B041F6581128
:103AF000C2F2000191F801C08B7891F803E00C222A
:103B000006A1BEF1200F08BF1822CDF800C0CDF8E5
:103B100004E001F0BFFC02B080BD00BF20202025E2
:103B20006868756872202530326868753A253032C9
:103B3000686875256300000080B5FEF7CDFD41F291
:103B4000CC40C2F200000021C1700162FEF7A6FE67
:103B500080BD000080B541F2CC40C2F20000406957
:103B6000FEF712FF012080BD10B541F2CC44C2F235
:103B70000004207A10B100F011F802E000F092F891
:103B80000020A169002908BF10BD00281CBF01202A
:103B900010BD8847002818BF012010BD2DE9F04155
:103BA00084B041F2CC45C2F20005287841F22842A7
:103BB000C2F20002A0EB80004021927801EB0011DC
:103BC00040F2A800C2F20000BAB10268914217DDCB
:103BD0008B1ADF1703EB9773012707EB9303DFB211
:103BE000102F28BF1023DBB21A444FF00008914277
:103BF000C4BF4FF00108114617E04FF0000814E071
:103C00004FF0000812DA531ADF1703EB97730127FE
:103C100007EB9303DFB2102F28BF1023DBB2D21AB9
:103C20009142BCBF4FF00108114601600668FFF7E2
:103C300051F946F6537200270824C0F600022E20E0
:103C40000E212423CDE900470297FFF765F946F6D8
:103C50002F72C0F600022E202A212423CDE900472E
:103C60000297FFF759F9A87898B1103E002706E0AF
:103C70000137A878F9B2814206F1300609D206F17F
:103C80001F009E28F4D8F9B2F2B20020FFF766FCBC
:103C9000EEE7297801200022FFF760FC404604B0DF
:103CA000BDE8F0812DE9F04F81B0FFF713F941F243
:103CB000CC49C2F2000999F8020099F8016007287E
:103CC00028BF072030445FFA80FB5E451ED24FF0CC
:103CD000080A0FF24008374609E000BFE2B20220AE
:103CE0002946FFF73BFC0137F8B258450ED299F848
:103CF0000010B81BFDB28D420AEBC004EED1E3B256
:103D0000404600210022FFF7CFF9E7E701B0BDE808
:103D1000F08F00BF3E00000080B5FEF7F1F910B152
:103D2000FEF7F4F948B141F2CC40C2F20000C1788C
:103D300029B10069002818BF8047012080BD0121FA
:103D4000C170FFF7B5FC012080BD000080B541F2D5
:103D5000CC40C2F20000C068FEF716FE012080BD14
:103D600041F2F040C2F200000068704710B582B026
:103D700041F21C00C4F20200016841F2844441F0A7
:103D8000100101600068C2F2000400F01000019010
:103D9000019841F20000C4F200004721002240F2E5
:103DA000E73384E80F008020A06120462261FDF700
:103DB00083FB362001210022FCF706FF3620FCF7AA
:103DC000FFFE2046FDF796FB02B010BD4CF6CD413C
:103DD000CCF6CC41A0FB0112D10801EB8101A0EB94
:103DE0004100704741F21441C2F200010A7841F2E9
:103DF0000843C2F200031A700870704780B541F2A0
:103E0000CC40C2F20000017882780131CBB29342FB
:103E100028BF00210170FEF74FFC80BDB0B584B013
:103E20000024CDE90244CDE9004400F0F5F801207A
:103E3000CDE90104032040F6000403904020C4F2C1
:103E400001046D46009020462946FCF767FD2020BE
:103E5000009020462946FCF761FD80200090204616
:103E60002946FCF75BFD1020009020462946FCF710
:103E700055FD0820009020462946FCF74FFD04B070
:103E8000B0BD000080B5FCF735FD80BD70B541F2D6
:103E9000F8450024C2F20005A4F15000C0B2002190
:103EA000FDF77EFD00200021FDF77AFD10200021A6
:103EB000FDF776FD4FF0FF36A81940780121FDF798
:103EC0006FFD01367F2EF7D10134082C05F18005F6
:103ED000E2D141F2F840C2F200004FF48061FCF7F9
:103EE0004AF970BD10B5FFF799FF40F60004C4F21F
:103EF0000104204608210022FCF70AFE204620216A
:103F00000122FCF705FE204640210022FCF700FEBE
:103F10003220FFF7B7FF204640210122FCF7F8FDD1
:103F2000AE200021FDF73CFD02200021FDF738FD09
:103F300010200021FDF734FD40200021FDF730FD69
:103F400081200021FDF72CFDCF200021FDF728FD69
:103F5000A1200021FDF724FDC8200021FDF720FD50
:103F6000A6200021FDF71CFDA8200021FDF718FD6B
:103F70003F200021FDF714FDD3200021FDF710FDA7
:103F800000200021FDF70CFDD5200021FDF708FDE4
:103F900080200021FDF704FDD9200021FDF700FD60
:103FA000F1200021FDF7FCFCDA200021FDF7F8FCF0
:103FB00012200021FDF7F4FCDB200021FDF7F0FCCE
:103FC00040200021FDF7ECFC20200021FDF7E8FC5B
:103FD00002200021FDF7E4FC8D200021FDF7E0FC2C
:103FE00014200021FDF7DCFCA4200021FDF7D8FC03
:103FF000A6200021FDF7D4FCAF200021FDF7D0FC66
:10400000AF200021FDF7CCFCFDF798FC002000213B
:10401000FDF764FC10BD000081B041F21800C4F24D
:104020000200016841F004010160016801F004012F
:1040300000910099016841F004010160016801F0FC
:10404000040100910099016841F0040101600168D8
:1040500001F0040100910099016841F00401016040
:10406000016801F0040100910099016841F0040128
:104070000160006800F004000090009801B07047F3
:104080000078704780B541F2CC40C2F2000002785F
:104090008178013AD3B28B42027024BF013901709A
:1040A000FEF70AFB80BD000010B5044640794FEAD8
:1040B00040006071B1B101203221FF22FFF716FAF2
:1040C000607940F001006071FEF7E0F9042808D340
:1040D000207920B9FFF744FE206001202071A079EB
:1040E00048B110BDC0B2FEF7D1F904289EBF002030
:1040F0002071A07110BDA0680028F2D08047002870
:1041000008BF10BD0120A07101203221FF22FFF75E
:10411000EDF910BD70B582B041F23040C2F200003E
:1041200004784FF001300190D4B118A0214601F07D
:10413000A1F9601E052813D8DFE800F003070B1271
:10414000120F00208DF804000AE000208DF8050011
:1041500006E000208DF8060002E000208DF8070040
:1041600041F23440C2F2000000F13004032501AEF8
:10417000705DB0FA80F041092046FFF795FF013DE0
:10418000681CA4F11004F3D102B070BD636C6963C4
:104190006B203D2025640D0A0000000010B50C4680
:1041A000FFF76EFF61424840C0B210BD80B541F2DA
:1041B000B01042F60001C2F20000C4F200014FF05C
:1041C000FF32C0E90012FDF7CFF880BD10B541F60F
:1041D0006010C2F20000007841F22841C2F20001F2
:1041E0008871FEF7CBF841F65814C2F2000420465D
:1041F00001F05CF841F65010C2F20000016840681E
:10420000C4E9001041F63410C2F20000012101702F
:1042100010BD000080B540F60000C4F201004FF46C
:104220000041FCF76FFCB0FA80F0400980BD00004F
:104230002DE9F04383B041F64D7043F2857142F2AF
:10424000610243F23543C0F60000C0F60001C0F63B
:104250000002C0F6000300F0FBF941F63718C2F285
:10426000000898F8000041F2CC4941F68D71C2F285
:104270000009C0F600010B28C9F8181048D8DFE87B
:1042800000F09EB150DF810606060606060641F6DE
:104290003512C2F2000241F215461378C2F200064E
:1042A00098F801100125B7789D4047EA05040029D8
:1042B00003F1010108BF27EA05041170E2B2C9B297
:1042C00022FA01F101F001010B28B47088F8011005
:1042D00021D199F8000041F21541C2F20001FDF729
:1042E00021FE43F6FD5043F2857144F2850243F20C
:1042F00035430024C0F60000C0F60001C0F60002FD
:10430000C0F6000388F8004000F0A2F9C9F8184090
:1043100003B0BDE8F083013088F8000003B0BDE8C9
:10432000F08341F22840C2F20000827998F801102F
:104330001720012A08BF0C20814298BF0846012A95
:1043400012D18DF8060041F63610C2F20000007856
:104350005021002808BF41218DF8071001A8002135
:1043600000F0BAFF9DF8060041F21541C2F20001CB
:1043700008704978032088F8000088F8011003B01D
:10438000BDE8F08341F21544C2F2000420785021C8
:104390008DF8020098F80100002808BF41218DF82F
:1043A00003106846002100F097FF9DF80200A178F5
:1043B0002070052088F8000001F001000DE041F2B6
:1043C000154499F80000C2F200042146FDF792FD61
:1043D000A178012088F80000C80988F8010003B01E
:1043E000BDE8F08398F8010041F21544C2F20004E0
:1043F000002818BF0120A178227801F07F0141EA4E
:10440000C01041F22841A0700220C2F2000188F8D9
:104410000000202089798DF80B0002A88DF80A2071
:1044200000F05AFF9DF80A00002188F8010020786A
:104430000B2841F6361088BF0121C2F2000021E0AE
:1044400041F22840C2F20000827998F8011041F24E
:104450001540C2F20000012A417006D141F6361023
:10446000C2F200000421007803E08078052100F00A
:10447000010088F8001088F8010041F63510C2F2FA
:1044800000000021017003B0BDE8F083B0B5FDF776
:10449000DFFF41F63714C2F200042078062809D065
:1044A000052817D020BB41F65811C2F20001497906
:1044B00005201AE041F65815C2F200056078E97946
:1044C000A87100F0DFFE6979814288BF6871E979DF
:1044D00007200AE0607841F65811C2F20001002876
:1044E00008BF012048718979062020706170B0BD35
:1044F000607841F65814C2F200046279A179E07143
:1045000000F072FE2071FEF713FEB0BDB0B5FDF7EE
:104510009FFF41F63715C2F20005287803282DD8F1
:10452000DFE800F002360B1641F66011C2F200011E
:104530000978012028706970B0BD41F6581168787B
:10454000C2F200014A78887003206A702870B0BDFA
:1045500041F66010C2F200000278697841F6581006
:10456000C2F20000012A417024D1C07804214138F0
:10457000B0FA80F0400929706870B0BD68784121B8
:10458000002841F6581008BF5021C2F2000012E086
:10459000697841F6601041F65814C2F20000C2F288
:1045A00000040170204600F097FEA0786870022099
:1045B0002870B0BD2021C170FEF7BAFDB0BD00006B
:1045C00041F22840C2F20000817881F0010181703F
:1045D0007047000010B541F22840C2F20000C179D6
:1045E0008A094031C17145F60F71D000C0F2FF0158
:1045F000D41E18BF21FA00F481200021FDF7D0F964
:10460000E0B20021FDF7CCF910BD000001F0F80187
:1046100000EB011041F2F841C2F20001FF220A54FE
:104620007047000080B541F22841C2F2000148788D
:1046300080F001004870FDF78DF980BD41F22840FF
:10464000C2F20000017981F00101017170470000A0
:1046500041F2CC4CC2F2000CCCF80C00CCF810109B
:10466000CCF81420CCF81C307047000070B514460C
:104670000D460646FEF730F841F2CC40C2F200008B
:1046800000210180711C81700572446070BD0000C2
:1046900070B584B0144641F6FA02C2F200021278F4
:1046A000824263D141F6F900C2F20000007803288B
:1046B0005CD8DFE800F0023D424E41F6F806C2F257
:1046C00000063078FBF7D7FE0021C4F2C021FBF7CB
:1046D0006DFDFBF7D5FE48F21F55C5F2EB1541F60F
:1046E000B863C3F6F9732A46FBF745FE41F6B86393
:1046F000C3F6E9732A46FBF797FDFBF7D4FE4FF0AC
:10470000FF410546FBF7A9FE90BB46F2C552307843
:10471000C0F6000200262021002C18BF2246CDE959
:104720000016102120230296FEF7F6FB04B070BDA0
:10473000084600210022382307E041F6F800C2F2C3
:1047400000000378084600210622FEF7ADFC04B005
:1047500070BD5BB141F6F800C2F20000007820B1F4
:104760001846FDF769FE04B070BD984704B070BDEF
:104770002846FBF785FE01F091FBC6E7F0B587B050
:10478000154641F6FA02C2F20002127882420BD1BB
:1047900001AF064638461C46FBF7FFFC304639465B
:1047A0002A462346FFF774FF07B0F0BD80B546F6F2
:1047B000451244F6751304A1C0F60002C0F60003CA
:1047C0000020FFF7DBFF80BD54696D656F757400D5
:1047D000B0B541F22844C2F20004E07946F6C5259E
:1047E00000F00300C0F6000544F6DD1305EBC0122F
:1047F00010A1C0F600030020FFF7C0FFE07944F6E7
:104800009D1300F00C0005EB40120BA1C0F6000355
:104810000120FFF7B3FFE07944F6BD1300F030004C
:1048200005EBC00206A1C0F600030220FFF7A6FFB9
:10483000B0BD00BF55490000416C61726D7300004E
:10484000486F7572206265657073000010B541F2A3
:104850002844C2F20004E07946F2C53100F0C000FD
:10486000C0F6000144F2D55301EB40021EA1C0F690
:1048700000030020FFF782FF46F2457244F22563F1
:104880001CA1C0F60002C0F600030120FFF776FF6E
:1048900046F2C57244F65D1318A1C0F60002C0F6D8
:1048A00000030220FFF76AFFA07846F2C521C0F698
:1048B000000144F2C15301EBC01212A1C0F6000383
:1048C0000320FFF75BFF207946F24511C0F6000197
:1048D00044F23D6301EBC0120DA1C0F600030420B9
:1048E000FFF74CFF10BD00BF4272696768746E65C8
:1048F00073730000496E766572740000526F7461C4
:1049000074650000416E696D6174696F6E730000BB
:104910004C4544730000000010B50446FEF728FC27
:1049200040B100202070606841F2CC41C2F2000129
:10493000086210BD41F2CC40C2F200000078207045
:1049400010BD000041F2CC42C2F20002136A8B4259
:1049500018BF4360007811621070704780B541F253
:104960002841C2F20001C87880F00100C870FDF74C
:1049700001F880BD41F22840C2F200000178013107
:10498000CAB20C2A88BF0021017070470130C1B241
:10499000032988BF0020C0B270470000B0B541F2C3
:1049A0002844C2F20004E579C5F38100FFF7EEFF69
:1049B00005F0F30160F38301E171B0BDB0B541F2E0
:1049C0002844C2F20004E579C5F30110FFF7DEFFC9
:1049D00005F0CF0160F30511E171B0BDB0B541F252
:1049E0002844C2F20004E57905F00300FFF7CEFF8A
:1049F00000F0030005F0FC010844E071B0BD0000C8
:104A0000B0B586B00DF1070504462846FFF704F857
:104A100044F23123C0F60003204629460022FFF766
:104A200037FE06B0B0BD000010B586B00DF106042B
:104A30002046FFF731F844F28D43C0F60003012011
:104A400021460022FFF724FE06B010BD10B586B047
:104A50000DF107042046FFF747F844F20D53C0F666
:104A60000003032021460022FFF712FE06B010BD0E
:104A70002DE9F04F89B041F22840C2F20000807861
:104A800041F64D1541F6501741F63F1841F63D1BD2
:104A900041F64B190028C2F20005C2F20007C2F22B
:104AA0000008C2F2000BC2F2000900F09E8041F63D
:104AB000491AC2F2000A38789AF8001088425ED08B
:104AC000002089F800002870B87801218BF80010C8
:104AD000FDF746FF41F6391BC2F2000B9BF80010B0
:104AE00004460846FDF73CFF211A18BF0121B8789B
:104AF00088F80010FFF76AF99BF800100446084692
:104B0000FFF764F9211A18BF0121787888F801109D
:104B1000FDF726FF41F63B16C2F200063178044647
:104B20000846FDF71DFF211A18BF0121787888F883
:104B30000210FFF74BF9317804460846FFF746F9B3
:104B4000211A18BF0121387888F80310FDF708FFF3
:104B50009AF8001004460846FDF702FF201A18BF15
:104B60000120B97888F8040038787A788BF800103A
:104B700041F63D1BC2F2000B32708AF800009BF830
:104B8000000001283BD199F80000042801D201213E
:104B900009E0072806D3112801D2052103E01728D0
:104BA00080F0E0800321084489F8000099F80000B3
:104BB0001C2824BFFF2089F800002878022805D38C
:104BC0000E2801D2032102E0142802D80121084452
:104BD00028702878142824BFFF20287028781528EA
:104BE0000DD399F800001D2809D3002089F8000092
:104BF00028708BF80000C8F8000088F8040041F61F
:104C00006840ADF8140046F67770C0F600000690D4
:104C100041F20B00ADF81C00297838788DF81E1091
:104C2000FDF79EFE8DF81F0098F8040005AC0525E1
:104C30008DF8210020468DF82050FEF7CBF838780B
:104C400074218DF81410FFF7C1F88DF81F009BF840
:104C5000000009268DF8210020468DF82060FEF71F
:104C6000B9F841F61300ADF81C0046F6C540C0F691
:104C7000000099F80010069078788DF81E1041F227
:104C80003C41ADF81410FDF76BFE8DF81F0098F84D
:104C900002008DF820508DF821002046FEF79AF88A
:104CA000787853218DF81410FFF790F88DF81F00D5
:104CB00098F803008DF820608DF821002046FEF75B
:104CC00089F8B87801218DF81410FDF749FE8DF8A8
:104CD0001F0098F800008DF820508DF82100204624
:104CE000FEF778F8B87818258DF81450FFF76EF8AD
:104CF0008DF81F0098F801008DF820608DF82100D4
:104D00002046FEF767F841F2F040C2F2000000686A
:104D100044F6D351C1F26201A0FB011291094FF494
:104D20007A7201FB1200B0F5FA7F0CD946F2A802A4
:104D30000027C0F60002312014210623CDE90057D8
:104D40000297FEF7E9F85020ADF812000DF11200BD
:104D5000002168221423FEF7A7F99BF8000009B090
:104D6000BDE8F08F1C287FF612AF1FE72DE9F04F4A
:104D700085B041F22840C2F20000807841F64E171B
:104D800041F6501841F6441B41F63E1541F64C19C8
:104D90000028C2F20007C2F20008C2F2000BC2F201
:104DA0000005C2F2000976D041F64A1AC2F2000AA2
:104DB00098F800009AF80010884263D0002089F823
:104DC0000000387098F8020001212970FDF7C8FD35
:104DD00041F63A12C2F2000211780446084616461D
:104DE000FDF7BEFD211A18BF012198F802008BF8CB
:104DF0000010FEF7EBFF317804460846FEF7E6FFA9
:104E0000211A18BF012198F801008BF80110FDF755
:104E1000A7FD41F63C16C2F200063178044608466A
:104E2000FDF79EFD211A18BF012198F801008BF8AB
:104E30000210FEF7CBFF317804460846FEF7C6FFA6
:104E4000211A18BF012198F800008BF80310FDF714
:104E500087FD9AF8001004460846FDF781FD201AE8
:104E600018BF01208BF8040098F8000098F8021091
:104E700098F8012041F63A13C2F20003197032701B
:104E80008AF800002878012844D199F80000042805
:104E90000BD2012113E0002089F80000387028703F
:104EA000CBF800008BF8040034E0072806D3112863
:104EB00001D2052103E0172880F0C68003210844B1
:104EC00089F8000099F80000262824BFFF2089F8FF
:104ED00000003878022805D30E2801D2032102E011
:104EE0001E2802D801210844387038781E2824BFB3
:104EF000FF20387038781F280CD399F80000272835
:104F000008D3002089F8000038702870CBF8000022
:104F10008BF8040043F23210ADF8040046F67770C7
:104F2000C0F60000029041F20B00ADF80C00397899
:104F300098F800008DF80E10FDF712FD8DF80F00A7
:104F40009BF8040001AC05278DF8110020468DF870
:104F50001070FDF77FFF98F8000041218DF80410D4
:104F6000FEF734FF8DF80F00287809268DF8110020
:104F700020468DF81060FDF76DFF41F61300ADF887
:104F80000C0046F6C540C0F6000099F800100290EB
:104F900098F801008DF80E1042F65001ADF804109B
:104FA000FDF7DEFC8DF80F009BF802008DF8107005
:104FB0008DF811002046FDF74DFF98F801006E2591
:104FC0008DF80450FEF702FF8DF80F009BF80300E8
:104FD0008DF810608DF811002046FDF73BFF98F822
:104FE00002004FF4A871ADF80410FDF7B9FC8DF87C
:104FF0000F009BF800008DF810708DF8110020460E
:10500000FDF728FF98F802008DF80450FEF7DEFE49
:105010008DF80F009BF801008DF810608DF81100DD
:105020002046FDF717FF98F8030000218DF80200D5
:1050300000208DF803000DF1020068221423FEF712
:1050400033F805B0BDE8F08F26287FF622AF39E7A8
:1050500010B541F63714C2F2000460780138010639
:1050600060700FD12078022808D141F66011C2F299
:1050700000010978012901D10C2002E0052801D1A5
:105080001F206070FEF7B0F86178814288BF6070C1
:1050900041F63410C2F200000021017010BD000082
:1050A00070B541F63714C2F200046078451CEEB2C8
:1050B0006570FEF799F8864288BF0025280665705E
:1050C00015D141F66011C2F200012078097880F014
:1050D000020281F0010111430538B1FA81F1B0FA01
:1050E00080F04909400908431CBF0120607041F667
:1050F0003410C2F200000021017070BD70B582B0A2
:1051000041F63716C2F2000630780138062864D816
:105110000E2210241C25DFE800F004080C101B14DC
:1051200018001C2220241B2512E00E2220243F25DB
:105130000EE00E22202454250AE00E2220246225AF
:1051400006E011221024312502E00E2210245B25F6
:1051500028462146FDF796FF307801280FD0042815
:1051600022D006282CD1707846F6FF61C0F60001E7
:1051700001EB80010DF10300FBF70FF826E07078DA
:10518000312100284FF0320008BF322108BF3420FF
:105190008DF8040047F26820ADF8050000208DF876
:1051A00003108DF8070011E07078412100284FF0BE
:1051B000000008BF50218DF803108DF8040005E0B1
:1051C000727807A10DF1030000F064F90DF10300FE
:1051D00001212A462346FDF767FF002002B070BD7B
:1051E0002530326868750000B0B50131C9B21723A7
:1051F00001FB03FC48F63963C3F6E303ACFB033C55
:1052000000F5FA6E47F6E12303297146CAF61463E6
:1052100038BF00F2CF7181FB033448F21F53C5F24F
:10522000EB13A1FB033528BF00F1CE0E0EEB0200FD
:105230004FEA5C02631103EBD47302EB9101194452
:10524000C0B201EBD511084442F293410430C9F2D7
:10525000492180FB011211188A1002EBD171A1EBD8
:10526000C1010844411E000608BF0621C8B2B0BDF6
:1052700080B500F09DF880BD00F00300B0FA80F02A
:105280004009704710B506A2145C012805D10846F4
:10529000FFF7F2FF002818BF1D24204610BD00BFF5
:1052A0001F1C1F1E1F1E1F1F1E1F1E1F80B50168F3
:1052B000426841F65010C2F20000C0E9001241F20B
:1052C0002841C2F2000189790022027000F004F83E
:1052D000FCF738FE80BD00008278C378012909D12F
:1052E000202B18BF70470C2A10D318BF0C3A50213E
:1052F000134613E00C2A08BF412B0DD0502B134648
:1053000008BF0C330C2A28BF134606E0002A08BF4A
:105310000C224121134601E000232021C17083703B
:1053200070470000F0B581B041F66110C2F2000094
:105330000178D9B341F65016C2F200063278002146
:105340003C2A017032D1707831700130C1B23C29F1
:1053500070702BD1B07800270130C1B21829777056
:10536000B07023D1B579F47928462146FFF78AFF3A
:10537000717901300131CAB29042B770717103D1B5
:10538000681CB07101207071B0790D2807D101201F
:10539000B071601CC1B2643918BF0146F171307937
:1053A0000130C1B2073918BF0146317101B0F0BDFB
:1053B00080B5FDF78FFF002080BD0000C0EB00101E
:1053C00001EB80004FF4B46102FB010080B2704732
:1053D00080B545F20140C0F60000FDF769FAFDF71F
:1053E0005DFA012080BD000080B545F24140C0F665
:1053F0000000FDF75DFAFDF751FA012080BD0000C5
:1054000080B541F22840C2F200000021417142F60D
:105410007120C0F60000FDF751FA45F2E93043F67D
:10542000195142F6D112C0F60000C0F60001C0F6D4
:105430000002FDF7F5F800200021FCF777FE80BDA3
:1054400080B542F6E910C0F60000FDF737FA45F2E4
:10545000D13043F6195142F6B912C0F60000C0F639
:105460000001C0F60002FDF7DBF800200021FCF788
:105470005DFE80BD0FB4054B10B503A9044A029828
:1054800000F066FB10BC5DF814FB000099310008C9
:10549000000000200FB4084B10B504A902AA03981D
:1054A00000F056FB044602A9002000F0F2FC204662
:1054B00010BC5DF814FB0000935E0008490050EA40
:1054C000C12018BF04204A0D18BF40F0010040F26F
:1054D000FF72B2EB515F08BF40F00200012808BF25
:1054E000052070472DE9F74F144694B00021C4E918
:1054F00002111599079121F00045C9498D4206DC3A
:105500001599C4E9000117B00020BDE8F08FC54926
:10551000DFF814A3A9423CDD0799C44E0029C44F0B
:10552000C44A1599534619DDFAF71FFF554506D0B1
:10553000C14AC24BFAF719FFC4E900010AE04FF073
:10554000D352BE4BFAF711FF32463B46FAF70DFF36
:10555000C4E9000117B00120BDE8F08FFAF764FE3E
:10556000554506D0B44AB54BFAF75EFEC4E90001D2
:105570000AE04FF0D352B14BFAF756FE32463B46A3
:10558000FAF752FEC4E9000117B04FF0FF30BDE852
:10559000F08FAB49A942159978DB21F00041834691
:1055A0008846A84AA84BFAF7E6FE0022A74BFAF76E
:1055B0003BFEFBF726F90990FBF705F906460F4677
:1055C0009C4A5346FAF7D7FE43465A46FAF7D0FEAE
:1055D00080468A46984A994B30463946FAF7CBFEC0
:1055E0002A0D01250B9242465346FAF7C1FE032DC0
:1055F000C4E9000139D00B98C1F30A51401A05EBF8
:1056000045111139814230DA9148C346784400EBA4
:105610000510CDF80CA00C90D0E900233046394697
:10562000FAF7A9FE02460B460491069058460399E4
:10563000FAF79BFE80468A4602460B465846039977
:10564000FAF793FE049B069AFAF78FFE83460C98AE
:1056500003913946D0E902233046FAF78CFE5A46C8
:10566000039BFAF782FE6D1CBDE707980028A2BFD6
:10567000099817B0BDE8F08F616881F00041616062
:10568000099817B04042BDE8F08FFFE784461598AF
:10569000C1F31301C0F30A50A0F2F5304FEA6018CD
:1056A00000F01F06C6F1200013900020069007901E
:1056B00041F4801E05206D4676B1664A08EB000174
:1056C0007A4452F8213002EB8101B3404A681399C1
:1056D00022FA01F1194305E05F4908EB0002794421
:1056E00051F82210A1FB0E27A1FB0C131A449A4279
:1056F00034BF0123002303EB070A05EB8003D3E942
:1057000001B70F448F4234BF0121002193448B44E1
:1057100011B1934502D903E0934501D2012100E084
:105720000021C3E901B7514445F82010011EA0F142
:105730000100C1DC0298059F00F10050800F12901B
:105740000298DDE903568000FBF73DF883462846C2
:105750000D91FBF749F86FF01D02FBF71DF8CDE93D
:105760000E013046FBF740F86FF03D02FBF714F8EE
:1057700080468A463846FBF737F86FF05D02FBF744
:105780000BF80746424653461191FAF74DFDDDE905
:105790000E23FAF749FD5A460D9BFAF745FD002501
:1057A0000E465A4628460D9BFAF7DFFDDDE90E232B
:1057B000FAF7DBFD42465346FAF7D7FD3A46119B0E
:1057C000FAF7D6FDDFF898A0244A5346FAF7D3FD3E
:1057D00007468846234A244B31462846FAF7CBFD34
:1057E0003A464346FAF720FD074688464FF0A8425E
:1057F000534631462846FAF7BEFD3A464346FAF785
:1058000013FD159A12F0004F04D0129A81F0004156
:1058100052421292C4E90001129817B0BDE8F08F0D
:10582000FB21E93F7CD90240FB21F93F7370032E35
:105830008A19A33B000040543163621A61B4D03D21
:10584000FB21394183C8C96D305FE43F0000E03F70
:1058500060090000DC080000BE080000182D445458
:10586000FB21F93D3326A611460B113C2DE9FF4DD6
:1058700021F0004807460C46B8F1795F08DAFAF7DC
:10588000C0FF002801BF0020324904B0BDE8F08D00
:105890003A46234610461946FAF76DFD054602467C
:1058A0002D480E460B460621784400F05DF82A4646
:1058B0003346FAF760FDDDE9022382468B4638461F
:1058C0002146FAF758FD04460F4652465B462846E5
:1058D0003146FAF750FD22463B46FAF746FD0746A9
:1058E0008A464FF0FF3228463146FAF755FF1B4AE9
:1058F00090450ADA3A465346FAF737FD04B00022DB
:10590000BDE8F04D134BFAF733BD154A4245A8BF29
:10591000A8F500154FF00004B8BF124D22462B46E3
:10592000FAF723FD0646884622462B460020094901
:10593000FAF71BFD04460D463A46534630464146AB
:10594000FAF713FD04B022462B46BDE8F04DFAF7F6
:105950000FBD00000000F03F940600003333D33F3A
:105960000000E93F0000D23F2DE9F0414F1E00EB5F
:10597000C7010446D1E9000115461E4637F006026C
:105980000DD02A463346FAF7F6FC7F1E04EBC70318
:10599000D3E90023FAF748FC37F00602F1D1022FD1
:1059A00025D0042F13D0062F18BFBDE8F0812A465A
:1059B0003346FAF7E0FCD4E90A23FAF735FC2A4625
:1059C0003346FAF7D8FCD4E90823FAF72DFC2A4627
:1059D0003346FAF7D0FCD4E90623FAF725FC2A4629
:1059E0003346FAF7C8FCD4E90423FAF71DFC2A462B
:1059F0003346FAF7C0FCD4E90223FAF715FC2A462D
:105A00003346FAF7B8FCD4E90023BDE8F041FAF7D1
:105A10000BBC00002DE9FF4D054621F0004084B08D
:105A20000C46B0F1795F0BDA2846FFF747FD0428F2
:105A300008BF00F06FF8284608B02146BDE8F08D99
:105A40002A460B461046FAF796FC06460F462A46AB
:105A50002346FAF790FC804626488A4632463B4663
:105A600005217844FFF780FF83461098029160B3C8
:105A7000214A224B40465146FAF77DFCCDE9000110
:105A80005A4640465146029BFAF775FC82468846C4
:105A9000DDE906014FF0FF32FAF77EFE524643463B
:105AA000FAF763FC32463B46FAF765FCDDE906236C
:105AB000FAF75BFCDDE90023FAF757FC08B02A4649
:105AC0002346BDE8F04DFAF753BC0B465A46304624
:105AD0003946FAF750FC084A084BFAF7A5FB42464C
